{
  "contractName": "ApplyCV",
  "abi": [
    {
      "inputs": [
        {
          "internalType": "uint256",
          "name": "",
          "type": "uint256"
        }
      ],
      "name": "cvs",
      "outputs": [
        {
          "internalType": "address",
          "name": "studentOwner",
          "type": "address"
        },
        {
          "internalType": "address",
          "name": "businessOwner",
          "type": "address"
        },
        {
          "internalType": "string",
          "name": "jobTitle",
          "type": "string"
        },
        {
          "internalType": "string",
          "name": "coverLetter",
          "type": "string"
        }
      ],
      "stateMutability": "view",
      "type": "function"
    },
    {
      "inputs": [
        {
          "internalType": "uint256",
          "name": "",
          "type": "uint256"
        }
      ],
      "name": "recruits",
      "outputs": [
        {
          "internalType": "address",
          "name": "businessOwner",
          "type": "address"
        },
        {
          "internalType": "string",
          "name": "jobTitle",
          "type": "string"
        },
        {
          "internalType": "string",
          "name": "jobDescription",
          "type": "string"
        }
      ],
      "stateMutability": "view",
      "type": "function"
    },
    {
      "inputs": [
        {
          "internalType": "uint256",
          "name": "",
          "type": "uint256"
        }
      ],
      "name": "reviews",
      "outputs": [
        {
          "internalType": "address",
          "name": "studentOwner",
          "type": "address"
        },
        {
          "internalType": "address",
          "name": "businessOwner",
          "type": "address"
        },
        {
          "internalType": "string",
          "name": "content",
          "type": "string"
        }
      ],
      "stateMutability": "view",
      "type": "function"
    },
    {
      "inputs": [
        {
          "internalType": "address",
          "name": "_studentOwner",
          "type": "address"
        },
        {
          "internalType": "address",
          "name": "_businessOwner",
          "type": "address"
        },
        {
          "internalType": "string",
          "name": "_jobTitle",
          "type": "string"
        },
        {
          "internalType": "string",
          "name": "_coverLetter",
          "type": "string"
        }
      ],
      "name": "addCV",
      "outputs": [],
      "stateMutability": "nonpayable",
      "type": "function"
    },
    {
      "inputs": [
        {
          "internalType": "address",
          "name": "_businessOwner",
          "type": "address"
        }
      ],
      "name": "getCV",
      "outputs": [
        {
          "internalType": "address[]",
          "name": "",
          "type": "address[]"
        },
        {
          "internalType": "address[]",
          "name": "",
          "type": "address[]"
        },
        {
          "internalType": "string[]",
          "name": "",
          "type": "string[]"
        },
        {
          "internalType": "string[]",
          "name": "",
          "type": "string[]"
        }
      ],
      "stateMutability": "view",
      "type": "function"
    },
    {
      "inputs": [
        {
          "internalType": "address",
          "name": "_businessOwner",
          "type": "address"
        },
        {
          "internalType": "string",
          "name": "_jobTitle",
          "type": "string"
        },
        {
          "internalType": "string",
          "name": "_jobDescription",
          "type": "string"
        }
      ],
      "name": "addRecruit",
      "outputs": [],
      "stateMutability": "nonpayable",
      "type": "function"
    },
    {
      "inputs": [
        {
          "internalType": "address",
          "name": "_businessOwner",
          "type": "address"
        }
      ],
      "name": "getRecruit",
      "outputs": [
        {
          "internalType": "string[]",
          "name": "",
          "type": "string[]"
        },
        {
          "internalType": "string[]",
          "name": "",
          "type": "string[]"
        }
      ],
      "stateMutability": "view",
      "type": "function"
    },
    {
      "inputs": [
        {
          "internalType": "address",
          "name": "_studentOwner",
          "type": "address"
        },
        {
          "internalType": "address",
          "name": "_businessOwner",
          "type": "address"
        },
        {
          "internalType": "string",
          "name": "_content",
          "type": "string"
        }
      ],
      "name": "addReview",
      "outputs": [],
      "stateMutability": "nonpayable",
      "type": "function"
    },
    {
      "inputs": [
        {
          "internalType": "address",
          "name": "_studentOwner",
          "type": "address"
        },
        {
          "internalType": "address",
          "name": "_businessOwner",
          "type": "address"
        }
      ],
      "name": "getReview",
      "outputs": [
        {
          "internalType": "address",
          "name": "studentOwner",
          "type": "address"
        },
        {
          "internalType": "address",
          "name": "businessOwner",
          "type": "address"
        },
        {
          "internalType": "string",
          "name": "content",
          "type": "string"
        }
      ],
      "stateMutability": "view",
      "type": "function"
    }
  ],
  "bytecode": "0x608060405234801561001057600080fd5b50611f14806100206000396000f3fe608060405234801561001057600080fd5b50600436106100935760003560e01c8063ce1ec5bb11610066578063ce1ec5bb1461014c578063cee5c7f31461017d578063dc1e475f14610199578063e83ddcea146101b5578063e9daa70a146101e757610093565b80630b5e50ed14610098578063381a3bf7146100ca5780637aedcde5146100fd578063ae8f00d314610130575b600080fd5b6100b260048036038101906100ad91906113b4565b610219565b6040516100c1939291906114bb565b60405180910390f35b6100e460048036038101906100df919061152c565b610383565b6040516100f49493929190611723565b60405180910390f35b610117600480360381019061011291906113b4565b610849565b6040516101279493929190611784565b60405180910390f35b61014a6004803603810190610145919061190c565b6109d9565b005b6101666004803603810190610161919061152c565b610af6565b60405161017492919061197b565b60405180910390f35b610197600480360381019061019291906119b2565b610de9565b005b6101b360048036038101906101ae9190611a3d565b610ebf565b005b6101cf60048036038101906101ca91906113b4565b610ff9565b6040516101de93929190611adc565b60405180910390f35b61020160048036038101906101fc9190611b1a565b6110fb565b60405161021093929190611adc565b60405180910390f35b6001818154811061022957600080fd5b90600052602060002090600302016000915090508060000160009054906101000a900473ffffffffffffffffffffffffffffffffffffffff169080600101805461027290611b89565b80601f016020809104026020016040519081016040528092919081815260200182805461029e90611b89565b80156102eb5780601f106102c0576101008083540402835291602001916102eb565b820191906000526020600020905b8154815290600101906020018083116102ce57829003601f168201915b50505050509080600201805461030090611b89565b80601f016020809104026020016040519081016040528092919081815260200182805461032c90611b89565b80156103795780601f1061034e57610100808354040283529160200191610379565b820191906000526020600020905b81548152906001019060200180831161035c57829003601f168201915b5050505050905083565b6060806060806000808054905067ffffffffffffffff8111156103a9576103a86117e1565b5b6040519080825280602002602001820160405280156103d75781602001602082028036833780820191505090505b5090506000808054905067ffffffffffffffff8111156103fa576103f96117e1565b5b6040519080825280602002602001820160405280156104285781602001602082028036833780820191505090505b5090506000808054905067ffffffffffffffff81111561044b5761044a6117e1565b5b60405190808252806020026020018201604052801561047e57816020015b60608152602001906001900390816104695790505b5090506000808054905067ffffffffffffffff8111156104a1576104a06117e1565b5b6040519080825280602002602001820160405280156104d457816020015b60608152602001906001900390816104bf5790505b50905060005b600080549050811015610831578973ffffffffffffffffffffffffffffffffffffffff166000828154811061051257610511611bba565b5b906000526020600020906004020160010160009054906101000a900473ffffffffffffffffffffffffffffffffffffffff1673ffffffffffffffffffffffffffffffffffffffff160361081e576000818154811061057357610572611bba565b5b906000526020600020906004020160000160009054906101000a900473ffffffffffffffffffffffffffffffffffffffff168582815181106105b8576105b7611bba565b5b602002602001019073ffffffffffffffffffffffffffffffffffffffff16908173ffffffffffffffffffffffffffffffffffffffff16815250506000818154811061060657610605611bba565b5b906000526020600020906004020160010160009054906101000a900473ffffffffffffffffffffffffffffffffffffffff1684828151811061064b5761064a611bba565b5b602002602001019073ffffffffffffffffffffffffffffffffffffffff16908173ffffffffffffffffffffffffffffffffffffffff16815250506000818154811061069957610698611bba565b5b906000526020600020906004020160020180546106b590611b89565b80601f01602080910402602001604051908101604052809291908181526020018280546106e190611b89565b801561072e5780601f106107035761010080835404028352916020019161072e565b820191906000526020600020905b81548152906001019060200180831161071157829003601f168201915b505050505083828151811061074657610745611bba565b5b60200260200101819052506000818154811061076557610764611bba565b5b9060005260206000209060040201600301805461078190611b89565b80601f01602080910402602001604051908101604052809291908181526020018280546107ad90611b89565b80156107fa5780601f106107cf576101008083540402835291602001916107fa565b820191906000526020600020905b8154815290600101906020018083116107dd57829003601f168201915b505050505082828151811061081257610811611bba565b5b60200260200101819052505b808061082990611c18565b9150506104da565b50838383839750975097509750505050509193509193565b6000818154811061085957600080fd5b90600052602060002090600402016000915090508060000160009054906101000a900473ffffffffffffffffffffffffffffffffffffffff16908060010160009054906101000a900473ffffffffffffffffffffffffffffffffffffffff16908060020180546108c890611b89565b80601f01602080910402602001604051908101604052809291908181526020018280546108f490611b89565b80156109415780601f1061091657610100808354040283529160200191610941565b820191906000526020600020905b81548152906001019060200180831161092457829003601f168201915b50505050509080600301805461095690611b89565b80601f016020809104026020016040519081016040528092919081815260200182805461098290611b89565b80156109cf5780601f106109a4576101008083540402835291602001916109cf565b820191906000526020600020905b8154815290600101906020018083116109b257829003601f168201915b5050505050905084565b600260405180606001604052808573ffffffffffffffffffffffffffffffffffffffff1681526020018473ffffffffffffffffffffffffffffffffffffffff16815260200183815250908060018154018082558091505060019003906000526020600020906003020160009091909190915060008201518160000160006101000a81548173ffffffffffffffffffffffffffffffffffffffff021916908373ffffffffffffffffffffffffffffffffffffffff16021790555060208201518160010160006101000a81548173ffffffffffffffffffffffffffffffffffffffff021916908373ffffffffffffffffffffffffffffffffffffffff1602179055506040820151816002019081610aee9190611e0c565b505050505050565b606080600060018054905067ffffffffffffffff811115610b1a57610b196117e1565b5b604051908082528060200260200182016040528015610b4d57816020015b6060815260200190600190039081610b385790505b509050600060018054905067ffffffffffffffff811115610b7157610b706117e1565b5b604051908082528060200260200182016040528015610ba457816020015b6060815260200190600190039081610b8f5790505b50905060005b600180549050811015610ddb578573ffffffffffffffffffffffffffffffffffffffff1660018281548110610be257610be1611bba565b5b906000526020600020906003020160000160009054906101000a900473ffffffffffffffffffffffffffffffffffffffff1673ffffffffffffffffffffffffffffffffffffffff1603610dc85760018181548110610c4357610c42611bba565b5b90600052602060002090600302016001018054610c5f90611b89565b80601f0160208091040260200160405190810160405280929190818152602001828054610c8b90611b89565b8015610cd85780601f10610cad57610100808354040283529160200191610cd8565b820191906000526020600020905b815481529060010190602001808311610cbb57829003601f168201915b5050505050838281518110610cf057610cef611bba565b5b602002602001018190525060018181548110610d0f57610d0e611bba565b5b90600052602060002090600302016002018054610d2b90611b89565b80601f0160208091040260200160405190810160405280929190818152602001828054610d5790611b89565b8015610da45780601f10610d7957610100808354040283529160200191610da4565b820191906000526020600020905b815481529060010190602001808311610d8757829003601f168201915b5050505050828281518110610dbc57610dbb611bba565b5b60200260200101819052505b8080610dd390611c18565b915050610baa565b508181935093505050915091565b600160405180606001604052808573ffffffffffffffffffffffffffffffffffffffff16815260200184815260200183815250908060018154018082558091505060019003906000526020600020906003020160009091909190915060008201518160000160006101000a81548173ffffffffffffffffffffffffffffffffffffffff021916908373ffffffffffffffffffffffffffffffffffffffff1602179055506020820151816001019081610ea19190611e0c565b506040820151816002019081610eb79190611e0c565b505050505050565b600060405180608001604052808673ffffffffffffffffffffffffffffffffffffffff1681526020018573ffffffffffffffffffffffffffffffffffffffff16815260200184815260200183815250908060018154018082558091505060019003906000526020600020906004020160009091909190915060008201518160000160006101000a81548173ffffffffffffffffffffffffffffffffffffffff021916908373ffffffffffffffffffffffffffffffffffffffff16021790555060208201518160010160006101000a81548173ffffffffffffffffffffffffffffffffffffffff021916908373ffffffffffffffffffffffffffffffffffffffff1602179055506040820151816002019081610fda9190611e0c565b506060820151816003019081610ff09190611e0c565b50505050505050565b6002818154811061100957600080fd5b90600052602060002090600302016000915090508060000160009054906101000a900473ffffffffffffffffffffffffffffffffffffffff16908060010160009054906101000a900473ffffffffffffffffffffffffffffffffffffffff169080600201805461107890611b89565b80601f01602080910402602001604051908101604052809291908181526020018280546110a490611b89565b80156110f15780601f106110c6576101008083540402835291602001916110f1565b820191906000526020600020905b8154815290600101906020018083116110d457829003601f168201915b5050505050905083565b600080606060005b600280549050811015611361578473ffffffffffffffffffffffffffffffffffffffff166002828154811061113b5761113a611bba565b5b906000526020600020906003020160010160009054906101000a900473ffffffffffffffffffffffffffffffffffffffff1673ffffffffffffffffffffffffffffffffffffffff1614801561120057508573ffffffffffffffffffffffffffffffffffffffff16600282815481106111b6576111b5611bba565b5b906000526020600020906003020160000160009054906101000a900473ffffffffffffffffffffffffffffffffffffffff1673ffffffffffffffffffffffffffffffffffffffff16145b1561134e576002818154811061121957611218611bba565b5b906000526020600020906003020160000160009054906101000a900473ffffffffffffffffffffffffffffffffffffffff166002828154811061125f5761125e611bba565b5b906000526020600020906003020160010160009054906101000a900473ffffffffffffffffffffffffffffffffffffffff16600283815481106112a5576112a4611bba565b5b90600052602060002090600302016002018080546112c290611b89565b80601f01602080910402602001604051908101604052809291908181526020018280546112ee90611b89565b801561133b5780601f106113105761010080835404028352916020019161133b565b820191906000526020600020905b81548152906001019060200180831161131e57829003601f168201915b5050505050905093509350935050611363565b808061135990611c18565b915050611103565b505b9250925092565b6000604051905090565b600080fd5b600080fd5b6000819050919050565b6113918161137e565b811461139c57600080fd5b50565b6000813590506113ae81611388565b92915050565b6000602082840312156113ca576113c9611374565b5b60006113d88482850161139f565b91505092915050565b600073ffffffffffffffffffffffffffffffffffffffff82169050919050565b600061140c826113e1565b9050919050565b61141c81611401565b82525050565b600081519050919050565b600082825260208201905092915050565b60005b8381101561145c578082015181840152602081019050611441565b8381111561146b576000848401525b50505050565b6000601f19601f8301169050919050565b600061148d82611422565b611497818561142d565b93506114a781856020860161143e565b6114b081611471565b840191505092915050565b60006060820190506114d06000830186611413565b81810360208301526114e28185611482565b905081810360408301526114f68184611482565b9050949350505050565b61150981611401565b811461151457600080fd5b50565b60008135905061152681611500565b92915050565b60006020828403121561154257611541611374565b5b600061155084828501611517565b91505092915050565b600081519050919050565b600082825260208201905092915050565b6000819050602082019050919050565b61158e81611401565b82525050565b60006115a08383611585565b60208301905092915050565b6000602082019050919050565b60006115c482611559565b6115ce8185611564565b93506115d983611575565b8060005b8381101561160a5781516115f18882611594565b97506115fc836115ac565b9250506001810190506115dd565b5085935050505092915050565b600081519050919050565b600082825260208201905092915050565b6000819050602082019050919050565b600082825260208201905092915050565b600061165f82611422565b6116698185611643565b935061167981856020860161143e565b61168281611471565b840191505092915050565b60006116998383611654565b905092915050565b6000602082019050919050565b60006116b982611617565b6116c38185611622565b9350836020820285016116d585611633565b8060005b8581101561171157848403895281516116f2858261168d565b94506116fd836116a1565b925060208a019950506001810190506116d9565b50829750879550505050505092915050565b6000608082019050818103600083015261173d81876115b9565b9050818103602083015261175181866115b9565b9050818103604083015261176581856116ae565b9050818103606083015261177981846116ae565b905095945050505050565b60006080820190506117996000830187611413565b6117a66020830186611413565b81810360408301526117b88185611482565b905081810360608301526117cc8184611482565b905095945050505050565b600080fd5b600080fd5b7f4e487b7100000000000000000000000000000000000000000000000000000000600052604160045260246000fd5b61181982611471565b810181811067ffffffffffffffff82111715611838576118376117e1565b5b80604052505050565b600061184b61136a565b90506118578282611810565b919050565b600067ffffffffffffffff821115611877576118766117e1565b5b61188082611471565b9050602081019050919050565b82818337600083830152505050565b60006118af6118aa8461185c565b611841565b9050828152602081018484840111156118cb576118ca6117dc565b5b6118d684828561188d565b509392505050565b600082601f8301126118f3576118f26117d7565b5b813561190384826020860161189c565b91505092915050565b60008060006060848603121561192557611924611374565b5b600061193386828701611517565b935050602061194486828701611517565b925050604084013567ffffffffffffffff81111561196557611964611379565b5b611971868287016118de565b9150509250925092565b6000604082019050818103600083015261199581856116ae565b905081810360208301526119a981846116ae565b90509392505050565b6000806000606084860312156119cb576119ca611374565b5b60006119d986828701611517565b935050602084013567ffffffffffffffff8111156119fa576119f9611379565b5b611a06868287016118de565b925050604084013567ffffffffffffffff811115611a2757611a26611379565b5b611a33868287016118de565b9150509250925092565b60008060008060808587031215611a5757611a56611374565b5b6000611a6587828801611517565b9450506020611a7687828801611517565b935050604085013567ffffffffffffffff811115611a9757611a96611379565b5b611aa3878288016118de565b925050606085013567ffffffffffffffff811115611ac457611ac3611379565b5b611ad0878288016118de565b91505092959194509250565b6000606082019050611af16000830186611413565b611afe6020830185611413565b8181036040830152611b108184611482565b9050949350505050565b60008060408385031215611b3157611b30611374565b5b6000611b3f85828601611517565b9250506020611b5085828601611517565b9150509250929050565b7f4e487b7100000000000000000000000000000000000000000000000000000000600052602260045260246000fd5b60006002820490506001821680611ba157607f821691505b602082108103611bb457611bb3611b5a565b5b50919050565b7f4e487b7100000000000000000000000000000000000000000000000000000000600052603260045260246000fd5b7f4e487b7100000000000000000000000000000000000000000000000000000000600052601160045260246000fd5b6000611c238261137e565b91507fffffffffffffffffffffffffffffffffffffffffffffffffffffffffffffffff8203611c5557611c54611be9565b5b600182019050919050565b60008190508160005260206000209050919050565b60006020601f8301049050919050565b600082821b905092915050565b600060088302611cc27fffffffffffffffffffffffffffffffffffffffffffffffffffffffffffffffff82611c85565b611ccc8683611c85565b95508019841693508086168417925050509392505050565b6000819050919050565b6000611d09611d04611cff8461137e565b611ce4565b61137e565b9050919050565b6000819050919050565b611d2383611cee565b611d37611d2f82611d10565b848454611c92565b825550505050565b600090565b611d4c611d3f565b611d57818484611d1a565b505050565b5b81811015611d7b57611d70600082611d44565b600181019050611d5d565b5050565b601f821115611dc057611d9181611c60565b611d9a84611c75565b81016020851015611da9578190505b611dbd611db585611c75565b830182611d5c565b50505b505050565b600082821c905092915050565b6000611de360001984600802611dc5565b1980831691505092915050565b6000611dfc8383611dd2565b9150826002028217905092915050565b611e1582611422565b67ffffffffffffffff811115611e2e57611e2d6117e1565b5b611e388254611b89565b611e43828285611d7f565b600060209050601f831160018114611e765760008415611e64578287015190505b611e6e8582611df0565b865550611ed6565b601f198416611e8486611c60565b60005b82811015611eac57848901518255600182019150602085019450602081019050611e87565b86831015611ec95784890151611ec5601f891682611dd2565b8355505b6001600288020188555050505b50505050505056fea2646970667358221220e2d3163f9712f13c4dacf13d064329aaa87f946335b0aeb5f718e96a055d7d5464736f6c634300080f0033",
  "immutableReferences": {},
  "source": "// SPDX-License-Identifier: MIT\r\npragma solidity >=0.4.22 <0.9.0;\r\n\r\n//Lu tr CV\r\ncontract ApplyCV {\r\n\r\n    //Khai bo cu trc lu tr thng tin np CV\r\n    struct CV {\r\n        address studentOwner;\r\n        address businessOwner;\r\n        string jobTitle;\r\n        string coverLetter;\r\n    }\r\n\r\n    //Khai bo cu trc lu tr thng tin tuyn dng\r\n    struct Recruit {\r\n        address businessOwner;\r\n        string jobTitle;\r\n        string jobDescription;\r\n    }\r\n\r\n    //Khai bo cu trc lu tr thng tin nh gi thc tp\r\n    struct Review {\r\n        address studentOwner;\r\n        address businessOwner;\r\n        string content;\r\n    }\r\n\r\n    //Khai bo cc mng  lu tr thng tin\r\n    CV[] public cvs;\r\n    Recruit[] public recruits;\r\n    Review[] public reviews;\r\n\r\n    //Chc nng np CV\r\n    function addCV (\r\n        address _studentOwner, \r\n        address _businessOwner, \r\n        string memory _jobTitle, \r\n        string memory _coverLetter) public {\r\n            cvs.push(CV(_studentOwner, _businessOwner, _jobTitle, _coverLetter));\r\n    }\r\n\r\n    //Chc nng ly danh sch CV theo doanh nghip\r\n    function getCV(address _businessOwner) public view returns(\r\n        address[] memory, \r\n        address[] memory, \r\n        string[] memory, \r\n        string[] memory)  {\r\n            address[] memory studentOwners = new address[](cvs.length);\r\n            address[] memory businessOwners = new address[](cvs.length);\r\n            string[] memory jobTitles = new string[](cvs.length);\r\n            string[] memory coverLetters = new string[](cvs.length);\r\n            for(uint i=0; i<cvs.length;i++){\r\n                if(cvs[i].businessOwner == _businessOwner) {\r\n                    studentOwners[i] = cvs[i].studentOwner;\r\n                    businessOwners[i] = cvs[i].businessOwner;\r\n                    jobTitles[i] = cvs[i].jobTitle;\r\n                    coverLetters[i] = cvs[i].coverLetter;\r\n                }\r\n            }\r\n            return (studentOwners, businessOwners, jobTitles, coverLetters);\r\n    }\r\n\r\n    //Chc nng thm thng tin tuyn dng\r\n    function addRecruit (\r\n        address _businessOwner,\r\n        string memory _jobTitle,\r\n        string memory _jobDescription) public {\r\n            recruits.push(Recruit(_businessOwner, _jobTitle, _jobDescription));\r\n    }\r\n\r\n    //Chc nng ly thng tin tuyn dng\r\n    function getRecruit(address _businessOwner) public view returns(\r\n        string[] memory, \r\n        string[] memory) {\r\n            string[] memory jobTitles = new string[](recruits.length);\r\n            string[] memory jobDescriptions = new string[](recruits.length);\r\n            for(uint i=0; i<recruits.length;i++){\r\n                if(recruits[i].businessOwner == _businessOwner) {\r\n                    jobTitles[i] = recruits[i].jobTitle;\r\n                    jobDescriptions[i] = recruits[i].jobDescription;\r\n                }\r\n            }\r\n            return (jobTitles, jobDescriptions);\r\n    }\r\n\r\n    //Chc nng lu tr nh gi thc tp ca tng sinh vin\r\n    function addReview (\r\n        address _studentOwner, \r\n        address _businessOwner, \r\n        string memory _content) public {\r\n            reviews.push(Review(_studentOwner, _businessOwner, _content));\r\n    }\r\n\r\n    //Chc nng ly thng tin nh gi thc tp\r\n    function getReview(\r\n        address _studentOwner, \r\n        address _businessOwner) public view returns(\r\n            address studentOwner, \r\n            address businessOwner, \r\n            string memory content)  {\r\n                for(uint i=0; i<reviews.length;i++){\r\n                    if(reviews[i].businessOwner == _businessOwner && reviews[i].studentOwner == _studentOwner) {\r\n                        return(reviews[i].studentOwner,\r\n                                reviews[i].businessOwner,\r\n                                reviews[i].content);\r\n                    }\r\n                }\r\n    }\r\n\r\n}",
  "sourcePath": "C:\\Users\\ADMIN\\Desktop\\New folder\\IS_cv\\contracts\\SmartCV_Apply.sol",
  "compiler": {
    "name": "solc",
    "version": "0.8.15+commit.e14f2714.Emscripten.clang"
  },
  "schemaVersion": "3.4.7",
  "updatedAt": "2022-07-09T11:03:01.799Z",
  "devdoc": {
    "kind": "dev",
    "methods": {},
    "version": 1
  },
  "userdoc": {
    "kind": "user",
    "methods": {},
    "version": 1
  }
}