{
  "contractName": "ApplyCV",
  "abi": [
    {
      "inputs": [
        {
          "internalType": "uint256",
          "name": "",
          "type": "uint256"
        }
      ],
      "name": "cvs",
      "outputs": [
        {
          "internalType": "address",
          "name": "studentOwner",
          "type": "address"
        },
        {
          "internalType": "address",
          "name": "businessOwner",
          "type": "address"
        },
        {
          "internalType": "string",
          "name": "jobTitle",
          "type": "string"
        },
        {
          "internalType": "string",
          "name": "coverLetter",
          "type": "string"
        },
        {
          "internalType": "string",
          "name": "statusCV",
          "type": "string"
        }
      ],
      "stateMutability": "view",
      "type": "function"
    },
    {
      "inputs": [
        {
          "internalType": "uint256",
          "name": "",
          "type": "uint256"
        }
      ],
      "name": "recruits",
      "outputs": [
        {
          "internalType": "address",
          "name": "businessOwner",
          "type": "address"
        },
        {
          "internalType": "string",
          "name": "jobTitle",
          "type": "string"
        },
        {
          "internalType": "string",
          "name": "jobDescription",
          "type": "string"
        }
      ],
      "stateMutability": "view",
      "type": "function"
    },
    {
      "inputs": [
        {
          "internalType": "uint256",
          "name": "",
          "type": "uint256"
        }
      ],
      "name": "reviews",
      "outputs": [
        {
          "internalType": "address",
          "name": "studentOwner",
          "type": "address"
        },
        {
          "internalType": "address",
          "name": "businessOwner",
          "type": "address"
        },
        {
          "internalType": "string",
          "name": "content",
          "type": "string"
        }
      ],
      "stateMutability": "view",
      "type": "function"
    },
    {
      "inputs": [
        {
          "internalType": "address",
          "name": "_studentOwner",
          "type": "address"
        },
        {
          "internalType": "address",
          "name": "_businessOwner",
          "type": "address"
        },
        {
          "internalType": "string",
          "name": "_jobTitle",
          "type": "string"
        },
        {
          "internalType": "string",
          "name": "_coverLetter",
          "type": "string"
        }
      ],
      "name": "addCV",
      "outputs": [],
      "stateMutability": "nonpayable",
      "type": "function"
    },
    {
      "inputs": [
        {
          "internalType": "address",
          "name": "_studentOwner",
          "type": "address"
        },
        {
          "internalType": "address",
          "name": "_businessOwner",
          "type": "address"
        },
        {
          "internalType": "string",
          "name": "_jobTitle",
          "type": "string"
        }
      ],
      "name": "checkCV",
      "outputs": [
        {
          "internalType": "uint256",
          "name": "x",
          "type": "uint256"
        }
      ],
      "stateMutability": "view",
      "type": "function"
    },
    {
      "inputs": [
        {
          "internalType": "address",
          "name": "_studentOwner",
          "type": "address"
        },
        {
          "internalType": "address",
          "name": "_businessOwner",
          "type": "address"
        },
        {
          "internalType": "string",
          "name": "_jobTitle",
          "type": "string"
        },
        {
          "internalType": "string",
          "name": "_statusCV",
          "type": "string"
        }
      ],
      "name": "interviewCV",
      "outputs": [],
      "stateMutability": "nonpayable",
      "type": "function"
    },
    {
      "inputs": [
        {
          "internalType": "address",
          "name": "_studentOwner",
          "type": "address"
        },
        {
          "internalType": "address",
          "name": "_businessOwner",
          "type": "address"
        },
        {
          "internalType": "string",
          "name": "_jobTitle",
          "type": "string"
        },
        {
          "internalType": "string",
          "name": "_statusCV",
          "type": "string"
        }
      ],
      "name": "onboardCV",
      "outputs": [],
      "stateMutability": "nonpayable",
      "type": "function"
    },
    {
      "inputs": [
        {
          "internalType": "address",
          "name": "_businessOwner",
          "type": "address"
        }
      ],
      "name": "getCV",
      "outputs": [
        {
          "internalType": "address[]",
          "name": "",
          "type": "address[]"
        },
        {
          "internalType": "address[]",
          "name": "",
          "type": "address[]"
        },
        {
          "internalType": "string[]",
          "name": "",
          "type": "string[]"
        },
        {
          "internalType": "string[]",
          "name": "",
          "type": "string[]"
        },
        {
          "internalType": "string[]",
          "name": "",
          "type": "string[]"
        }
      ],
      "stateMutability": "view",
      "type": "function"
    },
    {
      "inputs": [
        {
          "internalType": "address",
          "name": "_businessOwner",
          "type": "address"
        },
        {
          "internalType": "string",
          "name": "_jobTitle",
          "type": "string"
        },
        {
          "internalType": "string",
          "name": "_jobDescription",
          "type": "string"
        }
      ],
      "name": "addRecruit",
      "outputs": [],
      "stateMutability": "nonpayable",
      "type": "function"
    },
    {
      "inputs": [
        {
          "internalType": "address",
          "name": "_businessOwner",
          "type": "address"
        }
      ],
      "name": "getRecruit",
      "outputs": [
        {
          "internalType": "string[]",
          "name": "",
          "type": "string[]"
        },
        {
          "internalType": "string[]",
          "name": "",
          "type": "string[]"
        }
      ],
      "stateMutability": "view",
      "type": "function"
    },
    {
      "inputs": [
        {
          "internalType": "address",
          "name": "_studentOwner",
          "type": "address"
        },
        {
          "internalType": "address",
          "name": "_businessOwner",
          "type": "address"
        },
        {
          "internalType": "string",
          "name": "_content",
          "type": "string"
        }
      ],
      "name": "addReview",
      "outputs": [],
      "stateMutability": "nonpayable",
      "type": "function"
    },
    {
      "inputs": [
        {
          "internalType": "address",
          "name": "_studentOwner",
          "type": "address"
        },
        {
          "internalType": "address",
          "name": "_businessOwner",
          "type": "address"
        }
      ],
      "name": "getReview",
      "outputs": [
        {
          "internalType": "address",
          "name": "studentOwner",
          "type": "address"
        },
        {
          "internalType": "address",
          "name": "businessOwner",
          "type": "address"
        },
        {
          "internalType": "string",
          "name": "content",
          "type": "string"
        }
      ],
      "stateMutability": "view",
      "type": "function"
    }
  ],
  "bytecode": "0x608060405234801561001057600080fd5b5061276c806100206000396000f3fe608060405234801561001057600080fd5b50600436106100b35760003560e01c8063ae8f00d311610071578063ae8f00d3146101ba578063ce1ec5bb146101d6578063cee5c7f314610207578063dc1e475f14610223578063e83ddcea1461023f578063e9daa70a14610271576100b3565b80624e56cf146100b85780630299779f146100d45780630b5e50ed14610104578063381a3bf7146101365780637aedcde51461016a578063844bb4601461019e575b600080fd5b6100d260048036038101906100cd9190611c6c565b6102a3565b005b6100ee60048036038101906100e99190611d0b565b610441565b6040516100fb9190611d93565b60405180910390f35b61011e60048036038101906101199190611dda565b6105bc565b60405161012d93929190611e9e565b60405180910390f35b610150600480360381019061014b9190611ee3565b610726565b6040516101619594939291906120da565b60405180910390f35b610184600480360381019061017f9190611dda565b610d16565b604051610195959493929190612150565b60405180910390f35b6101b860048036038101906101b39190611c6c565b610f34565b005b6101d460048036038101906101cf9190611d0b565b6110d2565b005b6101f060048036038101906101eb9190611ee3565b6111ef565b6040516101fe9291906121b8565b60405180910390f35b610221600480360381019061021c91906121ef565b6114e2565b005b61023d60048036038101906102389190611c6c565b6115b8565b005b61025960048036038101906102549190611dda565b611743565b6040516102689392919061227a565b60405180910390f35b61028b600480360381019061028691906122b8565b611845565b60405161029a9392919061227a565b60405180910390f35b60005b60008054905081101561043a578473ffffffffffffffffffffffffffffffffffffffff16600082815481106102de576102dd6122f8565b5b906000526020600020906005020160000160009054906101000a900473ffffffffffffffffffffffffffffffffffffffff1673ffffffffffffffffffffffffffffffffffffffff161480156103a357508373ffffffffffffffffffffffffffffffffffffffff1660008281548110610359576103586122f8565b5b906000526020600020906005020160010160009054906101000a900473ffffffffffffffffffffffffffffffffffffffff1673ffffffffffffffffffffffffffffffffffffffff16145b80156103ee57508280519060200120600082815481106103c6576103c56122f8565b5b90600052602060002090600502016002016040516103e4919061242a565b6040518091039020145b15610427578160008281548110610408576104076122f8565b5b9060005260206000209060050201600401908161042591906125ed565b505b8080610432906126ee565b9150506102a6565b5050505050565b600080600090505b6000805490508110156105b3578473ffffffffffffffffffffffffffffffffffffffff1660008281548110610481576104806122f8565b5b906000526020600020906005020160000160009054906101000a900473ffffffffffffffffffffffffffffffffffffffff1673ffffffffffffffffffffffffffffffffffffffff1614801561054657508373ffffffffffffffffffffffffffffffffffffffff16600082815481106104fc576104fb6122f8565b5b906000526020600020906005020160010160009054906101000a900473ffffffffffffffffffffffffffffffffffffffff1673ffffffffffffffffffffffffffffffffffffffff16145b80156105915750828051906020012060008281548110610569576105686122f8565b5b9060005260206000209060050201600201604051610587919061242a565b6040518091039020145b156105a05760019150506105b5565b80806105ab906126ee565b915050610449565b505b9392505050565b600181815481106105cc57600080fd5b90600052602060002090600302016000915090508060000160009054906101000a900473ffffffffffffffffffffffffffffffffffffffff169080600101805461061590612356565b80601f016020809104026020016040519081016040528092919081815260200182805461064190612356565b801561068e5780601f106106635761010080835404028352916020019161068e565b820191906000526020600020905b81548152906001019060200180831161067157829003601f168201915b5050505050908060020180546106a390612356565b80601f01602080910402602001604051908101604052809291908181526020018280546106cf90612356565b801561071c5780601f106106f15761010080835404028352916020019161071c565b820191906000526020600020905b8154815290600101906020018083116106ff57829003601f168201915b5050505050905083565b60608060608060606000808054905067ffffffffffffffff81111561074e5761074d611b41565b5b60405190808252806020026020018201604052801561077c5781602001602082028036833780820191505090505b5090506000808054905067ffffffffffffffff81111561079f5761079e611b41565b5b6040519080825280602002602001820160405280156107cd5781602001602082028036833780820191505090505b5090506000808054905067ffffffffffffffff8111156107f0576107ef611b41565b5b60405190808252806020026020018201604052801561082357816020015b606081526020019060019003908161080e5790505b5090506000808054905067ffffffffffffffff81111561084657610845611b41565b5b60405190808252806020026020018201604052801561087957816020015b60608152602001906001900390816108645790505b5090506000808054905067ffffffffffffffff81111561089c5761089b611b41565b5b6040519080825280602002602001820160405280156108cf57816020015b60608152602001906001900390816108ba5790505b50905060005b600080549050811015610cf8578b73ffffffffffffffffffffffffffffffffffffffff166000828154811061090d5761090c6122f8565b5b906000526020600020906005020160010160009054906101000a900473ffffffffffffffffffffffffffffffffffffffff1673ffffffffffffffffffffffffffffffffffffffff1603610ce5576000818154811061096e5761096d6122f8565b5b906000526020600020906005020160000160009054906101000a900473ffffffffffffffffffffffffffffffffffffffff168682815181106109b3576109b26122f8565b5b602002602001019073ffffffffffffffffffffffffffffffffffffffff16908173ffffffffffffffffffffffffffffffffffffffff168152505060008181548110610a0157610a006122f8565b5b906000526020600020906005020160010160009054906101000a900473ffffffffffffffffffffffffffffffffffffffff16858281518110610a4657610a456122f8565b5b602002602001019073ffffffffffffffffffffffffffffffffffffffff16908173ffffffffffffffffffffffffffffffffffffffff168152505060008181548110610a9457610a936122f8565b5b90600052602060002090600502016002018054610ab090612356565b80601f0160208091040260200160405190810160405280929190818152602001828054610adc90612356565b8015610b295780601f10610afe57610100808354040283529160200191610b29565b820191906000526020600020905b815481529060010190602001808311610b0c57829003601f168201915b5050505050848281518110610b4157610b406122f8565b5b602002602001018190525060008181548110610b6057610b5f6122f8565b5b90600052602060002090600502016003018054610b7c90612356565b80601f0160208091040260200160405190810160405280929190818152602001828054610ba890612356565b8015610bf55780601f10610bca57610100808354040283529160200191610bf5565b820191906000526020600020905b815481529060010190602001808311610bd857829003601f168201915b5050505050838281518110610c0d57610c0c6122f8565b5b602002602001018190525060008181548110610c2c57610c2b6122f8565b5b90600052602060002090600502016004018054610c4890612356565b80601f0160208091040260200160405190810160405280929190818152602001828054610c7490612356565b8015610cc15780601f10610c9657610100808354040283529160200191610cc1565b820191906000526020600020905b815481529060010190602001808311610ca457829003601f168201915b5050505050828281518110610cd957610cd86122f8565b5b60200260200101819052505b8080610cf0906126ee565b9150506108d5565b50848484848499509950995099509950505050505091939590929450565b60008181548110610d2657600080fd5b90600052602060002090600502016000915090508060000160009054906101000a900473ffffffffffffffffffffffffffffffffffffffff16908060010160009054906101000a900473ffffffffffffffffffffffffffffffffffffffff1690806002018054610d9590612356565b80601f0160208091040260200160405190810160405280929190818152602001828054610dc190612356565b8015610e0e5780601f10610de357610100808354040283529160200191610e0e565b820191906000526020600020905b815481529060010190602001808311610df157829003601f168201915b505050505090806003018054610e2390612356565b80601f0160208091040260200160405190810160405280929190818152602001828054610e4f90612356565b8015610e9c5780601f10610e7157610100808354040283529160200191610e9c565b820191906000526020600020905b815481529060010190602001808311610e7f57829003601f168201915b505050505090806004018054610eb190612356565b80601f0160208091040260200160405190810160405280929190818152602001828054610edd90612356565b8015610f2a5780601f10610eff57610100808354040283529160200191610f2a565b820191906000526020600020905b815481529060010190602001808311610f0d57829003601f168201915b5050505050905085565b60005b6000805490508110156110cb578473ffffffffffffffffffffffffffffffffffffffff1660008281548110610f6f57610f6e6122f8565b5b906000526020600020906005020160000160009054906101000a900473ffffffffffffffffffffffffffffffffffffffff1673ffffffffffffffffffffffffffffffffffffffff1614801561103457508373ffffffffffffffffffffffffffffffffffffffff1660008281548110610fea57610fe96122f8565b5b906000526020600020906005020160010160009054906101000a900473ffffffffffffffffffffffffffffffffffffffff1673ffffffffffffffffffffffffffffffffffffffff16145b801561107f5750828051906020012060008281548110611057576110566122f8565b5b9060005260206000209060050201600201604051611075919061242a565b6040518091039020145b156110b8578160008281548110611099576110986122f8565b5b906000526020600020906005020160040190816110b691906125ed565b505b80806110c3906126ee565b915050610f37565b5050505050565b600260405180606001604052808573ffffffffffffffffffffffffffffffffffffffff1681526020018473ffffffffffffffffffffffffffffffffffffffff16815260200183815250908060018154018082558091505060019003906000526020600020906003020160009091909190915060008201518160000160006101000a81548173ffffffffffffffffffffffffffffffffffffffff021916908373ffffffffffffffffffffffffffffffffffffffff16021790555060208201518160010160006101000a81548173ffffffffffffffffffffffffffffffffffffffff021916908373ffffffffffffffffffffffffffffffffffffffff16021790555060408201518160020190816111e791906125ed565b505050505050565b606080600060018054905067ffffffffffffffff81111561121357611212611b41565b5b60405190808252806020026020018201604052801561124657816020015b60608152602001906001900390816112315790505b509050600060018054905067ffffffffffffffff81111561126a57611269611b41565b5b60405190808252806020026020018201604052801561129d57816020015b60608152602001906001900390816112885790505b50905060005b6001805490508110156114d4578573ffffffffffffffffffffffffffffffffffffffff16600182815481106112db576112da6122f8565b5b906000526020600020906003020160000160009054906101000a900473ffffffffffffffffffffffffffffffffffffffff1673ffffffffffffffffffffffffffffffffffffffff16036114c1576001818154811061133c5761133b6122f8565b5b9060005260206000209060030201600101805461135890612356565b80601f016020809104026020016040519081016040528092919081815260200182805461138490612356565b80156113d15780601f106113a6576101008083540402835291602001916113d1565b820191906000526020600020905b8154815290600101906020018083116113b457829003601f168201915b50505050508382815181106113e9576113e86122f8565b5b602002602001018190525060018181548110611408576114076122f8565b5b9060005260206000209060030201600201805461142490612356565b80601f016020809104026020016040519081016040528092919081815260200182805461145090612356565b801561149d5780601f106114725761010080835404028352916020019161149d565b820191906000526020600020905b81548152906001019060200180831161148057829003601f168201915b50505050508282815181106114b5576114b46122f8565b5b60200260200101819052505b80806114cc906126ee565b9150506112a3565b508181935093505050915091565b600160405180606001604052808573ffffffffffffffffffffffffffffffffffffffff16815260200184815260200183815250908060018154018082558091505060019003906000526020600020906003020160009091909190915060008201518160000160006101000a81548173ffffffffffffffffffffffffffffffffffffffff021916908373ffffffffffffffffffffffffffffffffffffffff160217905550602082015181600101908161159a91906125ed565b5060408201518160020190816115b091906125ed565b505050505050565b60006040518060a001604052808673ffffffffffffffffffffffffffffffffffffffff1681526020018573ffffffffffffffffffffffffffffffffffffffff1681526020018481526020018381526020016040518060400160405280600981526020017f53637265656e696e670000000000000000000000000000000000000000000000815250815250908060018154018082558091505060019003906000526020600020906005020160009091909190915060008201518160000160006101000a81548173ffffffffffffffffffffffffffffffffffffffff021916908373ffffffffffffffffffffffffffffffffffffffff16021790555060208201518160010160006101000a81548173ffffffffffffffffffffffffffffffffffffffff021916908373ffffffffffffffffffffffffffffffffffffffff160217905550604082015181600201908161170e91906125ed565b50606082015181600301908161172491906125ed565b50608082015181600401908161173a91906125ed565b50505050505050565b6002818154811061175357600080fd5b90600052602060002090600302016000915090508060000160009054906101000a900473ffffffffffffffffffffffffffffffffffffffff16908060010160009054906101000a900473ffffffffffffffffffffffffffffffffffffffff16908060020180546117c290612356565b80601f01602080910402602001604051908101604052809291908181526020018280546117ee90612356565b801561183b5780601f106118105761010080835404028352916020019161183b565b820191906000526020600020905b81548152906001019060200180831161181e57829003601f168201915b5050505050905083565b600080606060005b600280549050811015611aab578473ffffffffffffffffffffffffffffffffffffffff1660028281548110611885576118846122f8565b5b906000526020600020906003020160010160009054906101000a900473ffffffffffffffffffffffffffffffffffffffff1673ffffffffffffffffffffffffffffffffffffffff1614801561194a57508573ffffffffffffffffffffffffffffffffffffffff1660028281548110611900576118ff6122f8565b5b906000526020600020906003020160000160009054906101000a900473ffffffffffffffffffffffffffffffffffffffff1673ffffffffffffffffffffffffffffffffffffffff16145b15611a985760028181548110611963576119626122f8565b5b906000526020600020906003020160000160009054906101000a900473ffffffffffffffffffffffffffffffffffffffff16600282815481106119a9576119a86122f8565b5b906000526020600020906003020160010160009054906101000a900473ffffffffffffffffffffffffffffffffffffffff16600283815481106119ef576119ee6122f8565b5b9060005260206000209060030201600201808054611a0c90612356565b80601f0160208091040260200160405190810160405280929190818152602001828054611a3890612356565b8015611a855780601f10611a5a57610100808354040283529160200191611a85565b820191906000526020600020905b815481529060010190602001808311611a6857829003601f168201915b5050505050905093509350935050611aad565b8080611aa3906126ee565b91505061184d565b505b9250925092565b6000604051905090565b600080fd5b600080fd5b600073ffffffffffffffffffffffffffffffffffffffff82169050919050565b6000611af382611ac8565b9050919050565b611b0381611ae8565b8114611b0e57600080fd5b50565b600081359050611b2081611afa565b92915050565b600080fd5b600080fd5b6000601f19601f8301169050919050565b7f4e487b7100000000000000000000000000000000000000000000000000000000600052604160045260246000fd5b611b7982611b30565b810181811067ffffffffffffffff82111715611b9857611b97611b41565b5b80604052505050565b6000611bab611ab4565b9050611bb78282611b70565b919050565b600067ffffffffffffffff821115611bd757611bd6611b41565b5b611be082611b30565b9050602081019050919050565b82818337600083830152505050565b6000611c0f611c0a84611bbc565b611ba1565b905082815260208101848484011115611c2b57611c2a611b2b565b5b611c36848285611bed565b509392505050565b600082601f830112611c5357611c52611b26565b5b8135611c63848260208601611bfc565b91505092915050565b60008060008060808587031215611c8657611c85611abe565b5b6000611c9487828801611b11565b9450506020611ca587828801611b11565b935050604085013567ffffffffffffffff811115611cc657611cc5611ac3565b5b611cd287828801611c3e565b925050606085013567ffffffffffffffff811115611cf357611cf2611ac3565b5b611cff87828801611c3e565b91505092959194509250565b600080600060608486031215611d2457611d23611abe565b5b6000611d3286828701611b11565b9350506020611d4386828701611b11565b925050604084013567ffffffffffffffff811115611d6457611d63611ac3565b5b611d7086828701611c3e565b9150509250925092565b6000819050919050565b611d8d81611d7a565b82525050565b6000602082019050611da86000830184611d84565b92915050565b611db781611d7a565b8114611dc257600080fd5b50565b600081359050611dd481611dae565b92915050565b600060208284031215611df057611def611abe565b5b6000611dfe84828501611dc5565b91505092915050565b611e1081611ae8565b82525050565b600081519050919050565b600082825260208201905092915050565b60005b83811015611e50578082015181840152602081019050611e35565b83811115611e5f576000848401525b50505050565b6000611e7082611e16565b611e7a8185611e21565b9350611e8a818560208601611e32565b611e9381611b30565b840191505092915050565b6000606082019050611eb36000830186611e07565b8181036020830152611ec58185611e65565b90508181036040830152611ed98184611e65565b9050949350505050565b600060208284031215611ef957611ef8611abe565b5b6000611f0784828501611b11565b91505092915050565b600081519050919050565b600082825260208201905092915050565b6000819050602082019050919050565b611f4581611ae8565b82525050565b6000611f578383611f3c565b60208301905092915050565b6000602082019050919050565b6000611f7b82611f10565b611f858185611f1b565b9350611f9083611f2c565b8060005b83811015611fc1578151611fa88882611f4b565b9750611fb383611f63565b925050600181019050611f94565b5085935050505092915050565b600081519050919050565b600082825260208201905092915050565b6000819050602082019050919050565b600082825260208201905092915050565b600061201682611e16565b6120208185611ffa565b9350612030818560208601611e32565b61203981611b30565b840191505092915050565b6000612050838361200b565b905092915050565b6000602082019050919050565b600061207082611fce565b61207a8185611fd9565b93508360208202850161208c85611fea565b8060005b858110156120c857848403895281516120a98582612044565b94506120b483612058565b925060208a01995050600181019050612090565b50829750879550505050505092915050565b600060a08201905081810360008301526120f48188611f70565b905081810360208301526121088187611f70565b9050818103604083015261211c8186612065565b905081810360608301526121308185612065565b905081810360808301526121448184612065565b90509695505050505050565b600060a0820190506121656000830188611e07565b6121726020830187611e07565b81810360408301526121848186611e65565b905081810360608301526121988185611e65565b905081810360808301526121ac8184611e65565b90509695505050505050565b600060408201905081810360008301526121d28185612065565b905081810360208301526121e68184612065565b90509392505050565b60008060006060848603121561220857612207611abe565b5b600061221686828701611b11565b935050602084013567ffffffffffffffff81111561223757612236611ac3565b5b61224386828701611c3e565b925050604084013567ffffffffffffffff81111561226457612263611ac3565b5b61227086828701611c3e565b9150509250925092565b600060608201905061228f6000830186611e07565b61229c6020830185611e07565b81810360408301526122ae8184611e65565b9050949350505050565b600080604083850312156122cf576122ce611abe565b5b60006122dd85828601611b11565b92505060206122ee85828601611b11565b9150509250929050565b7f4e487b7100000000000000000000000000000000000000000000000000000000600052603260045260246000fd5b7f4e487b7100000000000000000000000000000000000000000000000000000000600052602260045260246000fd5b6000600282049050600182168061236e57607f821691505b60208210810361238157612380612327565b5b50919050565b600081905092915050565b60008190508160005260206000209050919050565b600081546123b481612356565b6123be8186612387565b945060018216600081146123d957600181146123ee57612421565b60ff1983168652811515820286019350612421565b6123f785612392565b60005b83811015612419578154818901526001820191506020810190506123fa565b838801955050505b50505092915050565b600061243682846123a7565b915081905092915050565b60008190508160005260206000209050919050565b60006020601f8301049050919050565b600082821b905092915050565b6000600883026124a37fffffffffffffffffffffffffffffffffffffffffffffffffffffffffffffffff82612466565b6124ad8683612466565b95508019841693508086168417925050509392505050565b6000819050919050565b60006124ea6124e56124e084611d7a565b6124c5565b611d7a565b9050919050565b6000819050919050565b612504836124cf565b612518612510826124f1565b848454612473565b825550505050565b600090565b61252d612520565b6125388184846124fb565b505050565b5b8181101561255c57612551600082612525565b60018101905061253e565b5050565b601f8211156125a15761257281612441565b61257b84612456565b8101602085101561258a578190505b61259e61259685612456565b83018261253d565b50505b505050565b600082821c905092915050565b60006125c4600019846008026125a6565b1980831691505092915050565b60006125dd83836125b3565b9150826002028217905092915050565b6125f682611e16565b67ffffffffffffffff81111561260f5761260e611b41565b5b6126198254612356565b612624828285612560565b600060209050601f8311600181146126575760008415612645578287015190505b61264f85826125d1565b8655506126b7565b601f19841661266586612441565b60005b8281101561268d57848901518255600182019150602085019450602081019050612668565b868310156126aa57848901516126a6601f8916826125b3565b8355505b6001600288020188555050505b505050505050565b7f4e487b7100000000000000000000000000000000000000000000000000000000600052601160045260246000fd5b60006126f982611d7a565b91507fffffffffffffffffffffffffffffffffffffffffffffffffffffffffffffffff820361272b5761272a6126bf565b5b60018201905091905056fea26469706673582212206b1b27eab824abb80b84635bf0edaf24121463b2e4c6840e4ba8a1618ef5183764736f6c634300080f0033",
  "immutableReferences": {},
  "source": "// SPDX-License-Identifier: MIT\npragma solidity >=0.4.22 <0.9.0;\n\n// Lu tr CV\ncontract ApplyCV {\n\n    // Khai bo cu trc lu tr thng tin np CV\n    struct CV {\n        address studentOwner;\n        address businessOwner;\n        string jobTitle;\n        string coverLetter;\n        string statusCV;\n    }\n\n    // Khai bo cu trc lu tr thng tin tuyn dng\n    struct Recruit {\n        address businessOwner;\n        string jobTitle;\n        string jobDescription;\n    }\n\n    // Khai bo cu trc lu tr thng tin nh gi thc tp\n    struct Review {\n        address studentOwner;\n        address businessOwner;\n        string content;\n    }\n\n    // Khai bo cc mng  lu tr thng tin\n    CV[] public cvs;\n    Recruit[] public recruits;\n    Review[] public reviews;\n\n    // Chc nng np CV\n    function addCV(\n        address _studentOwner, \n        address _businessOwner, \n        string memory _jobTitle, \n        string memory _coverLetter) public {\n            cvs.push(CV(_studentOwner, _businessOwner, _jobTitle, _coverLetter, \"Screening\"));\n    }\n\n    // Chc nng kim tra sinh vin  np CV cha?\n    function checkCV(\n        address _studentOwner, \n        address _businessOwner, \n        string memory _jobTitle) public view returns(uint x) {\n            for(uint i=0; i<cvs.length; i++){\n                if((cvs[i].studentOwner == _studentOwner) && (cvs[i].businessOwner == _businessOwner) && (keccak256(bytes(cvs[i].jobTitle)) == keccak256(bytes(_jobTitle)))){\n                    return 1;\n                }\n            }\n    }\n\n    //Chc nng duyt CV vo vng interview\n    function interviewCV(\n        address _studentOwner, \n        address _businessOwner, \n        string memory _jobTitle,\n        string memory _statusCV) public {\n            for(uint i=0; i<cvs.length; i++){\n                if((cvs[i].studentOwner == _studentOwner) && (cvs[i].businessOwner == _businessOwner) && (keccak256(bytes(cvs[i].jobTitle)) == keccak256(bytes(_jobTitle)))){\n                    cvs[i].statusCV = _statusCV;\n                }\n            }\n    }\n\n    //Chc nng duyt CV vo vng onboard\n    function onboardCV(\n        address _studentOwner, \n        address _businessOwner, \n        string memory _jobTitle,\n        string memory _statusCV) public {\n            for(uint i=0; i<cvs.length; i++){\n                if((cvs[i].studentOwner == _studentOwner) && (cvs[i].businessOwner == _businessOwner) && (keccak256(bytes(cvs[i].jobTitle)) == keccak256(bytes(_jobTitle)))){\n                    cvs[i].statusCV = _statusCV;\n                }\n            }\n    }\n\n    // Chc nng ly danh sch CV theo doanh nghip\n    function getCV(address _businessOwner) public view returns(\n        address[] memory, \n        address[] memory, \n        string[] memory, \n        string[] memory,\n        string[] memory)  {\n            address[] memory studentOwners = new address[](cvs.length);\n            address[] memory businessOwners = new address[](cvs.length);\n            string[] memory jobTitles = new string[](cvs.length);\n            string[] memory coverLetters = new string[](cvs.length);\n            string[] memory statusCVs = new string[](cvs.length);\n            for(uint i=0; i<cvs.length;i++){\n                if(cvs[i].businessOwner == _businessOwner) {\n                    studentOwners[i] = cvs[i].studentOwner;\n                    businessOwners[i] = cvs[i].businessOwner;\n                    jobTitles[i] = cvs[i].jobTitle;\n                    coverLetters[i] = cvs[i].coverLetter;\n                    statusCVs[i] = cvs[i].statusCV;\n                }\n            }\n            return (studentOwners, businessOwners, jobTitles, coverLetters, statusCVs);\n    }\n\n    // Chc nng thm thng tin tuyn dng\n    function addRecruit(\n        address _businessOwner,\n        string memory _jobTitle,\n        string memory _jobDescription) public {\n            recruits.push(Recruit(_businessOwner, _jobTitle, _jobDescription));\n    }\n\n    // Chc nng ly thng tin tuyn dng\n    function getRecruit(address _businessOwner) public view returns(\n        string[] memory, \n        string[] memory) {\n            string[] memory jobTitles = new string[](recruits.length);\n            string[] memory jobDescriptions = new string[](recruits.length);\n            for(uint i=0; i<recruits.length;i++){\n                if(recruits[i].businessOwner == _businessOwner) {\n                    jobTitles[i] = recruits[i].jobTitle;\n                    jobDescriptions[i] = recruits[i].jobDescription;\n                }\n            }\n            return (jobTitles, jobDescriptions);\n    }\n\n    // Chc nng lu tr nh gi thc tp ca tng sinh vin\n    function addReview(\n        address _studentOwner, \n        address _businessOwner, \n        string memory _content) public {\n            reviews.push(Review(_studentOwner, _businessOwner, _content));\n    }\n\n    // Chc nng ly thng tin nh gi thc tp\n    function getReview(\n        address _studentOwner, \n        address _businessOwner) public view returns(\n            address studentOwner, \n            address businessOwner, \n            string memory content)  {\n                for(uint i=0; i<reviews.length;i++){\n                    if(reviews[i].businessOwner == _businessOwner && reviews[i].studentOwner == _studentOwner) {\n                        return(reviews[i].studentOwner,\n                                reviews[i].businessOwner,\n                                reviews[i].content);\n                    }\n                }\n    }\n\n}",
  "sourcePath": "/Users/khanhle/Documents/GitHub/IS_cv/contracts/SmartCV_Apply.sol",
  "compiler": {
    "name": "solc",
    "version": "0.8.15+commit.e14f2714.Emscripten.clang"
  },
  "schemaVersion": "3.4.8",
  "updatedAt": "2022-07-15T14:18:05.300Z",
  "devdoc": {
    "kind": "dev",
    "methods": {},
    "version": 1
  },
  "userdoc": {
    "kind": "user",
    "methods": {},
    "version": 1
  }
}