{
  "contractName": "ApplyCV",
  "abi": [
    {
      "inputs": [
        {
          "internalType": "uint256",
          "name": "",
          "type": "uint256"
        }
      ],
      "name": "cvs",
      "outputs": [
        {
          "internalType": "address",
          "name": "studentOwner",
          "type": "address"
        },
        {
          "internalType": "address",
          "name": "businessOwner",
          "type": "address"
        }
      ],
      "stateMutability": "view",
      "type": "function"
    },
    {
      "inputs": [
        {
          "internalType": "uint256",
          "name": "",
          "type": "uint256"
        }
      ],
      "name": "reviews",
      "outputs": [
        {
          "internalType": "address",
          "name": "studentOwner",
          "type": "address"
        },
        {
          "internalType": "address",
          "name": "businessOwner",
          "type": "address"
        },
        {
          "internalType": "string",
          "name": "content",
          "type": "string"
        }
      ],
      "stateMutability": "view",
      "type": "function"
    },
    {
      "inputs": [
        {
          "internalType": "address",
          "name": "_studentOwner",
          "type": "address"
        },
        {
          "internalType": "address",
          "name": "_businessOwner",
          "type": "address"
        }
      ],
      "name": "addCV",
      "outputs": [],
      "stateMutability": "nonpayable",
      "type": "function"
    },
    {
      "inputs": [
        {
          "internalType": "address",
          "name": "_businessOwner",
          "type": "address"
        }
      ],
      "name": "getCV",
      "outputs": [
        {
          "internalType": "address[]",
          "name": "",
          "type": "address[]"
        },
        {
          "internalType": "address[]",
          "name": "",
          "type": "address[]"
        }
      ],
      "stateMutability": "view",
      "type": "function"
    },
    {
      "inputs": [
        {
          "internalType": "address",
          "name": "_studentOwner",
          "type": "address"
        },
        {
          "internalType": "address",
          "name": "_businessOwner",
          "type": "address"
        },
        {
          "internalType": "string",
          "name": "_content",
          "type": "string"
        }
      ],
      "name": "addReview",
      "outputs": [],
      "stateMutability": "nonpayable",
      "type": "function"
    },
    {
      "inputs": [
        {
          "internalType": "address",
          "name": "_studentOwner",
          "type": "address"
        },
        {
          "internalType": "address",
          "name": "_businessOwner",
          "type": "address"
        }
      ],
      "name": "getReview",
      "outputs": [
        {
          "internalType": "address",
          "name": "studentOwner",
          "type": "address"
        },
        {
          "internalType": "address",
          "name": "businessOwner",
          "type": "address"
        },
        {
          "internalType": "string",
          "name": "content",
          "type": "string"
        }
      ],
      "stateMutability": "view",
      "type": "function"
    }
  ],
  "bytecode": "0x608060405234801561001057600080fd5b50611280806100206000396000f3fe608060405234801561001057600080fd5b50600436106100625760003560e01c80630b88dd5514610067578063381a3bf7146100835780637aedcde5146100b4578063ae8f00d3146100e5578063e83ddcea14610101578063e9daa70a14610133575b600080fd5b610081600480360381019061007c9190610a4e565b610165565b005b61009d60048036038101906100989190610a8e565b610265565b6040516100ab929190610b79565b60405180910390f35b6100ce60048036038101906100c99190610be6565b6104da565b6040516100dc929190610c22565b60405180910390f35b6100ff60048036038101906100fa9190610d91565b61054e565b005b61011b60048036038101906101169190610be6565b61066b565b60405161012a93929190610e88565b60405180910390f35b61014d60048036038101906101489190610a4e565b61076d565b60405161015c93929190610e88565b60405180910390f35b600060405180604001604052808473ffffffffffffffffffffffffffffffffffffffff1681526020018373ffffffffffffffffffffffffffffffffffffffff16815250908060018154018082558091505060019003906000526020600020906002020160009091909190915060008201518160000160006101000a81548173ffffffffffffffffffffffffffffffffffffffff021916908373ffffffffffffffffffffffffffffffffffffffff16021790555060208201518160010160006101000a81548173ffffffffffffffffffffffffffffffffffffffff021916908373ffffffffffffffffffffffffffffffffffffffff16021790555050505050565b6060806000808054905067ffffffffffffffff81111561028857610287610c66565b5b6040519080825280602002602001820160405280156102b65781602001602082028036833780820191505090505b5090506000808054905067ffffffffffffffff8111156102d9576102d8610c66565b5b6040519080825280602002602001820160405280156103075781602001602082028036833780820191505090505b50905060005b6000805490508110156104cc578573ffffffffffffffffffffffffffffffffffffffff166000828154811061034557610344610ec6565b5b906000526020600020906002020160010160009054906101000a900473ffffffffffffffffffffffffffffffffffffffff1673ffffffffffffffffffffffffffffffffffffffff16036104b957600081815481106103a6576103a5610ec6565b5b906000526020600020906002020160000160009054906101000a900473ffffffffffffffffffffffffffffffffffffffff168382815181106103eb576103ea610ec6565b5b602002602001019073ffffffffffffffffffffffffffffffffffffffff16908173ffffffffffffffffffffffffffffffffffffffff16815250506000818154811061043957610438610ec6565b5b906000526020600020906002020160010160009054906101000a900473ffffffffffffffffffffffffffffffffffffffff1682828151811061047e5761047d610ec6565b5b602002602001019073ffffffffffffffffffffffffffffffffffffffff16908173ffffffffffffffffffffffffffffffffffffffff16815250505b80806104c490610f24565b91505061030d565b508181935093505050915091565b600081815481106104ea57600080fd5b90600052602060002090600202016000915090508060000160009054906101000a900473ffffffffffffffffffffffffffffffffffffffff16908060010160009054906101000a900473ffffffffffffffffffffffffffffffffffffffff16905082565b600160405180606001604052808573ffffffffffffffffffffffffffffffffffffffff1681526020018473ffffffffffffffffffffffffffffffffffffffff16815260200183815250908060018154018082558091505060019003906000526020600020906003020160009091909190915060008201518160000160006101000a81548173ffffffffffffffffffffffffffffffffffffffff021916908373ffffffffffffffffffffffffffffffffffffffff16021790555060208201518160010160006101000a81548173ffffffffffffffffffffffffffffffffffffffff021916908373ffffffffffffffffffffffffffffffffffffffff16021790555060408201518160020190816106639190611178565b505050505050565b6001818154811061067b57600080fd5b90600052602060002090600302016000915090508060000160009054906101000a900473ffffffffffffffffffffffffffffffffffffffff16908060010160009054906101000a900473ffffffffffffffffffffffffffffffffffffffff16908060020180546106ea90610f9b565b80601f016020809104026020016040519081016040528092919081815260200182805461071690610f9b565b80156107635780601f1061073857610100808354040283529160200191610763565b820191906000526020600020905b81548152906001019060200180831161074657829003601f168201915b5050505050905083565b600080606060005b6001805490508110156109d3578473ffffffffffffffffffffffffffffffffffffffff16600182815481106107ad576107ac610ec6565b5b906000526020600020906003020160010160009054906101000a900473ffffffffffffffffffffffffffffffffffffffff1673ffffffffffffffffffffffffffffffffffffffff1614801561087257508573ffffffffffffffffffffffffffffffffffffffff166001828154811061082857610827610ec6565b5b906000526020600020906003020160000160009054906101000a900473ffffffffffffffffffffffffffffffffffffffff1673ffffffffffffffffffffffffffffffffffffffff16145b156109c0576001818154811061088b5761088a610ec6565b5b906000526020600020906003020160000160009054906101000a900473ffffffffffffffffffffffffffffffffffffffff16600182815481106108d1576108d0610ec6565b5b906000526020600020906003020160010160009054906101000a900473ffffffffffffffffffffffffffffffffffffffff166001838154811061091757610916610ec6565b5b906000526020600020906003020160020180805461093490610f9b565b80601f016020809104026020016040519081016040528092919081815260200182805461096090610f9b565b80156109ad5780601f10610982576101008083540402835291602001916109ad565b820191906000526020600020905b81548152906001019060200180831161099057829003601f168201915b50505050509050935093509350506109d5565b80806109cb90610f24565b915050610775565b505b9250925092565b6000604051905090565b600080fd5b600080fd5b600073ffffffffffffffffffffffffffffffffffffffff82169050919050565b6000610a1b826109f0565b9050919050565b610a2b81610a10565b8114610a3657600080fd5b50565b600081359050610a4881610a22565b92915050565b60008060408385031215610a6557610a646109e6565b5b6000610a7385828601610a39565b9250506020610a8485828601610a39565b9150509250929050565b600060208284031215610aa457610aa36109e6565b5b6000610ab284828501610a39565b91505092915050565b600081519050919050565b600082825260208201905092915050565b6000819050602082019050919050565b610af081610a10565b82525050565b6000610b028383610ae7565b60208301905092915050565b6000602082019050919050565b6000610b2682610abb565b610b308185610ac6565b9350610b3b83610ad7565b8060005b83811015610b6c578151610b538882610af6565b9750610b5e83610b0e565b925050600181019050610b3f565b5085935050505092915050565b60006040820190508181036000830152610b938185610b1b565b90508181036020830152610ba78184610b1b565b90509392505050565b6000819050919050565b610bc381610bb0565b8114610bce57600080fd5b50565b600081359050610be081610bba565b92915050565b600060208284031215610bfc57610bfb6109e6565b5b6000610c0a84828501610bd1565b91505092915050565b610c1c81610a10565b82525050565b6000604082019050610c376000830185610c13565b610c446020830184610c13565b9392505050565b600080fd5b600080fd5b6000601f19601f8301169050919050565b7f4e487b7100000000000000000000000000000000000000000000000000000000600052604160045260246000fd5b610c9e82610c55565b810181811067ffffffffffffffff82111715610cbd57610cbc610c66565b5b80604052505050565b6000610cd06109dc565b9050610cdc8282610c95565b919050565b600067ffffffffffffffff821115610cfc57610cfb610c66565b5b610d0582610c55565b9050602081019050919050565b82818337600083830152505050565b6000610d34610d2f84610ce1565b610cc6565b905082815260208101848484011115610d5057610d4f610c50565b5b610d5b848285610d12565b509392505050565b600082601f830112610d7857610d77610c4b565b5b8135610d88848260208601610d21565b91505092915050565b600080600060608486031215610daa57610da96109e6565b5b6000610db886828701610a39565b9350506020610dc986828701610a39565b925050604084013567ffffffffffffffff811115610dea57610de96109eb565b5b610df686828701610d63565b9150509250925092565b600081519050919050565b600082825260208201905092915050565b60005b83811015610e3a578082015181840152602081019050610e1f565b83811115610e49576000848401525b50505050565b6000610e5a82610e00565b610e648185610e0b565b9350610e74818560208601610e1c565b610e7d81610c55565b840191505092915050565b6000606082019050610e9d6000830186610c13565b610eaa6020830185610c13565b8181036040830152610ebc8184610e4f565b9050949350505050565b7f4e487b7100000000000000000000000000000000000000000000000000000000600052603260045260246000fd5b7f4e487b7100000000000000000000000000000000000000000000000000000000600052601160045260246000fd5b6000610f2f82610bb0565b91507fffffffffffffffffffffffffffffffffffffffffffffffffffffffffffffffff8203610f6157610f60610ef5565b5b600182019050919050565b7f4e487b7100000000000000000000000000000000000000000000000000000000600052602260045260246000fd5b60006002820490506001821680610fb357607f821691505b602082108103610fc657610fc5610f6c565b5b50919050565b60008190508160005260206000209050919050565b60006020601f8301049050919050565b600082821b905092915050565b60006008830261102e7fffffffffffffffffffffffffffffffffffffffffffffffffffffffffffffffff82610ff1565b6110388683610ff1565b95508019841693508086168417925050509392505050565b6000819050919050565b600061107561107061106b84610bb0565b611050565b610bb0565b9050919050565b6000819050919050565b61108f8361105a565b6110a361109b8261107c565b848454610ffe565b825550505050565b600090565b6110b86110ab565b6110c3818484611086565b505050565b5b818110156110e7576110dc6000826110b0565b6001810190506110c9565b5050565b601f82111561112c576110fd81610fcc565b61110684610fe1565b81016020851015611115578190505b61112961112185610fe1565b8301826110c8565b50505b505050565b600082821c905092915050565b600061114f60001984600802611131565b1980831691505092915050565b6000611168838361113e565b9150826002028217905092915050565b61118182610e00565b67ffffffffffffffff81111561119a57611199610c66565b5b6111a48254610f9b565b6111af8282856110eb565b600060209050601f8311600181146111e257600084156111d0578287015190505b6111da858261115c565b865550611242565b601f1984166111f086610fcc565b60005b82811015611218578489015182556001820191506020850194506020810190506111f3565b868310156112355784890151611231601f89168261113e565b8355505b6001600288020188555050505b50505050505056fea264697066735822122044fe88807b3fb3a2f0724a5ee485baad8941285b41f9e25607a4d28bdab988dc64736f6c634300080f0033",
  "immutableReferences": {},
  "source": "// SPDX-License-Identifier: MIT\r\npragma solidity >=0.4.22 <0.9.0;\r\n\r\n//Lu tr CV\r\ncontract ApplyCV {\r\n    struct CV {\r\n        address studentOwner;\r\n        address businessOwner;\r\n    }\r\n\r\n  \r\n    struct Review {\r\n        address studentOwner;\r\n        address businessOwner;\r\n        string content;\r\n    }\r\n\r\n    CV[] public cvs;\r\n    Review[] public reviews;\r\n\r\n    //Nhn CV\r\n    function addCV (address _studentOwner, address _businessOwner) public {\r\n            cvs.push(CV(_studentOwner, _businessOwner));\r\n    }\r\n\r\n    //Ly danh sch CV theo doanh nghip\r\n    function getCV(address _businessOwner) public view returns(address[] memory, address[] memory)  {\r\n        address[] memory studentOwners = new address[](cvs.length);\r\n        address[] memory businessOwners = new address[](cvs.length);\r\n        for(uint i=0; i<cvs.length;i++){\r\n            if(cvs[i].businessOwner == _businessOwner) {\r\n                studentOwners[i] = cvs[i].studentOwner;\r\n                businessOwners[i] = cvs[i].businessOwner;\r\n            }\r\n        }\r\n        return (studentOwners, businessOwners);\r\n    }\r\n     //Lu tr nh gi thc tp ca tng sinh vin\r\n    function addReview (address _studentOwner, address _businessOwner, string memory _content) public {\r\n            reviews.push(Review(_studentOwner, _businessOwner, _content));\r\n    }\r\n\r\n    //Ly thng tin nh gi thc tp\r\n    function getReview(address _studentOwner, address _businessOwner) public view returns(address studentOwner, address businessOwner, string memory content)  {\r\n        for(uint i=0; i<reviews.length;i++){\r\n            if(reviews[i].businessOwner == _businessOwner && reviews[i].studentOwner == _studentOwner) {\r\n                return(reviews[i].studentOwner,\r\n                        reviews[i].businessOwner,\r\n                        reviews[i].content);\r\n            }\r\n        }\r\n    }\r\n}",
  "sourcePath": "C:\\Users\\ADMIN\\Desktop\\New folder\\IS_cv\\contracts\\SmartCV_Apply.sol",
  "compiler": {
    "name": "solc",
    "version": "0.8.15+commit.e14f2714.Emscripten.clang"
  },
  "schemaVersion": "3.4.7",
  "updatedAt": "2022-07-01T08:09:40.738Z",
  "devdoc": {
    "kind": "dev",
    "methods": {},
    "version": 1
  },
  "userdoc": {
    "kind": "user",
    "methods": {},
    "version": 1
  }
}