{
  "contractName": "ApplyCV",
  "abi": [
    {
      "inputs": [
        {
          "internalType": "uint256",
          "name": "",
          "type": "uint256"
        }
      ],
      "name": "cvs",
      "outputs": [
        {
          "internalType": "address",
          "name": "studentOwner",
          "type": "address"
        },
        {
          "internalType": "address",
          "name": "businessOwner",
          "type": "address"
        }
      ],
      "stateMutability": "view",
      "type": "function"
    },
    {
      "inputs": [
        {
          "internalType": "uint256",
          "name": "",
          "type": "uint256"
        }
      ],
      "name": "reviews",
      "outputs": [
        {
          "internalType": "address",
          "name": "studentOwner",
          "type": "address"
        },
        {
          "internalType": "address",
          "name": "businessOwner",
          "type": "address"
        },
        {
          "internalType": "string",
          "name": "content",
          "type": "string"
        }
      ],
      "stateMutability": "view",
      "type": "function"
    },
    {
      "inputs": [
        {
          "internalType": "address",
          "name": "_studentOwner",
          "type": "address"
        },
        {
          "internalType": "address",
          "name": "_businessOwner",
          "type": "address"
        }
      ],
      "name": "addCV",
      "outputs": [],
      "stateMutability": "nonpayable",
      "type": "function"
    },
    {
      "inputs": [
        {
          "internalType": "address",
          "name": "_businessOwner",
          "type": "address"
        }
      ],
      "name": "getCV",
      "outputs": [
        {
          "internalType": "address[]",
          "name": "",
          "type": "address[]"
        },
        {
          "internalType": "address[]",
          "name": "",
          "type": "address[]"
        }
      ],
      "stateMutability": "view",
      "type": "function"
    },
    {
      "inputs": [
        {
          "internalType": "address",
          "name": "_studentOwner",
          "type": "address"
        },
        {
          "internalType": "address",
          "name": "_businessOwner",
          "type": "address"
        },
        {
          "internalType": "string",
          "name": "_content",
          "type": "string"
        }
      ],
      "name": "addReview",
      "outputs": [],
      "stateMutability": "nonpayable",
      "type": "function"
    },
    {
      "inputs": [
        {
          "internalType": "address",
          "name": "_studentOwner",
          "type": "address"
        },
        {
          "internalType": "address",
          "name": "_businessOwner",
          "type": "address"
        }
      ],
      "name": "getReview",
      "outputs": [
        {
          "internalType": "address[]",
          "name": "",
          "type": "address[]"
        },
        {
          "internalType": "address[]",
          "name": "",
          "type": "address[]"
        },
        {
          "internalType": "string[]",
          "name": "",
          "type": "string[]"
        }
      ],
      "stateMutability": "view",
      "type": "function"
    }
  ],
  "bytecode": "0x608060405234801561001057600080fd5b50611588806100206000396000f3fe608060405234801561001057600080fd5b50600436106100625760003560e01c80630b88dd5514610067578063381a3bf7146100835780637aedcde5146100b4578063ae8f00d3146100e5578063e83ddcea14610101578063e9daa70a14610133575b600080fd5b610081600480360381019061007c9190610bfe565b610165565b005b61009d60048036038101906100989190610c3e565b610265565b6040516100ab929190610d29565b60405180910390f35b6100ce60048036038101906100c99190610d96565b6104da565b6040516100dc929190610dd2565b60405180910390f35b6100ff60048036038101906100fa9190610f41565b61054e565b005b61011b60048036038101906101169190610d96565b61066b565b60405161012a93929190611038565b60405180910390f35b61014d60048036038101906101489190610bfe565b61076d565b60405161015c93929190611182565b60405180910390f35b600060405180604001604052808473ffffffffffffffffffffffffffffffffffffffff1681526020018373ffffffffffffffffffffffffffffffffffffffff16815250908060018154018082558091505060019003906000526020600020906002020160009091909190915060008201518160000160006101000a81548173ffffffffffffffffffffffffffffffffffffffff021916908373ffffffffffffffffffffffffffffffffffffffff16021790555060208201518160010160006101000a81548173ffffffffffffffffffffffffffffffffffffffff021916908373ffffffffffffffffffffffffffffffffffffffff16021790555050505050565b6060806000808054905067ffffffffffffffff81111561028857610287610e16565b5b6040519080825280602002602001820160405280156102b65781602001602082028036833780820191505090505b5090506000808054905067ffffffffffffffff8111156102d9576102d8610e16565b5b6040519080825280602002602001820160405280156103075781602001602082028036833780820191505090505b50905060005b6000805490508110156104cc578573ffffffffffffffffffffffffffffffffffffffff1660008281548110610345576103446111ce565b5b906000526020600020906002020160010160009054906101000a900473ffffffffffffffffffffffffffffffffffffffff1673ffffffffffffffffffffffffffffffffffffffff16036104b957600081815481106103a6576103a56111ce565b5b906000526020600020906002020160000160009054906101000a900473ffffffffffffffffffffffffffffffffffffffff168382815181106103eb576103ea6111ce565b5b602002602001019073ffffffffffffffffffffffffffffffffffffffff16908173ffffffffffffffffffffffffffffffffffffffff168152505060008181548110610439576104386111ce565b5b906000526020600020906002020160010160009054906101000a900473ffffffffffffffffffffffffffffffffffffffff1682828151811061047e5761047d6111ce565b5b602002602001019073ffffffffffffffffffffffffffffffffffffffff16908173ffffffffffffffffffffffffffffffffffffffff16815250505b80806104c49061122c565b91505061030d565b508181935093505050915091565b600081815481106104ea57600080fd5b90600052602060002090600202016000915090508060000160009054906101000a900473ffffffffffffffffffffffffffffffffffffffff16908060010160009054906101000a900473ffffffffffffffffffffffffffffffffffffffff16905082565b600160405180606001604052808573ffffffffffffffffffffffffffffffffffffffff1681526020018473ffffffffffffffffffffffffffffffffffffffff16815260200183815250908060018154018082558091505060019003906000526020600020906003020160009091909190915060008201518160000160006101000a81548173ffffffffffffffffffffffffffffffffffffffff021916908373ffffffffffffffffffffffffffffffffffffffff16021790555060208201518160010160006101000a81548173ffffffffffffffffffffffffffffffffffffffff021916908373ffffffffffffffffffffffffffffffffffffffff16021790555060408201518160020190816106639190611480565b505050505050565b6001818154811061067b57600080fd5b90600052602060002090600302016000915090508060000160009054906101000a900473ffffffffffffffffffffffffffffffffffffffff16908060010160009054906101000a900473ffffffffffffffffffffffffffffffffffffffff16908060020180546106ea906112a3565b80601f0160208091040260200160405190810160405280929190818152602001828054610716906112a3565b80156107635780601f1061073857610100808354040283529160200191610763565b820191906000526020600020905b81548152906001019060200180831161074657829003601f168201915b5050505050905083565b6060806060600060018054905067ffffffffffffffff81111561079357610792610e16565b5b6040519080825280602002602001820160405280156107c15781602001602082028036833780820191505090505b509050600060018054905067ffffffffffffffff8111156107e5576107e4610e16565b5b6040519080825280602002602001820160405280156108135781602001602082028036833780820191505090505b509050600060018054905067ffffffffffffffff81111561083757610836610e16565b5b60405190808252806020026020018201604052801561086a57816020015b60608152602001906001900390816108555790505b50905060005b600180549050811015610b78578773ffffffffffffffffffffffffffffffffffffffff16600182815481106108a8576108a76111ce565b5b906000526020600020906003020160010160009054906101000a900473ffffffffffffffffffffffffffffffffffffffff1673ffffffffffffffffffffffffffffffffffffffff1614801561096d57508873ffffffffffffffffffffffffffffffffffffffff1660018281548110610923576109226111ce565b5b906000526020600020906003020160000160009054906101000a900473ffffffffffffffffffffffffffffffffffffffff1673ffffffffffffffffffffffffffffffffffffffff16145b15610b655760018181548110610986576109856111ce565b5b906000526020600020906003020160000160009054906101000a900473ffffffffffffffffffffffffffffffffffffffff168482815181106109cb576109ca6111ce565b5b602002602001019073ffffffffffffffffffffffffffffffffffffffff16908173ffffffffffffffffffffffffffffffffffffffff168152505060018181548110610a1957610a186111ce565b5b906000526020600020906003020160010160009054906101000a900473ffffffffffffffffffffffffffffffffffffffff16838281518110610a5e57610a5d6111ce565b5b602002602001019073ffffffffffffffffffffffffffffffffffffffff16908173ffffffffffffffffffffffffffffffffffffffff168152505060018181548110610aac57610aab6111ce565b5b90600052602060002090600302016002018054610ac8906112a3565b80601f0160208091040260200160405190810160405280929190818152602001828054610af4906112a3565b8015610b415780601f10610b1657610100808354040283529160200191610b41565b820191906000526020600020905b815481529060010190602001808311610b2457829003601f168201915b5050505050828281518110610b5957610b586111ce565b5b60200260200101819052505b8080610b709061122c565b915050610870565b508282829550955095505050509250925092565b6000604051905090565b600080fd5b600080fd5b600073ffffffffffffffffffffffffffffffffffffffff82169050919050565b6000610bcb82610ba0565b9050919050565b610bdb81610bc0565b8114610be657600080fd5b50565b600081359050610bf881610bd2565b92915050565b60008060408385031215610c1557610c14610b96565b5b6000610c2385828601610be9565b9250506020610c3485828601610be9565b9150509250929050565b600060208284031215610c5457610c53610b96565b5b6000610c6284828501610be9565b91505092915050565b600081519050919050565b600082825260208201905092915050565b6000819050602082019050919050565b610ca081610bc0565b82525050565b6000610cb28383610c97565b60208301905092915050565b6000602082019050919050565b6000610cd682610c6b565b610ce08185610c76565b9350610ceb83610c87565b8060005b83811015610d1c578151610d038882610ca6565b9750610d0e83610cbe565b925050600181019050610cef565b5085935050505092915050565b60006040820190508181036000830152610d438185610ccb565b90508181036020830152610d578184610ccb565b90509392505050565b6000819050919050565b610d7381610d60565b8114610d7e57600080fd5b50565b600081359050610d9081610d6a565b92915050565b600060208284031215610dac57610dab610b96565b5b6000610dba84828501610d81565b91505092915050565b610dcc81610bc0565b82525050565b6000604082019050610de76000830185610dc3565b610df46020830184610dc3565b9392505050565b600080fd5b600080fd5b6000601f19601f8301169050919050565b7f4e487b7100000000000000000000000000000000000000000000000000000000600052604160045260246000fd5b610e4e82610e05565b810181811067ffffffffffffffff82111715610e6d57610e6c610e16565b5b80604052505050565b6000610e80610b8c565b9050610e8c8282610e45565b919050565b600067ffffffffffffffff821115610eac57610eab610e16565b5b610eb582610e05565b9050602081019050919050565b82818337600083830152505050565b6000610ee4610edf84610e91565b610e76565b905082815260208101848484011115610f0057610eff610e00565b5b610f0b848285610ec2565b509392505050565b600082601f830112610f2857610f27610dfb565b5b8135610f38848260208601610ed1565b91505092915050565b600080600060608486031215610f5a57610f59610b96565b5b6000610f6886828701610be9565b9350506020610f7986828701610be9565b925050604084013567ffffffffffffffff811115610f9a57610f99610b9b565b5b610fa686828701610f13565b9150509250925092565b600081519050919050565b600082825260208201905092915050565b60005b83811015610fea578082015181840152602081019050610fcf565b83811115610ff9576000848401525b50505050565b600061100a82610fb0565b6110148185610fbb565b9350611024818560208601610fcc565b61102d81610e05565b840191505092915050565b600060608201905061104d6000830186610dc3565b61105a6020830185610dc3565b818103604083015261106c8184610fff565b9050949350505050565b600081519050919050565b600082825260208201905092915050565b6000819050602082019050919050565b600082825260208201905092915050565b60006110be82610fb0565b6110c881856110a2565b93506110d8818560208601610fcc565b6110e181610e05565b840191505092915050565b60006110f883836110b3565b905092915050565b6000602082019050919050565b600061111882611076565b6111228185611081565b93508360208202850161113485611092565b8060005b85811015611170578484038952815161115185826110ec565b945061115c83611100565b925060208a01995050600181019050611138565b50829750879550505050505092915050565b6000606082019050818103600083015261119c8186610ccb565b905081810360208301526111b08185610ccb565b905081810360408301526111c4818461110d565b9050949350505050565b7f4e487b7100000000000000000000000000000000000000000000000000000000600052603260045260246000fd5b7f4e487b7100000000000000000000000000000000000000000000000000000000600052601160045260246000fd5b600061123782610d60565b91507fffffffffffffffffffffffffffffffffffffffffffffffffffffffffffffffff8203611269576112686111fd565b5b600182019050919050565b7f4e487b7100000000000000000000000000000000000000000000000000000000600052602260045260246000fd5b600060028204905060018216806112bb57607f821691505b6020821081036112ce576112cd611274565b5b50919050565b60008190508160005260206000209050919050565b60006020601f8301049050919050565b600082821b905092915050565b6000600883026113367fffffffffffffffffffffffffffffffffffffffffffffffffffffffffffffffff826112f9565b61134086836112f9565b95508019841693508086168417925050509392505050565b6000819050919050565b600061137d61137861137384610d60565b611358565b610d60565b9050919050565b6000819050919050565b61139783611362565b6113ab6113a382611384565b848454611306565b825550505050565b600090565b6113c06113b3565b6113cb81848461138e565b505050565b5b818110156113ef576113e46000826113b8565b6001810190506113d1565b5050565b601f82111561143457611405816112d4565b61140e846112e9565b8101602085101561141d578190505b611431611429856112e9565b8301826113d0565b50505b505050565b600082821c905092915050565b600061145760001984600802611439565b1980831691505092915050565b60006114708383611446565b9150826002028217905092915050565b61148982610fb0565b67ffffffffffffffff8111156114a2576114a1610e16565b5b6114ac82546112a3565b6114b78282856113f3565b600060209050601f8311600181146114ea57600084156114d8578287015190505b6114e28582611464565b86555061154a565b601f1984166114f8866112d4565b60005b82811015611520578489015182556001820191506020850194506020810190506114fb565b8683101561153d5784890151611539601f891682611446565b8355505b6001600288020188555050505b50505050505056fea26469706673582212201cca0b13eaedd012e3bad8e67b0520b92990b9800988a363ffc898224dcf046b64736f6c634300080f0033",
  "immutableReferences": {},
  "source": "// SPDX-License-Identifier: MIT\r\npragma solidity >=0.4.22 <0.9.0;\r\n\r\n//Lu tr CV\r\ncontract ApplyCV {\r\n    struct CV {\r\n        address studentOwner;\r\n        address businessOwner;\r\n    }\r\n\r\n  \r\n    struct Review {\r\n        address studentOwner;\r\n        address businessOwner;\r\n        string content;\r\n    }\r\n\r\n    CV[] public cvs;\r\n    Review[] public reviews;\r\n\r\n    //Nhn CV\r\n    function addCV (address _studentOwner, address _businessOwner) public {\r\n            cvs.push(CV(_studentOwner, _businessOwner));\r\n    }\r\n\r\n    //Ly danh sch CV theo doanh nghip\r\n    function getCV(address _businessOwner) public view returns(address[] memory, address[] memory)  {\r\n        address[] memory studentOwners = new address[](cvs.length);\r\n        address[] memory businessOwners = new address[](cvs.length);\r\n        for(uint i=0; i<cvs.length;i++){\r\n            if(cvs[i].businessOwner == _businessOwner) {\r\n                studentOwners[i] = cvs[i].studentOwner;\r\n                businessOwners[i] = cvs[i].businessOwner;\r\n            }\r\n        }\r\n        return (studentOwners, businessOwners);\r\n    }\r\n     //Lu tr nh gi thc tp ca tng sinh vin\r\n    function addReview (address _studentOwner, address _businessOwner, string memory _content) public {\r\n            reviews.push(Review(_studentOwner, _businessOwner, _content));\r\n    }\r\n\r\n    //Ly thng tin nh gi thc tp\r\n    function getReview(address _studentOwner, address _businessOwner) public view returns(address[] memory, address[] memory, string[] memory)  {\r\n        address[] memory studentOwners = new address[](reviews.length);\r\n        address[] memory businessOwners = new address[](reviews.length);\r\n        string[] memory contents = new string[](reviews.length);\r\n        for(uint i=0; i<reviews.length;i++){\r\n            if(reviews[i].businessOwner == _businessOwner && reviews[i].studentOwner == _studentOwner) {\r\n                studentOwners[i] = reviews[i].studentOwner;\r\n                businessOwners[i] = reviews[i].businessOwner;\r\n                contents[i] = reviews[i].content;\r\n            }\r\n        }\r\n        return(studentOwners,businessOwners,contents);\r\n    }\r\n}",
  "sourcePath": "C:\\Users\\19520\\Documents\\NCKH_Blockchain\\IS_cv\\contracts\\SmartCV_Apply.sol",
  "compiler": {
    "name": "solc",
    "version": "0.8.15+commit.e14f2714.Emscripten.clang"
  },
  "schemaVersion": "3.4.4",
  "updatedAt": "2022-07-02T07:43:25.709Z",
  "devdoc": {
    "kind": "dev",
    "methods": {},
    "version": 1
  },
  "userdoc": {
    "kind": "user",
    "methods": {},
    "version": 1
  }
}