{
  "contractName": "ListBusiness",
  "abi": [
    {
      "inputs": [
        {
          "internalType": "uint256",
          "name": "",
          "type": "uint256"
        }
      ],
      "name": "listDNs",
      "outputs": [
        {
          "internalType": "address",
          "name": "businessOwner",
          "type": "address"
        },
        {
          "internalType": "string",
          "name": "name",
          "type": "string"
        },
        {
          "internalType": "string",
          "name": "country",
          "type": "string"
        },
        {
          "internalType": "string",
          "name": "facebook",
          "type": "string"
        },
        {
          "internalType": "string",
          "name": "website",
          "type": "string"
        },
        {
          "internalType": "string",
          "name": "linkedin",
          "type": "string"
        },
        {
          "internalType": "string",
          "name": "focusArea",
          "type": "string"
        }
      ],
      "stateMutability": "view",
      "type": "function"
    },
    {
      "inputs": [
        {
          "internalType": "address",
          "name": "_businessOwner",
          "type": "address"
        },
        {
          "internalType": "string",
          "name": "_name",
          "type": "string"
        },
        {
          "internalType": "string",
          "name": "_country",
          "type": "string"
        },
        {
          "internalType": "string",
          "name": "_facebook",
          "type": "string"
        },
        {
          "internalType": "string",
          "name": "_website",
          "type": "string"
        },
        {
          "internalType": "string",
          "name": "_linkedin",
          "type": "string"
        },
        {
          "internalType": "string",
          "name": "_focusArea",
          "type": "string"
        }
      ],
      "name": "addDN",
      "outputs": [],
      "stateMutability": "nonpayable",
      "type": "function"
    },
    {
      "inputs": [
        {
          "internalType": "address",
          "name": "_businessOwner",
          "type": "address"
        }
      ],
      "name": "getListDN",
      "outputs": [
        {
          "internalType": "address[]",
          "name": "",
          "type": "address[]"
        },
        {
          "internalType": "string[]",
          "name": "",
          "type": "string[]"
        },
        {
          "internalType": "string[]",
          "name": "",
          "type": "string[]"
        },
        {
          "internalType": "string[]",
          "name": "",
          "type": "string[]"
        },
        {
          "internalType": "string[]",
          "name": "",
          "type": "string[]"
        },
        {
          "internalType": "string[]",
          "name": "",
          "type": "string[]"
        },
        {
          "internalType": "string[]",
          "name": "",
          "type": "string[]"
        }
      ],
      "stateMutability": "view",
      "type": "function"
    }
  ],
  "bytecode": "0x608060405234801561001057600080fd5b50611771806100206000396000f3fe608060405234801561001057600080fd5b50600436106100415760003560e01c80631ed6aeec14610046578063bf44b30314610062578063c8dd4f8e14610098575b600080fd5b610060600480360381019061005b91906110bf565b6100ce565b005b61007c6004803603810190610077919061123f565b610242565b60405161008f9796959493929190611303565b60405180910390f35b6100b260048036038101906100ad919061139c565b6105e4565b6040516100c59796959493929190611593565b60405180910390f35b60006040518060e001604052808973ffffffffffffffffffffffffffffffffffffffff16815260200188815260200187815260200186815260200185815260200184815260200183815250908060018154018082558091505060019003906000526020600020906007020160009091909190915060008201518160000160006101000a81548173ffffffffffffffffffffffffffffffffffffffff021916908373ffffffffffffffffffffffffffffffffffffffff16021790555060208201518160010190805190602001906101a5929190610e64565b5060408201518160020190805190602001906101c2929190610e64565b5060608201518160030190805190602001906101df929190610e64565b5060808201518160040190805190602001906101fc929190610e64565b5060a0820151816005019080519060200190610219929190610e64565b5060c0820151816006019080519060200190610236929190610e64565b50505050505050505050565b6000818154811061025257600080fd5b90600052602060002090600702016000915090508060000160009054906101000a900473ffffffffffffffffffffffffffffffffffffffff169080600101805461029b90611662565b80601f01602080910402602001604051908101604052809291908181526020018280546102c790611662565b80156103145780601f106102e957610100808354040283529160200191610314565b820191906000526020600020905b8154815290600101906020018083116102f757829003601f168201915b50505050509080600201805461032990611662565b80601f016020809104026020016040519081016040528092919081815260200182805461035590611662565b80156103a25780601f10610377576101008083540402835291602001916103a2565b820191906000526020600020905b81548152906001019060200180831161038557829003601f168201915b5050505050908060030180546103b790611662565b80601f01602080910402602001604051908101604052809291908181526020018280546103e390611662565b80156104305780601f1061040557610100808354040283529160200191610430565b820191906000526020600020905b81548152906001019060200180831161041357829003601f168201915b50505050509080600401805461044590611662565b80601f016020809104026020016040519081016040528092919081815260200182805461047190611662565b80156104be5780601f10610493576101008083540402835291602001916104be565b820191906000526020600020905b8154815290600101906020018083116104a157829003601f168201915b5050505050908060050180546104d390611662565b80601f01602080910402602001604051908101604052809291908181526020018280546104ff90611662565b801561054c5780601f106105215761010080835404028352916020019161054c565b820191906000526020600020905b81548152906001019060200180831161052f57829003601f168201915b50505050509080600601805461056190611662565b80601f016020809104026020016040519081016040528092919081815260200182805461058d90611662565b80156105da5780601f106105af576101008083540402835291602001916105da565b820191906000526020600020905b8154815290600101906020018083116105bd57829003601f168201915b5050505050905087565b60608060608060608060606000808054905067ffffffffffffffff81111561060f5761060e610f94565b5b60405190808252806020026020018201604052801561063d5781602001602082028036833780820191505090505b5090506000808054905067ffffffffffffffff8111156106605761065f610f94565b5b60405190808252806020026020018201604052801561069357816020015b606081526020019060019003908161067e5790505b5090506000808054905067ffffffffffffffff8111156106b6576106b5610f94565b5b6040519080825280602002602001820160405280156106e957816020015b60608152602001906001900390816106d45790505b5090506000808054905067ffffffffffffffff81111561070c5761070b610f94565b5b60405190808252806020026020018201604052801561073f57816020015b606081526020019060019003908161072a5790505b5090506000808054905067ffffffffffffffff81111561076257610761610f94565b5b60405190808252806020026020018201604052801561079557816020015b60608152602001906001900390816107805790505b5090506000808054905067ffffffffffffffff8111156107b8576107b7610f94565b5b6040519080825280602002602001820160405280156107eb57816020015b60608152602001906001900390816107d65790505b5090506000808054905067ffffffffffffffff81111561080e5761080d610f94565b5b60405190808252806020026020018201604052801561084157816020015b606081526020019060019003908161082c5790505b50905060005b600080549050811015610e3c578f73ffffffffffffffffffffffffffffffffffffffff166000828154811061087f5761087e611694565b5b906000526020600020906007020160000160009054906101000a900473ffffffffffffffffffffffffffffffffffffffff1673ffffffffffffffffffffffffffffffffffffffff161415610e2957600081815481106108e1576108e0611694565b5b906000526020600020906007020160000160009054906101000a900473ffffffffffffffffffffffffffffffffffffffff1688828151811061092657610925611694565b5b602002602001019073ffffffffffffffffffffffffffffffffffffffff16908173ffffffffffffffffffffffffffffffffffffffff16815250506000818154811061097457610973611694565b5b9060005260206000209060070201600101805461099090611662565b80601f01602080910402602001604051908101604052809291908181526020018280546109bc90611662565b8015610a095780601f106109de57610100808354040283529160200191610a09565b820191906000526020600020905b8154815290600101906020018083116109ec57829003601f168201915b5050505050878281518110610a2157610a20611694565b5b602002602001018190525060008181548110610a4057610a3f611694565b5b90600052602060002090600702016002018054610a5c90611662565b80601f0160208091040260200160405190810160405280929190818152602001828054610a8890611662565b8015610ad55780601f10610aaa57610100808354040283529160200191610ad5565b820191906000526020600020905b815481529060010190602001808311610ab857829003601f168201915b5050505050868281518110610aed57610aec611694565b5b602002602001018190525060008181548110610b0c57610b0b611694565b5b90600052602060002090600702016003018054610b2890611662565b80601f0160208091040260200160405190810160405280929190818152602001828054610b5490611662565b8015610ba15780601f10610b7657610100808354040283529160200191610ba1565b820191906000526020600020905b815481529060010190602001808311610b8457829003601f168201915b5050505050858281518110610bb957610bb8611694565b5b602002602001018190525060008181548110610bd857610bd7611694565b5b90600052602060002090600702016004018054610bf490611662565b80601f0160208091040260200160405190810160405280929190818152602001828054610c2090611662565b8015610c6d5780601f10610c4257610100808354040283529160200191610c6d565b820191906000526020600020905b815481529060010190602001808311610c5057829003601f168201915b5050505050848281518110610c8557610c84611694565b5b602002602001018190525060008181548110610ca457610ca3611694565b5b90600052602060002090600702016005018054610cc090611662565b80601f0160208091040260200160405190810160405280929190818152602001828054610cec90611662565b8015610d395780601f10610d0e57610100808354040283529160200191610d39565b820191906000526020600020905b815481529060010190602001808311610d1c57829003601f168201915b5050505050838281518110610d5157610d50611694565b5b602002602001018190525060008181548110610d7057610d6f611694565b5b90600052602060002090600702016006018054610d8c90611662565b80601f0160208091040260200160405190810160405280929190818152602001828054610db890611662565b8015610e055780601f10610dda57610100808354040283529160200191610e05565b820191906000526020600020905b815481529060010190602001808311610de857829003601f168201915b5050505050828281518110610e1d57610e1c611694565b5b60200260200101819052505b8080610e34906116f2565b915050610847565b50868686868686869d509d509d509d509d509d509d5050505050505050919395979092949650565b828054610e7090611662565b90600052602060002090601f016020900481019282610e925760008555610ed9565b82601f10610eab57805160ff1916838001178555610ed9565b82800160010185558215610ed9579182015b82811115610ed8578251825591602001919060010190610ebd565b5b509050610ee69190610eea565b5090565b5b80821115610f03576000816000905550600101610eeb565b5090565b6000604051905090565b600080fd5b600080fd5b600073ffffffffffffffffffffffffffffffffffffffff82169050919050565b6000610f4682610f1b565b9050919050565b610f5681610f3b565b8114610f6157600080fd5b50565b600081359050610f7381610f4d565b92915050565b600080fd5b600080fd5b6000601f19601f8301169050919050565b7f4e487b7100000000000000000000000000000000000000000000000000000000600052604160045260246000fd5b610fcc82610f83565b810181811067ffffffffffffffff82111715610feb57610fea610f94565b5b80604052505050565b6000610ffe610f07565b905061100a8282610fc3565b919050565b600067ffffffffffffffff82111561102a57611029610f94565b5b61103382610f83565b9050602081019050919050565b82818337600083830152505050565b600061106261105d8461100f565b610ff4565b90508281526020810184848401111561107e5761107d610f7e565b5b611089848285611040565b509392505050565b600082601f8301126110a6576110a5610f79565b5b81356110b684826020860161104f565b91505092915050565b600080600080600080600060e0888a0312156110de576110dd610f11565b5b60006110ec8a828b01610f64565b975050602088013567ffffffffffffffff81111561110d5761110c610f16565b5b6111198a828b01611091565b965050604088013567ffffffffffffffff81111561113a57611139610f16565b5b6111468a828b01611091565b955050606088013567ffffffffffffffff81111561116757611166610f16565b5b6111738a828b01611091565b945050608088013567ffffffffffffffff81111561119457611193610f16565b5b6111a08a828b01611091565b93505060a088013567ffffffffffffffff8111156111c1576111c0610f16565b5b6111cd8a828b01611091565b92505060c088013567ffffffffffffffff8111156111ee576111ed610f16565b5b6111fa8a828b01611091565b91505092959891949750929550565b6000819050919050565b61121c81611209565b811461122757600080fd5b50565b60008135905061123981611213565b92915050565b60006020828403121561125557611254610f11565b5b60006112638482850161122a565b91505092915050565b61127581610f3b565b82525050565b600081519050919050565b600082825260208201905092915050565b60005b838110156112b557808201518184015260208101905061129a565b838111156112c4576000848401525b50505050565b60006112d58261127b565b6112df8185611286565b93506112ef818560208601611297565b6112f881610f83565b840191505092915050565b600060e082019050611318600083018a61126c565b818103602083015261132a81896112ca565b9050818103604083015261133e81886112ca565b9050818103606083015261135281876112ca565b9050818103608083015261136681866112ca565b905081810360a083015261137a81856112ca565b905081810360c083015261138e81846112ca565b905098975050505050505050565b6000602082840312156113b2576113b1610f11565b5b60006113c084828501610f64565b91505092915050565b600081519050919050565b600082825260208201905092915050565b6000819050602082019050919050565b6113fe81610f3b565b82525050565b600061141083836113f5565b60208301905092915050565b6000602082019050919050565b6000611434826113c9565b61143e81856113d4565b9350611449836113e5565b8060005b8381101561147a5781516114618882611404565b975061146c8361141c565b92505060018101905061144d565b5085935050505092915050565b600081519050919050565b600082825260208201905092915050565b6000819050602082019050919050565b600082825260208201905092915050565b60006114cf8261127b565b6114d981856114b3565b93506114e9818560208601611297565b6114f281610f83565b840191505092915050565b600061150983836114c4565b905092915050565b6000602082019050919050565b600061152982611487565b6115338185611492565b935083602082028501611545856114a3565b8060005b85811015611581578484038952815161156285826114fd565b945061156d83611511565b925060208a01995050600181019050611549565b50829750879550505050505092915050565b600060e08201905081810360008301526115ad818a611429565b905081810360208301526115c1818961151e565b905081810360408301526115d5818861151e565b905081810360608301526115e9818761151e565b905081810360808301526115fd818661151e565b905081810360a0830152611611818561151e565b905081810360c0830152611625818461151e565b905098975050505050505050565b7f4e487b7100000000000000000000000000000000000000000000000000000000600052602260045260246000fd5b6000600282049050600182168061167a57607f821691505b6020821081141561168e5761168d611633565b5b50919050565b7f4e487b7100000000000000000000000000000000000000000000000000000000600052603260045260246000fd5b7f4e487b7100000000000000000000000000000000000000000000000000000000600052601160045260246000fd5b60006116fd82611209565b91507fffffffffffffffffffffffffffffffffffffffffffffffffffffffffffffffff8214156117305761172f6116c3565b5b60018201905091905056fea264697066735822122029617ea97f3fa0214ca33ea31dc4f78c6b82d1da98b8b9323f6ee9bb61f4d5ec64736f6c634300080b0033",
  "immutableReferences": {},
  "source": "// SPDX-License-Identifier: MIT\r\npragma solidity >=0.4.22 <0.9.0;\r\n\r\n//Lu tr danh sch doanh nghip\r\ncontract ListBusiness {\r\n\r\n    struct ListDN {\r\n        address businessOwner;\r\n        string name; \r\n        string country; \r\n        string facebook;\r\n        string website;\r\n        string linkedin;\r\n        string focusArea;\r\n    }\r\n\r\n    ListDN[] public listDNs;\r\n\r\n    function addDN (\r\n        address _businessOwner,\r\n        string memory _name,\r\n        string memory _country,\r\n        string memory _facebook,\r\n        string memory _website,\r\n        string memory _linkedin,\r\n        string memory _focusArea) public {\r\n            listDNs.push(ListDN(_businessOwner, _name, _country, _facebook, _website, _linkedin, _focusArea));\r\n    }\r\n\r\n    function getListDN(address _businessOwner) public view returns(address[] memory, string[] memory, string[] memory, string[] memory, string[] memory, string[] memory, string[] memory) {\r\n        address[] memory businessOwners = new address[](listDNs.length);\r\n        string[] memory names = new string[](listDNs.length);\r\n        string[] memory countrys = new string[](listDNs.length);\r\n        string[] memory facebooks = new string[](listDNs.length);\r\n        string[] memory websites = new string[](listDNs.length);\r\n        string[] memory linkedins = new string[](listDNs.length);\r\n        string[] memory focusAreas = new string[](listDNs.length);\r\n        for(uint i=0; i<listDNs.length;i++){\r\n            if(listDNs[i].businessOwner == _businessOwner){\r\n                businessOwners[i] = listDNs[i].businessOwner;\r\n                names[i] = listDNs[i].name;\r\n                countrys[i] = listDNs[i].country;\r\n                facebooks[i] = listDNs[i].facebook;\r\n                websites[i] = listDNs[i].website;\r\n                linkedins[i] = listDNs[i].linkedin;\r\n                focusAreas[i] = listDNs[i].focusArea;\r\n            }\r\n        }\r\n        return (businessOwners, names, countrys, facebooks, websites, linkedins, focusAreas);\r\n    }\r\n    \r\n}",
  "sourcePath": "C:\\Users\\19520\\Documents\\NCKH_Blockchain\\IS_cv\\contracts\\SmartCV_ListBusiness.sol",
  "compiler": {
    "name": "solc",
    "version": "0.8.11+commit.d7f03943.Emscripten.clang"
  },
  "schemaVersion": "3.4.4",
  "updatedAt": "2022-06-24T07:30:14.976Z",
  "devdoc": {
    "kind": "dev",
    "methods": {},
    "version": 1
  },
  "userdoc": {
    "kind": "user",
    "methods": {},
    "version": 1
  }
}