{
  "contractName": "ListBusiness",
  "abi": [
    {
      "inputs": [
        {
          "internalType": "uint256",
          "name": "",
          "type": "uint256"
        }
      ],
      "name": "listDNs",
      "outputs": [
        {
          "internalType": "address",
          "name": "businessOwner",
          "type": "address"
        },
        {
          "internalType": "string",
          "name": "name",
          "type": "string"
        },
        {
          "internalType": "string",
          "name": "country",
          "type": "string"
        },
        {
          "internalType": "string",
          "name": "facebook",
          "type": "string"
        },
        {
          "internalType": "string",
          "name": "website",
          "type": "string"
        },
        {
          "internalType": "string",
          "name": "linkedin",
          "type": "string"
        },
        {
          "internalType": "string",
          "name": "focusArea",
          "type": "string"
        }
      ],
      "stateMutability": "view",
      "type": "function"
    },
    {
      "inputs": [
        {
          "internalType": "address",
          "name": "_businessOwner",
          "type": "address"
        },
        {
          "internalType": "string",
          "name": "_name",
          "type": "string"
        },
        {
          "internalType": "string",
          "name": "_country",
          "type": "string"
        },
        {
          "internalType": "string",
          "name": "_facebook",
          "type": "string"
        },
        {
          "internalType": "string",
          "name": "_website",
          "type": "string"
        },
        {
          "internalType": "string",
          "name": "_linkedin",
          "type": "string"
        },
        {
          "internalType": "string",
          "name": "_focusArea",
          "type": "string"
        }
      ],
      "name": "addDN",
      "outputs": [],
      "stateMutability": "nonpayable",
      "type": "function"
    },
    {
      "inputs": [],
      "name": "getListDN",
      "outputs": [
        {
          "internalType": "address[]",
          "name": "",
          "type": "address[]"
        },
        {
          "internalType": "string[]",
          "name": "",
          "type": "string[]"
        },
        {
          "internalType": "string[]",
          "name": "",
          "type": "string[]"
        },
        {
          "internalType": "string[]",
          "name": "",
          "type": "string[]"
        },
        {
          "internalType": "string[]",
          "name": "",
          "type": "string[]"
        },
        {
          "internalType": "string[]",
          "name": "",
          "type": "string[]"
        },
        {
          "internalType": "string[]",
          "name": "",
          "type": "string[]"
        }
      ],
      "stateMutability": "view",
      "type": "function"
    },
    {
      "inputs": [
        {
          "internalType": "address",
          "name": "_businessOwner",
          "type": "address"
        }
      ],
      "name": "getProfile",
      "outputs": [
        {
          "internalType": "address",
          "name": "businessOwner",
          "type": "address"
        },
        {
          "internalType": "string",
          "name": "name",
          "type": "string"
        },
        {
          "internalType": "string",
          "name": "country",
          "type": "string"
        },
        {
          "internalType": "string",
          "name": "facebook",
          "type": "string"
        },
        {
          "internalType": "string",
          "name": "website",
          "type": "string"
        },
        {
          "internalType": "string",
          "name": "linkedin",
          "type": "string"
        },
        {
          "internalType": "string",
          "name": "focusArea",
          "type": "string"
        }
      ],
      "stateMutability": "view",
      "type": "function"
    }
  ],
  "bytecode": "0x608060405234801561001057600080fd5b50611e06806100206000396000f3fe608060405234801561001057600080fd5b506004361061004c5760003560e01c80630f53a470146100515780631ed6aeec14610087578063bf44b303146100a3578063cfafbc0c146100d9575b600080fd5b61006b60048036038101906100669190611392565b6100fd565b60405161007e9796959493929190611467565b60405180910390f35b6100a1600480360381019061009c9190611635565b610630565b005b6100bd60048036038101906100b891906117b5565b61077a565b6040516100d09796959493929190611467565b60405180910390f35b6100e1610b1c565b6040516100f497969594939291906119ac565b60405180910390f35b600060608060608060608060005b600080549050811015610623578873ffffffffffffffffffffffffffffffffffffffff166000828154811061014357610142611a4c565b5b906000526020600020906007020160000160009054906101000a900473ffffffffffffffffffffffffffffffffffffffff1673ffffffffffffffffffffffffffffffffffffffff160361061057600081815481106101a4576101a3611a4c565b5b906000526020600020906007020160000160009054906101000a900473ffffffffffffffffffffffffffffffffffffffff16600082815481106101ea576101e9611a4c565b5b90600052602060002090600702016001016000838154811061020f5761020e611a4c565b5b90600052602060002090600702016002016000848154811061023457610233611a4c565b5b90600052602060002090600702016003016000858154811061025957610258611a4c565b5b90600052602060002090600702016004016000868154811061027e5761027d611a4c565b5b9060005260206000209060070201600501600087815481106102a3576102a2611a4c565b5b90600052602060002090600702016006018580546102c090611aaa565b80601f01602080910402602001604051908101604052809291908181526020018280546102ec90611aaa565b80156103395780601f1061030e57610100808354040283529160200191610339565b820191906000526020600020905b81548152906001019060200180831161031c57829003601f168201915b5050505050955084805461034c90611aaa565b80601f016020809104026020016040519081016040528092919081815260200182805461037890611aaa565b80156103c55780601f1061039a576101008083540402835291602001916103c5565b820191906000526020600020905b8154815290600101906020018083116103a857829003601f168201915b505050505094508380546103d890611aaa565b80601f016020809104026020016040519081016040528092919081815260200182805461040490611aaa565b80156104515780601f1061042657610100808354040283529160200191610451565b820191906000526020600020905b81548152906001019060200180831161043457829003601f168201915b5050505050935082805461046490611aaa565b80601f016020809104026020016040519081016040528092919081815260200182805461049090611aaa565b80156104dd5780601f106104b2576101008083540402835291602001916104dd565b820191906000526020600020905b8154815290600101906020018083116104c057829003601f168201915b505050505092508180546104f090611aaa565b80601f016020809104026020016040519081016040528092919081815260200182805461051c90611aaa565b80156105695780601f1061053e57610100808354040283529160200191610569565b820191906000526020600020905b81548152906001019060200180831161054c57829003601f168201915b5050505050915080805461057c90611aaa565b80601f01602080910402602001604051908101604052809291908181526020018280546105a890611aaa565b80156105f55780601f106105ca576101008083540402835291602001916105f5565b820191906000526020600020905b8154815290600101906020018083116105d857829003601f168201915b50505050509050975097509750975097509750975050610625565b808061061b90611b0a565b91505061010b565b505b919395979092949650565b60006040518060e001604052808973ffffffffffffffffffffffffffffffffffffffff16815260200188815260200187815260200186815260200185815260200184815260200183815250908060018154018082558091505060019003906000526020600020906007020160009091909190915060008201518160000160006101000a81548173ffffffffffffffffffffffffffffffffffffffff021916908373ffffffffffffffffffffffffffffffffffffffff16021790555060208201518160010190816107009190611cfe565b5060408201518160020190816107169190611cfe565b50606082015181600301908161072c9190611cfe565b5060808201518160040190816107429190611cfe565b5060a08201518160050190816107589190611cfe565b5060c082015181600601908161076e9190611cfe565b50505050505050505050565b6000818154811061078a57600080fd5b90600052602060002090600702016000915090508060000160009054906101000a900473ffffffffffffffffffffffffffffffffffffffff16908060010180546107d390611aaa565b80601f01602080910402602001604051908101604052809291908181526020018280546107ff90611aaa565b801561084c5780601f106108215761010080835404028352916020019161084c565b820191906000526020600020905b81548152906001019060200180831161082f57829003601f168201915b50505050509080600201805461086190611aaa565b80601f016020809104026020016040519081016040528092919081815260200182805461088d90611aaa565b80156108da5780601f106108af576101008083540402835291602001916108da565b820191906000526020600020905b8154815290600101906020018083116108bd57829003601f168201915b5050505050908060030180546108ef90611aaa565b80601f016020809104026020016040519081016040528092919081815260200182805461091b90611aaa565b80156109685780601f1061093d57610100808354040283529160200191610968565b820191906000526020600020905b81548152906001019060200180831161094b57829003601f168201915b50505050509080600401805461097d90611aaa565b80601f01602080910402602001604051908101604052809291908181526020018280546109a990611aaa565b80156109f65780601f106109cb576101008083540402835291602001916109f6565b820191906000526020600020905b8154815290600101906020018083116109d957829003601f168201915b505050505090806005018054610a0b90611aaa565b80601f0160208091040260200160405190810160405280929190818152602001828054610a3790611aaa565b8015610a845780601f10610a5957610100808354040283529160200191610a84565b820191906000526020600020905b815481529060010190602001808311610a6757829003601f168201915b505050505090806006018054610a9990611aaa565b80601f0160208091040260200160405190810160405280929190818152602001828054610ac590611aaa565b8015610b125780601f10610ae757610100808354040283529160200191610b12565b820191906000526020600020905b815481529060010190602001808311610af557829003601f168201915b5050505050905087565b60608060608060608060606000808054905067ffffffffffffffff811115610b4757610b4661150a565b5b604051908082528060200260200182016040528015610b755781602001602082028036833780820191505090505b5090506000808054905067ffffffffffffffff811115610b9857610b9761150a565b5b604051908082528060200260200182016040528015610bcb57816020015b6060815260200190600190039081610bb65790505b5090506000808054905067ffffffffffffffff811115610bee57610bed61150a565b5b604051908082528060200260200182016040528015610c2157816020015b6060815260200190600190039081610c0c5790505b5090506000808054905067ffffffffffffffff811115610c4457610c4361150a565b5b604051908082528060200260200182016040528015610c7757816020015b6060815260200190600190039081610c625790505b5090506000808054905067ffffffffffffffff811115610c9a57610c9961150a565b5b604051908082528060200260200182016040528015610ccd57816020015b6060815260200190600190039081610cb85790505b5090506000808054905067ffffffffffffffff811115610cf057610cef61150a565b5b604051908082528060200260200182016040528015610d2357816020015b6060815260200190600190039081610d0e5790505b5090506000808054905067ffffffffffffffff811115610d4657610d4561150a565b5b604051908082528060200260200182016040528015610d7957816020015b6060815260200190600190039081610d645790505b50905060005b6000805490508110156112fa5760008181548110610da057610d9f611a4c565b5b906000526020600020906007020160000160009054906101000a900473ffffffffffffffffffffffffffffffffffffffff16888281518110610de557610de4611a4c565b5b602002602001019073ffffffffffffffffffffffffffffffffffffffff16908173ffffffffffffffffffffffffffffffffffffffff168152505060008181548110610e3357610e32611a4c565b5b90600052602060002090600702016001018054610e4f90611aaa565b80601f0160208091040260200160405190810160405280929190818152602001828054610e7b90611aaa565b8015610ec85780601f10610e9d57610100808354040283529160200191610ec8565b820191906000526020600020905b815481529060010190602001808311610eab57829003601f168201915b5050505050878281518110610ee057610edf611a4c565b5b602002602001018190525060008181548110610eff57610efe611a4c565b5b90600052602060002090600702016002018054610f1b90611aaa565b80601f0160208091040260200160405190810160405280929190818152602001828054610f4790611aaa565b8015610f945780601f10610f6957610100808354040283529160200191610f94565b820191906000526020600020905b815481529060010190602001808311610f7757829003601f168201915b5050505050868281518110610fac57610fab611a4c565b5b602002602001018190525060008181548110610fcb57610fca611a4c565b5b90600052602060002090600702016003018054610fe790611aaa565b80601f016020809104026020016040519081016040528092919081815260200182805461101390611aaa565b80156110605780601f1061103557610100808354040283529160200191611060565b820191906000526020600020905b81548152906001019060200180831161104357829003601f168201915b505050505085828151811061107857611077611a4c565b5b60200260200101819052506000818154811061109757611096611a4c565b5b906000526020600020906007020160040180546110b390611aaa565b80601f01602080910402602001604051908101604052809291908181526020018280546110df90611aaa565b801561112c5780601f106111015761010080835404028352916020019161112c565b820191906000526020600020905b81548152906001019060200180831161110f57829003601f168201915b505050505084828151811061114457611143611a4c565b5b60200260200101819052506000818154811061116357611162611a4c565b5b9060005260206000209060070201600501805461117f90611aaa565b80601f01602080910402602001604051908101604052809291908181526020018280546111ab90611aaa565b80156111f85780601f106111cd576101008083540402835291602001916111f8565b820191906000526020600020905b8154815290600101906020018083116111db57829003601f168201915b50505050508382815181106112105761120f611a4c565b5b60200260200101819052506000818154811061122f5761122e611a4c565b5b9060005260206000209060070201600601805461124b90611aaa565b80601f016020809104026020016040519081016040528092919081815260200182805461127790611aaa565b80156112c45780601f10611299576101008083540402835291602001916112c4565b820191906000526020600020905b8154815290600101906020018083116112a757829003601f168201915b50505050508282815181106112dc576112db611a4c565b5b602002602001018190525080806112f290611b0a565b915050610d7f565b50868686868686869d509d509d509d509d509d509d505050505050505090919293949596565b6000604051905090565b600080fd5b600080fd5b600073ffffffffffffffffffffffffffffffffffffffff82169050919050565b600061135f82611334565b9050919050565b61136f81611354565b811461137a57600080fd5b50565b60008135905061138c81611366565b92915050565b6000602082840312156113a8576113a761132a565b5b60006113b68482850161137d565b91505092915050565b6113c881611354565b82525050565b600081519050919050565b600082825260208201905092915050565b60005b838110156114085780820151818401526020810190506113ed565b83811115611417576000848401525b50505050565b6000601f19601f8301169050919050565b6000611439826113ce565b61144381856113d9565b93506114538185602086016113ea565b61145c8161141d565b840191505092915050565b600060e08201905061147c600083018a6113bf565b818103602083015261148e818961142e565b905081810360408301526114a2818861142e565b905081810360608301526114b6818761142e565b905081810360808301526114ca818661142e565b905081810360a08301526114de818561142e565b905081810360c08301526114f2818461142e565b905098975050505050505050565b600080fd5b600080fd5b7f4e487b7100000000000000000000000000000000000000000000000000000000600052604160045260246000fd5b6115428261141d565b810181811067ffffffffffffffff821117156115615761156061150a565b5b80604052505050565b6000611574611320565b90506115808282611539565b919050565b600067ffffffffffffffff8211156115a05761159f61150a565b5b6115a98261141d565b9050602081019050919050565b82818337600083830152505050565b60006115d86115d384611585565b61156a565b9050828152602081018484840111156115f4576115f3611505565b5b6115ff8482856115b6565b509392505050565b600082601f83011261161c5761161b611500565b5b813561162c8482602086016115c5565b91505092915050565b600080600080600080600060e0888a0312156116545761165361132a565b5b60006116628a828b0161137d565b975050602088013567ffffffffffffffff8111156116835761168261132f565b5b61168f8a828b01611607565b965050604088013567ffffffffffffffff8111156116b0576116af61132f565b5b6116bc8a828b01611607565b955050606088013567ffffffffffffffff8111156116dd576116dc61132f565b5b6116e98a828b01611607565b945050608088013567ffffffffffffffff81111561170a5761170961132f565b5b6117168a828b01611607565b93505060a088013567ffffffffffffffff8111156117375761173661132f565b5b6117438a828b01611607565b92505060c088013567ffffffffffffffff8111156117645761176361132f565b5b6117708a828b01611607565b91505092959891949750929550565b6000819050919050565b6117928161177f565b811461179d57600080fd5b50565b6000813590506117af81611789565b92915050565b6000602082840312156117cb576117ca61132a565b5b60006117d9848285016117a0565b91505092915050565b600081519050919050565b600082825260208201905092915050565b6000819050602082019050919050565b61181781611354565b82525050565b6000611829838361180e565b60208301905092915050565b6000602082019050919050565b600061184d826117e2565b61185781856117ed565b9350611862836117fe565b8060005b8381101561189357815161187a888261181d565b975061188583611835565b925050600181019050611866565b5085935050505092915050565b600081519050919050565b600082825260208201905092915050565b6000819050602082019050919050565b600082825260208201905092915050565b60006118e8826113ce565b6118f281856118cc565b93506119028185602086016113ea565b61190b8161141d565b840191505092915050565b600061192283836118dd565b905092915050565b6000602082019050919050565b6000611942826118a0565b61194c81856118ab565b93508360208202850161195e856118bc565b8060005b8581101561199a578484038952815161197b8582611916565b94506119868361192a565b925060208a01995050600181019050611962565b50829750879550505050505092915050565b600060e08201905081810360008301526119c6818a611842565b905081810360208301526119da8189611937565b905081810360408301526119ee8188611937565b90508181036060830152611a028187611937565b90508181036080830152611a168186611937565b905081810360a0830152611a2a8185611937565b905081810360c0830152611a3e8184611937565b905098975050505050505050565b7f4e487b7100000000000000000000000000000000000000000000000000000000600052603260045260246000fd5b7f4e487b7100000000000000000000000000000000000000000000000000000000600052602260045260246000fd5b60006002820490506001821680611ac257607f821691505b602082108103611ad557611ad4611a7b565b5b50919050565b7f4e487b7100000000000000000000000000000000000000000000000000000000600052601160045260246000fd5b6000611b158261177f565b91507fffffffffffffffffffffffffffffffffffffffffffffffffffffffffffffffff8203611b4757611b46611adb565b5b600182019050919050565b60008190508160005260206000209050919050565b60006020601f8301049050919050565b600082821b905092915050565b600060088302611bb47fffffffffffffffffffffffffffffffffffffffffffffffffffffffffffffffff82611b77565b611bbe8683611b77565b95508019841693508086168417925050509392505050565b6000819050919050565b6000611bfb611bf6611bf18461177f565b611bd6565b61177f565b9050919050565b6000819050919050565b611c1583611be0565b611c29611c2182611c02565b848454611b84565b825550505050565b600090565b611c3e611c31565b611c49818484611c0c565b505050565b5b81811015611c6d57611c62600082611c36565b600181019050611c4f565b5050565b601f821115611cb257611c8381611b52565b611c8c84611b67565b81016020851015611c9b578190505b611caf611ca785611b67565b830182611c4e565b50505b505050565b600082821c905092915050565b6000611cd560001984600802611cb7565b1980831691505092915050565b6000611cee8383611cc4565b9150826002028217905092915050565b611d07826113ce565b67ffffffffffffffff811115611d2057611d1f61150a565b5b611d2a8254611aaa565b611d35828285611c71565b600060209050601f831160018114611d685760008415611d56578287015190505b611d608582611ce2565b865550611dc8565b601f198416611d7686611b52565b60005b82811015611d9e57848901518255600182019150602085019450602081019050611d79565b86831015611dbb5784890151611db7601f891682611cc4565b8355505b6001600288020188555050505b50505050505056fea26469706673582212208198fcb301287a0da8d0c5a076e456698e10afe8dc23c6e0c766f3473193f6d464736f6c634300080f0033",
  "immutableReferences": {},
  "source": "// SPDX-License-Identifier: MIT\r\npragma solidity >=0.4.22 <0.9.0;\r\n\r\n//Lu tr danh sch doanh nghip\r\ncontract ListBusiness {\r\n\r\n    struct ListDN {\r\n        address businessOwner;\r\n        string name; \r\n        string country; \r\n        string facebook;\r\n        string website;\r\n        string linkedin;\r\n        string focusArea;\r\n    }\r\n\r\n    ListDN[] public listDNs;\r\n\r\n    function addDN (\r\n        address _businessOwner,\r\n        string memory _name,\r\n        string memory _country,\r\n        string memory _facebook,\r\n        string memory _website,\r\n        string memory _linkedin,\r\n        string memory _focusArea) public {\r\n            listDNs.push(ListDN(_businessOwner, _name, _country, _facebook, _website, _linkedin, _focusArea));\r\n    }\r\n\r\n    function getListDN() public view returns(address[] memory, string[] memory, string[] memory, string[] memory, string[] memory, string[] memory, string[] memory) {\r\n        address[] memory businessOwners = new address[](listDNs.length);\r\n        string[] memory names = new string[](listDNs.length);\r\n        string[] memory countrys = new string[](listDNs.length);\r\n        string[] memory facebooks = new string[](listDNs.length);\r\n        string[] memory websites = new string[](listDNs.length);\r\n        string[] memory linkedins = new string[](listDNs.length);\r\n        string[] memory focusAreas = new string[](listDNs.length);\r\n        for(uint i=0; i<listDNs.length;i++){\r\n            businessOwners[i] = listDNs[i].businessOwner;\r\n            names[i] = listDNs[i].name;\r\n            countrys[i] = listDNs[i].country;\r\n            facebooks[i] = listDNs[i].facebook;\r\n            websites[i] = listDNs[i].website;\r\n            linkedins[i] = listDNs[i].linkedin;\r\n            focusAreas[i] = listDNs[i].focusArea;\r\n        }\r\n        return (businessOwners, names, countrys, facebooks, websites, linkedins, focusAreas);\r\n    }\r\n\r\n    function getProfile(address _businessOwner) public view returns(\r\n        address businessOwner, \r\n        string memory name, \r\n        string memory country, \r\n        string memory facebook, \r\n        string memory website, \r\n        string memory linkedin, \r\n        string memory focusArea) {\r\n            for(uint i=0; i<listDNs.length;i++){\r\n                if(listDNs[i].businessOwner == _businessOwner){\r\n                    return (listDNs[i].businessOwner,\r\n                            listDNs[i].name, \r\n                            listDNs[i].country, \r\n                            listDNs[i].facebook, \r\n                            listDNs[i].website, \r\n                            listDNs[i].linkedin, \r\n                            listDNs[i].focusArea);\r\n                }\r\n            }\r\n    }\r\n    \r\n}",
  "sourcePath": "C:\\Users\\19520\\Documents\\NCKH_Blockchain\\IS_cv\\contracts\\SmartCV_ListBusiness.sol",
  "compiler": {
    "name": "solc",
    "version": "0.8.15+commit.e14f2714.Emscripten.clang"
  },
  "schemaVersion": "3.4.4",
  "updatedAt": "2022-07-02T07:43:25.768Z",
  "devdoc": {
    "kind": "dev",
    "methods": {},
    "version": 1
  },
  "userdoc": {
    "kind": "user",
    "methods": {},
    "version": 1
  }
}