{
  "contractName": "ListStudent",
  "abi": [
    {
      "inputs": [
        {
          "internalType": "uint256",
          "name": "",
          "type": "uint256"
        }
      ],
      "name": "listSVs",
      "outputs": [
        {
          "internalType": "address",
          "name": "studentOwner",
          "type": "address"
        },
        {
          "internalType": "string",
          "name": "name",
          "type": "string"
        },
        {
          "internalType": "string",
          "name": "birthDay",
          "type": "string"
        },
        {
          "internalType": "string",
          "name": "professionalTitle",
          "type": "string"
        },
        {
          "internalType": "string",
          "name": "email",
          "type": "string"
        },
        {
          "internalType": "string",
          "name": "github",
          "type": "string"
        },
        {
          "internalType": "string",
          "name": "linkedin",
          "type": "string"
        },
        {
          "internalType": "string",
          "name": "password",
          "type": "string"
        }
      ],
      "stateMutability": "view",
      "type": "function"
    },
    {
      "inputs": [
        {
          "internalType": "uint256",
          "name": "",
          "type": "uint256"
        }
      ],
      "name": "listSkills",
      "outputs": [
        {
          "internalType": "address",
          "name": "studentOwner",
          "type": "address"
        },
        {
          "internalType": "string",
          "name": "title",
          "type": "string"
        },
        {
          "internalType": "uint256",
          "name": "level",
          "type": "uint256"
        }
      ],
      "stateMutability": "view",
      "type": "function"
    },
    {
      "inputs": [
        {
          "internalType": "address",
          "name": "_studentOwner",
          "type": "address"
        },
        {
          "internalType": "string",
          "name": "_name",
          "type": "string"
        },
        {
          "internalType": "string",
          "name": "_birthDay",
          "type": "string"
        },
        {
          "internalType": "string",
          "name": "_professionalTitle",
          "type": "string"
        },
        {
          "internalType": "string",
          "name": "_email",
          "type": "string"
        },
        {
          "internalType": "string",
          "name": "_github",
          "type": "string"
        },
        {
          "internalType": "string",
          "name": "_linked",
          "type": "string"
        },
        {
          "internalType": "string",
          "name": "_password",
          "type": "string"
        }
      ],
      "name": "addSV",
      "outputs": [],
      "stateMutability": "nonpayable",
      "type": "function"
    },
    {
      "inputs": [],
      "name": "getListSV",
      "outputs": [
        {
          "internalType": "address[]",
          "name": "",
          "type": "address[]"
        },
        {
          "internalType": "string[]",
          "name": "",
          "type": "string[]"
        },
        {
          "internalType": "string[]",
          "name": "",
          "type": "string[]"
        },
        {
          "internalType": "string[]",
          "name": "",
          "type": "string[]"
        },
        {
          "internalType": "string[]",
          "name": "",
          "type": "string[]"
        },
        {
          "internalType": "string[]",
          "name": "",
          "type": "string[]"
        },
        {
          "internalType": "string[]",
          "name": "",
          "type": "string[]"
        },
        {
          "internalType": "string[]",
          "name": "",
          "type": "string[]"
        }
      ],
      "stateMutability": "view",
      "type": "function"
    },
    {
      "inputs": [
        {
          "internalType": "address",
          "name": "_studentOwner",
          "type": "address"
        }
      ],
      "name": "getProfile",
      "outputs": [
        {
          "internalType": "address",
          "name": "studentOwner",
          "type": "address"
        },
        {
          "internalType": "string",
          "name": "name",
          "type": "string"
        },
        {
          "internalType": "string",
          "name": "birthDay",
          "type": "string"
        },
        {
          "internalType": "string",
          "name": "professionalTitle",
          "type": "string"
        },
        {
          "internalType": "string",
          "name": "email",
          "type": "string"
        },
        {
          "internalType": "string",
          "name": "github",
          "type": "string"
        },
        {
          "internalType": "string",
          "name": "linkedin",
          "type": "string"
        },
        {
          "internalType": "string",
          "name": "password",
          "type": "string"
        }
      ],
      "stateMutability": "view",
      "type": "function"
    },
    {
      "inputs": [
        {
          "internalType": "address",
          "name": "_studentOwner",
          "type": "address"
        },
        {
          "internalType": "string",
          "name": "_password",
          "type": "string"
        }
      ],
      "name": "checkSV",
      "outputs": [
        {
          "internalType": "uint256",
          "name": "x",
          "type": "uint256"
        }
      ],
      "stateMutability": "view",
      "type": "function"
    },
    {
      "inputs": [
        {
          "internalType": "address",
          "name": "_studentOwner",
          "type": "address"
        }
      ],
      "name": "checkExistSV",
      "outputs": [
        {
          "internalType": "uint256",
          "name": "x",
          "type": "uint256"
        }
      ],
      "stateMutability": "view",
      "type": "function"
    },
    {
      "inputs": [
        {
          "internalType": "address",
          "name": "_studentOwner",
          "type": "address"
        },
        {
          "internalType": "string",
          "name": "_title",
          "type": "string"
        },
        {
          "internalType": "uint256",
          "name": "_level",
          "type": "uint256"
        }
      ],
      "name": "addSkill",
      "outputs": [],
      "stateMutability": "nonpayable",
      "type": "function"
    },
    {
      "inputs": [
        {
          "internalType": "address",
          "name": "_studentOwner",
          "type": "address"
        },
        {
          "internalType": "string",
          "name": "_title",
          "type": "string"
        }
      ],
      "name": "checkSkill",
      "outputs": [
        {
          "internalType": "uint256",
          "name": "x",
          "type": "uint256"
        }
      ],
      "stateMutability": "view",
      "type": "function"
    },
    {
      "inputs": [
        {
          "internalType": "address",
          "name": "_studentOwner",
          "type": "address"
        }
      ],
      "name": "checkNumSkill",
      "outputs": [
        {
          "internalType": "uint256",
          "name": "x",
          "type": "uint256"
        }
      ],
      "stateMutability": "view",
      "type": "function"
    },
    {
      "inputs": [
        {
          "internalType": "address",
          "name": "_studentOwner",
          "type": "address"
        }
      ],
      "name": "getSkill",
      "outputs": [
        {
          "internalType": "string[]",
          "name": "",
          "type": "string[]"
        },
        {
          "internalType": "uint256[]",
          "name": "",
          "type": "uint256[]"
        }
      ],
      "stateMutability": "view",
      "type": "function"
    }
  ],
  "bytecode": "0x608060405234801561001057600080fd5b50612dfb806100206000396000f3fe608060405234801561001057600080fd5b50600436106100a95760003560e01c8063716b5ab411610071578063716b5ab41461019a5780638e891393146101ca578063961ecb5b146101fa5780639fea8e101461022a578063ac4b204914610246578063d64b691314610277576100a9565b80630f53a470146100ae578063174ceeab146100e55780633aff2cc51461011557806360ccb204146101475780636704710714610163575b600080fd5b6100c860048036038101906100c39190611f87565b61029c565b6040516100dc98979695949392919061205c565b60405180910390f35b6100ff60048036038101906100fa9190612240565b610884565b60405161010c91906122b5565b60405180910390f35b61012f600480360381019061012a91906122fc565b610982565b60405161013e93929190612329565b60405180910390f35b610161600480360381019061015c9190612367565b610a64565b005b61017d600480360381019061017891906122fc565b610b7f565b60405161019198979695949392919061205c565b60405180910390f35b6101b460048036038101906101af9190612240565b610faf565b6040516101c191906122b5565b60405180910390f35b6101e460048036038101906101df9190611f87565b6110ad565b6040516101f191906122b5565b60405180910390f35b610214600480360381019061020f9190611f87565b611169565b60405161022191906122b5565b60405180910390f35b610244600480360381019061023f91906123d6565b61121a565b005b610260600480360381019061025b9190611f87565b611382565b60405161026e92919061271a565b60405180910390f35b61027f6115e9565b60405161029398979695949392919061280f565b60405180910390f35b6000606080606080606080606060005b600080549050811015610877578973ffffffffffffffffffffffffffffffffffffffff16600082815481106102e4576102e36128c5565b5b906000526020600020906008020160000160009054906101000a900473ffffffffffffffffffffffffffffffffffffffff1673ffffffffffffffffffffffffffffffffffffffff16036108645760008181548110610345576103446128c5565b5b906000526020600020906008020160000160009054906101000a900473ffffffffffffffffffffffffffffffffffffffff166000828154811061038b5761038a6128c5565b5b9060005260206000209060080201600101600083815481106103b0576103af6128c5565b5b9060005260206000209060080201600201600084815481106103d5576103d46128c5565b5b9060005260206000209060080201600301600085815481106103fa576103f96128c5565b5b90600052602060002090600802016004016000868154811061041f5761041e6128c5565b5b906000526020600020906008020160050160008781548110610444576104436128c5565b5b906000526020600020906008020160060160008881548110610469576104686128c5565b5b906000526020600020906008020160070186805461048690612923565b80601f01602080910402602001604051908101604052809291908181526020018280546104b290612923565b80156104ff5780601f106104d4576101008083540402835291602001916104ff565b820191906000526020600020905b8154815290600101906020018083116104e257829003601f168201915b5050505050965085805461051290612923565b80601f016020809104026020016040519081016040528092919081815260200182805461053e90612923565b801561058b5780601f106105605761010080835404028352916020019161058b565b820191906000526020600020905b81548152906001019060200180831161056e57829003601f168201915b5050505050955084805461059e90612923565b80601f01602080910402602001604051908101604052809291908181526020018280546105ca90612923565b80156106175780601f106105ec57610100808354040283529160200191610617565b820191906000526020600020905b8154815290600101906020018083116105fa57829003601f168201915b5050505050945083805461062a90612923565b80601f016020809104026020016040519081016040528092919081815260200182805461065690612923565b80156106a35780601f10610678576101008083540402835291602001916106a3565b820191906000526020600020905b81548152906001019060200180831161068657829003601f168201915b505050505093508280546106b690612923565b80601f01602080910402602001604051908101604052809291908181526020018280546106e290612923565b801561072f5780601f106107045761010080835404028352916020019161072f565b820191906000526020600020905b81548152906001019060200180831161071257829003601f168201915b5050505050925081805461074290612923565b80601f016020809104026020016040519081016040528092919081815260200182805461076e90612923565b80156107bb5780601f10610790576101008083540402835291602001916107bb565b820191906000526020600020905b81548152906001019060200180831161079e57829003601f168201915b505050505091508080546107ce90612923565b80601f01602080910402602001604051908101604052809291908181526020018280546107fa90612923565b80156108475780601f1061081c57610100808354040283529160200191610847565b820191906000526020600020905b81548152906001019060200180831161082a57829003601f168201915b505050505090509850985098509850985098509850985050610879565b808061086f90612983565b9150506102ac565b505b919395975091939597565b600080600090505b60008054905081101561097a578373ffffffffffffffffffffffffffffffffffffffff16600082815481106108c4576108c36128c5565b5b906000526020600020906008020160000160009054906101000a900473ffffffffffffffffffffffffffffffffffffffff1673ffffffffffffffffffffffffffffffffffffffff1614801561095857508280519060200120600082815481106109305761092f6128c5565b5b906000526020600020906008020160070160405161094e9190612a6e565b6040518091039020145b1561096757600191505061097c565b808061097290612983565b91505061088c565b505b92915050565b6001818154811061099257600080fd5b90600052602060002090600302016000915090508060000160009054906101000a900473ffffffffffffffffffffffffffffffffffffffff16908060010180546109db90612923565b80601f0160208091040260200160405190810160405280929190818152602001828054610a0790612923565b8015610a545780601f10610a2957610100808354040283529160200191610a54565b820191906000526020600020905b815481529060010190602001808311610a3757829003601f168201915b5050505050908060020154905083565b60008110158015610a76575060648111155b610ab5576040517f08c379a0000000000000000000000000000000000000000000000000000000008152600401610aac90612ad1565b60405180910390fd5b600160405180606001604052808573ffffffffffffffffffffffffffffffffffffffff16815260200184815260200183815250908060018154018082558091505060019003906000526020600020906003020160009091909190915060008201518160000160006101000a81548173ffffffffffffffffffffffffffffffffffffffff021916908373ffffffffffffffffffffffffffffffffffffffff1602179055506020820151816001019081610b6d9190612c9d565b50604082015181600201555050505050565b60008181548110610b8f57600080fd5b90600052602060002090600802016000915090508060000160009054906101000a900473ffffffffffffffffffffffffffffffffffffffff1690806001018054610bd890612923565b80601f0160208091040260200160405190810160405280929190818152602001828054610c0490612923565b8015610c515780601f10610c2657610100808354040283529160200191610c51565b820191906000526020600020905b815481529060010190602001808311610c3457829003601f168201915b505050505090806002018054610c6690612923565b80601f0160208091040260200160405190810160405280929190818152602001828054610c9290612923565b8015610cdf5780601f10610cb457610100808354040283529160200191610cdf565b820191906000526020600020905b815481529060010190602001808311610cc257829003601f168201915b505050505090806003018054610cf490612923565b80601f0160208091040260200160405190810160405280929190818152602001828054610d2090612923565b8015610d6d5780601f10610d4257610100808354040283529160200191610d6d565b820191906000526020600020905b815481529060010190602001808311610d5057829003601f168201915b505050505090806004018054610d8290612923565b80601f0160208091040260200160405190810160405280929190818152602001828054610dae90612923565b8015610dfb5780601f10610dd057610100808354040283529160200191610dfb565b820191906000526020600020905b815481529060010190602001808311610dde57829003601f168201915b505050505090806005018054610e1090612923565b80601f0160208091040260200160405190810160405280929190818152602001828054610e3c90612923565b8015610e895780601f10610e5e57610100808354040283529160200191610e89565b820191906000526020600020905b815481529060010190602001808311610e6c57829003601f168201915b505050505090806006018054610e9e90612923565b80601f0160208091040260200160405190810160405280929190818152602001828054610eca90612923565b8015610f175780601f10610eec57610100808354040283529160200191610f17565b820191906000526020600020905b815481529060010190602001808311610efa57829003601f168201915b505050505090806007018054610f2c90612923565b80601f0160208091040260200160405190810160405280929190818152602001828054610f5890612923565b8015610fa55780601f10610f7a57610100808354040283529160200191610fa5565b820191906000526020600020905b815481529060010190602001808311610f8857829003601f168201915b5050505050905088565b600080600090505b6001805490508110156110a5578373ffffffffffffffffffffffffffffffffffffffff1660018281548110610fef57610fee6128c5565b5b906000526020600020906003020160000160009054906101000a900473ffffffffffffffffffffffffffffffffffffffff1673ffffffffffffffffffffffffffffffffffffffff16148015611083575082805190602001206001828154811061105b5761105a6128c5565b5b90600052602060002090600302016001016040516110799190612a6e565b6040518091039020145b156110925760019150506110a7565b808061109d90612983565b915050610fb7565b505b92915050565b6000806000905060005b60018054905081101561115f578373ffffffffffffffffffffffffffffffffffffffff16600182815481106110ef576110ee6128c5565b5b906000526020600020906003020160000160009054906101000a900473ffffffffffffffffffffffffffffffffffffffff1673ffffffffffffffffffffffffffffffffffffffff160361114c576001826111499190612d6f565b91505b808061115790612983565b9150506110b7565b5080915050919050565b600080600090505b600080549050811015611213578273ffffffffffffffffffffffffffffffffffffffff16600082815481106111a9576111a86128c5565b5b906000526020600020906008020160000160009054906101000a900473ffffffffffffffffffffffffffffffffffffffff1673ffffffffffffffffffffffffffffffffffffffff1603611200576001915050611215565b808061120b90612983565b915050611171565b505b919050565b60006040518061010001604052808a73ffffffffffffffffffffffffffffffffffffffff16815260200189815260200188815260200187815260200186815260200185815260200184815260200183815250908060018154018082558091505060019003906000526020600020906008020160009091909190915060008201518160000160006101000a81548173ffffffffffffffffffffffffffffffffffffffff021916908373ffffffffffffffffffffffffffffffffffffffff16021790555060208201518160010190816112f19190612c9d565b5060408201518160020190816113079190612c9d565b50606082015181600301908161131d9190612c9d565b5060808201518160040190816113339190612c9d565b5060a08201518160050190816113499190612c9d565b5060c082015181600601908161135f9190612c9d565b5060e08201518160070190816113759190612c9d565b5050505050505050505050565b606080600060018054905067ffffffffffffffff8111156113a6576113a5612115565b5b6040519080825280602002602001820160405280156113d957816020015b60608152602001906001900390816113c45790505b509050600060018054905067ffffffffffffffff8111156113fd576113fc612115565b5b60405190808252806020026020018201604052801561142b5781602001602082028036833780820191505090505b50905060005b6001805490508110156115db578573ffffffffffffffffffffffffffffffffffffffff1660018281548110611469576114686128c5565b5b906000526020600020906003020160000160009054906101000a900473ffffffffffffffffffffffffffffffffffffffff1673ffffffffffffffffffffffffffffffffffffffff16036115c857600181815481106114ca576114c96128c5565b5b906000526020600020906003020160010180546114e690612923565b80601f016020809104026020016040519081016040528092919081815260200182805461151290612923565b801561155f5780601f106115345761010080835404028352916020019161155f565b820191906000526020600020905b81548152906001019060200180831161154257829003601f168201915b5050505050838281518110611577576115766128c5565b5b602002602001018190525060018181548110611596576115956128c5565b5b9060005260206000209060030201600201548282815181106115bb576115ba6128c5565b5b6020026020010181815250505b80806115d390612983565b915050611431565b508181935093505050915091565b6060806060806060806060806000808054905067ffffffffffffffff81111561161557611614612115565b5b6040519080825280602002602001820160405280156116435781602001602082028036833780820191505090505b5090506000808054905067ffffffffffffffff81111561166657611665612115565b5b60405190808252806020026020018201604052801561169957816020015b60608152602001906001900390816116845790505b5090506000808054905067ffffffffffffffff8111156116bc576116bb612115565b5b6040519080825280602002602001820160405280156116ef57816020015b60608152602001906001900390816116da5790505b5090506000808054905067ffffffffffffffff81111561171257611711612115565b5b60405190808252806020026020018201604052801561174557816020015b60608152602001906001900390816117305790505b5090506000808054905067ffffffffffffffff81111561176857611767612115565b5b60405190808252806020026020018201604052801561179b57816020015b60608152602001906001900390816117865790505b5090506000808054905067ffffffffffffffff8111156117be576117bd612115565b5b6040519080825280602002602001820160405280156117f157816020015b60608152602001906001900390816117dc5790505b5090506000808054905067ffffffffffffffff81111561181457611813612115565b5b60405190808252806020026020018201604052801561184757816020015b60608152602001906001900390816118325790505b5090506000808054905067ffffffffffffffff81111561186a57611869612115565b5b60405190808252806020026020018201604052801561189d57816020015b60608152602001906001900390816118885790505b50905060005b600080549050811015611eea57600081815481106118c4576118c36128c5565b5b906000526020600020906008020160000160009054906101000a900473ffffffffffffffffffffffffffffffffffffffff16898281518110611909576119086128c5565b5b602002602001019073ffffffffffffffffffffffffffffffffffffffff16908173ffffffffffffffffffffffffffffffffffffffff168152505060008181548110611957576119566128c5565b5b9060005260206000209060080201600101805461197390612923565b80601f016020809104026020016040519081016040528092919081815260200182805461199f90612923565b80156119ec5780601f106119c1576101008083540402835291602001916119ec565b820191906000526020600020905b8154815290600101906020018083116119cf57829003601f168201915b5050505050888281518110611a0457611a036128c5565b5b602002602001018190525060008181548110611a2357611a226128c5565b5b90600052602060002090600802016002018054611a3f90612923565b80601f0160208091040260200160405190810160405280929190818152602001828054611a6b90612923565b8015611ab85780601f10611a8d57610100808354040283529160200191611ab8565b820191906000526020600020905b815481529060010190602001808311611a9b57829003601f168201915b5050505050878281518110611ad057611acf6128c5565b5b602002602001018190525060008181548110611aef57611aee6128c5565b5b90600052602060002090600802016003018054611b0b90612923565b80601f0160208091040260200160405190810160405280929190818152602001828054611b3790612923565b8015611b845780601f10611b5957610100808354040283529160200191611b84565b820191906000526020600020905b815481529060010190602001808311611b6757829003601f168201915b5050505050868281518110611b9c57611b9b6128c5565b5b602002602001018190525060008181548110611bbb57611bba6128c5565b5b90600052602060002090600802016004018054611bd790612923565b80601f0160208091040260200160405190810160405280929190818152602001828054611c0390612923565b8015611c505780601f10611c2557610100808354040283529160200191611c50565b820191906000526020600020905b815481529060010190602001808311611c3357829003601f168201915b5050505050858281518110611c6857611c676128c5565b5b602002602001018190525060008181548110611c8757611c866128c5565b5b90600052602060002090600802016005018054611ca390612923565b80601f0160208091040260200160405190810160405280929190818152602001828054611ccf90612923565b8015611d1c5780601f10611cf157610100808354040283529160200191611d1c565b820191906000526020600020905b815481529060010190602001808311611cff57829003601f168201915b5050505050848281518110611d3457611d336128c5565b5b602002602001018190525060008181548110611d5357611d526128c5565b5b90600052602060002090600802016006018054611d6f90612923565b80601f0160208091040260200160405190810160405280929190818152602001828054611d9b90612923565b8015611de85780601f10611dbd57610100808354040283529160200191611de8565b820191906000526020600020905b815481529060010190602001808311611dcb57829003601f168201915b5050505050838281518110611e0057611dff6128c5565b5b602002602001018190525060008181548110611e1f57611e1e6128c5565b5b90600052602060002090600802016007018054611e3b90612923565b80601f0160208091040260200160405190810160405280929190818152602001828054611e6790612923565b8015611eb45780601f10611e8957610100808354040283529160200191611eb4565b820191906000526020600020905b815481529060010190602001808311611e9757829003601f168201915b5050505050828281518110611ecc57611ecb6128c5565b5b60200260200101819052508080611ee290612983565b9150506118a3565b5087878787878787879f509f509f509f509f509f509f509f5050505050505050509091929394959697565b6000604051905090565b600080fd5b600080fd5b600073ffffffffffffffffffffffffffffffffffffffff82169050919050565b6000611f5482611f29565b9050919050565b611f6481611f49565b8114611f6f57600080fd5b50565b600081359050611f8181611f5b565b92915050565b600060208284031215611f9d57611f9c611f1f565b5b6000611fab84828501611f72565b91505092915050565b611fbd81611f49565b82525050565b600081519050919050565b600082825260208201905092915050565b60005b83811015611ffd578082015181840152602081019050611fe2565b8381111561200c576000848401525b50505050565b6000601f19601f8301169050919050565b600061202e82611fc3565b6120388185611fce565b9350612048818560208601611fdf565b61205181612012565b840191505092915050565b600061010082019050612072600083018b611fb4565b8181036020830152612084818a612023565b905081810360408301526120988189612023565b905081810360608301526120ac8188612023565b905081810360808301526120c08187612023565b905081810360a08301526120d48186612023565b905081810360c08301526120e88185612023565b905081810360e08301526120fc8184612023565b90509998505050505050505050565b600080fd5b600080fd5b7f4e487b7100000000000000000000000000000000000000000000000000000000600052604160045260246000fd5b61214d82612012565b810181811067ffffffffffffffff8211171561216c5761216b612115565b5b80604052505050565b600061217f611f15565b905061218b8282612144565b919050565b600067ffffffffffffffff8211156121ab576121aa612115565b5b6121b482612012565b9050602081019050919050565b82818337600083830152505050565b60006121e36121de84612190565b612175565b9050828152602081018484840111156121ff576121fe612110565b5b61220a8482856121c1565b509392505050565b600082601f8301126122275761222661210b565b5b81356122378482602086016121d0565b91505092915050565b6000806040838503121561225757612256611f1f565b5b600061226585828601611f72565b925050602083013567ffffffffffffffff81111561228657612285611f24565b5b61229285828601612212565b9150509250929050565b6000819050919050565b6122af8161229c565b82525050565b60006020820190506122ca60008301846122a6565b92915050565b6122d98161229c565b81146122e457600080fd5b50565b6000813590506122f6816122d0565b92915050565b60006020828403121561231257612311611f1f565b5b6000612320848285016122e7565b91505092915050565b600060608201905061233e6000830186611fb4565b81810360208301526123508185612023565b905061235f60408301846122a6565b949350505050565b6000806000606084860312156123805761237f611f1f565b5b600061238e86828701611f72565b935050602084013567ffffffffffffffff8111156123af576123ae611f24565b5b6123bb86828701612212565b92505060406123cc868287016122e7565b9150509250925092565b600080600080600080600080610100898b0312156123f7576123f6611f1f565b5b60006124058b828c01611f72565b985050602089013567ffffffffffffffff81111561242657612425611f24565b5b6124328b828c01612212565b975050604089013567ffffffffffffffff81111561245357612452611f24565b5b61245f8b828c01612212565b965050606089013567ffffffffffffffff8111156124805761247f611f24565b5b61248c8b828c01612212565b955050608089013567ffffffffffffffff8111156124ad576124ac611f24565b5b6124b98b828c01612212565b94505060a089013567ffffffffffffffff8111156124da576124d9611f24565b5b6124e68b828c01612212565b93505060c089013567ffffffffffffffff81111561250757612506611f24565b5b6125138b828c01612212565b92505060e089013567ffffffffffffffff81111561253457612533611f24565b5b6125408b828c01612212565b9150509295985092959890939650565b600081519050919050565b600082825260208201905092915050565b6000819050602082019050919050565b600082825260208201905092915050565b600061259882611fc3565b6125a2818561257c565b93506125b2818560208601611fdf565b6125bb81612012565b840191505092915050565b60006125d2838361258d565b905092915050565b6000602082019050919050565b60006125f282612550565b6125fc818561255b565b93508360208202850161260e8561256c565b8060005b8581101561264a578484038952815161262b85826125c6565b9450612636836125da565b925060208a01995050600181019050612612565b50829750879550505050505092915050565b600081519050919050565b600082825260208201905092915050565b6000819050602082019050919050565b6126918161229c565b82525050565b60006126a38383612688565b60208301905092915050565b6000602082019050919050565b60006126c78261265c565b6126d18185612667565b93506126dc83612678565b8060005b8381101561270d5781516126f48882612697565b97506126ff836126af565b9250506001810190506126e0565b5085935050505092915050565b6000604082019050818103600083015261273481856125e7565b9050818103602083015261274881846126bc565b90509392505050565b600081519050919050565b600082825260208201905092915050565b6000819050602082019050919050565b61278681611f49565b82525050565b6000612798838361277d565b60208301905092915050565b6000602082019050919050565b60006127bc82612751565b6127c6818561275c565b93506127d18361276d565b8060005b838110156128025781516127e9888261278c565b97506127f4836127a4565b9250506001810190506127d5565b5085935050505092915050565b600061010082019050818103600083015261282a818b6127b1565b9050818103602083015261283e818a6125e7565b9050818103604083015261285281896125e7565b9050818103606083015261286681886125e7565b9050818103608083015261287a81876125e7565b905081810360a083015261288e81866125e7565b905081810360c08301526128a281856125e7565b905081810360e08301526128b681846125e7565b90509998505050505050505050565b7f4e487b7100000000000000000000000000000000000000000000000000000000600052603260045260246000fd5b7f4e487b7100000000000000000000000000000000000000000000000000000000600052602260045260246000fd5b6000600282049050600182168061293b57607f821691505b60208210810361294e5761294d6128f4565b5b50919050565b7f4e487b7100000000000000000000000000000000000000000000000000000000600052601160045260246000fd5b600061298e8261229c565b91507fffffffffffffffffffffffffffffffffffffffffffffffffffffffffffffffff82036129c0576129bf612954565b5b600182019050919050565b600081905092915050565b60008190508160005260206000209050919050565b600081546129f881612923565b612a0281866129cb565b94506001821660008114612a1d5760018114612a3257612a65565b60ff1983168652811515820286019350612a65565b612a3b856129d6565b60005b83811015612a5d57815481890152600182019150602081019050612a3e565b838801955050505b50505092915050565b6000612a7a82846129eb565b915081905092915050565b7f4c6576656c206f6620736b696c6c20696e636f72726563742e00000000000000600082015250565b6000612abb601983611fce565b9150612ac682612a85565b602082019050919050565b60006020820190508181036000830152612aea81612aae565b9050919050565b60008190508160005260206000209050919050565b60006020601f8301049050919050565b600082821b905092915050565b600060088302612b537fffffffffffffffffffffffffffffffffffffffffffffffffffffffffffffffff82612b16565b612b5d8683612b16565b95508019841693508086168417925050509392505050565b6000819050919050565b6000612b9a612b95612b908461229c565b612b75565b61229c565b9050919050565b6000819050919050565b612bb483612b7f565b612bc8612bc082612ba1565b848454612b23565b825550505050565b600090565b612bdd612bd0565b612be8818484612bab565b505050565b5b81811015612c0c57612c01600082612bd5565b600181019050612bee565b5050565b601f821115612c5157612c2281612af1565b612c2b84612b06565b81016020851015612c3a578190505b612c4e612c4685612b06565b830182612bed565b50505b505050565b600082821c905092915050565b6000612c7460001984600802612c56565b1980831691505092915050565b6000612c8d8383612c63565b9150826002028217905092915050565b612ca682611fc3565b67ffffffffffffffff811115612cbf57612cbe612115565b5b612cc98254612923565b612cd4828285612c10565b600060209050601f831160018114612d075760008415612cf5578287015190505b612cff8582612c81565b865550612d67565b601f198416612d1586612af1565b60005b82811015612d3d57848901518255600182019150602085019450602081019050612d18565b86831015612d5a5784890151612d56601f891682612c63565b8355505b6001600288020188555050505b505050505050565b6000612d7a8261229c565b9150612d858361229c565b9250827fffffffffffffffffffffffffffffffffffffffffffffffffffffffffffffffff03821115612dba57612db9612954565b5b82820190509291505056fea264697066735822122038dcbfe861df016f34d40cc6aa960063172e4ac320a58d9a423e758c94a5862264736f6c634300080f0033",
  "immutableReferences": {},
  "source": "// SPDX-License-Identifier: MIT\npragma solidity >=0.4.22 <0.9.0;\n\n// Lu tr danh sch sinh vin\ncontract ListStudent {\n\n    // Khai bo cu trc lu tr thng tin sinh vin\n    struct ListSV {\n        address studentOwner;\n        string name; \n        string birthDay; \n        string professionalTitle;\n        string email;\n        string github; \n        string linkedin;\n        string password;\n    }\n\n    // Khai bo cu trc lu tr thng tin k nng ca sinh vin\n    struct ListSkill {\n        address studentOwner;\n        string title; \n        uint level;\n    }\n\n    // Khai bo cc mng  lu tr thng tin\n    ListSV[] public listSVs;\n    ListSkill[] public listSkills;\n\n    // Chc nng thm thng tin sinh vin\n    function addSV (\n        address _studentOwner,\n        string memory _name,\n        string memory _birthDay,\n        string memory _professionalTitle,\n        string memory _email,\n        string memory _github,\n        string memory _linked,\n        string memory _password) public {\n            listSVs.push(\n                ListSV(_studentOwner, \n                        _name, \n                        _birthDay, \n                        _professionalTitle, \n                        _email, \n                        _github, \n                        _linked, \n                        _password)\n                );\n    }\n\n    // Chc nng ly danh sch sinh vin  thm\n    function getListSV() public view returns(\n        address[] memory, \n        string[] memory, \n        string[] memory, \n        string[] memory, \n        string[] memory, \n        string[] memory, \n        string[] memory, \n        string[] memory) {\n            address[] memory studentOwners = new address[](listSVs.length);\n            string[] memory names = new string[](listSVs.length);\n            string[] memory birthDays = new string[](listSVs.length);\n            string[] memory professionalTitles = new string[](listSVs.length);\n            string[] memory emails = new string[](listSVs.length);\n            string[] memory githubs = new string[](listSVs.length);\n            string[] memory linkedins = new string[](listSVs.length);\n            string[] memory passwords = new string[](listSVs.length);\n            for(uint i=0; i<listSVs.length;i++){\n                studentOwners[i] = listSVs[i].studentOwner;\n                names[i] = listSVs[i].name;\n                birthDays[i] = listSVs[i].birthDay;\n                professionalTitles[i] = listSVs[i].professionalTitle;\n                emails[i] = listSVs[i].email;\n                githubs[i] = listSVs[i].github;\n                linkedins[i] = listSVs[i].linkedin;\n                passwords[i] = listSVs[i].password;\n            }\n            return (studentOwners, names, birthDays, professionalTitles, emails, githubs, linkedins, passwords);\n    }\n\n    // Chc nng ly thng tin ca sinh vin\n    function getProfile(address _studentOwner) public view returns(\n        address studentOwner, \n        string memory name, \n        string memory birthDay, \n        string memory professionalTitle, \n        string memory email, \n        string memory github, \n        string memory linkedin,\n        string memory password) {\n            for(uint i=0; i<listSVs.length;i++){\n                if(listSVs[i].studentOwner == _studentOwner){\n                    return (listSVs[i].studentOwner,\n                            listSVs[i].name, \n                            listSVs[i].birthDay, \n                            listSVs[i].professionalTitle, \n                            listSVs[i].email, \n                            listSVs[i].github, \n                            listSVs[i].linkedin,\n                            listSVs[i].password);\n                }\n            }\n    }\n\n    // Chc nng kim tra sinh vin  ng k hay cha?\n    function checkSV(\n        address _studentOwner, \n        string memory _password) public view returns(uint x) {\n            for(uint i=0; i<listSVs.length; i++){\n                if((listSVs[i].studentOwner == _studentOwner) && (keccak256(bytes(listSVs[i].password)) == keccak256(bytes(_password)))){\n                    return 1;\n                }\n            }\n    }\n\n    // Chc nng kim tra a ch sinh vin  tn ti hay cha?\n    function checkExistSV(address _studentOwner) public view returns(uint x) {\n            for(uint i=0; i<listSVs.length; i++){\n                if(listSVs[i].studentOwner == _studentOwner){\n                    return 1;\n                }\n            }\n    }\n\n    // Chc nng thm thng tin k nng ca sinh vin\n    function addSkill(\n        address _studentOwner,\n        string memory _title, \n        uint _level) public {\n            require(_level >=0 && _level <=100, \"Level of skill incorrect.\"); //Mc  ca k nng c tnh theo thang im t 0 n 100\n            listSkills.push(ListSkill(_studentOwner, _title, _level));\n    }\n\n    // Chc nng kim tra sinh vin  thm k nng  hay cha?\n    function checkSkill(\n        address _studentOwner, \n        string memory _title) public view returns(uint x) {\n            for(uint i=0; i<listSkills.length; i++){\n                if((listSkills[i].studentOwner == _studentOwner) && (keccak256(bytes(listSkills[i].title)) == keccak256(bytes(_title)))){\n                    return 1;\n                }\n            }\n    }\n\n    // Chc nng m s lng k nng ca sinh vin\n    function checkNumSkill(\n        address _studentOwner) public view returns(uint x) {\n            uint _count = 0;\n            for(uint i=0; i<listSkills.length; i++){\n                if(listSkills[i].studentOwner == _studentOwner){\n                    _count += 1;\n                }\n            }\n            return _count;\n    }\n\n    // Chc nng ly thng tin k nng ca sinh vin\n    function getSkill(address _studentOwner) public view returns(\n        string[] memory,\n        uint[] memory) {\n            string[] memory titles = new string[](listSkills.length);\n            uint[] memory levels = new uint[](listSkills.length);\n            for(uint i=0; i<listSkills.length;i++){\n                if(listSkills[i].studentOwner == _studentOwner) {\n                    titles[i] = listSkills[i].title;\n                    levels[i] = listSkills[i].level;\n                }\n            }\n            return (titles, levels);\n    }\n    \n}",
  "sourcePath": "/Users/khanhle/Documents/GitHub/IS_cv/contracts/SmartCV_ListStudent.sol",
  "compiler": {
    "name": "solc",
    "version": "0.8.15+commit.e14f2714.Emscripten.clang"
  },
  "schemaVersion": "3.4.8",
  "updatedAt": "2022-07-17T09:37:54.184Z",
  "devdoc": {
    "kind": "dev",
    "methods": {},
    "version": 1
  },
  "userdoc": {
    "kind": "user",
    "methods": {},
    "version": 1
  }
}