{
  "contractName": "ListStudent",
  "abi": [
    {
      "inputs": [
        {
          "internalType": "uint256",
          "name": "",
          "type": "uint256"
        }
      ],
      "name": "listSVs",
      "outputs": [
        {
          "internalType": "address",
          "name": "studentOwner",
          "type": "address"
        },
        {
          "internalType": "string",
          "name": "name",
          "type": "string"
        },
        {
          "internalType": "string",
          "name": "birthDay",
          "type": "string"
        },
        {
          "internalType": "string",
          "name": "professionalTitle",
          "type": "string"
        },
        {
          "internalType": "string",
          "name": "email",
          "type": "string"
        },
        {
          "internalType": "string",
          "name": "github",
          "type": "string"
        },
        {
          "internalType": "string",
          "name": "linkedin",
          "type": "string"
        },
        {
          "internalType": "string",
          "name": "password",
          "type": "string"
        }
      ],
      "stateMutability": "view",
      "type": "function"
    },
    {
      "inputs": [
        {
          "internalType": "uint256",
          "name": "",
          "type": "uint256"
        }
      ],
      "name": "listSkills",
      "outputs": [
        {
          "internalType": "address",
          "name": "studentOwner",
          "type": "address"
        },
        {
          "internalType": "string",
          "name": "title",
          "type": "string"
        },
        {
          "internalType": "uint256",
          "name": "level",
          "type": "uint256"
        }
      ],
      "stateMutability": "view",
      "type": "function"
    },
    {
      "inputs": [
        {
          "internalType": "address",
          "name": "_studentOwner",
          "type": "address"
        },
        {
          "internalType": "string",
          "name": "_name",
          "type": "string"
        },
        {
          "internalType": "string",
          "name": "_birthDay",
          "type": "string"
        },
        {
          "internalType": "string",
          "name": "_professionalTitle",
          "type": "string"
        },
        {
          "internalType": "string",
          "name": "_email",
          "type": "string"
        },
        {
          "internalType": "string",
          "name": "_github",
          "type": "string"
        },
        {
          "internalType": "string",
          "name": "_linked",
          "type": "string"
        },
        {
          "internalType": "string",
          "name": "_password",
          "type": "string"
        }
      ],
      "name": "addSV",
      "outputs": [],
      "stateMutability": "nonpayable",
      "type": "function"
    },
    {
      "inputs": [],
      "name": "getListSV",
      "outputs": [
        {
          "internalType": "address[]",
          "name": "",
          "type": "address[]"
        },
        {
          "internalType": "string[]",
          "name": "",
          "type": "string[]"
        },
        {
          "internalType": "string[]",
          "name": "",
          "type": "string[]"
        },
        {
          "internalType": "string[]",
          "name": "",
          "type": "string[]"
        },
        {
          "internalType": "string[]",
          "name": "",
          "type": "string[]"
        },
        {
          "internalType": "string[]",
          "name": "",
          "type": "string[]"
        },
        {
          "internalType": "string[]",
          "name": "",
          "type": "string[]"
        },
        {
          "internalType": "string[]",
          "name": "",
          "type": "string[]"
        }
      ],
      "stateMutability": "view",
      "type": "function"
    },
    {
      "inputs": [
        {
          "internalType": "address",
          "name": "_studentOwner",
          "type": "address"
        }
      ],
      "name": "getProfile",
      "outputs": [
        {
          "internalType": "address",
          "name": "studentOwner",
          "type": "address"
        },
        {
          "internalType": "string",
          "name": "name",
          "type": "string"
        },
        {
          "internalType": "string",
          "name": "birthDay",
          "type": "string"
        },
        {
          "internalType": "string",
          "name": "professionalTitle",
          "type": "string"
        },
        {
          "internalType": "string",
          "name": "email",
          "type": "string"
        },
        {
          "internalType": "string",
          "name": "github",
          "type": "string"
        },
        {
          "internalType": "string",
          "name": "linkedin",
          "type": "string"
        },
        {
          "internalType": "string",
          "name": "password",
          "type": "string"
        }
      ],
      "stateMutability": "view",
      "type": "function"
    },
    {
      "inputs": [
        {
          "internalType": "address",
          "name": "_studentOwner",
          "type": "address"
        },
        {
          "internalType": "string",
          "name": "_password",
          "type": "string"
        }
      ],
      "name": "checkSV",
      "outputs": [
        {
          "internalType": "uint256",
          "name": "x",
          "type": "uint256"
        }
      ],
      "stateMutability": "view",
      "type": "function"
    },
    {
      "inputs": [
        {
          "internalType": "address",
          "name": "_studentOwner",
          "type": "address"
        },
        {
          "internalType": "string",
          "name": "_title",
          "type": "string"
        },
        {
          "internalType": "uint256",
          "name": "_level",
          "type": "uint256"
        }
      ],
      "name": "addSkill",
      "outputs": [],
      "stateMutability": "nonpayable",
      "type": "function"
    },
    {
      "inputs": [
        {
          "internalType": "address",
          "name": "_studentOwner",
          "type": "address"
        },
        {
          "internalType": "string",
          "name": "_title",
          "type": "string"
        }
      ],
      "name": "checkSkill",
      "outputs": [
        {
          "internalType": "uint256",
          "name": "x",
          "type": "uint256"
        }
      ],
      "stateMutability": "view",
      "type": "function"
    },
    {
      "inputs": [
        {
          "internalType": "address",
          "name": "_studentOwner",
          "type": "address"
        }
      ],
      "name": "checkNumSkill",
      "outputs": [
        {
          "internalType": "uint256",
          "name": "x",
          "type": "uint256"
        }
      ],
      "stateMutability": "view",
      "type": "function"
    },
    {
      "inputs": [
        {
          "internalType": "address",
          "name": "_studentOwner",
          "type": "address"
        }
      ],
      "name": "getSkill",
      "outputs": [
        {
          "internalType": "string[]",
          "name": "",
          "type": "string[]"
        },
        {
          "internalType": "uint256[]",
          "name": "",
          "type": "uint256[]"
        }
      ],
      "stateMutability": "view",
      "type": "function"
    }
  ],
  "bytecode": "0x608060405234801561001057600080fd5b50612d0f806100206000396000f3fe608060405234801561001057600080fd5b506004361061009e5760003560e01c8063716b5ab411610066578063716b5ab41461018f5780638e891393146101bf5780639fea8e10146101ef578063ac4b20491461020b578063d64b69131461023c5761009e565b80630f53a470146100a3578063174ceeab146100da5780633aff2cc51461010a57806360ccb2041461013c5780636704710714610158575b600080fd5b6100bd60048036038101906100b89190611e9b565b610261565b6040516100d1989796959493929190611f70565b60405180910390f35b6100f460048036038101906100ef9190612154565b610849565b60405161010191906121c9565b60405180910390f35b610124600480360381019061011f9190612210565b610947565b6040516101339392919061223d565b60405180910390f35b6101566004803603810190610151919061227b565b610a29565b005b610172600480360381019061016d9190612210565b610b44565b604051610186989796959493929190611f70565b60405180910390f35b6101a960048036038101906101a49190612154565b610f74565b6040516101b691906121c9565b60405180910390f35b6101d960048036038101906101d49190611e9b565b611072565b6040516101e691906121c9565b60405180910390f35b610209600480360381019061020491906122ea565b61112e565b005b61022560048036038101906102209190611e9b565b611296565b60405161023392919061262e565b60405180910390f35b6102446114fd565b604051610258989796959493929190612723565b60405180910390f35b6000606080606080606080606060005b60008054905081101561083c578973ffffffffffffffffffffffffffffffffffffffff16600082815481106102a9576102a86127d9565b5b906000526020600020906008020160000160009054906101000a900473ffffffffffffffffffffffffffffffffffffffff1673ffffffffffffffffffffffffffffffffffffffff1603610829576000818154811061030a576103096127d9565b5b906000526020600020906008020160000160009054906101000a900473ffffffffffffffffffffffffffffffffffffffff16600082815481106103505761034f6127d9565b5b906000526020600020906008020160010160008381548110610375576103746127d9565b5b90600052602060002090600802016002016000848154811061039a576103996127d9565b5b9060005260206000209060080201600301600085815481106103bf576103be6127d9565b5b9060005260206000209060080201600401600086815481106103e4576103e36127d9565b5b906000526020600020906008020160050160008781548110610409576104086127d9565b5b90600052602060002090600802016006016000888154811061042e5761042d6127d9565b5b906000526020600020906008020160070186805461044b90612837565b80601f016020809104026020016040519081016040528092919081815260200182805461047790612837565b80156104c45780601f10610499576101008083540402835291602001916104c4565b820191906000526020600020905b8154815290600101906020018083116104a757829003601f168201915b505050505096508580546104d790612837565b80601f016020809104026020016040519081016040528092919081815260200182805461050390612837565b80156105505780601f1061052557610100808354040283529160200191610550565b820191906000526020600020905b81548152906001019060200180831161053357829003601f168201915b5050505050955084805461056390612837565b80601f016020809104026020016040519081016040528092919081815260200182805461058f90612837565b80156105dc5780601f106105b1576101008083540402835291602001916105dc565b820191906000526020600020905b8154815290600101906020018083116105bf57829003601f168201915b505050505094508380546105ef90612837565b80601f016020809104026020016040519081016040528092919081815260200182805461061b90612837565b80156106685780601f1061063d57610100808354040283529160200191610668565b820191906000526020600020905b81548152906001019060200180831161064b57829003601f168201915b5050505050935082805461067b90612837565b80601f01602080910402602001604051908101604052809291908181526020018280546106a790612837565b80156106f45780601f106106c9576101008083540402835291602001916106f4565b820191906000526020600020905b8154815290600101906020018083116106d757829003601f168201915b5050505050925081805461070790612837565b80601f016020809104026020016040519081016040528092919081815260200182805461073390612837565b80156107805780601f1061075557610100808354040283529160200191610780565b820191906000526020600020905b81548152906001019060200180831161076357829003601f168201915b5050505050915080805461079390612837565b80601f01602080910402602001604051908101604052809291908181526020018280546107bf90612837565b801561080c5780601f106107e15761010080835404028352916020019161080c565b820191906000526020600020905b8154815290600101906020018083116107ef57829003601f168201915b50505050509050985098509850985098509850985098505061083e565b808061083490612897565b915050610271565b505b919395975091939597565b600080600090505b60008054905081101561093f578373ffffffffffffffffffffffffffffffffffffffff1660008281548110610889576108886127d9565b5b906000526020600020906008020160000160009054906101000a900473ffffffffffffffffffffffffffffffffffffffff1673ffffffffffffffffffffffffffffffffffffffff1614801561091d57508280519060200120600082815481106108f5576108f46127d9565b5b90600052602060002090600802016007016040516109139190612982565b6040518091039020145b1561092c576001915050610941565b808061093790612897565b915050610851565b505b92915050565b6001818154811061095757600080fd5b90600052602060002090600302016000915090508060000160009054906101000a900473ffffffffffffffffffffffffffffffffffffffff16908060010180546109a090612837565b80601f01602080910402602001604051908101604052809291908181526020018280546109cc90612837565b8015610a195780601f106109ee57610100808354040283529160200191610a19565b820191906000526020600020905b8154815290600101906020018083116109fc57829003601f168201915b5050505050908060020154905083565b60008110158015610a3b575060648111155b610a7a576040517f08c379a0000000000000000000000000000000000000000000000000000000008152600401610a71906129e5565b60405180910390fd5b600160405180606001604052808573ffffffffffffffffffffffffffffffffffffffff16815260200184815260200183815250908060018154018082558091505060019003906000526020600020906003020160009091909190915060008201518160000160006101000a81548173ffffffffffffffffffffffffffffffffffffffff021916908373ffffffffffffffffffffffffffffffffffffffff1602179055506020820151816001019081610b329190612bb1565b50604082015181600201555050505050565b60008181548110610b5457600080fd5b90600052602060002090600802016000915090508060000160009054906101000a900473ffffffffffffffffffffffffffffffffffffffff1690806001018054610b9d90612837565b80601f0160208091040260200160405190810160405280929190818152602001828054610bc990612837565b8015610c165780601f10610beb57610100808354040283529160200191610c16565b820191906000526020600020905b815481529060010190602001808311610bf957829003601f168201915b505050505090806002018054610c2b90612837565b80601f0160208091040260200160405190810160405280929190818152602001828054610c5790612837565b8015610ca45780601f10610c7957610100808354040283529160200191610ca4565b820191906000526020600020905b815481529060010190602001808311610c8757829003601f168201915b505050505090806003018054610cb990612837565b80601f0160208091040260200160405190810160405280929190818152602001828054610ce590612837565b8015610d325780601f10610d0757610100808354040283529160200191610d32565b820191906000526020600020905b815481529060010190602001808311610d1557829003601f168201915b505050505090806004018054610d4790612837565b80601f0160208091040260200160405190810160405280929190818152602001828054610d7390612837565b8015610dc05780601f10610d9557610100808354040283529160200191610dc0565b820191906000526020600020905b815481529060010190602001808311610da357829003601f168201915b505050505090806005018054610dd590612837565b80601f0160208091040260200160405190810160405280929190818152602001828054610e0190612837565b8015610e4e5780601f10610e2357610100808354040283529160200191610e4e565b820191906000526020600020905b815481529060010190602001808311610e3157829003601f168201915b505050505090806006018054610e6390612837565b80601f0160208091040260200160405190810160405280929190818152602001828054610e8f90612837565b8015610edc5780601f10610eb157610100808354040283529160200191610edc565b820191906000526020600020905b815481529060010190602001808311610ebf57829003601f168201915b505050505090806007018054610ef190612837565b80601f0160208091040260200160405190810160405280929190818152602001828054610f1d90612837565b8015610f6a5780601f10610f3f57610100808354040283529160200191610f6a565b820191906000526020600020905b815481529060010190602001808311610f4d57829003601f168201915b5050505050905088565b600080600090505b60018054905081101561106a578373ffffffffffffffffffffffffffffffffffffffff1660018281548110610fb457610fb36127d9565b5b906000526020600020906003020160000160009054906101000a900473ffffffffffffffffffffffffffffffffffffffff1673ffffffffffffffffffffffffffffffffffffffff1614801561104857508280519060200120600182815481106110205761101f6127d9565b5b906000526020600020906003020160010160405161103e9190612982565b6040518091039020145b1561105757600191505061106c565b808061106290612897565b915050610f7c565b505b92915050565b6000806000905060005b600180549050811015611124578373ffffffffffffffffffffffffffffffffffffffff16600182815481106110b4576110b36127d9565b5b906000526020600020906003020160000160009054906101000a900473ffffffffffffffffffffffffffffffffffffffff1673ffffffffffffffffffffffffffffffffffffffff16036111115760018261110e9190612c83565b91505b808061111c90612897565b91505061107c565b5080915050919050565b60006040518061010001604052808a73ffffffffffffffffffffffffffffffffffffffff16815260200189815260200188815260200187815260200186815260200185815260200184815260200183815250908060018154018082558091505060019003906000526020600020906008020160009091909190915060008201518160000160006101000a81548173ffffffffffffffffffffffffffffffffffffffff021916908373ffffffffffffffffffffffffffffffffffffffff16021790555060208201518160010190816112059190612bb1565b50604082015181600201908161121b9190612bb1565b5060608201518160030190816112319190612bb1565b5060808201518160040190816112479190612bb1565b5060a082015181600501908161125d9190612bb1565b5060c08201518160060190816112739190612bb1565b5060e08201518160070190816112899190612bb1565b5050505050505050505050565b606080600060018054905067ffffffffffffffff8111156112ba576112b9612029565b5b6040519080825280602002602001820160405280156112ed57816020015b60608152602001906001900390816112d85790505b509050600060018054905067ffffffffffffffff81111561131157611310612029565b5b60405190808252806020026020018201604052801561133f5781602001602082028036833780820191505090505b50905060005b6001805490508110156114ef578573ffffffffffffffffffffffffffffffffffffffff166001828154811061137d5761137c6127d9565b5b906000526020600020906003020160000160009054906101000a900473ffffffffffffffffffffffffffffffffffffffff1673ffffffffffffffffffffffffffffffffffffffff16036114dc57600181815481106113de576113dd6127d9565b5b906000526020600020906003020160010180546113fa90612837565b80601f016020809104026020016040519081016040528092919081815260200182805461142690612837565b80156114735780601f1061144857610100808354040283529160200191611473565b820191906000526020600020905b81548152906001019060200180831161145657829003601f168201915b505050505083828151811061148b5761148a6127d9565b5b6020026020010181905250600181815481106114aa576114a96127d9565b5b9060005260206000209060030201600201548282815181106114cf576114ce6127d9565b5b6020026020010181815250505b80806114e790612897565b915050611345565b508181935093505050915091565b6060806060806060806060806000808054905067ffffffffffffffff81111561152957611528612029565b5b6040519080825280602002602001820160405280156115575781602001602082028036833780820191505090505b5090506000808054905067ffffffffffffffff81111561157a57611579612029565b5b6040519080825280602002602001820160405280156115ad57816020015b60608152602001906001900390816115985790505b5090506000808054905067ffffffffffffffff8111156115d0576115cf612029565b5b60405190808252806020026020018201604052801561160357816020015b60608152602001906001900390816115ee5790505b5090506000808054905067ffffffffffffffff81111561162657611625612029565b5b60405190808252806020026020018201604052801561165957816020015b60608152602001906001900390816116445790505b5090506000808054905067ffffffffffffffff81111561167c5761167b612029565b5b6040519080825280602002602001820160405280156116af57816020015b606081526020019060019003908161169a5790505b5090506000808054905067ffffffffffffffff8111156116d2576116d1612029565b5b60405190808252806020026020018201604052801561170557816020015b60608152602001906001900390816116f05790505b5090506000808054905067ffffffffffffffff81111561172857611727612029565b5b60405190808252806020026020018201604052801561175b57816020015b60608152602001906001900390816117465790505b5090506000808054905067ffffffffffffffff81111561177e5761177d612029565b5b6040519080825280602002602001820160405280156117b157816020015b606081526020019060019003908161179c5790505b50905060005b600080549050811015611dfe57600081815481106117d8576117d76127d9565b5b906000526020600020906008020160000160009054906101000a900473ffffffffffffffffffffffffffffffffffffffff1689828151811061181d5761181c6127d9565b5b602002602001019073ffffffffffffffffffffffffffffffffffffffff16908173ffffffffffffffffffffffffffffffffffffffff16815250506000818154811061186b5761186a6127d9565b5b9060005260206000209060080201600101805461188790612837565b80601f01602080910402602001604051908101604052809291908181526020018280546118b390612837565b80156119005780601f106118d557610100808354040283529160200191611900565b820191906000526020600020905b8154815290600101906020018083116118e357829003601f168201915b5050505050888281518110611918576119176127d9565b5b602002602001018190525060008181548110611937576119366127d9565b5b9060005260206000209060080201600201805461195390612837565b80601f016020809104026020016040519081016040528092919081815260200182805461197f90612837565b80156119cc5780601f106119a1576101008083540402835291602001916119cc565b820191906000526020600020905b8154815290600101906020018083116119af57829003601f168201915b50505050508782815181106119e4576119e36127d9565b5b602002602001018190525060008181548110611a0357611a026127d9565b5b90600052602060002090600802016003018054611a1f90612837565b80601f0160208091040260200160405190810160405280929190818152602001828054611a4b90612837565b8015611a985780601f10611a6d57610100808354040283529160200191611a98565b820191906000526020600020905b815481529060010190602001808311611a7b57829003601f168201915b5050505050868281518110611ab057611aaf6127d9565b5b602002602001018190525060008181548110611acf57611ace6127d9565b5b90600052602060002090600802016004018054611aeb90612837565b80601f0160208091040260200160405190810160405280929190818152602001828054611b1790612837565b8015611b645780601f10611b3957610100808354040283529160200191611b64565b820191906000526020600020905b815481529060010190602001808311611b4757829003601f168201915b5050505050858281518110611b7c57611b7b6127d9565b5b602002602001018190525060008181548110611b9b57611b9a6127d9565b5b90600052602060002090600802016005018054611bb790612837565b80601f0160208091040260200160405190810160405280929190818152602001828054611be390612837565b8015611c305780601f10611c0557610100808354040283529160200191611c30565b820191906000526020600020905b815481529060010190602001808311611c1357829003601f168201915b5050505050848281518110611c4857611c476127d9565b5b602002602001018190525060008181548110611c6757611c666127d9565b5b90600052602060002090600802016006018054611c8390612837565b80601f0160208091040260200160405190810160405280929190818152602001828054611caf90612837565b8015611cfc5780601f10611cd157610100808354040283529160200191611cfc565b820191906000526020600020905b815481529060010190602001808311611cdf57829003601f168201915b5050505050838281518110611d1457611d136127d9565b5b602002602001018190525060008181548110611d3357611d326127d9565b5b90600052602060002090600802016007018054611d4f90612837565b80601f0160208091040260200160405190810160405280929190818152602001828054611d7b90612837565b8015611dc85780601f10611d9d57610100808354040283529160200191611dc8565b820191906000526020600020905b815481529060010190602001808311611dab57829003601f168201915b5050505050828281518110611de057611ddf6127d9565b5b60200260200101819052508080611df690612897565b9150506117b7565b5087878787878787879f509f509f509f509f509f509f509f5050505050505050509091929394959697565b6000604051905090565b600080fd5b600080fd5b600073ffffffffffffffffffffffffffffffffffffffff82169050919050565b6000611e6882611e3d565b9050919050565b611e7881611e5d565b8114611e8357600080fd5b50565b600081359050611e9581611e6f565b92915050565b600060208284031215611eb157611eb0611e33565b5b6000611ebf84828501611e86565b91505092915050565b611ed181611e5d565b82525050565b600081519050919050565b600082825260208201905092915050565b60005b83811015611f11578082015181840152602081019050611ef6565b83811115611f20576000848401525b50505050565b6000601f19601f8301169050919050565b6000611f4282611ed7565b611f4c8185611ee2565b9350611f5c818560208601611ef3565b611f6581611f26565b840191505092915050565b600061010082019050611f86600083018b611ec8565b8181036020830152611f98818a611f37565b90508181036040830152611fac8189611f37565b90508181036060830152611fc08188611f37565b90508181036080830152611fd48187611f37565b905081810360a0830152611fe88186611f37565b905081810360c0830152611ffc8185611f37565b905081810360e08301526120108184611f37565b90509998505050505050505050565b600080fd5b600080fd5b7f4e487b7100000000000000000000000000000000000000000000000000000000600052604160045260246000fd5b61206182611f26565b810181811067ffffffffffffffff821117156120805761207f612029565b5b80604052505050565b6000612093611e29565b905061209f8282612058565b919050565b600067ffffffffffffffff8211156120bf576120be612029565b5b6120c882611f26565b9050602081019050919050565b82818337600083830152505050565b60006120f76120f2846120a4565b612089565b90508281526020810184848401111561211357612112612024565b5b61211e8482856120d5565b509392505050565b600082601f83011261213b5761213a61201f565b5b813561214b8482602086016120e4565b91505092915050565b6000806040838503121561216b5761216a611e33565b5b600061217985828601611e86565b925050602083013567ffffffffffffffff81111561219a57612199611e38565b5b6121a685828601612126565b9150509250929050565b6000819050919050565b6121c3816121b0565b82525050565b60006020820190506121de60008301846121ba565b92915050565b6121ed816121b0565b81146121f857600080fd5b50565b60008135905061220a816121e4565b92915050565b60006020828403121561222657612225611e33565b5b6000612234848285016121fb565b91505092915050565b60006060820190506122526000830186611ec8565b81810360208301526122648185611f37565b905061227360408301846121ba565b949350505050565b60008060006060848603121561229457612293611e33565b5b60006122a286828701611e86565b935050602084013567ffffffffffffffff8111156122c3576122c2611e38565b5b6122cf86828701612126565b92505060406122e0868287016121fb565b9150509250925092565b600080600080600080600080610100898b03121561230b5761230a611e33565b5b60006123198b828c01611e86565b985050602089013567ffffffffffffffff81111561233a57612339611e38565b5b6123468b828c01612126565b975050604089013567ffffffffffffffff81111561236757612366611e38565b5b6123738b828c01612126565b965050606089013567ffffffffffffffff81111561239457612393611e38565b5b6123a08b828c01612126565b955050608089013567ffffffffffffffff8111156123c1576123c0611e38565b5b6123cd8b828c01612126565b94505060a089013567ffffffffffffffff8111156123ee576123ed611e38565b5b6123fa8b828c01612126565b93505060c089013567ffffffffffffffff81111561241b5761241a611e38565b5b6124278b828c01612126565b92505060e089013567ffffffffffffffff81111561244857612447611e38565b5b6124548b828c01612126565b9150509295985092959890939650565b600081519050919050565b600082825260208201905092915050565b6000819050602082019050919050565b600082825260208201905092915050565b60006124ac82611ed7565b6124b68185612490565b93506124c6818560208601611ef3565b6124cf81611f26565b840191505092915050565b60006124e683836124a1565b905092915050565b6000602082019050919050565b600061250682612464565b612510818561246f565b93508360208202850161252285612480565b8060005b8581101561255e578484038952815161253f85826124da565b945061254a836124ee565b925060208a01995050600181019050612526565b50829750879550505050505092915050565b600081519050919050565b600082825260208201905092915050565b6000819050602082019050919050565b6125a5816121b0565b82525050565b60006125b7838361259c565b60208301905092915050565b6000602082019050919050565b60006125db82612570565b6125e5818561257b565b93506125f08361258c565b8060005b8381101561262157815161260888826125ab565b9750612613836125c3565b9250506001810190506125f4565b5085935050505092915050565b6000604082019050818103600083015261264881856124fb565b9050818103602083015261265c81846125d0565b90509392505050565b600081519050919050565b600082825260208201905092915050565b6000819050602082019050919050565b61269a81611e5d565b82525050565b60006126ac8383612691565b60208301905092915050565b6000602082019050919050565b60006126d082612665565b6126da8185612670565b93506126e583612681565b8060005b838110156127165781516126fd88826126a0565b9750612708836126b8565b9250506001810190506126e9565b5085935050505092915050565b600061010082019050818103600083015261273e818b6126c5565b90508181036020830152612752818a6124fb565b9050818103604083015261276681896124fb565b9050818103606083015261277a81886124fb565b9050818103608083015261278e81876124fb565b905081810360a08301526127a281866124fb565b905081810360c08301526127b681856124fb565b905081810360e08301526127ca81846124fb565b90509998505050505050505050565b7f4e487b7100000000000000000000000000000000000000000000000000000000600052603260045260246000fd5b7f4e487b7100000000000000000000000000000000000000000000000000000000600052602260045260246000fd5b6000600282049050600182168061284f57607f821691505b60208210810361286257612861612808565b5b50919050565b7f4e487b7100000000000000000000000000000000000000000000000000000000600052601160045260246000fd5b60006128a2826121b0565b91507fffffffffffffffffffffffffffffffffffffffffffffffffffffffffffffffff82036128d4576128d3612868565b5b600182019050919050565b600081905092915050565b60008190508160005260206000209050919050565b6000815461290c81612837565b61291681866128df565b94506001821660008114612931576001811461294657612979565b60ff1983168652811515820286019350612979565b61294f856128ea565b60005b8381101561297157815481890152600182019150602081019050612952565b838801955050505b50505092915050565b600061298e82846128ff565b915081905092915050565b7f4c6576656c206f6620736b696c6c20696e636f72726563742e00000000000000600082015250565b60006129cf601983611ee2565b91506129da82612999565b602082019050919050565b600060208201905081810360008301526129fe816129c2565b9050919050565b60008190508160005260206000209050919050565b60006020601f8301049050919050565b600082821b905092915050565b600060088302612a677fffffffffffffffffffffffffffffffffffffffffffffffffffffffffffffffff82612a2a565b612a718683612a2a565b95508019841693508086168417925050509392505050565b6000819050919050565b6000612aae612aa9612aa4846121b0565b612a89565b6121b0565b9050919050565b6000819050919050565b612ac883612a93565b612adc612ad482612ab5565b848454612a37565b825550505050565b600090565b612af1612ae4565b612afc818484612abf565b505050565b5b81811015612b2057612b15600082612ae9565b600181019050612b02565b5050565b601f821115612b6557612b3681612a05565b612b3f84612a1a565b81016020851015612b4e578190505b612b62612b5a85612a1a565b830182612b01565b50505b505050565b600082821c905092915050565b6000612b8860001984600802612b6a565b1980831691505092915050565b6000612ba18383612b77565b9150826002028217905092915050565b612bba82611ed7565b67ffffffffffffffff811115612bd357612bd2612029565b5b612bdd8254612837565b612be8828285612b24565b600060209050601f831160018114612c1b5760008415612c09578287015190505b612c138582612b95565b865550612c7b565b601f198416612c2986612a05565b60005b82811015612c5157848901518255600182019150602085019450602081019050612c2c565b86831015612c6e5784890151612c6a601f891682612b77565b8355505b6001600288020188555050505b505050505050565b6000612c8e826121b0565b9150612c99836121b0565b9250827fffffffffffffffffffffffffffffffffffffffffffffffffffffffffffffffff03821115612cce57612ccd612868565b5b82820190509291505056fea26469706673582212209316f127617303a0e399af13f9566f727d47c19aee324f04f027d7da587aa5c264736f6c634300080f0033",
  "immutableReferences": {},
  "source": "// SPDX-License-Identifier: MIT\npragma solidity >=0.4.22 <0.9.0;\n\n// Lu tr danh sch sinh vin\ncontract ListStudent {\n\n    // Khai bo cu trc lu tr thng tin sinh vin\n    struct ListSV {\n        address studentOwner;\n        string name; \n        string birthDay; \n        string professionalTitle;\n        string email;\n        string github; \n        string linkedin;\n        string password;\n    }\n\n    // Khai bo cu trc lu tr thng tin k nng ca sinh vin\n    struct ListSkill {\n        address studentOwner;\n        string title; \n        uint level;\n    }\n\n    // Khai bo cc mng  lu tr thng tin\n    ListSV[] public listSVs;\n    ListSkill[] public listSkills;\n\n    // Chc nng thm thng tin sinh vin\n    function addSV (\n        address _studentOwner,\n        string memory _name,\n        string memory _birthDay,\n        string memory _professionalTitle,\n        string memory _email,\n        string memory _github,\n        string memory _linked,\n        string memory _password) public {\n            listSVs.push(\n                ListSV(_studentOwner, \n                        _name, \n                        _birthDay, \n                        _professionalTitle, \n                        _email, \n                        _github, \n                        _linked, \n                        _password)\n                );\n    }\n\n    // Chc nng ly danh sch sinh vin  thm\n    function getListSV() public view returns(\n        address[] memory, \n        string[] memory, \n        string[] memory, \n        string[] memory, \n        string[] memory, \n        string[] memory, \n        string[] memory, \n        string[] memory) {\n            address[] memory studentOwners = new address[](listSVs.length);\n            string[] memory names = new string[](listSVs.length);\n            string[] memory birthDays = new string[](listSVs.length);\n            string[] memory professionalTitles = new string[](listSVs.length);\n            string[] memory emails = new string[](listSVs.length);\n            string[] memory githubs = new string[](listSVs.length);\n            string[] memory linkedins = new string[](listSVs.length);\n            string[] memory passwords = new string[](listSVs.length);\n            for(uint i=0; i<listSVs.length;i++){\n                studentOwners[i] = listSVs[i].studentOwner;\n                names[i] = listSVs[i].name;\n                birthDays[i] = listSVs[i].birthDay;\n                professionalTitles[i] = listSVs[i].professionalTitle;\n                emails[i] = listSVs[i].email;\n                githubs[i] = listSVs[i].github;\n                linkedins[i] = listSVs[i].linkedin;\n                passwords[i] = listSVs[i].password;\n            }\n            return (studentOwners, names, birthDays, professionalTitles, emails, githubs, linkedins, passwords);\n    }\n\n    // Chc nng ly thng tin ca sinh vin\n    function getProfile(address _studentOwner) public view returns(\n        address studentOwner, \n        string memory name, \n        string memory birthDay, \n        string memory professionalTitle, \n        string memory email, \n        string memory github, \n        string memory linkedin,\n        string memory password) {\n            for(uint i=0; i<listSVs.length;i++){\n                if(listSVs[i].studentOwner == _studentOwner){\n                    return (listSVs[i].studentOwner,\n                            listSVs[i].name, \n                            listSVs[i].birthDay, \n                            listSVs[i].professionalTitle, \n                            listSVs[i].email, \n                            listSVs[i].github, \n                            listSVs[i].linkedin,\n                            listSVs[i].password);\n                }\n            }\n    }\n\n    // Chc nng kim tra sinh vin  ng k hay cha?\n    function checkSV(\n        address _studentOwner, \n        string memory _password) public view returns(uint x) {\n            for(uint i=0; i<listSVs.length; i++){\n                if((listSVs[i].studentOwner == _studentOwner) && (keccak256(bytes(listSVs[i].password)) == keccak256(bytes(_password)))){\n                    return 1;\n                }\n            }\n    }\n\n    // Chc nng thm thng tin k nng ca sinh vin\n    function addSkill(\n        address _studentOwner,\n        string memory _title, \n        uint _level) public {\n            require(_level >=0 && _level <=100, \"Level of skill incorrect.\"); //Mc  ca k nng c tnh theo thang im t 0 n 100\n            listSkills.push(ListSkill(_studentOwner, _title, _level));\n    }\n\n    // Chc nng kim tra sinh vin  thm k nng  hay cha?\n    function checkSkill(\n        address _studentOwner, \n        string memory _title) public view returns(uint x) {\n            for(uint i=0; i<listSkills.length; i++){\n                if((listSkills[i].studentOwner == _studentOwner) && (keccak256(bytes(listSkills[i].title)) == keccak256(bytes(_title)))){\n                    return 1;\n                }\n            }\n    }\n\n    // Chc nng m s lng k nng ca sinh vin\n    function checkNumSkill(\n        address _studentOwner) public view returns(uint x) {\n            uint _count = 0;\n            for(uint i=0; i<listSkills.length; i++){\n                if(listSkills[i].studentOwner == _studentOwner){\n                    _count += 1;\n                }\n            }\n            return _count;\n    }\n\n    // Chc nng ly thng tin k nng ca sinh vin\n    function getSkill(address _studentOwner) public view returns(\n        string[] memory,\n        uint[] memory) {\n            string[] memory titles = new string[](listSkills.length);\n            uint[] memory levels = new uint[](listSkills.length);\n            for(uint i=0; i<listSkills.length;i++){\n                if(listSkills[i].studentOwner == _studentOwner) {\n                    titles[i] = listSkills[i].title;\n                    levels[i] = listSkills[i].level;\n                }\n            }\n            return (titles, levels);\n    }\n    \n}",
  "sourcePath": "C:\\Users\\ADMIN\\Desktop\\IS_Project\\IS_cv\\contracts\\SmartCV_ListStudent.sol",
  "compiler": {
    "name": "solc",
    "version": "0.8.15+commit.e14f2714.Emscripten.clang"
  },
  "schemaVersion": "3.4.7",
  "updatedAt": "2022-07-16T07:51:31.150Z",
  "devdoc": {
    "kind": "dev",
    "methods": {},
    "version": 1
  },
  "userdoc": {
    "kind": "user",
    "methods": {},
    "version": 1
  }
}