{
  "contractName": "ListStudent",
  "abi": [
    {
      "inputs": [
        {
          "internalType": "uint256",
          "name": "",
          "type": "uint256"
        }
      ],
      "name": "listSVs",
      "outputs": [
        {
          "internalType": "address",
          "name": "studentOwner",
          "type": "address"
        },
        {
          "internalType": "string",
          "name": "name",
          "type": "string"
        },
        {
          "internalType": "string",
          "name": "birthDay",
          "type": "string"
        },
        {
          "internalType": "string",
          "name": "professionalTitle",
          "type": "string"
        },
        {
          "internalType": "string",
          "name": "email",
          "type": "string"
        },
        {
          "internalType": "string",
          "name": "github",
          "type": "string"
        },
        {
          "internalType": "string",
          "name": "linkedin",
          "type": "string"
        }
      ],
      "stateMutability": "view",
      "type": "function"
    },
    {
      "inputs": [
        {
          "internalType": "address",
          "name": "_studentOwner",
          "type": "address"
        },
        {
          "internalType": "string",
          "name": "_name",
          "type": "string"
        },
        {
          "internalType": "string",
          "name": "_birthDay",
          "type": "string"
        },
        {
          "internalType": "string",
          "name": "_professionalTitle",
          "type": "string"
        },
        {
          "internalType": "string",
          "name": "_email",
          "type": "string"
        },
        {
          "internalType": "string",
          "name": "_github",
          "type": "string"
        },
        {
          "internalType": "string",
          "name": "_linked",
          "type": "string"
        }
      ],
      "name": "addSV",
      "outputs": [],
      "stateMutability": "nonpayable",
      "type": "function"
    },
    {
      "inputs": [
        {
          "internalType": "address",
          "name": "_studentOwner",
          "type": "address"
        }
      ],
      "name": "getListSV",
      "outputs": [
        {
          "internalType": "address[]",
          "name": "",
          "type": "address[]"
        },
        {
          "internalType": "string[]",
          "name": "",
          "type": "string[]"
        },
        {
          "internalType": "string[]",
          "name": "",
          "type": "string[]"
        },
        {
          "internalType": "string[]",
          "name": "",
          "type": "string[]"
        },
        {
          "internalType": "string[]",
          "name": "",
          "type": "string[]"
        },
        {
          "internalType": "string[]",
          "name": "",
          "type": "string[]"
        },
        {
          "internalType": "string[]",
          "name": "",
          "type": "string[]"
        }
      ],
      "stateMutability": "view",
      "type": "function"
    }
  ],
  "bytecode": "0x608060405234801561001057600080fd5b50611771806100206000396000f3fe608060405234801561001057600080fd5b50600436106100415760003560e01c8063670471071461004657806398947ec41461007c578063edb2f66c146100b2575b600080fd5b610060600480360381019061005b9190610f51565b6100ce565b6040516100739796959493929190611058565b60405180910390f35b6100966004803603810190610091919061111d565b610470565b6040516100a99796959493929190611314565b60405180910390f35b6100cc60048036038101906100c791906114e9565b610cf0565b005b600081815481106100de57600080fd5b90600052602060002090600702016000915090508060000160009054906101000a900473ffffffffffffffffffffffffffffffffffffffff169080600101805461012790611662565b80601f016020809104026020016040519081016040528092919081815260200182805461015390611662565b80156101a05780601f10610175576101008083540402835291602001916101a0565b820191906000526020600020905b81548152906001019060200180831161018357829003601f168201915b5050505050908060020180546101b590611662565b80601f01602080910402602001604051908101604052809291908181526020018280546101e190611662565b801561022e5780601f106102035761010080835404028352916020019161022e565b820191906000526020600020905b81548152906001019060200180831161021157829003601f168201915b50505050509080600301805461024390611662565b80601f016020809104026020016040519081016040528092919081815260200182805461026f90611662565b80156102bc5780601f10610291576101008083540402835291602001916102bc565b820191906000526020600020905b81548152906001019060200180831161029f57829003601f168201915b5050505050908060040180546102d190611662565b80601f01602080910402602001604051908101604052809291908181526020018280546102fd90611662565b801561034a5780601f1061031f5761010080835404028352916020019161034a565b820191906000526020600020905b81548152906001019060200180831161032d57829003601f168201915b50505050509080600501805461035f90611662565b80601f016020809104026020016040519081016040528092919081815260200182805461038b90611662565b80156103d85780601f106103ad576101008083540402835291602001916103d8565b820191906000526020600020905b8154815290600101906020018083116103bb57829003601f168201915b5050505050908060060180546103ed90611662565b80601f016020809104026020016040519081016040528092919081815260200182805461041990611662565b80156104665780601f1061043b57610100808354040283529160200191610466565b820191906000526020600020905b81548152906001019060200180831161044957829003601f168201915b5050505050905087565b60608060608060608060606000808054905067ffffffffffffffff81111561049b5761049a6113be565b5b6040519080825280602002602001820160405280156104c95781602001602082028036833780820191505090505b5090506000808054905067ffffffffffffffff8111156104ec576104eb6113be565b5b60405190808252806020026020018201604052801561051f57816020015b606081526020019060019003908161050a5790505b5090506000808054905067ffffffffffffffff811115610542576105416113be565b5b60405190808252806020026020018201604052801561057557816020015b60608152602001906001900390816105605790505b5090506000808054905067ffffffffffffffff811115610598576105976113be565b5b6040519080825280602002602001820160405280156105cb57816020015b60608152602001906001900390816105b65790505b5090506000808054905067ffffffffffffffff8111156105ee576105ed6113be565b5b60405190808252806020026020018201604052801561062157816020015b606081526020019060019003908161060c5790505b5090506000808054905067ffffffffffffffff811115610644576106436113be565b5b60405190808252806020026020018201604052801561067757816020015b60608152602001906001900390816106625790505b5090506000808054905067ffffffffffffffff81111561069a576106996113be565b5b6040519080825280602002602001820160405280156106cd57816020015b60608152602001906001900390816106b85790505b50905060005b600080549050811015610cc8578f73ffffffffffffffffffffffffffffffffffffffff166000828154811061070b5761070a611694565b5b906000526020600020906007020160000160009054906101000a900473ffffffffffffffffffffffffffffffffffffffff1673ffffffffffffffffffffffffffffffffffffffff161415610cb5576000818154811061076d5761076c611694565b5b906000526020600020906007020160000160009054906101000a900473ffffffffffffffffffffffffffffffffffffffff168882815181106107b2576107b1611694565b5b602002602001019073ffffffffffffffffffffffffffffffffffffffff16908173ffffffffffffffffffffffffffffffffffffffff168152505060008181548110610800576107ff611694565b5b9060005260206000209060070201600101805461081c90611662565b80601f016020809104026020016040519081016040528092919081815260200182805461084890611662565b80156108955780601f1061086a57610100808354040283529160200191610895565b820191906000526020600020905b81548152906001019060200180831161087857829003601f168201915b50505050508782815181106108ad576108ac611694565b5b6020026020010181905250600081815481106108cc576108cb611694565b5b906000526020600020906007020160020180546108e890611662565b80601f016020809104026020016040519081016040528092919081815260200182805461091490611662565b80156109615780601f1061093657610100808354040283529160200191610961565b820191906000526020600020905b81548152906001019060200180831161094457829003601f168201915b505050505086828151811061097957610978611694565b5b60200260200101819052506000818154811061099857610997611694565b5b906000526020600020906007020160030180546109b490611662565b80601f01602080910402602001604051908101604052809291908181526020018280546109e090611662565b8015610a2d5780601f10610a0257610100808354040283529160200191610a2d565b820191906000526020600020905b815481529060010190602001808311610a1057829003601f168201915b5050505050858281518110610a4557610a44611694565b5b602002602001018190525060008181548110610a6457610a63611694565b5b90600052602060002090600702016004018054610a8090611662565b80601f0160208091040260200160405190810160405280929190818152602001828054610aac90611662565b8015610af95780601f10610ace57610100808354040283529160200191610af9565b820191906000526020600020905b815481529060010190602001808311610adc57829003601f168201915b5050505050848281518110610b1157610b10611694565b5b602002602001018190525060008181548110610b3057610b2f611694565b5b90600052602060002090600702016005018054610b4c90611662565b80601f0160208091040260200160405190810160405280929190818152602001828054610b7890611662565b8015610bc55780601f10610b9a57610100808354040283529160200191610bc5565b820191906000526020600020905b815481529060010190602001808311610ba857829003601f168201915b5050505050838281518110610bdd57610bdc611694565b5b602002602001018190525060008181548110610bfc57610bfb611694565b5b90600052602060002090600702016006018054610c1890611662565b80601f0160208091040260200160405190810160405280929190818152602001828054610c4490611662565b8015610c915780601f10610c6657610100808354040283529160200191610c91565b820191906000526020600020905b815481529060010190602001808311610c7457829003601f168201915b5050505050828281518110610ca957610ca8611694565b5b60200260200101819052505b8080610cc0906116f2565b9150506106d3565b50868686868686869d509d509d509d509d509d509d5050505050505050919395979092949650565b60006040518060e001604052808973ffffffffffffffffffffffffffffffffffffffff16815260200188815260200187815260200186815260200185815260200184815260200183815250908060018154018082558091505060019003906000526020600020906007020160009091909190915060008201518160000160006101000a81548173ffffffffffffffffffffffffffffffffffffffff021916908373ffffffffffffffffffffffffffffffffffffffff1602179055506020820151816001019080519060200190610dc7929190610e64565b506040820151816002019080519060200190610de4929190610e64565b506060820151816003019080519060200190610e01929190610e64565b506080820151816004019080519060200190610e1e929190610e64565b5060a0820151816005019080519060200190610e3b929190610e64565b5060c0820151816006019080519060200190610e58929190610e64565b50505050505050505050565b828054610e7090611662565b90600052602060002090601f016020900481019282610e925760008555610ed9565b82601f10610eab57805160ff1916838001178555610ed9565b82800160010185558215610ed9579182015b82811115610ed8578251825591602001919060010190610ebd565b5b509050610ee69190610eea565b5090565b5b80821115610f03576000816000905550600101610eeb565b5090565b6000604051905090565b600080fd5b600080fd5b6000819050919050565b610f2e81610f1b565b8114610f3957600080fd5b50565b600081359050610f4b81610f25565b92915050565b600060208284031215610f6757610f66610f11565b5b6000610f7584828501610f3c565b91505092915050565b600073ffffffffffffffffffffffffffffffffffffffff82169050919050565b6000610fa982610f7e565b9050919050565b610fb981610f9e565b82525050565b600081519050919050565b600082825260208201905092915050565b60005b83811015610ff9578082015181840152602081019050610fde565b83811115611008576000848401525b50505050565b6000601f19601f8301169050919050565b600061102a82610fbf565b6110348185610fca565b9350611044818560208601610fdb565b61104d8161100e565b840191505092915050565b600060e08201905061106d600083018a610fb0565b818103602083015261107f818961101f565b90508181036040830152611093818861101f565b905081810360608301526110a7818761101f565b905081810360808301526110bb818661101f565b905081810360a08301526110cf818561101f565b905081810360c08301526110e3818461101f565b905098975050505050505050565b6110fa81610f9e565b811461110557600080fd5b50565b600081359050611117816110f1565b92915050565b60006020828403121561113357611132610f11565b5b600061114184828501611108565b91505092915050565b600081519050919050565b600082825260208201905092915050565b6000819050602082019050919050565b61117f81610f9e565b82525050565b60006111918383611176565b60208301905092915050565b6000602082019050919050565b60006111b58261114a565b6111bf8185611155565b93506111ca83611166565b8060005b838110156111fb5781516111e28882611185565b97506111ed8361119d565b9250506001810190506111ce565b5085935050505092915050565b600081519050919050565b600082825260208201905092915050565b6000819050602082019050919050565b600082825260208201905092915050565b600061125082610fbf565b61125a8185611234565b935061126a818560208601610fdb565b6112738161100e565b840191505092915050565b600061128a8383611245565b905092915050565b6000602082019050919050565b60006112aa82611208565b6112b48185611213565b9350836020820285016112c685611224565b8060005b8581101561130257848403895281516112e3858261127e565b94506112ee83611292565b925060208a019950506001810190506112ca565b50829750879550505050505092915050565b600060e082019050818103600083015261132e818a6111aa565b90508181036020830152611342818961129f565b90508181036040830152611356818861129f565b9050818103606083015261136a818761129f565b9050818103608083015261137e818661129f565b905081810360a0830152611392818561129f565b905081810360c08301526113a6818461129f565b905098975050505050505050565b600080fd5b600080fd5b7f4e487b7100000000000000000000000000000000000000000000000000000000600052604160045260246000fd5b6113f68261100e565b810181811067ffffffffffffffff82111715611415576114146113be565b5b80604052505050565b6000611428610f07565b905061143482826113ed565b919050565b600067ffffffffffffffff821115611454576114536113be565b5b61145d8261100e565b9050602081019050919050565b82818337600083830152505050565b600061148c61148784611439565b61141e565b9050828152602081018484840111156114a8576114a76113b9565b5b6114b384828561146a565b509392505050565b600082601f8301126114d0576114cf6113b4565b5b81356114e0848260208601611479565b91505092915050565b600080600080600080600060e0888a03121561150857611507610f11565b5b60006115168a828b01611108565b975050602088013567ffffffffffffffff81111561153757611536610f16565b5b6115438a828b016114bb565b965050604088013567ffffffffffffffff81111561156457611563610f16565b5b6115708a828b016114bb565b955050606088013567ffffffffffffffff81111561159157611590610f16565b5b61159d8a828b016114bb565b945050608088013567ffffffffffffffff8111156115be576115bd610f16565b5b6115ca8a828b016114bb565b93505060a088013567ffffffffffffffff8111156115eb576115ea610f16565b5b6115f78a828b016114bb565b92505060c088013567ffffffffffffffff81111561161857611617610f16565b5b6116248a828b016114bb565b91505092959891949750929550565b7f4e487b7100000000000000000000000000000000000000000000000000000000600052602260045260246000fd5b6000600282049050600182168061167a57607f821691505b6020821081141561168e5761168d611633565b5b50919050565b7f4e487b7100000000000000000000000000000000000000000000000000000000600052603260045260246000fd5b7f4e487b7100000000000000000000000000000000000000000000000000000000600052601160045260246000fd5b60006116fd82610f1b565b91507fffffffffffffffffffffffffffffffffffffffffffffffffffffffffffffffff8214156117305761172f6116c3565b5b60018201905091905056fea2646970667358221220fed91030d66e5b1ac9356b9b6ac2feee5f024ce4a978ea5d778db16397f7da4964736f6c634300080b0033",
  "immutableReferences": {},
  "source": "// SPDX-License-Identifier: MIT\npragma solidity >=0.4.22 <0.9.0;\n\n//Lu tr danh sch sinh vin\ncontract ListStudent {\n\n    struct ListSV {\n        address studentOwner;\n        string name; \n        string birthDay; \n        string professionalTitle;\n        string email;\n        string github; \n        string linkedin;\n    }\n\n    ListSV[] public listSVs;\n\n    function addSV (\n        address _studentOwner,\n        string memory _name,\n        string memory _birthDay,\n        string memory _professionalTitle,\n        string memory _email,\n        string memory _github,\n        string memory _linked) public {\n            listSVs.push(ListSV(_studentOwner, _name, _birthDay, _professionalTitle, _email, _github, _linked));\n    }\n\n    function getListSV(address _studentOwner) public view returns(address[] memory, string[] memory, string[] memory, string[] memory, string[] memory, string[] memory, string[] memory) {\n        address[] memory studentOwners = new address[](listSVs.length);\n        string[] memory names = new string[](listSVs.length);\n        string[] memory birthDays = new string[](listSVs.length);\n        string[] memory professionalTitles = new string[](listSVs.length);\n        string[] memory emails = new string[](listSVs.length);\n        string[] memory githubs = new string[](listSVs.length);\n        string[] memory linkedins = new string[](listSVs.length);\n        for(uint i=0; i<listSVs.length;i++){\n            if(listSVs[i].studentOwner == _studentOwner){\n                studentOwners[i] = listSVs[i].studentOwner;\n                names[i] = listSVs[i].name;\n                birthDays[i] = listSVs[i].birthDay;\n                professionalTitles[i] = listSVs[i].professionalTitle;\n                emails[i] = listSVs[i].email;\n                githubs[i] = listSVs[i].github;\n                linkedins[i] = listSVs[i].linkedin;\n            }\n        }\n        return (studentOwners, names,birthDays,  professionalTitles, emails, githubs, linkedins);\n    }\n    \n}",
  "sourcePath": "C:\\Users\\19520\\Documents\\NCKH_Blockchain\\IS_cv\\contracts\\SmartCV_ListStudent.sol",
  "compiler": {
    "name": "solc",
    "version": "0.8.11+commit.d7f03943.Emscripten.clang"
  },
  "schemaVersion": "3.4.4",
  "updatedAt": "2022-06-24T07:30:15.012Z",
  "devdoc": {
    "kind": "dev",
    "methods": {},
    "version": 1
  },
  "userdoc": {
    "kind": "user",
    "methods": {},
    "version": 1
  }
}