{
  "contractName": "ListStudent",
  "abi": [
    {
      "inputs": [
        {
          "internalType": "uint256",
          "name": "",
          "type": "uint256"
        }
      ],
      "name": "listSVs",
      "outputs": [
        {
          "internalType": "address",
          "name": "studentOwner",
          "type": "address"
        },
        {
          "internalType": "string",
          "name": "name",
          "type": "string"
        },
        {
          "internalType": "string",
          "name": "birthDay",
          "type": "string"
        },
        {
          "internalType": "string",
          "name": "professionalTitle",
          "type": "string"
        },
        {
          "internalType": "string",
          "name": "email",
          "type": "string"
        },
        {
          "internalType": "string",
          "name": "github",
          "type": "string"
        },
        {
          "internalType": "string",
          "name": "linkedin",
          "type": "string"
        },
        {
          "internalType": "string",
          "name": "password",
          "type": "string"
        }
      ],
      "stateMutability": "view",
      "type": "function"
    },
    {
      "inputs": [
        {
          "internalType": "uint256",
          "name": "",
          "type": "uint256"
        }
      ],
      "name": "listSkills",
      "outputs": [
        {
          "internalType": "address",
          "name": "studentOwner",
          "type": "address"
        },
        {
          "internalType": "string",
          "name": "title",
          "type": "string"
        },
        {
          "internalType": "uint256",
          "name": "level",
          "type": "uint256"
        }
      ],
      "stateMutability": "view",
      "type": "function"
    },
    {
      "inputs": [
        {
          "internalType": "address",
          "name": "_studentOwner",
          "type": "address"
        },
        {
          "internalType": "string",
          "name": "_name",
          "type": "string"
        },
        {
          "internalType": "string",
          "name": "_birthDay",
          "type": "string"
        },
        {
          "internalType": "string",
          "name": "_professionalTitle",
          "type": "string"
        },
        {
          "internalType": "string",
          "name": "_email",
          "type": "string"
        },
        {
          "internalType": "string",
          "name": "_github",
          "type": "string"
        },
        {
          "internalType": "string",
          "name": "_linked",
          "type": "string"
        },
        {
          "internalType": "string",
          "name": "_password",
          "type": "string"
        }
      ],
      "name": "addSV",
      "outputs": [],
      "stateMutability": "nonpayable",
      "type": "function"
    },
    {
      "inputs": [],
      "name": "getListSV",
      "outputs": [
        {
          "internalType": "address[]",
          "name": "",
          "type": "address[]"
        },
        {
          "internalType": "string[]",
          "name": "",
          "type": "string[]"
        },
        {
          "internalType": "string[]",
          "name": "",
          "type": "string[]"
        },
        {
          "internalType": "string[]",
          "name": "",
          "type": "string[]"
        },
        {
          "internalType": "string[]",
          "name": "",
          "type": "string[]"
        },
        {
          "internalType": "string[]",
          "name": "",
          "type": "string[]"
        },
        {
          "internalType": "string[]",
          "name": "",
          "type": "string[]"
        },
        {
          "internalType": "string[]",
          "name": "",
          "type": "string[]"
        }
      ],
      "stateMutability": "view",
      "type": "function"
    },
    {
      "inputs": [
        {
          "internalType": "address",
          "name": "_studentOwner",
          "type": "address"
        }
      ],
      "name": "getProfile",
      "outputs": [
        {
          "internalType": "address",
          "name": "studentOwner",
          "type": "address"
        },
        {
          "internalType": "string",
          "name": "name",
          "type": "string"
        },
        {
          "internalType": "string",
          "name": "birthDay",
          "type": "string"
        },
        {
          "internalType": "string",
          "name": "professionalTitle",
          "type": "string"
        },
        {
          "internalType": "string",
          "name": "email",
          "type": "string"
        },
        {
          "internalType": "string",
          "name": "github",
          "type": "string"
        },
        {
          "internalType": "string",
          "name": "linkedin",
          "type": "string"
        },
        {
          "internalType": "string",
          "name": "password",
          "type": "string"
        }
      ],
      "stateMutability": "view",
      "type": "function"
    },
    {
      "inputs": [
        {
          "internalType": "address",
          "name": "_studentOwner",
          "type": "address"
        },
        {
          "internalType": "string",
          "name": "_password",
          "type": "string"
        }
      ],
      "name": "checkSV",
      "outputs": [
        {
          "internalType": "uint256",
          "name": "x",
          "type": "uint256"
        }
      ],
      "stateMutability": "view",
      "type": "function"
    },
    {
      "inputs": [
        {
          "internalType": "address",
          "name": "_studentOwner",
          "type": "address"
        },
        {
          "internalType": "string",
          "name": "_title",
          "type": "string"
        },
        {
          "internalType": "uint256",
          "name": "_level",
          "type": "uint256"
        }
      ],
      "name": "addSkill",
      "outputs": [],
      "stateMutability": "nonpayable",
      "type": "function"
    },
    {
      "inputs": [
        {
          "internalType": "address",
          "name": "_studentOwner",
          "type": "address"
        }
      ],
      "name": "getSkill",
      "outputs": [
        {
          "internalType": "string[]",
          "name": "",
          "type": "string[]"
        },
        {
          "internalType": "uint256[]",
          "name": "",
          "type": "uint256[]"
        }
      ],
      "stateMutability": "view",
      "type": "function"
    }
  ],
  "bytecode": "0x608060405234801561001057600080fd5b50612a89806100206000396000f3fe608060405234801561001057600080fd5b50600436106100885760003560e01c8063670471071161005b57806367047107146101425780639fea8e1014610179578063ac4b204914610195578063d64b6913146101c657610088565b80630f53a4701461008d578063174ceeab146100c45780633aff2cc5146100f457806360ccb20414610126575b600080fd5b6100a760048036038101906100a29190611c6b565b6101eb565b6040516100bb989796959493929190611d40565b60405180910390f35b6100de60048036038101906100d99190611f24565b6107d3565b6040516100eb9190611f99565b60405180910390f35b61010e60048036038101906101099190611fe0565b6108d1565b60405161011d9392919061200d565b60405180910390f35b610140600480360381019061013b919061204b565b6109b3565b005b61015c60048036038101906101579190611fe0565b610ace565b604051610170989796959493929190611d40565b60405180910390f35b610193600480360381019061018e91906120ba565b610efe565b005b6101af60048036038101906101aa9190611c6b565b611066565b6040516101bd9291906123fe565b60405180910390f35b6101ce6112cd565b6040516101e29897969594939291906124f3565b60405180910390f35b6000606080606080606080606060005b6000805490508110156107c6578973ffffffffffffffffffffffffffffffffffffffff1660008281548110610233576102326125a9565b5b906000526020600020906008020160000160009054906101000a900473ffffffffffffffffffffffffffffffffffffffff1673ffffffffffffffffffffffffffffffffffffffff16036107b35760008181548110610294576102936125a9565b5b906000526020600020906008020160000160009054906101000a900473ffffffffffffffffffffffffffffffffffffffff16600082815481106102da576102d96125a9565b5b9060005260206000209060080201600101600083815481106102ff576102fe6125a9565b5b906000526020600020906008020160020160008481548110610324576103236125a9565b5b906000526020600020906008020160030160008581548110610349576103486125a9565b5b90600052602060002090600802016004016000868154811061036e5761036d6125a9565b5b906000526020600020906008020160050160008781548110610393576103926125a9565b5b9060005260206000209060080201600601600088815481106103b8576103b76125a9565b5b90600052602060002090600802016007018680546103d590612607565b80601f016020809104026020016040519081016040528092919081815260200182805461040190612607565b801561044e5780601f106104235761010080835404028352916020019161044e565b820191906000526020600020905b81548152906001019060200180831161043157829003601f168201915b5050505050965085805461046190612607565b80601f016020809104026020016040519081016040528092919081815260200182805461048d90612607565b80156104da5780601f106104af576101008083540402835291602001916104da565b820191906000526020600020905b8154815290600101906020018083116104bd57829003601f168201915b505050505095508480546104ed90612607565b80601f016020809104026020016040519081016040528092919081815260200182805461051990612607565b80156105665780601f1061053b57610100808354040283529160200191610566565b820191906000526020600020905b81548152906001019060200180831161054957829003601f168201915b5050505050945083805461057990612607565b80601f01602080910402602001604051908101604052809291908181526020018280546105a590612607565b80156105f25780601f106105c7576101008083540402835291602001916105f2565b820191906000526020600020905b8154815290600101906020018083116105d557829003601f168201915b5050505050935082805461060590612607565b80601f016020809104026020016040519081016040528092919081815260200182805461063190612607565b801561067e5780601f106106535761010080835404028352916020019161067e565b820191906000526020600020905b81548152906001019060200180831161066157829003601f168201915b5050505050925081805461069190612607565b80601f01602080910402602001604051908101604052809291908181526020018280546106bd90612607565b801561070a5780601f106106df5761010080835404028352916020019161070a565b820191906000526020600020905b8154815290600101906020018083116106ed57829003601f168201915b5050505050915080805461071d90612607565b80601f016020809104026020016040519081016040528092919081815260200182805461074990612607565b80156107965780601f1061076b57610100808354040283529160200191610796565b820191906000526020600020905b81548152906001019060200180831161077957829003601f168201915b5050505050905098509850985098509850985098509850506107c8565b80806107be90612667565b9150506101fb565b505b919395975091939597565b600080600090505b6000805490508110156108c9578373ffffffffffffffffffffffffffffffffffffffff1660008281548110610813576108126125a9565b5b906000526020600020906008020160000160009054906101000a900473ffffffffffffffffffffffffffffffffffffffff1673ffffffffffffffffffffffffffffffffffffffff161480156108a7575082805190602001206000828154811061087f5761087e6125a9565b5b906000526020600020906008020160070160405161089d9190612752565b6040518091039020145b156108b65760019150506108cb565b80806108c190612667565b9150506107db565b505b92915050565b600181815481106108e157600080fd5b90600052602060002090600302016000915090508060000160009054906101000a900473ffffffffffffffffffffffffffffffffffffffff169080600101805461092a90612607565b80601f016020809104026020016040519081016040528092919081815260200182805461095690612607565b80156109a35780601f10610978576101008083540402835291602001916109a3565b820191906000526020600020905b81548152906001019060200180831161098657829003601f168201915b5050505050908060020154905083565b600081101580156109c5575060648111155b610a04576040517f08c379a00000000000000000000000000000000000000000000000000000000081526004016109fb906127b5565b60405180910390fd5b600160405180606001604052808573ffffffffffffffffffffffffffffffffffffffff16815260200184815260200183815250908060018154018082558091505060019003906000526020600020906003020160009091909190915060008201518160000160006101000a81548173ffffffffffffffffffffffffffffffffffffffff021916908373ffffffffffffffffffffffffffffffffffffffff1602179055506020820151816001019081610abc9190612981565b50604082015181600201555050505050565b60008181548110610ade57600080fd5b90600052602060002090600802016000915090508060000160009054906101000a900473ffffffffffffffffffffffffffffffffffffffff1690806001018054610b2790612607565b80601f0160208091040260200160405190810160405280929190818152602001828054610b5390612607565b8015610ba05780601f10610b7557610100808354040283529160200191610ba0565b820191906000526020600020905b815481529060010190602001808311610b8357829003601f168201915b505050505090806002018054610bb590612607565b80601f0160208091040260200160405190810160405280929190818152602001828054610be190612607565b8015610c2e5780601f10610c0357610100808354040283529160200191610c2e565b820191906000526020600020905b815481529060010190602001808311610c1157829003601f168201915b505050505090806003018054610c4390612607565b80601f0160208091040260200160405190810160405280929190818152602001828054610c6f90612607565b8015610cbc5780601f10610c9157610100808354040283529160200191610cbc565b820191906000526020600020905b815481529060010190602001808311610c9f57829003601f168201915b505050505090806004018054610cd190612607565b80601f0160208091040260200160405190810160405280929190818152602001828054610cfd90612607565b8015610d4a5780601f10610d1f57610100808354040283529160200191610d4a565b820191906000526020600020905b815481529060010190602001808311610d2d57829003601f168201915b505050505090806005018054610d5f90612607565b80601f0160208091040260200160405190810160405280929190818152602001828054610d8b90612607565b8015610dd85780601f10610dad57610100808354040283529160200191610dd8565b820191906000526020600020905b815481529060010190602001808311610dbb57829003601f168201915b505050505090806006018054610ded90612607565b80601f0160208091040260200160405190810160405280929190818152602001828054610e1990612607565b8015610e665780601f10610e3b57610100808354040283529160200191610e66565b820191906000526020600020905b815481529060010190602001808311610e4957829003601f168201915b505050505090806007018054610e7b90612607565b80601f0160208091040260200160405190810160405280929190818152602001828054610ea790612607565b8015610ef45780601f10610ec957610100808354040283529160200191610ef4565b820191906000526020600020905b815481529060010190602001808311610ed757829003601f168201915b5050505050905088565b60006040518061010001604052808a73ffffffffffffffffffffffffffffffffffffffff16815260200189815260200188815260200187815260200186815260200185815260200184815260200183815250908060018154018082558091505060019003906000526020600020906008020160009091909190915060008201518160000160006101000a81548173ffffffffffffffffffffffffffffffffffffffff021916908373ffffffffffffffffffffffffffffffffffffffff1602179055506020820151816001019081610fd59190612981565b506040820151816002019081610feb9190612981565b5060608201518160030190816110019190612981565b5060808201518160040190816110179190612981565b5060a082015181600501908161102d9190612981565b5060c08201518160060190816110439190612981565b5060e08201518160070190816110599190612981565b5050505050505050505050565b606080600060018054905067ffffffffffffffff81111561108a57611089611df9565b5b6040519080825280602002602001820160405280156110bd57816020015b60608152602001906001900390816110a85790505b509050600060018054905067ffffffffffffffff8111156110e1576110e0611df9565b5b60405190808252806020026020018201604052801561110f5781602001602082028036833780820191505090505b50905060005b6001805490508110156112bf578573ffffffffffffffffffffffffffffffffffffffff166001828154811061114d5761114c6125a9565b5b906000526020600020906003020160000160009054906101000a900473ffffffffffffffffffffffffffffffffffffffff1673ffffffffffffffffffffffffffffffffffffffff16036112ac57600181815481106111ae576111ad6125a9565b5b906000526020600020906003020160010180546111ca90612607565b80601f01602080910402602001604051908101604052809291908181526020018280546111f690612607565b80156112435780601f1061121857610100808354040283529160200191611243565b820191906000526020600020905b81548152906001019060200180831161122657829003601f168201915b505050505083828151811061125b5761125a6125a9565b5b60200260200101819052506001818154811061127a576112796125a9565b5b90600052602060002090600302016002015482828151811061129f5761129e6125a9565b5b6020026020010181815250505b80806112b790612667565b915050611115565b508181935093505050915091565b6060806060806060806060806000808054905067ffffffffffffffff8111156112f9576112f8611df9565b5b6040519080825280602002602001820160405280156113275781602001602082028036833780820191505090505b5090506000808054905067ffffffffffffffff81111561134a57611349611df9565b5b60405190808252806020026020018201604052801561137d57816020015b60608152602001906001900390816113685790505b5090506000808054905067ffffffffffffffff8111156113a05761139f611df9565b5b6040519080825280602002602001820160405280156113d357816020015b60608152602001906001900390816113be5790505b5090506000808054905067ffffffffffffffff8111156113f6576113f5611df9565b5b60405190808252806020026020018201604052801561142957816020015b60608152602001906001900390816114145790505b5090506000808054905067ffffffffffffffff81111561144c5761144b611df9565b5b60405190808252806020026020018201604052801561147f57816020015b606081526020019060019003908161146a5790505b5090506000808054905067ffffffffffffffff8111156114a2576114a1611df9565b5b6040519080825280602002602001820160405280156114d557816020015b60608152602001906001900390816114c05790505b5090506000808054905067ffffffffffffffff8111156114f8576114f7611df9565b5b60405190808252806020026020018201604052801561152b57816020015b60608152602001906001900390816115165790505b5090506000808054905067ffffffffffffffff81111561154e5761154d611df9565b5b60405190808252806020026020018201604052801561158157816020015b606081526020019060019003908161156c5790505b50905060005b600080549050811015611bce57600081815481106115a8576115a76125a9565b5b906000526020600020906008020160000160009054906101000a900473ffffffffffffffffffffffffffffffffffffffff168982815181106115ed576115ec6125a9565b5b602002602001019073ffffffffffffffffffffffffffffffffffffffff16908173ffffffffffffffffffffffffffffffffffffffff16815250506000818154811061163b5761163a6125a9565b5b9060005260206000209060080201600101805461165790612607565b80601f016020809104026020016040519081016040528092919081815260200182805461168390612607565b80156116d05780601f106116a5576101008083540402835291602001916116d0565b820191906000526020600020905b8154815290600101906020018083116116b357829003601f168201915b50505050508882815181106116e8576116e76125a9565b5b602002602001018190525060008181548110611707576117066125a9565b5b9060005260206000209060080201600201805461172390612607565b80601f016020809104026020016040519081016040528092919081815260200182805461174f90612607565b801561179c5780601f106117715761010080835404028352916020019161179c565b820191906000526020600020905b81548152906001019060200180831161177f57829003601f168201915b50505050508782815181106117b4576117b36125a9565b5b6020026020010181905250600081815481106117d3576117d26125a9565b5b906000526020600020906008020160030180546117ef90612607565b80601f016020809104026020016040519081016040528092919081815260200182805461181b90612607565b80156118685780601f1061183d57610100808354040283529160200191611868565b820191906000526020600020905b81548152906001019060200180831161184b57829003601f168201915b50505050508682815181106118805761187f6125a9565b5b60200260200101819052506000818154811061189f5761189e6125a9565b5b906000526020600020906008020160040180546118bb90612607565b80601f01602080910402602001604051908101604052809291908181526020018280546118e790612607565b80156119345780601f1061190957610100808354040283529160200191611934565b820191906000526020600020905b81548152906001019060200180831161191757829003601f168201915b505050505085828151811061194c5761194b6125a9565b5b60200260200101819052506000818154811061196b5761196a6125a9565b5b9060005260206000209060080201600501805461198790612607565b80601f01602080910402602001604051908101604052809291908181526020018280546119b390612607565b8015611a005780601f106119d557610100808354040283529160200191611a00565b820191906000526020600020905b8154815290600101906020018083116119e357829003601f168201915b5050505050848281518110611a1857611a176125a9565b5b602002602001018190525060008181548110611a3757611a366125a9565b5b90600052602060002090600802016006018054611a5390612607565b80601f0160208091040260200160405190810160405280929190818152602001828054611a7f90612607565b8015611acc5780601f10611aa157610100808354040283529160200191611acc565b820191906000526020600020905b815481529060010190602001808311611aaf57829003601f168201915b5050505050838281518110611ae457611ae36125a9565b5b602002602001018190525060008181548110611b0357611b026125a9565b5b90600052602060002090600802016007018054611b1f90612607565b80601f0160208091040260200160405190810160405280929190818152602001828054611b4b90612607565b8015611b985780601f10611b6d57610100808354040283529160200191611b98565b820191906000526020600020905b815481529060010190602001808311611b7b57829003601f168201915b5050505050828281518110611bb057611baf6125a9565b5b60200260200101819052508080611bc690612667565b915050611587565b5087878787878787879f509f509f509f509f509f509f509f5050505050505050509091929394959697565b6000604051905090565b600080fd5b600080fd5b600073ffffffffffffffffffffffffffffffffffffffff82169050919050565b6000611c3882611c0d565b9050919050565b611c4881611c2d565b8114611c5357600080fd5b50565b600081359050611c6581611c3f565b92915050565b600060208284031215611c8157611c80611c03565b5b6000611c8f84828501611c56565b91505092915050565b611ca181611c2d565b82525050565b600081519050919050565b600082825260208201905092915050565b60005b83811015611ce1578082015181840152602081019050611cc6565b83811115611cf0576000848401525b50505050565b6000601f19601f8301169050919050565b6000611d1282611ca7565b611d1c8185611cb2565b9350611d2c818560208601611cc3565b611d3581611cf6565b840191505092915050565b600061010082019050611d56600083018b611c98565b8181036020830152611d68818a611d07565b90508181036040830152611d7c8189611d07565b90508181036060830152611d908188611d07565b90508181036080830152611da48187611d07565b905081810360a0830152611db88186611d07565b905081810360c0830152611dcc8185611d07565b905081810360e0830152611de08184611d07565b90509998505050505050505050565b600080fd5b600080fd5b7f4e487b7100000000000000000000000000000000000000000000000000000000600052604160045260246000fd5b611e3182611cf6565b810181811067ffffffffffffffff82111715611e5057611e4f611df9565b5b80604052505050565b6000611e63611bf9565b9050611e6f8282611e28565b919050565b600067ffffffffffffffff821115611e8f57611e8e611df9565b5b611e9882611cf6565b9050602081019050919050565b82818337600083830152505050565b6000611ec7611ec284611e74565b611e59565b905082815260208101848484011115611ee357611ee2611df4565b5b611eee848285611ea5565b509392505050565b600082601f830112611f0b57611f0a611def565b5b8135611f1b848260208601611eb4565b91505092915050565b60008060408385031215611f3b57611f3a611c03565b5b6000611f4985828601611c56565b925050602083013567ffffffffffffffff811115611f6a57611f69611c08565b5b611f7685828601611ef6565b9150509250929050565b6000819050919050565b611f9381611f80565b82525050565b6000602082019050611fae6000830184611f8a565b92915050565b611fbd81611f80565b8114611fc857600080fd5b50565b600081359050611fda81611fb4565b92915050565b600060208284031215611ff657611ff5611c03565b5b600061200484828501611fcb565b91505092915050565b60006060820190506120226000830186611c98565b81810360208301526120348185611d07565b90506120436040830184611f8a565b949350505050565b60008060006060848603121561206457612063611c03565b5b600061207286828701611c56565b935050602084013567ffffffffffffffff81111561209357612092611c08565b5b61209f86828701611ef6565b92505060406120b086828701611fcb565b9150509250925092565b600080600080600080600080610100898b0312156120db576120da611c03565b5b60006120e98b828c01611c56565b985050602089013567ffffffffffffffff81111561210a57612109611c08565b5b6121168b828c01611ef6565b975050604089013567ffffffffffffffff81111561213757612136611c08565b5b6121438b828c01611ef6565b965050606089013567ffffffffffffffff81111561216457612163611c08565b5b6121708b828c01611ef6565b955050608089013567ffffffffffffffff81111561219157612190611c08565b5b61219d8b828c01611ef6565b94505060a089013567ffffffffffffffff8111156121be576121bd611c08565b5b6121ca8b828c01611ef6565b93505060c089013567ffffffffffffffff8111156121eb576121ea611c08565b5b6121f78b828c01611ef6565b92505060e089013567ffffffffffffffff81111561221857612217611c08565b5b6122248b828c01611ef6565b9150509295985092959890939650565b600081519050919050565b600082825260208201905092915050565b6000819050602082019050919050565b600082825260208201905092915050565b600061227c82611ca7565b6122868185612260565b9350612296818560208601611cc3565b61229f81611cf6565b840191505092915050565b60006122b68383612271565b905092915050565b6000602082019050919050565b60006122d682612234565b6122e0818561223f565b9350836020820285016122f285612250565b8060005b8581101561232e578484038952815161230f85826122aa565b945061231a836122be565b925060208a019950506001810190506122f6565b50829750879550505050505092915050565b600081519050919050565b600082825260208201905092915050565b6000819050602082019050919050565b61237581611f80565b82525050565b6000612387838361236c565b60208301905092915050565b6000602082019050919050565b60006123ab82612340565b6123b5818561234b565b93506123c08361235c565b8060005b838110156123f15781516123d8888261237b565b97506123e383612393565b9250506001810190506123c4565b5085935050505092915050565b6000604082019050818103600083015261241881856122cb565b9050818103602083015261242c81846123a0565b90509392505050565b600081519050919050565b600082825260208201905092915050565b6000819050602082019050919050565b61246a81611c2d565b82525050565b600061247c8383612461565b60208301905092915050565b6000602082019050919050565b60006124a082612435565b6124aa8185612440565b93506124b583612451565b8060005b838110156124e65781516124cd8882612470565b97506124d883612488565b9250506001810190506124b9565b5085935050505092915050565b600061010082019050818103600083015261250e818b612495565b90508181036020830152612522818a6122cb565b9050818103604083015261253681896122cb565b9050818103606083015261254a81886122cb565b9050818103608083015261255e81876122cb565b905081810360a083015261257281866122cb565b905081810360c083015261258681856122cb565b905081810360e083015261259a81846122cb565b90509998505050505050505050565b7f4e487b7100000000000000000000000000000000000000000000000000000000600052603260045260246000fd5b7f4e487b7100000000000000000000000000000000000000000000000000000000600052602260045260246000fd5b6000600282049050600182168061261f57607f821691505b602082108103612632576126316125d8565b5b50919050565b7f4e487b7100000000000000000000000000000000000000000000000000000000600052601160045260246000fd5b600061267282611f80565b91507fffffffffffffffffffffffffffffffffffffffffffffffffffffffffffffffff82036126a4576126a3612638565b5b600182019050919050565b600081905092915050565b60008190508160005260206000209050919050565b600081546126dc81612607565b6126e681866126af565b94506001821660008114612701576001811461271657612749565b60ff1983168652811515820286019350612749565b61271f856126ba565b60005b8381101561274157815481890152600182019150602081019050612722565b838801955050505b50505092915050565b600061275e82846126cf565b915081905092915050565b7f4c6576656c206f6620736b696c6c20696e636f72726563742e00000000000000600082015250565b600061279f601983611cb2565b91506127aa82612769565b602082019050919050565b600060208201905081810360008301526127ce81612792565b9050919050565b60008190508160005260206000209050919050565b60006020601f8301049050919050565b600082821b905092915050565b6000600883026128377fffffffffffffffffffffffffffffffffffffffffffffffffffffffffffffffff826127fa565b61284186836127fa565b95508019841693508086168417925050509392505050565b6000819050919050565b600061287e61287961287484611f80565b612859565b611f80565b9050919050565b6000819050919050565b61289883612863565b6128ac6128a482612885565b848454612807565b825550505050565b600090565b6128c16128b4565b6128cc81848461288f565b505050565b5b818110156128f0576128e56000826128b9565b6001810190506128d2565b5050565b601f82111561293557612906816127d5565b61290f846127ea565b8101602085101561291e578190505b61293261292a856127ea565b8301826128d1565b50505b505050565b600082821c905092915050565b60006129586000198460080261293a565b1980831691505092915050565b60006129718383612947565b9150826002028217905092915050565b61298a82611ca7565b67ffffffffffffffff8111156129a3576129a2611df9565b5b6129ad8254612607565b6129b88282856128f4565b600060209050601f8311600181146129eb57600084156129d9578287015190505b6129e38582612965565b865550612a4b565b601f1984166129f9866127d5565b60005b82811015612a21578489015182556001820191506020850194506020810190506129fc565b86831015612a3e5784890151612a3a601f891682612947565b8355505b6001600288020188555050505b50505050505056fea264697066735822122022fd4deeb4b75dcdf28140ad9449f5de92316dd95e51ae058db6b7efdb7bb5e264736f6c634300080f0033",
  "immutableReferences": {},
  "source": "// SPDX-License-Identifier: MIT\npragma solidity >=0.4.22 <0.9.0;\n\n//Lu tr danh sch sinh vin\ncontract ListStudent {\n\n    //Khai bo cu trc lu tr thng tin sinh vin\n    struct ListSV {\n        address studentOwner;\n        string name; \n        string birthDay; \n        string professionalTitle;\n        string email;\n        string github; \n        string linkedin;\n        string password;\n    }\n\n    //Khai bo cu trc lu tr thng tin k nng ca sinh vin\n    struct ListSkill {\n        address studentOwner;\n        string title; \n        uint level;\n    }\n\n    //Khai bo cc mng  lu tr thng tin\n    ListSV[] public listSVs;\n    ListSkill[] public listSkills;\n\n    //Chc nng thm thng tin sinh vin\n    function addSV (\n        address _studentOwner,\n        string memory _name,\n        string memory _birthDay,\n        string memory _professionalTitle,\n        string memory _email,\n        string memory _github,\n        string memory _linked,\n        string memory _password) public {\n            listSVs.push(\n                ListSV(_studentOwner, \n                        _name, \n                        _birthDay, \n                        _professionalTitle, \n                        _email, \n                        _github, \n                        _linked, \n                        _password)\n                );\n    }\n\n    //Chc nng ly danh sch sinh vin  thm\n    function getListSV() public view returns(\n        address[] memory, \n        string[] memory, \n        string[] memory, \n        string[] memory, \n        string[] memory, \n        string[] memory, \n        string[] memory, \n        string[] memory) {\n            address[] memory studentOwners = new address[](listSVs.length);\n            string[] memory names = new string[](listSVs.length);\n            string[] memory birthDays = new string[](listSVs.length);\n            string[] memory professionalTitles = new string[](listSVs.length);\n            string[] memory emails = new string[](listSVs.length);\n            string[] memory githubs = new string[](listSVs.length);\n            string[] memory linkedins = new string[](listSVs.length);\n            string[] memory passwords = new string[](listSVs.length);\n            for(uint i=0; i<listSVs.length;i++){\n                studentOwners[i] = listSVs[i].studentOwner;\n                names[i] = listSVs[i].name;\n                birthDays[i] = listSVs[i].birthDay;\n                professionalTitles[i] = listSVs[i].professionalTitle;\n                emails[i] = listSVs[i].email;\n                githubs[i] = listSVs[i].github;\n                linkedins[i] = listSVs[i].linkedin;\n                passwords[i] = listSVs[i].password;\n            }\n            return (studentOwners, names, birthDays, professionalTitles, emails, githubs, linkedins, passwords);\n    }\n\n    //Chc nng ly thng tin ca sinh vin\n    function getProfile(address _studentOwner) public view returns(\n        address studentOwner, \n        string memory name, \n        string memory birthDay, \n        string memory professionalTitle, \n        string memory email, \n        string memory github, \n        string memory linkedin,\n        string memory password) {\n            for(uint i=0; i<listSVs.length;i++){\n                if(listSVs[i].studentOwner == _studentOwner){\n                    return (listSVs[i].studentOwner,\n                            listSVs[i].name, \n                            listSVs[i].birthDay, \n                            listSVs[i].professionalTitle, \n                            listSVs[i].email, \n                            listSVs[i].github, \n                            listSVs[i].linkedin,\n                            listSVs[i].password);\n                }\n            }\n    }\n\n    //Chc nng kim tra sinh vin  ng k hay cha?\n    function checkSV(\n        address _studentOwner, \n        string memory _password) public view returns(uint x) {\n            for(uint i=0; i<listSVs.length; i++){\n                if((listSVs[i].studentOwner == _studentOwner) && (keccak256(bytes(listSVs[i].password)) == keccak256(bytes(_password)))){\n                    return 1;\n                }\n            }\n    }\n\n    //Chc nng thm thng tin k nng ca sinh vin\n    function addSkill(\n        address _studentOwner,\n        string memory _title, \n        uint _level) public {\n            require(_level >=0 && _level <=100, \"Level of skill incorrect.\"); //Mc  ca k nng c tnh theo thang im t 0 n 100\n            listSkills.push(ListSkill(_studentOwner, _title, _level));\n    }\n\n    //Chc nng ly thng tin k nng ca sinh vin\n    function getSkill(address _studentOwner) public view returns(\n        string[] memory,\n        uint[] memory) {\n            string[] memory titles = new string[](listSkills.length);\n            uint[] memory levels = new uint[](listSkills.length);\n            for(uint i=0; i<listSkills.length;i++){\n                if(listSkills[i].studentOwner == _studentOwner) {\n                    titles[i] = listSkills[i].title;\n                    levels[i] = listSkills[i].level;\n                }\n            }\n            return (titles, levels);\n    }\n    \n}",
  "sourcePath": "C:\\Users\\ADMIN\\Desktop\\New folder\\IS_cv\\contracts\\SmartCV_ListStudent.sol",
  "compiler": {
    "name": "solc",
    "version": "0.8.15+commit.e14f2714.Emscripten.clang"
  },
  "schemaVersion": "3.4.7",
  "updatedAt": "2022-07-08T15:34:41.322Z",
  "devdoc": {
    "kind": "dev",
    "methods": {},
    "version": 1
  },
  "userdoc": {
    "kind": "user",
    "methods": {},
    "version": 1
  }
}