{
  "contractName": "ListBusiness",
  "abi": [
    {
      "inputs": [
        {
          "internalType": "uint256",
          "name": "",
          "type": "uint256"
        }
      ],
      "name": "listDNs",
      "outputs": [
        {
          "internalType": "address",
          "name": "businessOwner",
          "type": "address"
        },
        {
          "internalType": "string",
          "name": "name",
          "type": "string"
        },
        {
          "internalType": "string",
          "name": "country",
          "type": "string"
        },
        {
          "internalType": "string",
          "name": "facebook",
          "type": "string"
        },
        {
          "internalType": "string",
          "name": "website",
          "type": "string"
        },
        {
          "internalType": "string",
          "name": "linkedin",
          "type": "string"
        },
        {
          "internalType": "string",
          "name": "focusArea",
          "type": "string"
        }
      ],
      "stateMutability": "view",
      "type": "function"
    },
    {
      "inputs": [
        {
          "internalType": "address",
          "name": "_businessOwner",
          "type": "address"
        },
        {
          "internalType": "string",
          "name": "_name",
          "type": "string"
        },
        {
          "internalType": "string",
          "name": "_country",
          "type": "string"
        },
        {
          "internalType": "string",
          "name": "_facebook",
          "type": "string"
        },
        {
          "internalType": "string",
          "name": "_website",
          "type": "string"
        },
        {
          "internalType": "string",
          "name": "_linkedin",
          "type": "string"
        },
        {
          "internalType": "string",
          "name": "_focusArea",
          "type": "string"
        }
      ],
      "name": "addDN",
      "outputs": [],
      "stateMutability": "nonpayable",
      "type": "function"
    },
    {
      "inputs": [
        {
          "internalType": "address",
          "name": "_businessOwner",
          "type": "address"
        }
      ],
      "name": "getListDN",
      "outputs": [
        {
          "internalType": "address[]",
          "name": "",
          "type": "address[]"
        },
        {
          "internalType": "string[]",
          "name": "",
          "type": "string[]"
        },
        {
          "internalType": "string[]",
          "name": "",
          "type": "string[]"
        },
        {
          "internalType": "string[]",
          "name": "",
          "type": "string[]"
        },
        {
          "internalType": "string[]",
          "name": "",
          "type": "string[]"
        },
        {
          "internalType": "string[]",
          "name": "",
          "type": "string[]"
        },
        {
          "internalType": "string[]",
          "name": "",
          "type": "string[]"
        }
      ],
      "stateMutability": "view",
      "type": "function"
    }
  ],
  "bytecode": "0x608060405234801561001057600080fd5b5061191f806100206000396000f3fe608060405234801561001057600080fd5b50600436106100415760003560e01c80631ed6aeec14610046578063bf44b30314610062578063c8dd4f8e14610098575b600080fd5b610060600480360381019061005b9190610ff1565b6100ce565b005b61007c60048036038101906100779190611171565b610218565b60405161008f9796959493929190611235565b60405180910390f35b6100b260048036038101906100ad91906112ce565b6105ba565b6040516100c597969594939291906114c5565b60405180910390f35b60006040518060e001604052808973ffffffffffffffffffffffffffffffffffffffff16815260200188815260200187815260200186815260200185815260200184815260200183815250908060018154018082558091505060019003906000526020600020906007020160009091909190915060008201518160000160006101000a81548173ffffffffffffffffffffffffffffffffffffffff021916908373ffffffffffffffffffffffffffffffffffffffff160217905550602082015181600101908161019e9190611771565b5060408201518160020190816101b49190611771565b5060608201518160030190816101ca9190611771565b5060808201518160040190816101e09190611771565b5060a08201518160050190816101f69190611771565b5060c082015181600601908161020c9190611771565b50505050505050505050565b6000818154811061022857600080fd5b90600052602060002090600702016000915090508060000160009054906101000a900473ffffffffffffffffffffffffffffffffffffffff169080600101805461027190611594565b80601f016020809104026020016040519081016040528092919081815260200182805461029d90611594565b80156102ea5780601f106102bf576101008083540402835291602001916102ea565b820191906000526020600020905b8154815290600101906020018083116102cd57829003601f168201915b5050505050908060020180546102ff90611594565b80601f016020809104026020016040519081016040528092919081815260200182805461032b90611594565b80156103785780601f1061034d57610100808354040283529160200191610378565b820191906000526020600020905b81548152906001019060200180831161035b57829003601f168201915b50505050509080600301805461038d90611594565b80601f01602080910402602001604051908101604052809291908181526020018280546103b990611594565b80156104065780601f106103db57610100808354040283529160200191610406565b820191906000526020600020905b8154815290600101906020018083116103e957829003601f168201915b50505050509080600401805461041b90611594565b80601f016020809104026020016040519081016040528092919081815260200182805461044790611594565b80156104945780601f1061046957610100808354040283529160200191610494565b820191906000526020600020905b81548152906001019060200180831161047757829003601f168201915b5050505050908060050180546104a990611594565b80601f01602080910402602001604051908101604052809291908181526020018280546104d590611594565b80156105225780601f106104f757610100808354040283529160200191610522565b820191906000526020600020905b81548152906001019060200180831161050557829003601f168201915b50505050509080600601805461053790611594565b80601f016020809104026020016040519081016040528092919081815260200182805461056390611594565b80156105b05780601f10610585576101008083540402835291602001916105b0565b820191906000526020600020905b81548152906001019060200180831161059357829003601f168201915b5050505050905087565b60608060608060608060606000808054905067ffffffffffffffff8111156105e5576105e4610ec6565b5b6040519080825280602002602001820160405280156106135781602001602082028036833780820191505090505b5090506000808054905067ffffffffffffffff81111561063657610635610ec6565b5b60405190808252806020026020018201604052801561066957816020015b60608152602001906001900390816106545790505b5090506000808054905067ffffffffffffffff81111561068c5761068b610ec6565b5b6040519080825280602002602001820160405280156106bf57816020015b60608152602001906001900390816106aa5790505b5090506000808054905067ffffffffffffffff8111156106e2576106e1610ec6565b5b60405190808252806020026020018201604052801561071557816020015b60608152602001906001900390816107005790505b5090506000808054905067ffffffffffffffff81111561073857610737610ec6565b5b60405190808252806020026020018201604052801561076b57816020015b60608152602001906001900390816107565790505b5090506000808054905067ffffffffffffffff81111561078e5761078d610ec6565b5b6040519080825280602002602001820160405280156107c157816020015b60608152602001906001900390816107ac5790505b5090506000808054905067ffffffffffffffff8111156107e4576107e3610ec6565b5b60405190808252806020026020018201604052801561081757816020015b60608152602001906001900390816108025790505b50905060005b600080549050811015610e11578f73ffffffffffffffffffffffffffffffffffffffff166000828154811061085557610854611843565b5b906000526020600020906007020160000160009054906101000a900473ffffffffffffffffffffffffffffffffffffffff1673ffffffffffffffffffffffffffffffffffffffff1603610dfe57600081815481106108b6576108b5611843565b5b906000526020600020906007020160000160009054906101000a900473ffffffffffffffffffffffffffffffffffffffff168882815181106108fb576108fa611843565b5b602002602001019073ffffffffffffffffffffffffffffffffffffffff16908173ffffffffffffffffffffffffffffffffffffffff16815250506000818154811061094957610948611843565b5b9060005260206000209060070201600101805461096590611594565b80601f016020809104026020016040519081016040528092919081815260200182805461099190611594565b80156109de5780601f106109b3576101008083540402835291602001916109de565b820191906000526020600020905b8154815290600101906020018083116109c157829003601f168201915b50505050508782815181106109f6576109f5611843565b5b602002602001018190525060008181548110610a1557610a14611843565b5b90600052602060002090600702016002018054610a3190611594565b80601f0160208091040260200160405190810160405280929190818152602001828054610a5d90611594565b8015610aaa5780601f10610a7f57610100808354040283529160200191610aaa565b820191906000526020600020905b815481529060010190602001808311610a8d57829003601f168201915b5050505050868281518110610ac257610ac1611843565b5b602002602001018190525060008181548110610ae157610ae0611843565b5b90600052602060002090600702016003018054610afd90611594565b80601f0160208091040260200160405190810160405280929190818152602001828054610b2990611594565b8015610b765780601f10610b4b57610100808354040283529160200191610b76565b820191906000526020600020905b815481529060010190602001808311610b5957829003601f168201915b5050505050858281518110610b8e57610b8d611843565b5b602002602001018190525060008181548110610bad57610bac611843565b5b90600052602060002090600702016004018054610bc990611594565b80601f0160208091040260200160405190810160405280929190818152602001828054610bf590611594565b8015610c425780601f10610c1757610100808354040283529160200191610c42565b820191906000526020600020905b815481529060010190602001808311610c2557829003601f168201915b5050505050848281518110610c5a57610c59611843565b5b602002602001018190525060008181548110610c7957610c78611843565b5b90600052602060002090600702016005018054610c9590611594565b80601f0160208091040260200160405190810160405280929190818152602001828054610cc190611594565b8015610d0e5780601f10610ce357610100808354040283529160200191610d0e565b820191906000526020600020905b815481529060010190602001808311610cf157829003601f168201915b5050505050838281518110610d2657610d25611843565b5b602002602001018190525060008181548110610d4557610d44611843565b5b90600052602060002090600702016006018054610d6190611594565b80601f0160208091040260200160405190810160405280929190818152602001828054610d8d90611594565b8015610dda5780601f10610daf57610100808354040283529160200191610dda565b820191906000526020600020905b815481529060010190602001808311610dbd57829003601f168201915b5050505050828281518110610df257610df1611843565b5b60200260200101819052505b8080610e09906118a1565b91505061081d565b50868686868686869d509d509d509d509d509d509d5050505050505050919395979092949650565b6000604051905090565b600080fd5b600080fd5b600073ffffffffffffffffffffffffffffffffffffffff82169050919050565b6000610e7882610e4d565b9050919050565b610e8881610e6d565b8114610e9357600080fd5b50565b600081359050610ea581610e7f565b92915050565b600080fd5b600080fd5b6000601f19601f8301169050919050565b7f4e487b7100000000000000000000000000000000000000000000000000000000600052604160045260246000fd5b610efe82610eb5565b810181811067ffffffffffffffff82111715610f1d57610f1c610ec6565b5b80604052505050565b6000610f30610e39565b9050610f3c8282610ef5565b919050565b600067ffffffffffffffff821115610f5c57610f5b610ec6565b5b610f6582610eb5565b9050602081019050919050565b82818337600083830152505050565b6000610f94610f8f84610f41565b610f26565b905082815260208101848484011115610fb057610faf610eb0565b5b610fbb848285610f72565b509392505050565b600082601f830112610fd857610fd7610eab565b5b8135610fe8848260208601610f81565b91505092915050565b600080600080600080600060e0888a0312156110105761100f610e43565b5b600061101e8a828b01610e96565b975050602088013567ffffffffffffffff81111561103f5761103e610e48565b5b61104b8a828b01610fc3565b965050604088013567ffffffffffffffff81111561106c5761106b610e48565b5b6110788a828b01610fc3565b955050606088013567ffffffffffffffff81111561109957611098610e48565b5b6110a58a828b01610fc3565b945050608088013567ffffffffffffffff8111156110c6576110c5610e48565b5b6110d28a828b01610fc3565b93505060a088013567ffffffffffffffff8111156110f3576110f2610e48565b5b6110ff8a828b01610fc3565b92505060c088013567ffffffffffffffff8111156111205761111f610e48565b5b61112c8a828b01610fc3565b91505092959891949750929550565b6000819050919050565b61114e8161113b565b811461115957600080fd5b50565b60008135905061116b81611145565b92915050565b60006020828403121561118757611186610e43565b5b60006111958482850161115c565b91505092915050565b6111a781610e6d565b82525050565b600081519050919050565b600082825260208201905092915050565b60005b838110156111e75780820151818401526020810190506111cc565b838111156111f6576000848401525b50505050565b6000611207826111ad565b61121181856111b8565b93506112218185602086016111c9565b61122a81610eb5565b840191505092915050565b600060e08201905061124a600083018a61119e565b818103602083015261125c81896111fc565b9050818103604083015261127081886111fc565b9050818103606083015261128481876111fc565b9050818103608083015261129881866111fc565b905081810360a08301526112ac81856111fc565b905081810360c08301526112c081846111fc565b905098975050505050505050565b6000602082840312156112e4576112e3610e43565b5b60006112f284828501610e96565b91505092915050565b600081519050919050565b600082825260208201905092915050565b6000819050602082019050919050565b61133081610e6d565b82525050565b60006113428383611327565b60208301905092915050565b6000602082019050919050565b6000611366826112fb565b6113708185611306565b935061137b83611317565b8060005b838110156113ac5781516113938882611336565b975061139e8361134e565b92505060018101905061137f565b5085935050505092915050565b600081519050919050565b600082825260208201905092915050565b6000819050602082019050919050565b600082825260208201905092915050565b6000611401826111ad565b61140b81856113e5565b935061141b8185602086016111c9565b61142481610eb5565b840191505092915050565b600061143b83836113f6565b905092915050565b6000602082019050919050565b600061145b826113b9565b61146581856113c4565b935083602082028501611477856113d5565b8060005b858110156114b35784840389528151611494858261142f565b945061149f83611443565b925060208a0199505060018101905061147b565b50829750879550505050505092915050565b600060e08201905081810360008301526114df818a61135b565b905081810360208301526114f38189611450565b905081810360408301526115078188611450565b9050818103606083015261151b8187611450565b9050818103608083015261152f8186611450565b905081810360a08301526115438185611450565b905081810360c08301526115578184611450565b905098975050505050505050565b7f4e487b7100000000000000000000000000000000000000000000000000000000600052602260045260246000fd5b600060028204905060018216806115ac57607f821691505b6020821081036115bf576115be611565565b5b50919050565b60008190508160005260206000209050919050565b60006020601f8301049050919050565b600082821b905092915050565b6000600883026116277fffffffffffffffffffffffffffffffffffffffffffffffffffffffffffffffff826115ea565b61163186836115ea565b95508019841693508086168417925050509392505050565b6000819050919050565b600061166e6116696116648461113b565b611649565b61113b565b9050919050565b6000819050919050565b61168883611653565b61169c61169482611675565b8484546115f7565b825550505050565b600090565b6116b16116a4565b6116bc81848461167f565b505050565b5b818110156116e0576116d56000826116a9565b6001810190506116c2565b5050565b601f821115611725576116f6816115c5565b6116ff846115da565b8101602085101561170e578190505b61172261171a856115da565b8301826116c1565b50505b505050565b600082821c905092915050565b60006117486000198460080261172a565b1980831691505092915050565b60006117618383611737565b9150826002028217905092915050565b61177a826111ad565b67ffffffffffffffff81111561179357611792610ec6565b5b61179d8254611594565b6117a88282856116e4565b600060209050601f8311600181146117db57600084156117c9578287015190505b6117d38582611755565b86555061183b565b601f1984166117e9866115c5565b60005b82811015611811578489015182556001820191506020850194506020810190506117ec565b8683101561182e578489015161182a601f891682611737565b8355505b6001600288020188555050505b505050505050565b7f4e487b7100000000000000000000000000000000000000000000000000000000600052603260045260246000fd5b7f4e487b7100000000000000000000000000000000000000000000000000000000600052601160045260246000fd5b60006118ac8261113b565b91507fffffffffffffffffffffffffffffffffffffffffffffffffffffffffffffffff82036118de576118dd611872565b5b60018201905091905056fea2646970667358221220c4c6952c64607a51cf753058c68637c657cc85aa72f292f884dffdbfff8b59f064736f6c634300080f0033",
  "immutableReferences": {},
  "source": "// SPDX-License-Identifier: MIT\r\npragma solidity >=0.4.22 <0.9.0;\r\n\r\n//Lu tr danh sch doanh nghip\r\ncontract ListBusiness {\r\n\r\n    struct ListDN {\r\n        address businessOwner;\r\n        string name; \r\n        string country; \r\n        string facebook;\r\n        string website;\r\n        string linkedin;\r\n        string focusArea;\r\n    }\r\n\r\n    ListDN[] public listDNs;\r\n\r\n    function addDN (\r\n        address _businessOwner,\r\n        string memory _name,\r\n        string memory _country,\r\n        string memory _facebook,\r\n        string memory _website,\r\n        string memory _linkedin,\r\n        string memory _focusArea) public {\r\n            listDNs.push(ListDN(_businessOwner, _name, _country, _facebook, _website, _linkedin, _focusArea));\r\n    }\r\n\r\n    function getListDN(address _businessOwner) public view returns(address[] memory, string[] memory, string[] memory, string[] memory, string[] memory, string[] memory, string[] memory) {\r\n        address[] memory businessOwners = new address[](listDNs.length);\r\n        string[] memory names = new string[](listDNs.length);\r\n        string[] memory countrys = new string[](listDNs.length);\r\n        string[] memory facebooks = new string[](listDNs.length);\r\n        string[] memory websites = new string[](listDNs.length);\r\n        string[] memory linkedins = new string[](listDNs.length);\r\n        string[] memory focusAreas = new string[](listDNs.length);\r\n        for(uint i=0; i<listDNs.length;i++){\r\n            if(listDNs[i].businessOwner == _businessOwner){\r\n                businessOwners[i] = listDNs[i].businessOwner;\r\n                names[i] = listDNs[i].name;\r\n                countrys[i] = listDNs[i].country;\r\n                facebooks[i] = listDNs[i].facebook;\r\n                websites[i] = listDNs[i].website;\r\n                linkedins[i] = listDNs[i].linkedin;\r\n                focusAreas[i] = listDNs[i].focusArea;\r\n            }\r\n        }\r\n        return (businessOwners, names, countrys, facebooks, websites, linkedins, focusAreas);\r\n    }\r\n    \r\n}",
  "sourcePath": "C:\\Users\\ADMIN\\Desktop\\New folder\\IS_cv\\contracts\\SmartCV_ListBusiness.sol",
  "compiler": {
    "name": "solc",
    "version": "0.8.15+commit.e14f2714.Emscripten.clang"
  },
  "schemaVersion": "3.4.7",
  "updatedAt": "2022-06-25T04:56:29.609Z",
  "devdoc": {
    "kind": "dev",
    "methods": {},
    "version": 1
  },
  "userdoc": {
    "kind": "user",
    "methods": {},
    "version": 1
  }
}