{
  "contractName": "ListStudent",
  "abi": [
    {
      "inputs": [
        {
          "internalType": "uint256",
          "name": "",
          "type": "uint256"
        }
      ],
      "name": "listSVs",
      "outputs": [
        {
          "internalType": "address",
          "name": "studentOwner",
          "type": "address"
        },
        {
          "internalType": "string",
          "name": "name",
          "type": "string"
        },
        {
          "internalType": "string",
          "name": "birthDay",
          "type": "string"
        },
        {
          "internalType": "string",
          "name": "professionalTitle",
          "type": "string"
        },
        {
          "internalType": "string",
          "name": "email",
          "type": "string"
        },
        {
          "internalType": "string",
          "name": "github",
          "type": "string"
        },
        {
          "internalType": "string",
          "name": "linkedin",
          "type": "string"
        },
        {
          "internalType": "string",
          "name": "password",
          "type": "string"
        }
      ],
      "stateMutability": "view",
      "type": "function"
    },
    {
      "inputs": [
        {
          "internalType": "uint256",
          "name": "",
          "type": "uint256"
        }
      ],
      "name": "listSkills",
      "outputs": [
        {
          "internalType": "address",
          "name": "studentOwner",
          "type": "address"
        },
        {
          "internalType": "string",
          "name": "title",
          "type": "string"
        },
        {
          "internalType": "uint256",
          "name": "level",
          "type": "uint256"
        }
      ],
      "stateMutability": "view",
      "type": "function"
    },
    {
      "inputs": [
        {
          "internalType": "address",
          "name": "_studentOwner",
          "type": "address"
        },
        {
          "internalType": "string",
          "name": "_name",
          "type": "string"
        },
        {
          "internalType": "string",
          "name": "_birthDay",
          "type": "string"
        },
        {
          "internalType": "string",
          "name": "_professionalTitle",
          "type": "string"
        },
        {
          "internalType": "string",
          "name": "_email",
          "type": "string"
        },
        {
          "internalType": "string",
          "name": "_github",
          "type": "string"
        },
        {
          "internalType": "string",
          "name": "_linked",
          "type": "string"
        },
        {
          "internalType": "string",
          "name": "_password",
          "type": "string"
        }
      ],
      "name": "addSV",
      "outputs": [],
      "stateMutability": "nonpayable",
      "type": "function"
    },
    {
      "inputs": [
        {
          "internalType": "address",
          "name": "_studentOwner",
          "type": "address"
        }
      ],
      "name": "getListSV",
      "outputs": [
        {
          "internalType": "address[]",
          "name": "",
          "type": "address[]"
        },
        {
          "internalType": "string[]",
          "name": "",
          "type": "string[]"
        },
        {
          "internalType": "string[]",
          "name": "",
          "type": "string[]"
        },
        {
          "internalType": "string[]",
          "name": "",
          "type": "string[]"
        },
        {
          "internalType": "string[]",
          "name": "",
          "type": "string[]"
        },
        {
          "internalType": "string[]",
          "name": "",
          "type": "string[]"
        },
        {
          "internalType": "string[]",
          "name": "",
          "type": "string[]"
        }
      ],
      "stateMutability": "view",
      "type": "function"
    },
    {
      "inputs": [
        {
          "internalType": "address",
          "name": "_studentOwner",
          "type": "address"
        },
        {
          "internalType": "string",
          "name": "_password",
          "type": "string"
        }
      ],
      "name": "checkStudent",
      "outputs": [
        {
          "internalType": "uint256",
          "name": "",
          "type": "uint256"
        }
      ],
      "stateMutability": "view",
      "type": "function"
    },
    {
      "inputs": [
        {
          "internalType": "address",
          "name": "_studentOwner",
          "type": "address"
        },
        {
          "internalType": "string",
          "name": "_title",
          "type": "string"
        },
        {
          "internalType": "uint256",
          "name": "_level",
          "type": "uint256"
        }
      ],
      "name": "addSkill",
      "outputs": [],
      "stateMutability": "nonpayable",
      "type": "function"
    },
    {
      "inputs": [
        {
          "internalType": "address",
          "name": "_studentOwner",
          "type": "address"
        }
      ],
      "name": "getSkill",
      "outputs": [
        {
          "internalType": "string[]",
          "name": "",
          "type": "string[]"
        },
        {
          "internalType": "uint256[]",
          "name": "",
          "type": "uint256[]"
        }
      ],
      "stateMutability": "view",
      "type": "function"
    }
  ],
  "bytecode": "0x608060405234801561001057600080fd5b506123ad806100206000396000f3fe608060405234801561001057600080fd5b506004361061007d5760003560e01c80638ac62b2b1161005b5780638ac62b2b1461010757806398947ec4146101375780639fea8e101461016d578063ac4b2049146101895761007d565b80633aff2cc51461008257806360ccb204146100b457806367047107146100d0575b600080fd5b61009c6004803603810190610097919061157d565b6101ba565b6040516100ab93929190611693565b60405180910390f35b6100ce60048036038101906100c99190611832565b61029c565b005b6100ea60048036038101906100e5919061157d565b6103b7565b6040516100fe9897969594939291906118a1565b60405180910390f35b610121600480360381019061011c9190611950565b6107e7565b60405161012e91906119ac565b60405180910390f35b610151600480360381019061014c91906119c7565b6108e5565b6040516101649796959493929190611bbe565b60405180910390f35b61018760048036038101906101829190611c5e565b611164565b005b6101a3600480360381019061019e91906119c7565b6112cc565b6040516101b1929190611e96565b60405180910390f35b600181815481106101ca57600080fd5b90600052602060002090600302016000915090508060000160009054906101000a900473ffffffffffffffffffffffffffffffffffffffff169080600101805461021390611efc565b80601f016020809104026020016040519081016040528092919081815260200182805461023f90611efc565b801561028c5780601f106102615761010080835404028352916020019161028c565b820191906000526020600020905b81548152906001019060200180831161026f57829003601f168201915b5050505050908060020154905083565b600081101580156102ae575060648111155b6102ed576040517f08c379a00000000000000000000000000000000000000000000000000000000081526004016102e490611f79565b60405180910390fd5b600160405180606001604052808573ffffffffffffffffffffffffffffffffffffffff16815260200184815260200183815250908060018154018082558091505060019003906000526020600020906003020160009091909190915060008201518160000160006101000a81548173ffffffffffffffffffffffffffffffffffffffff021916908373ffffffffffffffffffffffffffffffffffffffff16021790555060208201518160010190816103a59190612145565b50604082015181600201555050505050565b600081815481106103c757600080fd5b90600052602060002090600802016000915090508060000160009054906101000a900473ffffffffffffffffffffffffffffffffffffffff169080600101805461041090611efc565b80601f016020809104026020016040519081016040528092919081815260200182805461043c90611efc565b80156104895780601f1061045e57610100808354040283529160200191610489565b820191906000526020600020905b81548152906001019060200180831161046c57829003601f168201915b50505050509080600201805461049e90611efc565b80601f01602080910402602001604051908101604052809291908181526020018280546104ca90611efc565b80156105175780601f106104ec57610100808354040283529160200191610517565b820191906000526020600020905b8154815290600101906020018083116104fa57829003601f168201915b50505050509080600301805461052c90611efc565b80601f016020809104026020016040519081016040528092919081815260200182805461055890611efc565b80156105a55780601f1061057a576101008083540402835291602001916105a5565b820191906000526020600020905b81548152906001019060200180831161058857829003601f168201915b5050505050908060040180546105ba90611efc565b80601f01602080910402602001604051908101604052809291908181526020018280546105e690611efc565b80156106335780601f1061060857610100808354040283529160200191610633565b820191906000526020600020905b81548152906001019060200180831161061657829003601f168201915b50505050509080600501805461064890611efc565b80601f016020809104026020016040519081016040528092919081815260200182805461067490611efc565b80156106c15780601f10610696576101008083540402835291602001916106c1565b820191906000526020600020905b8154815290600101906020018083116106a457829003601f168201915b5050505050908060060180546106d690611efc565b80601f016020809104026020016040519081016040528092919081815260200182805461070290611efc565b801561074f5780601f106107245761010080835404028352916020019161074f565b820191906000526020600020905b81548152906001019060200180831161073257829003601f168201915b50505050509080600701805461076490611efc565b80601f016020809104026020016040519081016040528092919081815260200182805461079090611efc565b80156107dd5780601f106107b2576101008083540402835291602001916107dd565b820191906000526020600020905b8154815290600101906020018083116107c057829003601f168201915b5050505050905088565b600080600090505b6000805490508110156108dd578373ffffffffffffffffffffffffffffffffffffffff166000828154811061082757610826612217565b5b906000526020600020906008020160000160009054906101000a900473ffffffffffffffffffffffffffffffffffffffff1673ffffffffffffffffffffffffffffffffffffffff161480156108bb575082805190602001206000828154811061089357610892612217565b5b90600052602060002090600802016007016040516108b191906122e9565b6040518091039020145b156108ca5760019150506108df565b80806108d59061232f565b9150506107ef565b505b92915050565b60608060608060608060606000808054905067ffffffffffffffff8111156109105761090f611707565b5b60405190808252806020026020018201604052801561093e5781602001602082028036833780820191505090505b5090506000808054905067ffffffffffffffff81111561096157610960611707565b5b60405190808252806020026020018201604052801561099457816020015b606081526020019060019003908161097f5790505b5090506000808054905067ffffffffffffffff8111156109b7576109b6611707565b5b6040519080825280602002602001820160405280156109ea57816020015b60608152602001906001900390816109d55790505b5090506000808054905067ffffffffffffffff811115610a0d57610a0c611707565b5b604051908082528060200260200182016040528015610a4057816020015b6060815260200190600190039081610a2b5790505b5090506000808054905067ffffffffffffffff811115610a6357610a62611707565b5b604051908082528060200260200182016040528015610a9657816020015b6060815260200190600190039081610a815790505b5090506000808054905067ffffffffffffffff811115610ab957610ab8611707565b5b604051908082528060200260200182016040528015610aec57816020015b6060815260200190600190039081610ad75790505b5090506000808054905067ffffffffffffffff811115610b0f57610b0e611707565b5b604051908082528060200260200182016040528015610b4257816020015b6060815260200190600190039081610b2d5790505b50905060005b60008054905081101561113c578f73ffffffffffffffffffffffffffffffffffffffff1660008281548110610b8057610b7f612217565b5b906000526020600020906008020160000160009054906101000a900473ffffffffffffffffffffffffffffffffffffffff1673ffffffffffffffffffffffffffffffffffffffff16036111295760008181548110610be157610be0612217565b5b906000526020600020906008020160000160009054906101000a900473ffffffffffffffffffffffffffffffffffffffff16888281518110610c2657610c25612217565b5b602002602001019073ffffffffffffffffffffffffffffffffffffffff16908173ffffffffffffffffffffffffffffffffffffffff168152505060008181548110610c7457610c73612217565b5b90600052602060002090600802016001018054610c9090611efc565b80601f0160208091040260200160405190810160405280929190818152602001828054610cbc90611efc565b8015610d095780601f10610cde57610100808354040283529160200191610d09565b820191906000526020600020905b815481529060010190602001808311610cec57829003601f168201915b5050505050878281518110610d2157610d20612217565b5b602002602001018190525060008181548110610d4057610d3f612217565b5b90600052602060002090600802016002018054610d5c90611efc565b80601f0160208091040260200160405190810160405280929190818152602001828054610d8890611efc565b8015610dd55780601f10610daa57610100808354040283529160200191610dd5565b820191906000526020600020905b815481529060010190602001808311610db857829003601f168201915b5050505050868281518110610ded57610dec612217565b5b602002602001018190525060008181548110610e0c57610e0b612217565b5b90600052602060002090600802016003018054610e2890611efc565b80601f0160208091040260200160405190810160405280929190818152602001828054610e5490611efc565b8015610ea15780601f10610e7657610100808354040283529160200191610ea1565b820191906000526020600020905b815481529060010190602001808311610e8457829003601f168201915b5050505050858281518110610eb957610eb8612217565b5b602002602001018190525060008181548110610ed857610ed7612217565b5b90600052602060002090600802016004018054610ef490611efc565b80601f0160208091040260200160405190810160405280929190818152602001828054610f2090611efc565b8015610f6d5780601f10610f4257610100808354040283529160200191610f6d565b820191906000526020600020905b815481529060010190602001808311610f5057829003601f168201915b5050505050848281518110610f8557610f84612217565b5b602002602001018190525060008181548110610fa457610fa3612217565b5b90600052602060002090600802016005018054610fc090611efc565b80601f0160208091040260200160405190810160405280929190818152602001828054610fec90611efc565b80156110395780601f1061100e57610100808354040283529160200191611039565b820191906000526020600020905b81548152906001019060200180831161101c57829003601f168201915b505050505083828151811061105157611050612217565b5b6020026020010181905250600081815481106110705761106f612217565b5b9060005260206000209060080201600601805461108c90611efc565b80601f01602080910402602001604051908101604052809291908181526020018280546110b890611efc565b80156111055780601f106110da57610100808354040283529160200191611105565b820191906000526020600020905b8154815290600101906020018083116110e857829003601f168201915b505050505082828151811061111d5761111c612217565b5b60200260200101819052505b80806111349061232f565b915050610b48565b50868686868686869d509d509d509d509d509d509d5050505050505050919395979092949650565b60006040518061010001604052808a73ffffffffffffffffffffffffffffffffffffffff16815260200189815260200188815260200187815260200186815260200185815260200184815260200183815250908060018154018082558091505060019003906000526020600020906008020160009091909190915060008201518160000160006101000a81548173ffffffffffffffffffffffffffffffffffffffff021916908373ffffffffffffffffffffffffffffffffffffffff160217905550602082015181600101908161123b9190612145565b5060408201518160020190816112519190612145565b5060608201518160030190816112679190612145565b50608082015181600401908161127d9190612145565b5060a08201518160050190816112939190612145565b5060c08201518160060190816112a99190612145565b5060e08201518160070190816112bf9190612145565b5050505050505050505050565b606080600060018054905067ffffffffffffffff8111156112f0576112ef611707565b5b60405190808252806020026020018201604052801561132357816020015b606081526020019060019003908161130e5790505b509050600060018054905067ffffffffffffffff81111561134757611346611707565b5b6040519080825280602002602001820160405280156113755781602001602082028036833780820191505090505b50905060005b600180549050811015611525578573ffffffffffffffffffffffffffffffffffffffff16600182815481106113b3576113b2612217565b5b906000526020600020906003020160000160009054906101000a900473ffffffffffffffffffffffffffffffffffffffff1673ffffffffffffffffffffffffffffffffffffffff1603611512576001818154811061141457611413612217565b5b9060005260206000209060030201600101805461143090611efc565b80601f016020809104026020016040519081016040528092919081815260200182805461145c90611efc565b80156114a95780601f1061147e576101008083540402835291602001916114a9565b820191906000526020600020905b81548152906001019060200180831161148c57829003601f168201915b50505050508382815181106114c1576114c0612217565b5b6020026020010181905250600181815481106114e0576114df612217565b5b90600052602060002090600302016002015482828151811061150557611504612217565b5b6020026020010181815250505b808061151d9061232f565b91505061137b565b508181935093505050915091565b6000604051905090565b600080fd5b600080fd5b6000819050919050565b61155a81611547565b811461156557600080fd5b50565b60008135905061157781611551565b92915050565b6000602082840312156115935761159261153d565b5b60006115a184828501611568565b91505092915050565b600073ffffffffffffffffffffffffffffffffffffffff82169050919050565b60006115d5826115aa565b9050919050565b6115e5816115ca565b82525050565b600081519050919050565b600082825260208201905092915050565b60005b8381101561162557808201518184015260208101905061160a565b83811115611634576000848401525b50505050565b6000601f19601f8301169050919050565b6000611656826115eb565b61166081856115f6565b9350611670818560208601611607565b6116798161163a565b840191505092915050565b61168d81611547565b82525050565b60006060820190506116a860008301866115dc565b81810360208301526116ba818561164b565b90506116c96040830184611684565b949350505050565b6116da816115ca565b81146116e557600080fd5b50565b6000813590506116f7816116d1565b92915050565b600080fd5b600080fd5b7f4e487b7100000000000000000000000000000000000000000000000000000000600052604160045260246000fd5b61173f8261163a565b810181811067ffffffffffffffff8211171561175e5761175d611707565b5b80604052505050565b6000611771611533565b905061177d8282611736565b919050565b600067ffffffffffffffff82111561179d5761179c611707565b5b6117a68261163a565b9050602081019050919050565b82818337600083830152505050565b60006117d56117d084611782565b611767565b9050828152602081018484840111156117f1576117f0611702565b5b6117fc8482856117b3565b509392505050565b600082601f830112611819576118186116fd565b5b81356118298482602086016117c2565b91505092915050565b60008060006060848603121561184b5761184a61153d565b5b6000611859868287016116e8565b935050602084013567ffffffffffffffff81111561187a57611879611542565b5b61188686828701611804565b925050604061189786828701611568565b9150509250925092565b6000610100820190506118b7600083018b6115dc565b81810360208301526118c9818a61164b565b905081810360408301526118dd818961164b565b905081810360608301526118f1818861164b565b90508181036080830152611905818761164b565b905081810360a0830152611919818661164b565b905081810360c083015261192d818561164b565b905081810360e0830152611941818461164b565b90509998505050505050505050565b600080604083850312156119675761196661153d565b5b6000611975858286016116e8565b925050602083013567ffffffffffffffff81111561199657611995611542565b5b6119a285828601611804565b9150509250929050565b60006020820190506119c16000830184611684565b92915050565b6000602082840312156119dd576119dc61153d565b5b60006119eb848285016116e8565b91505092915050565b600081519050919050565b600082825260208201905092915050565b6000819050602082019050919050565b611a29816115ca565b82525050565b6000611a3b8383611a20565b60208301905092915050565b6000602082019050919050565b6000611a5f826119f4565b611a6981856119ff565b9350611a7483611a10565b8060005b83811015611aa5578151611a8c8882611a2f565b9750611a9783611a47565b925050600181019050611a78565b5085935050505092915050565b600081519050919050565b600082825260208201905092915050565b6000819050602082019050919050565b600082825260208201905092915050565b6000611afa826115eb565b611b048185611ade565b9350611b14818560208601611607565b611b1d8161163a565b840191505092915050565b6000611b348383611aef565b905092915050565b6000602082019050919050565b6000611b5482611ab2565b611b5e8185611abd565b935083602082028501611b7085611ace565b8060005b85811015611bac5784840389528151611b8d8582611b28565b9450611b9883611b3c565b925060208a01995050600181019050611b74565b50829750879550505050505092915050565b600060e0820190508181036000830152611bd8818a611a54565b90508181036020830152611bec8189611b49565b90508181036040830152611c008188611b49565b90508181036060830152611c148187611b49565b90508181036080830152611c288186611b49565b905081810360a0830152611c3c8185611b49565b905081810360c0830152611c508184611b49565b905098975050505050505050565b600080600080600080600080610100898b031215611c7f57611c7e61153d565b5b6000611c8d8b828c016116e8565b985050602089013567ffffffffffffffff811115611cae57611cad611542565b5b611cba8b828c01611804565b975050604089013567ffffffffffffffff811115611cdb57611cda611542565b5b611ce78b828c01611804565b965050606089013567ffffffffffffffff811115611d0857611d07611542565b5b611d148b828c01611804565b955050608089013567ffffffffffffffff811115611d3557611d34611542565b5b611d418b828c01611804565b94505060a089013567ffffffffffffffff811115611d6257611d61611542565b5b611d6e8b828c01611804565b93505060c089013567ffffffffffffffff811115611d8f57611d8e611542565b5b611d9b8b828c01611804565b92505060e089013567ffffffffffffffff811115611dbc57611dbb611542565b5b611dc88b828c01611804565b9150509295985092959890939650565b600081519050919050565b600082825260208201905092915050565b6000819050602082019050919050565b611e0d81611547565b82525050565b6000611e1f8383611e04565b60208301905092915050565b6000602082019050919050565b6000611e4382611dd8565b611e4d8185611de3565b9350611e5883611df4565b8060005b83811015611e89578151611e708882611e13565b9750611e7b83611e2b565b925050600181019050611e5c565b5085935050505092915050565b60006040820190508181036000830152611eb08185611b49565b90508181036020830152611ec48184611e38565b90509392505050565b7f4e487b7100000000000000000000000000000000000000000000000000000000600052602260045260246000fd5b60006002820490506001821680611f1457607f821691505b602082108103611f2757611f26611ecd565b5b50919050565b7f4c6576656c206f6620736b696c6c20696e636f72726563742e00000000000000600082015250565b6000611f636019836115f6565b9150611f6e82611f2d565b602082019050919050565b60006020820190508181036000830152611f9281611f56565b9050919050565b60008190508160005260206000209050919050565b60006020601f8301049050919050565b600082821b905092915050565b600060088302611ffb7fffffffffffffffffffffffffffffffffffffffffffffffffffffffffffffffff82611fbe565b6120058683611fbe565b95508019841693508086168417925050509392505050565b6000819050919050565b600061204261203d61203884611547565b61201d565b611547565b9050919050565b6000819050919050565b61205c83612027565b61207061206882612049565b848454611fcb565b825550505050565b600090565b612085612078565b612090818484612053565b505050565b5b818110156120b4576120a960008261207d565b600181019050612096565b5050565b601f8211156120f9576120ca81611f99565b6120d384611fae565b810160208510156120e2578190505b6120f66120ee85611fae565b830182612095565b50505b505050565b600082821c905092915050565b600061211c600019846008026120fe565b1980831691505092915050565b6000612135838361210b565b9150826002028217905092915050565b61214e826115eb565b67ffffffffffffffff81111561216757612166611707565b5b6121718254611efc565b61217c8282856120b8565b600060209050601f8311600181146121af576000841561219d578287015190505b6121a78582612129565b86555061220f565b601f1984166121bd86611f99565b60005b828110156121e5578489015182556001820191506020850194506020810190506121c0565b8683101561220257848901516121fe601f89168261210b565b8355505b6001600288020188555050505b505050505050565b7f4e487b7100000000000000000000000000000000000000000000000000000000600052603260045260246000fd5b600081905092915050565b60008190508160005260206000209050919050565b6000815461227381611efc565b61227d8186612246565b9450600182166000811461229857600181146122ad576122e0565b60ff19831686528115158202860193506122e0565b6122b685612251565b60005b838110156122d8578154818901526001820191506020810190506122b9565b838801955050505b50505092915050565b60006122f58284612266565b915081905092915050565b7f4e487b7100000000000000000000000000000000000000000000000000000000600052601160045260246000fd5b600061233a82611547565b91507fffffffffffffffffffffffffffffffffffffffffffffffffffffffffffffffff820361236c5761236b612300565b5b60018201905091905056fea2646970667358221220611e828f34cf19799c1068067a4ccf739813e4a36b713435d4aa573b5334e2e664736f6c634300080f0033",
  "immutableReferences": {},
  "source": "// SPDX-License-Identifier: MIT\npragma solidity >=0.4.22 <0.9.0;\n\n//Lu tr danh sch sinh vin\ncontract ListStudent {\n\n    struct ListSV {\n        address studentOwner;\n        string name; \n        string birthDay; \n        string professionalTitle;\n        string email;\n        string github; \n        string linkedin;\n        string password;\n    }\n    struct ListSkill {\n        address studentOwner;\n        string title; \n        uint level;\n    }\n    ListSV[] public listSVs;\n    ListSkill[] public listSkills;\n\n    function addSV (\n        address _studentOwner,\n        string memory _name,\n        string memory _birthDay,\n        string memory _professionalTitle,\n        string memory _email,\n        string memory _github,\n        string memory _linked,\n        string memory _password) public {\n            listSVs.push(ListSV(_studentOwner, _name, _birthDay, _professionalTitle, _email, _github, _linked, _password));\n    }\n\n    function getListSV(address _studentOwner) public view returns(address[] memory, string[] memory, string[] memory, string[] memory, string[] memory, string[] memory, string[] memory) {\n        address[] memory studentOwners = new address[](listSVs.length);\n        string[] memory names = new string[](listSVs.length);\n        string[] memory birthDays = new string[](listSVs.length);\n        string[] memory professionalTitles = new string[](listSVs.length);\n        string[] memory emails = new string[](listSVs.length);\n        string[] memory githubs = new string[](listSVs.length);\n        string[] memory linkedins = new string[](listSVs.length);\n        for(uint i=0; i<listSVs.length;i++){\n            if(listSVs[i].studentOwner == _studentOwner){\n                studentOwners[i] = listSVs[i].studentOwner;\n                names[i] = listSVs[i].name;\n                birthDays[i] = listSVs[i].birthDay;\n                professionalTitles[i] = listSVs[i].professionalTitle;\n                emails[i] = listSVs[i].email;\n                githubs[i] = listSVs[i].github;\n                linkedins[i] = listSVs[i].linkedin;\n            }\n        }\n        return (studentOwners, names,birthDays,  professionalTitles, emails, githubs, linkedins);\n    }\n    function checkStudent(address _studentOwner, string memory _password) public view returns(uint) {\n        for(uint i=0; i<listSVs.length;i++){\n            if((listSVs[i].studentOwner == _studentOwner) && (keccak256(bytes(listSVs[i].password)) == keccak256(bytes(_password)))){\n                return 1;\n            }\n        }\n    }\n    function addSkill(\n        address _studentOwner,\n        string memory _title, \n        uint _level) public {\n            require(_level >=0 && _level <=100, \"Level of skill incorrect.\");\n            listSkills.push(ListSkill(_studentOwner, _title, _level));\n    }\n\n    function getSkill(address _studentOwner) public view returns(string[] memory,uint[] memory) {\n        string[] memory titles = new string[](listSkills.length);\n        uint[] memory levels = new uint[](listSkills.length);\n        for(uint i=0; i<listSkills.length;i++){\n            if(listSkills[i].studentOwner == _studentOwner) {\n                titles[i] = listSkills[i].title;\n                levels[i] = listSkills[i].level;\n            }\n        }\n        return (titles, levels);\n    }\n    \n}",
  "sourcePath": "C:\\Users\\ADMIN\\Desktop\\New folder\\IS_cv\\contracts\\SmartCV_ListStudent.sol",
  "compiler": {
    "name": "solc",
    "version": "0.8.15+commit.e14f2714.Emscripten.clang"
  },
  "schemaVersion": "3.4.7",
  "updatedAt": "2022-06-25T04:56:29.719Z",
  "devdoc": {
    "kind": "dev",
    "methods": {},
    "version": 1
  },
  "userdoc": {
    "kind": "user",
    "methods": {},
    "version": 1
  }
}