{
  "contractName": "Student",
  "abi": [
    {
      "inputs": [],
      "stateMutability": "nonpayable",
      "type": "constructor"
    },
    {
      "inputs": [],
      "name": "getSender",
      "outputs": [
        {
          "internalType": "address",
          "name": "",
          "type": "address"
        }
      ],
      "stateMutability": "view",
      "type": "function",
      "constant": true
    },
    {
      "inputs": [
        {
          "internalType": "address",
          "name": "_studentOwner",
          "type": "address"
        },
        {
          "internalType": "string",
          "name": "_name",
          "type": "string"
        },
        {
          "internalType": "string",
          "name": "_birthDay",
          "type": "string"
        },
        {
          "internalType": "string",
          "name": "_professionalTitle",
          "type": "string"
        },
        {
          "internalType": "string",
          "name": "_email",
          "type": "string"
        },
        {
          "internalType": "string",
          "name": "_github",
          "type": "string"
        },
        {
          "internalType": "string",
          "name": "_linked",
          "type": "string"
        }
      ],
      "name": "addStudentProfile",
      "outputs": [],
      "stateMutability": "nonpayable",
      "type": "function"
    },
    {
      "inputs": [
        {
          "internalType": "address",
          "name": "_studentOwner",
          "type": "address"
        }
      ],
      "name": "getListStudent",
      "outputs": [
        {
          "internalType": "address[]",
          "name": "",
          "type": "address[]"
        },
        {
          "internalType": "string[]",
          "name": "",
          "type": "string[]"
        },
        {
          "internalType": "string[]",
          "name": "",
          "type": "string[]"
        },
        {
          "internalType": "string[]",
          "name": "",
          "type": "string[]"
        },
        {
          "internalType": "string[]",
          "name": "",
          "type": "string[]"
        },
        {
          "internalType": "string[]",
          "name": "",
          "type": "string[]"
        },
        {
          "internalType": "string[]",
          "name": "",
          "type": "string[]"
        }
      ],
      "stateMutability": "view",
      "type": "function",
      "constant": true
    },
    {
      "inputs": [
        {
          "internalType": "address",
          "name": "_studentOwner",
          "type": "address"
        },
        {
          "internalType": "address",
          "name": "_businessOwner",
          "type": "address"
        }
      ],
      "name": "sendCV",
      "outputs": [],
      "stateMutability": "nonpayable",
      "type": "function"
    },
    {
      "inputs": [
        {
          "internalType": "address",
          "name": "_businessOwner",
          "type": "address"
        },
        {
          "internalType": "string",
          "name": "_name",
          "type": "string"
        },
        {
          "internalType": "string",
          "name": "_country",
          "type": "string"
        },
        {
          "internalType": "string",
          "name": "_facebook",
          "type": "string"
        },
        {
          "internalType": "string",
          "name": "_website",
          "type": "string"
        },
        {
          "internalType": "string",
          "name": "_linkedin",
          "type": "string"
        },
        {
          "internalType": "string",
          "name": "_focusArea",
          "type": "string"
        }
      ],
      "name": "addBusinessProfile",
      "outputs": [],
      "stateMutability": "nonpayable",
      "type": "function"
    },
    {
      "inputs": [
        {
          "internalType": "address",
          "name": "_businessOwner",
          "type": "address"
        }
      ],
      "name": "getListBusiness",
      "outputs": [
        {
          "internalType": "address[]",
          "name": "",
          "type": "address[]"
        },
        {
          "internalType": "string[]",
          "name": "",
          "type": "string[]"
        },
        {
          "internalType": "string[]",
          "name": "",
          "type": "string[]"
        },
        {
          "internalType": "string[]",
          "name": "",
          "type": "string[]"
        },
        {
          "internalType": "string[]",
          "name": "",
          "type": "string[]"
        },
        {
          "internalType": "string[]",
          "name": "",
          "type": "string[]"
        },
        {
          "internalType": "string[]",
          "name": "",
          "type": "string[]"
        }
      ],
      "stateMutability": "view",
      "type": "function",
      "constant": true
    },
    {
      "inputs": [
        {
          "internalType": "address",
          "name": "_businessOwner",
          "type": "address"
        }
      ],
      "name": "getListCV",
      "outputs": [
        {
          "internalType": "address[]",
          "name": "",
          "type": "address[]"
        },
        {
          "internalType": "address[]",
          "name": "",
          "type": "address[]"
        }
      ],
      "stateMutability": "view",
      "type": "function",
      "constant": true
    }
  ],
  "bytecode": "0x608060405260405162000012906200019c565b604051809103906000f0801580156200002f573d6000803e3d6000fd5b50600260006101000a81548173ffffffffffffffffffffffffffffffffffffffff021916908373ffffffffffffffffffffffffffffffffffffffff1602179055506040516200007e90620001aa565b604051809103906000f0801580156200009b573d6000803e3d6000fd5b50600360006101000a81548173ffffffffffffffffffffffffffffffffffffffff021916908373ffffffffffffffffffffffffffffffffffffffff160217905550604051620000ea90620001b8565b604051809103906000f08015801562000107573d6000803e3d6000fd5b50600460006101000a81548173ffffffffffffffffffffffffffffffffffffffff021916908373ffffffffffffffffffffffffffffffffffffffff1602179055503480156200015557600080fd5b50336000806101000a81548173ffffffffffffffffffffffffffffffffffffffff021916908373ffffffffffffffffffffffffffffffffffffffff160217905550620001c6565b611791806200136483390190565b6117918062002af583390190565b61083a806200428683390190565b61118e80620001d66000396000f3fe608060405234801561001057600080fd5b506004361061007d5760003560e01c806366b406821161005b57806366b406821461010c5780639cd3258214610128578063b5d9509614610159578063bd844513146101755761007d565b80632820c694146100825780634bb915e4146100b85780635e01eb5a146100ee575b600080fd5b61009c6004803603810190610097919061063a565b610191565b6040516100af9796959493929190610880565b60405180910390f35b6100d260048036038101906100cd919061063a565b610256565b6040516100e59796959493929190610880565b60405180910390f35b6100f661031b565b604051610103919061092f565b60405180910390f35b6101266004803603810190610121919061094a565b610344565b005b610142600480360381019061013d919061063a565b6103d7565b60405161015092919061098a565b60405180910390f35b610173600480360381019061016e9190610af6565b610484565b005b61018f600480360381019061018a9190610af6565b610526565b005b6060806060806060806060600260009054906101000a900473ffffffffffffffffffffffffffffffffffffffff1673ffffffffffffffffffffffffffffffffffffffff166398947ec4896040518263ffffffff1660e01b81526004016101f7919061092f565b600060405180830381865afa158015610214573d6000803e3d6000fd5b505050506040513d6000823e3d601f19601f8201168201806040525081019061023d9190610e6e565b9650965096509650965096509650919395979092949650565b6060806060806060806060600360009054906101000a900473ffffffffffffffffffffffffffffffffffffffff1673ffffffffffffffffffffffffffffffffffffffff1663c8dd4f8e896040518263ffffffff1660e01b81526004016102bc919061092f565b600060405180830381865afa1580156102d9573d6000803e3d6000fd5b505050506040513d6000823e3d601f19601f820116820180604052508101906103029190610e6e565b9650965096509650965096509650919395979092949650565b60008060009054906101000a900473ffffffffffffffffffffffffffffffffffffffff16905090565b600460009054906101000a900473ffffffffffffffffffffffffffffffffffffffff1673ffffffffffffffffffffffffffffffffffffffff16630b88dd5583836040518363ffffffff1660e01b81526004016103a1929190610fd4565b600060405180830381600087803b1580156103bb57600080fd5b505af11580156103cf573d6000803e3d6000fd5b505050505050565b606080600460009054906101000a900473ffffffffffffffffffffffffffffffffffffffff1673ffffffffffffffffffffffffffffffffffffffff1663381a3bf7846040518263ffffffff1660e01b8152600401610435919061092f565b600060405180830381865afa158015610452573d6000803e3d6000fd5b505050506040513d6000823e3d601f19601f8201168201806040525081019061047b9190610ffd565b91509150915091565b600360009054906101000a900473ffffffffffffffffffffffffffffffffffffffff1673ffffffffffffffffffffffffffffffffffffffff16631ed6aeec888888888888886040518863ffffffff1660e01b81526004016104eb97969594939291906110bf565b600060405180830381600087803b15801561050557600080fd5b505af1158015610519573d6000803e3d6000fd5b5050505050505050505050565b600260009054906101000a900473ffffffffffffffffffffffffffffffffffffffff1673ffffffffffffffffffffffffffffffffffffffff1663edb2f66c888888888888886040518863ffffffff1660e01b815260040161058d97969594939291906110bf565b600060405180830381600087803b1580156105a757600080fd5b505af11580156105bb573d6000803e3d6000fd5b5050505050505050505050565b6000604051905090565b600080fd5b600080fd5b600073ffffffffffffffffffffffffffffffffffffffff82169050919050565b6000610607826105dc565b9050919050565b610617816105fc565b811461062257600080fd5b50565b6000813590506106348161060e565b92915050565b6000602082840312156106505761064f6105d2565b5b600061065e84828501610625565b91505092915050565b600081519050919050565b600082825260208201905092915050565b6000819050602082019050919050565b61069c816105fc565b82525050565b60006106ae8383610693565b60208301905092915050565b6000602082019050919050565b60006106d282610667565b6106dc8185610672565b93506106e783610683565b8060005b838110156107185781516106ff88826106a2565b975061070a836106ba565b9250506001810190506106eb565b5085935050505092915050565b600081519050919050565b600082825260208201905092915050565b6000819050602082019050919050565b600081519050919050565b600082825260208201905092915050565b60005b8381101561078b578082015181840152602081019050610770565b8381111561079a576000848401525b50505050565b6000601f19601f8301169050919050565b60006107bc82610751565b6107c6818561075c565b93506107d681856020860161076d565b6107df816107a0565b840191505092915050565b60006107f683836107b1565b905092915050565b6000602082019050919050565b600061081682610725565b6108208185610730565b93508360208202850161083285610741565b8060005b8581101561086e578484038952815161084f85826107ea565b945061085a836107fe565b925060208a01995050600181019050610836565b50829750879550505050505092915050565b600060e082019050818103600083015261089a818a6106c7565b905081810360208301526108ae818961080b565b905081810360408301526108c2818861080b565b905081810360608301526108d6818761080b565b905081810360808301526108ea818661080b565b905081810360a08301526108fe818561080b565b905081810360c0830152610912818461080b565b905098975050505050505050565b610929816105fc565b82525050565b60006020820190506109446000830184610920565b92915050565b60008060408385031215610961576109606105d2565b5b600061096f85828601610625565b925050602061098085828601610625565b9150509250929050565b600060408201905081810360008301526109a481856106c7565b905081810360208301526109b881846106c7565b90509392505050565b600080fd5b600080fd5b7f4e487b7100000000000000000000000000000000000000000000000000000000600052604160045260246000fd5b610a03826107a0565b810181811067ffffffffffffffff82111715610a2257610a216109cb565b5b80604052505050565b6000610a356105c8565b9050610a4182826109fa565b919050565b600067ffffffffffffffff821115610a6157610a606109cb565b5b610a6a826107a0565b9050602081019050919050565b82818337600083830152505050565b6000610a99610a9484610a46565b610a2b565b905082815260208101848484011115610ab557610ab46109c6565b5b610ac0848285610a77565b509392505050565b600082601f830112610add57610adc6109c1565b5b8135610aed848260208601610a86565b91505092915050565b600080600080600080600060e0888a031215610b1557610b146105d2565b5b6000610b238a828b01610625565b975050602088013567ffffffffffffffff811115610b4457610b436105d7565b5b610b508a828b01610ac8565b965050604088013567ffffffffffffffff811115610b7157610b706105d7565b5b610b7d8a828b01610ac8565b955050606088013567ffffffffffffffff811115610b9e57610b9d6105d7565b5b610baa8a828b01610ac8565b945050608088013567ffffffffffffffff811115610bcb57610bca6105d7565b5b610bd78a828b01610ac8565b93505060a088013567ffffffffffffffff811115610bf857610bf76105d7565b5b610c048a828b01610ac8565b92505060c088013567ffffffffffffffff811115610c2557610c246105d7565b5b610c318a828b01610ac8565b91505092959891949750929550565b600067ffffffffffffffff821115610c5b57610c5a6109cb565b5b602082029050602081019050919050565b600080fd5b600081519050610c808161060e565b92915050565b6000610c99610c9484610c40565b610a2b565b90508083825260208201905060208402830185811115610cbc57610cbb610c6c565b5b835b81811015610ce55780610cd18882610c71565b845260208401935050602081019050610cbe565b5050509392505050565b600082601f830112610d0457610d036109c1565b5b8151610d14848260208601610c86565b91505092915050565b600067ffffffffffffffff821115610d3857610d376109cb565b5b602082029050602081019050919050565b6000610d5c610d5784610a46565b610a2b565b905082815260208101848484011115610d7857610d776109c6565b5b610d8384828561076d565b509392505050565b600082601f830112610da057610d9f6109c1565b5b8151610db0848260208601610d49565b91505092915050565b6000610dcc610dc784610d1d565b610a2b565b90508083825260208201905060208402830185811115610def57610dee610c6c565b5b835b81811015610e3657805167ffffffffffffffff811115610e1457610e136109c1565b5b808601610e218982610d8b565b85526020850194505050602081019050610df1565b5050509392505050565b600082601f830112610e5557610e546109c1565b5b8151610e65848260208601610db9565b91505092915050565b600080600080600080600060e0888a031215610e8d57610e8c6105d2565b5b600088015167ffffffffffffffff811115610eab57610eaa6105d7565b5b610eb78a828b01610cef565b975050602088015167ffffffffffffffff811115610ed857610ed76105d7565b5b610ee48a828b01610e40565b965050604088015167ffffffffffffffff811115610f0557610f046105d7565b5b610f118a828b01610e40565b955050606088015167ffffffffffffffff811115610f3257610f316105d7565b5b610f3e8a828b01610e40565b945050608088015167ffffffffffffffff811115610f5f57610f5e6105d7565b5b610f6b8a828b01610e40565b93505060a088015167ffffffffffffffff811115610f8c57610f8b6105d7565b5b610f988a828b01610e40565b92505060c088015167ffffffffffffffff811115610fb957610fb86105d7565b5b610fc58a828b01610e40565b91505092959891949750929550565b6000604082019050610fe96000830185610920565b610ff66020830184610920565b9392505050565b60008060408385031215611014576110136105d2565b5b600083015167ffffffffffffffff811115611032576110316105d7565b5b61103e85828601610cef565b925050602083015167ffffffffffffffff81111561105f5761105e6105d7565b5b61106b85828601610cef565b9150509250929050565b600082825260208201905092915050565b600061109182610751565b61109b8185611075565b93506110ab81856020860161076d565b6110b4816107a0565b840191505092915050565b600060e0820190506110d4600083018a610920565b81810360208301526110e68189611086565b905081810360408301526110fa8188611086565b9050818103606083015261110e8187611086565b905081810360808301526111228186611086565b905081810360a08301526111368185611086565b905081810360c083015261114a8184611086565b90509897505050505050505056fea264697066735822122054fdcc974a0b1c381c22eab4815cf03c624bb71c9becf9c397156102b089fd7f64736f6c634300080b0033608060405234801561001057600080fd5b50611771806100206000396000f3fe608060405234801561001057600080fd5b50600436106100415760003560e01c8063670471071461004657806398947ec41461007c578063edb2f66c146100b2575b600080fd5b610060600480360381019061005b9190610f51565b6100ce565b6040516100739796959493929190611058565b60405180910390f35b6100966004803603810190610091919061111d565b610470565b6040516100a99796959493929190611314565b60405180910390f35b6100cc60048036038101906100c791906114e9565b610cf0565b005b600081815481106100de57600080fd5b90600052602060002090600702016000915090508060000160009054906101000a900473ffffffffffffffffffffffffffffffffffffffff169080600101805461012790611662565b80601f016020809104026020016040519081016040528092919081815260200182805461015390611662565b80156101a05780601f10610175576101008083540402835291602001916101a0565b820191906000526020600020905b81548152906001019060200180831161018357829003601f168201915b5050505050908060020180546101b590611662565b80601f01602080910402602001604051908101604052809291908181526020018280546101e190611662565b801561022e5780601f106102035761010080835404028352916020019161022e565b820191906000526020600020905b81548152906001019060200180831161021157829003601f168201915b50505050509080600301805461024390611662565b80601f016020809104026020016040519081016040528092919081815260200182805461026f90611662565b80156102bc5780601f10610291576101008083540402835291602001916102bc565b820191906000526020600020905b81548152906001019060200180831161029f57829003601f168201915b5050505050908060040180546102d190611662565b80601f01602080910402602001604051908101604052809291908181526020018280546102fd90611662565b801561034a5780601f1061031f5761010080835404028352916020019161034a565b820191906000526020600020905b81548152906001019060200180831161032d57829003601f168201915b50505050509080600501805461035f90611662565b80601f016020809104026020016040519081016040528092919081815260200182805461038b90611662565b80156103d85780601f106103ad576101008083540402835291602001916103d8565b820191906000526020600020905b8154815290600101906020018083116103bb57829003601f168201915b5050505050908060060180546103ed90611662565b80601f016020809104026020016040519081016040528092919081815260200182805461041990611662565b80156104665780601f1061043b57610100808354040283529160200191610466565b820191906000526020600020905b81548152906001019060200180831161044957829003601f168201915b5050505050905087565b60608060608060608060606000808054905067ffffffffffffffff81111561049b5761049a6113be565b5b6040519080825280602002602001820160405280156104c95781602001602082028036833780820191505090505b5090506000808054905067ffffffffffffffff8111156104ec576104eb6113be565b5b60405190808252806020026020018201604052801561051f57816020015b606081526020019060019003908161050a5790505b5090506000808054905067ffffffffffffffff811115610542576105416113be565b5b60405190808252806020026020018201604052801561057557816020015b60608152602001906001900390816105605790505b5090506000808054905067ffffffffffffffff811115610598576105976113be565b5b6040519080825280602002602001820160405280156105cb57816020015b60608152602001906001900390816105b65790505b5090506000808054905067ffffffffffffffff8111156105ee576105ed6113be565b5b60405190808252806020026020018201604052801561062157816020015b606081526020019060019003908161060c5790505b5090506000808054905067ffffffffffffffff811115610644576106436113be565b5b60405190808252806020026020018201604052801561067757816020015b60608152602001906001900390816106625790505b5090506000808054905067ffffffffffffffff81111561069a576106996113be565b5b6040519080825280602002602001820160405280156106cd57816020015b60608152602001906001900390816106b85790505b50905060005b600080549050811015610cc8578f73ffffffffffffffffffffffffffffffffffffffff166000828154811061070b5761070a611694565b5b906000526020600020906007020160000160009054906101000a900473ffffffffffffffffffffffffffffffffffffffff1673ffffffffffffffffffffffffffffffffffffffff161415610cb5576000818154811061076d5761076c611694565b5b906000526020600020906007020160000160009054906101000a900473ffffffffffffffffffffffffffffffffffffffff168882815181106107b2576107b1611694565b5b602002602001019073ffffffffffffffffffffffffffffffffffffffff16908173ffffffffffffffffffffffffffffffffffffffff168152505060008181548110610800576107ff611694565b5b9060005260206000209060070201600101805461081c90611662565b80601f016020809104026020016040519081016040528092919081815260200182805461084890611662565b80156108955780601f1061086a57610100808354040283529160200191610895565b820191906000526020600020905b81548152906001019060200180831161087857829003601f168201915b50505050508782815181106108ad576108ac611694565b5b6020026020010181905250600081815481106108cc576108cb611694565b5b906000526020600020906007020160020180546108e890611662565b80601f016020809104026020016040519081016040528092919081815260200182805461091490611662565b80156109615780601f1061093657610100808354040283529160200191610961565b820191906000526020600020905b81548152906001019060200180831161094457829003601f168201915b505050505086828151811061097957610978611694565b5b60200260200101819052506000818154811061099857610997611694565b5b906000526020600020906007020160030180546109b490611662565b80601f01602080910402602001604051908101604052809291908181526020018280546109e090611662565b8015610a2d5780601f10610a0257610100808354040283529160200191610a2d565b820191906000526020600020905b815481529060010190602001808311610a1057829003601f168201915b5050505050858281518110610a4557610a44611694565b5b602002602001018190525060008181548110610a6457610a63611694565b5b90600052602060002090600702016004018054610a8090611662565b80601f0160208091040260200160405190810160405280929190818152602001828054610aac90611662565b8015610af95780601f10610ace57610100808354040283529160200191610af9565b820191906000526020600020905b815481529060010190602001808311610adc57829003601f168201915b5050505050848281518110610b1157610b10611694565b5b602002602001018190525060008181548110610b3057610b2f611694565b5b90600052602060002090600702016005018054610b4c90611662565b80601f0160208091040260200160405190810160405280929190818152602001828054610b7890611662565b8015610bc55780601f10610b9a57610100808354040283529160200191610bc5565b820191906000526020600020905b815481529060010190602001808311610ba857829003601f168201915b5050505050838281518110610bdd57610bdc611694565b5b602002602001018190525060008181548110610bfc57610bfb611694565b5b90600052602060002090600702016006018054610c1890611662565b80601f0160208091040260200160405190810160405280929190818152602001828054610c4490611662565b8015610c915780601f10610c6657610100808354040283529160200191610c91565b820191906000526020600020905b815481529060010190602001808311610c7457829003601f168201915b5050505050828281518110610ca957610ca8611694565b5b60200260200101819052505b8080610cc0906116f2565b9150506106d3565b50868686868686869d509d509d509d509d509d509d5050505050505050919395979092949650565b60006040518060e001604052808973ffffffffffffffffffffffffffffffffffffffff16815260200188815260200187815260200186815260200185815260200184815260200183815250908060018154018082558091505060019003906000526020600020906007020160009091909190915060008201518160000160006101000a81548173ffffffffffffffffffffffffffffffffffffffff021916908373ffffffffffffffffffffffffffffffffffffffff1602179055506020820151816001019080519060200190610dc7929190610e64565b506040820151816002019080519060200190610de4929190610e64565b506060820151816003019080519060200190610e01929190610e64565b506080820151816004019080519060200190610e1e929190610e64565b5060a0820151816005019080519060200190610e3b929190610e64565b5060c0820151816006019080519060200190610e58929190610e64565b50505050505050505050565b828054610e7090611662565b90600052602060002090601f016020900481019282610e925760008555610ed9565b82601f10610eab57805160ff1916838001178555610ed9565b82800160010185558215610ed9579182015b82811115610ed8578251825591602001919060010190610ebd565b5b509050610ee69190610eea565b5090565b5b80821115610f03576000816000905550600101610eeb565b5090565b6000604051905090565b600080fd5b600080fd5b6000819050919050565b610f2e81610f1b565b8114610f3957600080fd5b50565b600081359050610f4b81610f25565b92915050565b600060208284031215610f6757610f66610f11565b5b6000610f7584828501610f3c565b91505092915050565b600073ffffffffffffffffffffffffffffffffffffffff82169050919050565b6000610fa982610f7e565b9050919050565b610fb981610f9e565b82525050565b600081519050919050565b600082825260208201905092915050565b60005b83811015610ff9578082015181840152602081019050610fde565b83811115611008576000848401525b50505050565b6000601f19601f8301169050919050565b600061102a82610fbf565b6110348185610fca565b9350611044818560208601610fdb565b61104d8161100e565b840191505092915050565b600060e08201905061106d600083018a610fb0565b818103602083015261107f818961101f565b90508181036040830152611093818861101f565b905081810360608301526110a7818761101f565b905081810360808301526110bb818661101f565b905081810360a08301526110cf818561101f565b905081810360c08301526110e3818461101f565b905098975050505050505050565b6110fa81610f9e565b811461110557600080fd5b50565b600081359050611117816110f1565b92915050565b60006020828403121561113357611132610f11565b5b600061114184828501611108565b91505092915050565b600081519050919050565b600082825260208201905092915050565b6000819050602082019050919050565b61117f81610f9e565b82525050565b60006111918383611176565b60208301905092915050565b6000602082019050919050565b60006111b58261114a565b6111bf8185611155565b93506111ca83611166565b8060005b838110156111fb5781516111e28882611185565b97506111ed8361119d565b9250506001810190506111ce565b5085935050505092915050565b600081519050919050565b600082825260208201905092915050565b6000819050602082019050919050565b600082825260208201905092915050565b600061125082610fbf565b61125a8185611234565b935061126a818560208601610fdb565b6112738161100e565b840191505092915050565b600061128a8383611245565b905092915050565b6000602082019050919050565b60006112aa82611208565b6112b48185611213565b9350836020820285016112c685611224565b8060005b8581101561130257848403895281516112e3858261127e565b94506112ee83611292565b925060208a019950506001810190506112ca565b50829750879550505050505092915050565b600060e082019050818103600083015261132e818a6111aa565b90508181036020830152611342818961129f565b90508181036040830152611356818861129f565b9050818103606083015261136a818761129f565b9050818103608083015261137e818661129f565b905081810360a0830152611392818561129f565b905081810360c08301526113a6818461129f565b905098975050505050505050565b600080fd5b600080fd5b7f4e487b7100000000000000000000000000000000000000000000000000000000600052604160045260246000fd5b6113f68261100e565b810181811067ffffffffffffffff82111715611415576114146113be565b5b80604052505050565b6000611428610f07565b905061143482826113ed565b919050565b600067ffffffffffffffff821115611454576114536113be565b5b61145d8261100e565b9050602081019050919050565b82818337600083830152505050565b600061148c61148784611439565b61141e565b9050828152602081018484840111156114a8576114a76113b9565b5b6114b384828561146a565b509392505050565b600082601f8301126114d0576114cf6113b4565b5b81356114e0848260208601611479565b91505092915050565b600080600080600080600060e0888a03121561150857611507610f11565b5b60006115168a828b01611108565b975050602088013567ffffffffffffffff81111561153757611536610f16565b5b6115438a828b016114bb565b965050604088013567ffffffffffffffff81111561156457611563610f16565b5b6115708a828b016114bb565b955050606088013567ffffffffffffffff81111561159157611590610f16565b5b61159d8a828b016114bb565b945050608088013567ffffffffffffffff8111156115be576115bd610f16565b5b6115ca8a828b016114bb565b93505060a088013567ffffffffffffffff8111156115eb576115ea610f16565b5b6115f78a828b016114bb565b92505060c088013567ffffffffffffffff81111561161857611617610f16565b5b6116248a828b016114bb565b91505092959891949750929550565b7f4e487b7100000000000000000000000000000000000000000000000000000000600052602260045260246000fd5b6000600282049050600182168061167a57607f821691505b6020821081141561168e5761168d611633565b5b50919050565b7f4e487b7100000000000000000000000000000000000000000000000000000000600052603260045260246000fd5b7f4e487b7100000000000000000000000000000000000000000000000000000000600052601160045260246000fd5b60006116fd82610f1b565b91507fffffffffffffffffffffffffffffffffffffffffffffffffffffffffffffffff8214156117305761172f6116c3565b5b60018201905091905056fea2646970667358221220fed91030d66e5b1ac9356b9b6ac2feee5f024ce4a978ea5d778db16397f7da4964736f6c634300080b0033608060405234801561001057600080fd5b50611771806100206000396000f3fe608060405234801561001057600080fd5b50600436106100415760003560e01c80631ed6aeec14610046578063bf44b30314610062578063c8dd4f8e14610098575b600080fd5b610060600480360381019061005b91906110bf565b6100ce565b005b61007c6004803603810190610077919061123f565b610242565b60405161008f9796959493929190611303565b60405180910390f35b6100b260048036038101906100ad919061139c565b6105e4565b6040516100c59796959493929190611593565b60405180910390f35b60006040518060e001604052808973ffffffffffffffffffffffffffffffffffffffff16815260200188815260200187815260200186815260200185815260200184815260200183815250908060018154018082558091505060019003906000526020600020906007020160009091909190915060008201518160000160006101000a81548173ffffffffffffffffffffffffffffffffffffffff021916908373ffffffffffffffffffffffffffffffffffffffff16021790555060208201518160010190805190602001906101a5929190610e64565b5060408201518160020190805190602001906101c2929190610e64565b5060608201518160030190805190602001906101df929190610e64565b5060808201518160040190805190602001906101fc929190610e64565b5060a0820151816005019080519060200190610219929190610e64565b5060c0820151816006019080519060200190610236929190610e64565b50505050505050505050565b6000818154811061025257600080fd5b90600052602060002090600702016000915090508060000160009054906101000a900473ffffffffffffffffffffffffffffffffffffffff169080600101805461029b90611662565b80601f01602080910402602001604051908101604052809291908181526020018280546102c790611662565b80156103145780601f106102e957610100808354040283529160200191610314565b820191906000526020600020905b8154815290600101906020018083116102f757829003601f168201915b50505050509080600201805461032990611662565b80601f016020809104026020016040519081016040528092919081815260200182805461035590611662565b80156103a25780601f10610377576101008083540402835291602001916103a2565b820191906000526020600020905b81548152906001019060200180831161038557829003601f168201915b5050505050908060030180546103b790611662565b80601f01602080910402602001604051908101604052809291908181526020018280546103e390611662565b80156104305780601f1061040557610100808354040283529160200191610430565b820191906000526020600020905b81548152906001019060200180831161041357829003601f168201915b50505050509080600401805461044590611662565b80601f016020809104026020016040519081016040528092919081815260200182805461047190611662565b80156104be5780601f10610493576101008083540402835291602001916104be565b820191906000526020600020905b8154815290600101906020018083116104a157829003601f168201915b5050505050908060050180546104d390611662565b80601f01602080910402602001604051908101604052809291908181526020018280546104ff90611662565b801561054c5780601f106105215761010080835404028352916020019161054c565b820191906000526020600020905b81548152906001019060200180831161052f57829003601f168201915b50505050509080600601805461056190611662565b80601f016020809104026020016040519081016040528092919081815260200182805461058d90611662565b80156105da5780601f106105af576101008083540402835291602001916105da565b820191906000526020600020905b8154815290600101906020018083116105bd57829003601f168201915b5050505050905087565b60608060608060608060606000808054905067ffffffffffffffff81111561060f5761060e610f94565b5b60405190808252806020026020018201604052801561063d5781602001602082028036833780820191505090505b5090506000808054905067ffffffffffffffff8111156106605761065f610f94565b5b60405190808252806020026020018201604052801561069357816020015b606081526020019060019003908161067e5790505b5090506000808054905067ffffffffffffffff8111156106b6576106b5610f94565b5b6040519080825280602002602001820160405280156106e957816020015b60608152602001906001900390816106d45790505b5090506000808054905067ffffffffffffffff81111561070c5761070b610f94565b5b60405190808252806020026020018201604052801561073f57816020015b606081526020019060019003908161072a5790505b5090506000808054905067ffffffffffffffff81111561076257610761610f94565b5b60405190808252806020026020018201604052801561079557816020015b60608152602001906001900390816107805790505b5090506000808054905067ffffffffffffffff8111156107b8576107b7610f94565b5b6040519080825280602002602001820160405280156107eb57816020015b60608152602001906001900390816107d65790505b5090506000808054905067ffffffffffffffff81111561080e5761080d610f94565b5b60405190808252806020026020018201604052801561084157816020015b606081526020019060019003908161082c5790505b50905060005b600080549050811015610e3c578f73ffffffffffffffffffffffffffffffffffffffff166000828154811061087f5761087e611694565b5b906000526020600020906007020160000160009054906101000a900473ffffffffffffffffffffffffffffffffffffffff1673ffffffffffffffffffffffffffffffffffffffff161415610e2957600081815481106108e1576108e0611694565b5b906000526020600020906007020160000160009054906101000a900473ffffffffffffffffffffffffffffffffffffffff1688828151811061092657610925611694565b5b602002602001019073ffffffffffffffffffffffffffffffffffffffff16908173ffffffffffffffffffffffffffffffffffffffff16815250506000818154811061097457610973611694565b5b9060005260206000209060070201600101805461099090611662565b80601f01602080910402602001604051908101604052809291908181526020018280546109bc90611662565b8015610a095780601f106109de57610100808354040283529160200191610a09565b820191906000526020600020905b8154815290600101906020018083116109ec57829003601f168201915b5050505050878281518110610a2157610a20611694565b5b602002602001018190525060008181548110610a4057610a3f611694565b5b90600052602060002090600702016002018054610a5c90611662565b80601f0160208091040260200160405190810160405280929190818152602001828054610a8890611662565b8015610ad55780601f10610aaa57610100808354040283529160200191610ad5565b820191906000526020600020905b815481529060010190602001808311610ab857829003601f168201915b5050505050868281518110610aed57610aec611694565b5b602002602001018190525060008181548110610b0c57610b0b611694565b5b90600052602060002090600702016003018054610b2890611662565b80601f0160208091040260200160405190810160405280929190818152602001828054610b5490611662565b8015610ba15780601f10610b7657610100808354040283529160200191610ba1565b820191906000526020600020905b815481529060010190602001808311610b8457829003601f168201915b5050505050858281518110610bb957610bb8611694565b5b602002602001018190525060008181548110610bd857610bd7611694565b5b90600052602060002090600702016004018054610bf490611662565b80601f0160208091040260200160405190810160405280929190818152602001828054610c2090611662565b8015610c6d5780601f10610c4257610100808354040283529160200191610c6d565b820191906000526020600020905b815481529060010190602001808311610c5057829003601f168201915b5050505050848281518110610c8557610c84611694565b5b602002602001018190525060008181548110610ca457610ca3611694565b5b90600052602060002090600702016005018054610cc090611662565b80601f0160208091040260200160405190810160405280929190818152602001828054610cec90611662565b8015610d395780601f10610d0e57610100808354040283529160200191610d39565b820191906000526020600020905b815481529060010190602001808311610d1c57829003601f168201915b5050505050838281518110610d5157610d50611694565b5b602002602001018190525060008181548110610d7057610d6f611694565b5b90600052602060002090600702016006018054610d8c90611662565b80601f0160208091040260200160405190810160405280929190818152602001828054610db890611662565b8015610e055780601f10610dda57610100808354040283529160200191610e05565b820191906000526020600020905b815481529060010190602001808311610de857829003601f168201915b5050505050828281518110610e1d57610e1c611694565b5b60200260200101819052505b8080610e34906116f2565b915050610847565b50868686868686869d509d509d509d509d509d509d5050505050505050919395979092949650565b828054610e7090611662565b90600052602060002090601f016020900481019282610e925760008555610ed9565b82601f10610eab57805160ff1916838001178555610ed9565b82800160010185558215610ed9579182015b82811115610ed8578251825591602001919060010190610ebd565b5b509050610ee69190610eea565b5090565b5b80821115610f03576000816000905550600101610eeb565b5090565b6000604051905090565b600080fd5b600080fd5b600073ffffffffffffffffffffffffffffffffffffffff82169050919050565b6000610f4682610f1b565b9050919050565b610f5681610f3b565b8114610f6157600080fd5b50565b600081359050610f7381610f4d565b92915050565b600080fd5b600080fd5b6000601f19601f8301169050919050565b7f4e487b7100000000000000000000000000000000000000000000000000000000600052604160045260246000fd5b610fcc82610f83565b810181811067ffffffffffffffff82111715610feb57610fea610f94565b5b80604052505050565b6000610ffe610f07565b905061100a8282610fc3565b919050565b600067ffffffffffffffff82111561102a57611029610f94565b5b61103382610f83565b9050602081019050919050565b82818337600083830152505050565b600061106261105d8461100f565b610ff4565b90508281526020810184848401111561107e5761107d610f7e565b5b611089848285611040565b509392505050565b600082601f8301126110a6576110a5610f79565b5b81356110b684826020860161104f565b91505092915050565b600080600080600080600060e0888a0312156110de576110dd610f11565b5b60006110ec8a828b01610f64565b975050602088013567ffffffffffffffff81111561110d5761110c610f16565b5b6111198a828b01611091565b965050604088013567ffffffffffffffff81111561113a57611139610f16565b5b6111468a828b01611091565b955050606088013567ffffffffffffffff81111561116757611166610f16565b5b6111738a828b01611091565b945050608088013567ffffffffffffffff81111561119457611193610f16565b5b6111a08a828b01611091565b93505060a088013567ffffffffffffffff8111156111c1576111c0610f16565b5b6111cd8a828b01611091565b92505060c088013567ffffffffffffffff8111156111ee576111ed610f16565b5b6111fa8a828b01611091565b91505092959891949750929550565b6000819050919050565b61121c81611209565b811461122757600080fd5b50565b60008135905061123981611213565b92915050565b60006020828403121561125557611254610f11565b5b60006112638482850161122a565b91505092915050565b61127581610f3b565b82525050565b600081519050919050565b600082825260208201905092915050565b60005b838110156112b557808201518184015260208101905061129a565b838111156112c4576000848401525b50505050565b60006112d58261127b565b6112df8185611286565b93506112ef818560208601611297565b6112f881610f83565b840191505092915050565b600060e082019050611318600083018a61126c565b818103602083015261132a81896112ca565b9050818103604083015261133e81886112ca565b9050818103606083015261135281876112ca565b9050818103608083015261136681866112ca565b905081810360a083015261137a81856112ca565b905081810360c083015261138e81846112ca565b905098975050505050505050565b6000602082840312156113b2576113b1610f11565b5b60006113c084828501610f64565b91505092915050565b600081519050919050565b600082825260208201905092915050565b6000819050602082019050919050565b6113fe81610f3b565b82525050565b600061141083836113f5565b60208301905092915050565b6000602082019050919050565b6000611434826113c9565b61143e81856113d4565b9350611449836113e5565b8060005b8381101561147a5781516114618882611404565b975061146c8361141c565b92505060018101905061144d565b5085935050505092915050565b600081519050919050565b600082825260208201905092915050565b6000819050602082019050919050565b600082825260208201905092915050565b60006114cf8261127b565b6114d981856114b3565b93506114e9818560208601611297565b6114f281610f83565b840191505092915050565b600061150983836114c4565b905092915050565b6000602082019050919050565b600061152982611487565b6115338185611492565b935083602082028501611545856114a3565b8060005b85811015611581578484038952815161156285826114fd565b945061156d83611511565b925060208a01995050600181019050611549565b50829750879550505050505092915050565b600060e08201905081810360008301526115ad818a611429565b905081810360208301526115c1818961151e565b905081810360408301526115d5818861151e565b905081810360608301526115e9818761151e565b905081810360808301526115fd818661151e565b905081810360a0830152611611818561151e565b905081810360c0830152611625818461151e565b905098975050505050505050565b7f4e487b7100000000000000000000000000000000000000000000000000000000600052602260045260246000fd5b6000600282049050600182168061167a57607f821691505b6020821081141561168e5761168d611633565b5b50919050565b7f4e487b7100000000000000000000000000000000000000000000000000000000600052603260045260246000fd5b7f4e487b7100000000000000000000000000000000000000000000000000000000600052601160045260246000fd5b60006116fd82611209565b91507fffffffffffffffffffffffffffffffffffffffffffffffffffffffffffffffff8214156117305761172f6116c3565b5b60018201905091905056fea264697066735822122029617ea97f3fa0214ca33ea31dc4f78c6b82d1da98b8b9323f6ee9bb61f4d5ec64736f6c634300080b0033608060405234801561001057600080fd5b5061081a806100206000396000f3fe608060405234801561001057600080fd5b50600436106100415760003560e01c80630b88dd5514610046578063381a3bf7146100625780637aedcde514610093575b600080fd5b610060600480360381019061005b9190610511565b6100c4565b005b61007c60048036038101906100779190610551565b6101c4565b60405161008a92919061063c565b60405180910390f35b6100ad60048036038101906100a891906106a9565b61043a565b6040516100bb9291906106e5565b60405180910390f35b600060405180604001604052808473ffffffffffffffffffffffffffffffffffffffff1681526020018373ffffffffffffffffffffffffffffffffffffffff16815250908060018154018082558091505060019003906000526020600020906002020160009091909190915060008201518160000160006101000a81548173ffffffffffffffffffffffffffffffffffffffff021916908373ffffffffffffffffffffffffffffffffffffffff16021790555060208201518160010160006101000a81548173ffffffffffffffffffffffffffffffffffffffff021916908373ffffffffffffffffffffffffffffffffffffffff16021790555050505050565b6060806000808054905067ffffffffffffffff8111156101e7576101e661070e565b5b6040519080825280602002602001820160405280156102155781602001602082028036833780820191505090505b5090506000808054905067ffffffffffffffff8111156102385761023761070e565b5b6040519080825280602002602001820160405280156102665781602001602082028036833780820191505090505b50905060005b60008054905081101561042c578573ffffffffffffffffffffffffffffffffffffffff16600082815481106102a4576102a361073d565b5b906000526020600020906002020160010160009054906101000a900473ffffffffffffffffffffffffffffffffffffffff1673ffffffffffffffffffffffffffffffffffffffff16141561041957600081815481106103065761030561073d565b5b906000526020600020906002020160000160009054906101000a900473ffffffffffffffffffffffffffffffffffffffff1683828151811061034b5761034a61073d565b5b602002602001019073ffffffffffffffffffffffffffffffffffffffff16908173ffffffffffffffffffffffffffffffffffffffff1681525050600081815481106103995761039861073d565b5b906000526020600020906002020160010160009054906101000a900473ffffffffffffffffffffffffffffffffffffffff168282815181106103de576103dd61073d565b5b602002602001019073ffffffffffffffffffffffffffffffffffffffff16908173ffffffffffffffffffffffffffffffffffffffff16815250505b80806104249061079b565b91505061026c565b508181935093505050915091565b6000818154811061044a57600080fd5b90600052602060002090600202016000915090508060000160009054906101000a900473ffffffffffffffffffffffffffffffffffffffff16908060010160009054906101000a900473ffffffffffffffffffffffffffffffffffffffff16905082565b600080fd5b600073ffffffffffffffffffffffffffffffffffffffff82169050919050565b60006104de826104b3565b9050919050565b6104ee816104d3565b81146104f957600080fd5b50565b60008135905061050b816104e5565b92915050565b60008060408385031215610528576105276104ae565b5b6000610536858286016104fc565b9250506020610547858286016104fc565b9150509250929050565b600060208284031215610567576105666104ae565b5b6000610575848285016104fc565b91505092915050565b600081519050919050565b600082825260208201905092915050565b6000819050602082019050919050565b6105b3816104d3565b82525050565b60006105c583836105aa565b60208301905092915050565b6000602082019050919050565b60006105e98261057e565b6105f38185610589565b93506105fe8361059a565b8060005b8381101561062f57815161061688826105b9565b9750610621836105d1565b925050600181019050610602565b5085935050505092915050565b6000604082019050818103600083015261065681856105de565b9050818103602083015261066a81846105de565b90509392505050565b6000819050919050565b61068681610673565b811461069157600080fd5b50565b6000813590506106a38161067d565b92915050565b6000602082840312156106bf576106be6104ae565b5b60006106cd84828501610694565b91505092915050565b6106df816104d3565b82525050565b60006040820190506106fa60008301856106d6565b61070760208301846106d6565b9392505050565b7f4e487b7100000000000000000000000000000000000000000000000000000000600052604160045260246000fd5b7f4e487b7100000000000000000000000000000000000000000000000000000000600052603260045260246000fd5b7f4e487b7100000000000000000000000000000000000000000000000000000000600052601160045260246000fd5b60006107a682610673565b91507fffffffffffffffffffffffffffffffffffffffffffffffffffffffffffffffff8214156107d9576107d861076c565b5b60018201905091905056fea26469706673582212203e9882f2857ada7565c2f708b972c7f25216a1f18a20699efdedc583fe356fe764736f6c634300080b0033",
  "immutableReferences": {},
  "source": "// SPDX-License-Identifier: MIT\npragma solidity >=0.4.22 <0.9.0;\n\nimport \"./SmartCV_ListStudent.sol\";\nimport \"./SmartCV_ListBusiness.sol\";\nimport \"./SmartCV_Apply.sol\";\n\n//CV dnh cho sinh vin\ncontract Student {\n\n    //Khai bo bin a ch ngi dng\n    address owner;\n\n    // Khai bo bin s d ca ngi dng\n    mapping(address=>uint) balances;\n\n    //Khai contract  import  s dng cc function  contract \n    ListStudent listStudent = new ListStudent();\n    ListBusiness listBusiness = new ListBusiness();\n    ApplyCV applyCV = new ApplyCV();\n    // Business business = new Business();\n\n    // Gn a ch cho ngi dng\n    constructor () public {\n        owner =  msg.sender;\n    }\n\n    // Kim tra a ch ngi dng\n    function getSender() public view returns (address){\n        return owner;\n    }\n\n    // ======================================\n    // ======= Student Functions ============\n    // ======================================\n\n    // Thm thng tin sinh vin (ng k)\n    function addStudentProfile (\n        address _studentOwner,\n        string memory _name,\n        string memory _birthDay,\n        string memory _professionalTitle,\n        string memory _email,\n        string memory _github,\n        string memory _linked) public {\n            listStudent.addSV(_studentOwner, _name, _birthDay, _professionalTitle, _email, _github, _linked);\n    }\n\n    function getListStudent(address _studentOwner) public view returns(address[] memory, string[] memory, string[] memory, string[] memory, string[] memory, string[] memory, string[] memory)  {\n        return listStudent.getListSV(_studentOwner);\n    }\n\n    // //Gi CV\n    function sendCV(address _studentOwner, address _businessOwner) public {\n        applyCV.addCV(_studentOwner, _businessOwner);\n    }\n\n    // ======================================\n    // ======= Business Functions ===========\n    // ======================================\n\n    // Thm thng tin doanh nghip (ng k)\n    function addBusinessProfile (\n        address _businessOwner,\n        string memory _name,\n        string memory _country,\n        string memory _facebook,\n        string memory _website,\n        string memory _linkedin,\n        string memory _focusArea) public {\n            listBusiness.addDN(_businessOwner, _name, _country, _facebook, _website, _linkedin, _focusArea);\n    }\n\n    function getListBusiness(address _businessOwner) public view returns(address[] memory, string[] memory, string[] memory, string[] memory, string[] memory, string[] memory, string[] memory)  {\n        return listBusiness.getListDN(_businessOwner);\n    }\n\n    // // Ly danh sch CV np vo cng ty\n    function getListCV(address _businessOwner) public view returns(address[] memory, address[] memory)  {\n        return applyCV.getCV(_businessOwner);\n    }\n\n}\n\n",
  "sourcePath": "C:\\Users\\19520\\Documents\\NCKH_Blockchain\\IS_cv\\contracts\\SmartCV_Student.sol",
  "compiler": {
    "name": "solc",
    "version": "0.8.11+commit.d7f03943.Emscripten.clang"
  },
  "schemaVersion": "3.4.4",
  "updatedAt": "2022-06-24T07:30:26.084Z",
  "networkType": "ethereum",
  "devdoc": {
    "kind": "dev",
    "methods": {},
    "version": 1
  },
  "userdoc": {
    "kind": "user",
    "methods": {},
    "version": 1
  }
}