{
  "contractName": "Student",
  "abi": [
    {
      "inputs": [],
      "stateMutability": "nonpayable",
      "type": "constructor"
    },
    {
      "inputs": [],
      "name": "getSender",
      "outputs": [
        {
          "internalType": "address",
          "name": "",
          "type": "address"
        }
      ],
      "stateMutability": "view",
      "type": "function",
      "constant": true
    },
    {
      "inputs": [
        {
          "internalType": "address",
          "name": "_studentOwner",
          "type": "address"
        },
        {
          "internalType": "string",
          "name": "_name",
          "type": "string"
        },
        {
          "internalType": "string",
          "name": "_birthDay",
          "type": "string"
        },
        {
          "internalType": "string",
          "name": "_professionalTitle",
          "type": "string"
        },
        {
          "internalType": "string",
          "name": "_email",
          "type": "string"
        },
        {
          "internalType": "string",
          "name": "_github",
          "type": "string"
        },
        {
          "internalType": "string",
          "name": "_linked",
          "type": "string"
        },
        {
          "internalType": "string",
          "name": "_password",
          "type": "string"
        }
      ],
      "name": "addStudentProfile",
      "outputs": [],
      "stateMutability": "nonpayable",
      "type": "function"
    },
    {
      "inputs": [
        {
          "internalType": "address",
          "name": "_studentOwner",
          "type": "address"
        }
      ],
      "name": "getStudentProfile",
      "outputs": [
        {
          "internalType": "address",
          "name": "studentOwner",
          "type": "address"
        },
        {
          "internalType": "string",
          "name": "name",
          "type": "string"
        },
        {
          "internalType": "string",
          "name": "birthDay",
          "type": "string"
        },
        {
          "internalType": "string",
          "name": "professionalTitle",
          "type": "string"
        },
        {
          "internalType": "string",
          "name": "email",
          "type": "string"
        },
        {
          "internalType": "string",
          "name": "github",
          "type": "string"
        },
        {
          "internalType": "string",
          "name": "linkedin",
          "type": "string"
        },
        {
          "internalType": "string",
          "name": "password",
          "type": "string"
        }
      ],
      "stateMutability": "view",
      "type": "function",
      "constant": true
    },
    {
      "inputs": [
        {
          "internalType": "address",
          "name": "_studentOwner",
          "type": "address"
        },
        {
          "internalType": "string",
          "name": "_password",
          "type": "string"
        }
      ],
      "name": "checkStudentProfile",
      "outputs": [
        {
          "internalType": "uint256",
          "name": "",
          "type": "uint256"
        }
      ],
      "stateMutability": "view",
      "type": "function",
      "constant": true
    },
    {
      "inputs": [
        {
          "internalType": "address",
          "name": "_studentOwner",
          "type": "address"
        },
        {
          "internalType": "string",
          "name": "_title",
          "type": "string"
        },
        {
          "internalType": "uint256",
          "name": "_level",
          "type": "uint256"
        }
      ],
      "name": "addStudentSkill",
      "outputs": [],
      "stateMutability": "nonpayable",
      "type": "function"
    },
    {
      "inputs": [
        {
          "internalType": "address",
          "name": "_studentOwner",
          "type": "address"
        }
      ],
      "name": "getStudentSkill",
      "outputs": [
        {
          "internalType": "string[]",
          "name": "",
          "type": "string[]"
        },
        {
          "internalType": "uint256[]",
          "name": "",
          "type": "uint256[]"
        }
      ],
      "stateMutability": "view",
      "type": "function",
      "constant": true
    },
    {
      "inputs": [
        {
          "internalType": "address",
          "name": "_studentOwner",
          "type": "address"
        },
        {
          "internalType": "address",
          "name": "_businessOwner",
          "type": "address"
        }
      ],
      "name": "sendCV",
      "outputs": [],
      "stateMutability": "nonpayable",
      "type": "function"
    },
    {
      "inputs": [
        {
          "internalType": "address",
          "name": "_studentOwner",
          "type": "address"
        },
        {
          "internalType": "address",
          "name": "_businessOwner",
          "type": "address"
        }
      ],
      "name": "getReview",
      "outputs": [
        {
          "internalType": "address",
          "name": "studentOwner",
          "type": "address"
        },
        {
          "internalType": "address",
          "name": "businessOwner",
          "type": "address"
        },
        {
          "internalType": "string",
          "name": "content",
          "type": "string"
        }
      ],
      "stateMutability": "view",
      "type": "function",
      "constant": true
    },
    {
      "inputs": [
        {
          "internalType": "address",
          "name": "_businessOwner",
          "type": "address"
        },
        {
          "internalType": "string",
          "name": "_name",
          "type": "string"
        },
        {
          "internalType": "string",
          "name": "_country",
          "type": "string"
        },
        {
          "internalType": "string",
          "name": "_facebook",
          "type": "string"
        },
        {
          "internalType": "string",
          "name": "_website",
          "type": "string"
        },
        {
          "internalType": "string",
          "name": "_linkedin",
          "type": "string"
        },
        {
          "internalType": "string",
          "name": "_focusArea",
          "type": "string"
        }
      ],
      "name": "addBusinessProfile",
      "outputs": [],
      "stateMutability": "nonpayable",
      "type": "function"
    },
    {
      "inputs": [
        {
          "internalType": "address",
          "name": "_businessOwner",
          "type": "address"
        }
      ],
      "name": "getBusinessProfile",
      "outputs": [
        {
          "internalType": "address",
          "name": "businessOwner",
          "type": "address"
        },
        {
          "internalType": "string",
          "name": "name",
          "type": "string"
        },
        {
          "internalType": "string",
          "name": "country",
          "type": "string"
        },
        {
          "internalType": "string",
          "name": "facebook",
          "type": "string"
        },
        {
          "internalType": "string",
          "name": "website",
          "type": "string"
        },
        {
          "internalType": "string",
          "name": "linkedin",
          "type": "string"
        },
        {
          "internalType": "string",
          "name": "focusArea",
          "type": "string"
        }
      ],
      "stateMutability": "view",
      "type": "function",
      "constant": true
    },
    {
      "inputs": [
        {
          "internalType": "address",
          "name": "_businessOwner",
          "type": "address"
        }
      ],
      "name": "getListCV",
      "outputs": [
        {
          "internalType": "address[]",
          "name": "",
          "type": "address[]"
        },
        {
          "internalType": "address[]",
          "name": "",
          "type": "address[]"
        }
      ],
      "stateMutability": "view",
      "type": "function",
      "constant": true
    },
    {
      "inputs": [],
      "name": "getListDN",
      "outputs": [
        {
          "internalType": "address[]",
          "name": "",
          "type": "address[]"
        },
        {
          "internalType": "string[]",
          "name": "",
          "type": "string[]"
        },
        {
          "internalType": "string[]",
          "name": "",
          "type": "string[]"
        },
        {
          "internalType": "string[]",
          "name": "",
          "type": "string[]"
        },
        {
          "internalType": "string[]",
          "name": "",
          "type": "string[]"
        },
        {
          "internalType": "string[]",
          "name": "",
          "type": "string[]"
        },
        {
          "internalType": "string[]",
          "name": "",
          "type": "string[]"
        }
      ],
      "stateMutability": "view",
      "type": "function",
      "constant": true
    },
    {
      "inputs": [
        {
          "internalType": "address",
          "name": "_studentOwner",
          "type": "address"
        },
        {
          "internalType": "address",
          "name": "_businessOwner",
          "type": "address"
        },
        {
          "internalType": "string",
          "name": "_content",
          "type": "string"
        }
      ],
      "name": "sendReview",
      "outputs": [],
      "stateMutability": "nonpayable",
      "type": "function"
    }
  ],
  "bytecode": "0x608060405260405162000012906200019c565b604051809103906000f0801580156200002f573d6000803e3d6000fd5b50600260006101000a81548173ffffffffffffffffffffffffffffffffffffffff021916908373ffffffffffffffffffffffffffffffffffffffff1602179055506040516200007e90620001aa565b604051809103906000f0801580156200009b573d6000803e3d6000fd5b50600360006101000a81548173ffffffffffffffffffffffffffffffffffffffff021916908373ffffffffffffffffffffffffffffffffffffffff160217905550604051620000ea90620001b8565b604051809103906000f08015801562000107573d6000803e3d6000fd5b50600460006101000a81548173ffffffffffffffffffffffffffffffffffffffff021916908373ffffffffffffffffffffffffffffffffffffffff1602179055503480156200015557600080fd5b50336000806101000a81548173ffffffffffffffffffffffffffffffffffffffff021916908373ffffffffffffffffffffffffffffffffffffffff160217905550620001c6565b612aa980620022af83390190565b611e268062004d5883390190565b6112a08062006b7e83390190565b6120d980620001d66000396000f3fe608060405234801561001057600080fd5b50600436106100cf5760003560e01c80639cd325821161008c578063cfafbc0c11610066578063cfafbc0c1461022a578063e2f43af21461024e578063e9daa70a1461026a578063fe7617831461029c576100cf565b80639cd32582146101ad578063acf6f3fd146101de578063b5d950961461020e576100cf565b80631632dd98146100d457806342f08d4b146100f05780635b288a93146101265780635e01eb5a1461014257806366b40682146101605780636b4dbb281461017c575b600080fd5b6100ee60048036038101906100e99190610cb7565b6102d3565b005b61010a60048036038101906101059190610d26565b610369565b60405161011d9796959493929190610dea565b60405180910390f35b610140600480360381019061013b9190610e83565b61042e565b005b61014a6104d3565b6040516101579190610ffd565b60405180910390f35b61017a60048036038101906101759190611018565b6104fc565b005b61019660048036038101906101919190610d26565b61058f565b6040516101a492919061122c565b60405180910390f35b6101c760048036038101906101c29190610d26565b61063c565b6040516101d5929190611321565b60405180910390f35b6101f860048036038101906101f39190611358565b6106e9565b60405161020591906113c3565b60405180910390f35b610228600480360381019061022391906113de565b610791565b005b610232610833565b6040516102459796959493929190611528565b60405180910390f35b610268600480360381019061026391906115f4565b6108eb565b005b610284600480360381019061027f9190611018565b610981565b60405161029393929190611663565b60405180910390f35b6102b660048036038101906102b19190610d26565b610a36565b6040516102ca9897969594939291906116a1565b60405180910390f35b600460009054906101000a900473ffffffffffffffffffffffffffffffffffffffff1673ffffffffffffffffffffffffffffffffffffffff1663ae8f00d38484846040518463ffffffff1660e01b815260040161033293929190611663565b600060405180830381600087803b15801561034c57600080fd5b505af1158015610360573d6000803e3d6000fd5b50505050505050565b6000606080606080606080600360009054906101000a900473ffffffffffffffffffffffffffffffffffffffff1673ffffffffffffffffffffffffffffffffffffffff16630f53a470896040518263ffffffff1660e01b81526004016103cf9190610ffd565b600060405180830381865afa1580156103ec573d6000803e3d6000fd5b505050506040513d6000823e3d601f19601f8201168201806040525081019061041591906117d5565b9650965096509650965096509650919395979092949650565b600260009054906101000a900473ffffffffffffffffffffffffffffffffffffffff1673ffffffffffffffffffffffffffffffffffffffff16639fea8e1089898989898989896040518963ffffffff1660e01b81526004016104979897969594939291906116a1565b600060405180830381600087803b1580156104b157600080fd5b505af11580156104c5573d6000803e3d6000fd5b505050505050505050505050565b60008060009054906101000a900473ffffffffffffffffffffffffffffffffffffffff16905090565b600460009054906101000a900473ffffffffffffffffffffffffffffffffffffffff1673ffffffffffffffffffffffffffffffffffffffff16630b88dd5583836040518363ffffffff1660e01b815260040161055992919061191f565b600060405180830381600087803b15801561057357600080fd5b505af1158015610587573d6000803e3d6000fd5b505050505050565b606080600260009054906101000a900473ffffffffffffffffffffffffffffffffffffffff1673ffffffffffffffffffffffffffffffffffffffff1663ac4b2049846040518263ffffffff1660e01b81526004016105ed9190610ffd565b600060405180830381865afa15801561060a573d6000803e3d6000fd5b505050506040513d6000823e3d601f19601f820116820180604052508101906106339190611b06565b91509150915091565b606080600460009054906101000a900473ffffffffffffffffffffffffffffffffffffffff1673ffffffffffffffffffffffffffffffffffffffff1663381a3bf7846040518263ffffffff1660e01b815260040161069a9190610ffd565b600060405180830381865afa1580156106b7573d6000803e3d6000fd5b505050506040513d6000823e3d601f19601f820116820180604052508101906106e09190611c41565b91509150915091565b6000600260009054906101000a900473ffffffffffffffffffffffffffffffffffffffff1673ffffffffffffffffffffffffffffffffffffffff1663174ceeab84846040518363ffffffff1660e01b8152600401610748929190611cb9565b602060405180830381865afa158015610765573d6000803e3d6000fd5b505050506040513d601f19601f820116820180604052508101906107899190611ce9565b905092915050565b600360009054906101000a900473ffffffffffffffffffffffffffffffffffffffff1673ffffffffffffffffffffffffffffffffffffffff16631ed6aeec888888888888886040518863ffffffff1660e01b81526004016107f89796959493929190610dea565b600060405180830381600087803b15801561081257600080fd5b505af1158015610826573d6000803e3d6000fd5b5050505050505050505050565b6060806060806060806060600360009054906101000a900473ffffffffffffffffffffffffffffffffffffffff1673ffffffffffffffffffffffffffffffffffffffff1663cfafbc0c6040518163ffffffff1660e01b8152600401600060405180830381865afa1580156108ab573d6000803e3d6000fd5b505050506040513d6000823e3d601f19601f820116820180604052508101906108d49190611d16565b965096509650965096509650965090919293949596565b600260009054906101000a900473ffffffffffffffffffffffffffffffffffffffff1673ffffffffffffffffffffffffffffffffffffffff166360ccb2048484846040518463ffffffff1660e01b815260040161094a93929190611e7c565b600060405180830381600087803b15801561096457600080fd5b505af1158015610978573d6000803e3d6000fd5b50505050505050565b6000806060600460009054906101000a900473ffffffffffffffffffffffffffffffffffffffff1673ffffffffffffffffffffffffffffffffffffffff1663e9daa70a86866040518363ffffffff1660e01b81526004016109e392919061191f565b600060405180830381865afa158015610a00573d6000803e3d6000fd5b505050506040513d6000823e3d601f19601f82011682018060405250810190610a299190611eba565b9250925092509250925092565b60006060806060806060806060600260009054906101000a900473ffffffffffffffffffffffffffffffffffffffff1673ffffffffffffffffffffffffffffffffffffffff16630f53a4708a6040518263ffffffff1660e01b8152600401610a9e9190610ffd565b600060405180830381865afa158015610abb573d6000803e3d6000fd5b505050506040513d6000823e3d601f19601f82011682018060405250810190610ae49190611f29565b97509750975097509750975097509750919395975091939597565b6000604051905090565b600080fd5b600080fd5b600073ffffffffffffffffffffffffffffffffffffffff82169050919050565b6000610b3e82610b13565b9050919050565b610b4e81610b33565b8114610b5957600080fd5b50565b600081359050610b6b81610b45565b92915050565b600080fd5b600080fd5b6000601f19601f8301169050919050565b7f4e487b7100000000000000000000000000000000000000000000000000000000600052604160045260246000fd5b610bc482610b7b565b810181811067ffffffffffffffff82111715610be357610be2610b8c565b5b80604052505050565b6000610bf6610aff565b9050610c028282610bbb565b919050565b600067ffffffffffffffff821115610c2257610c21610b8c565b5b610c2b82610b7b565b9050602081019050919050565b82818337600083830152505050565b6000610c5a610c5584610c07565b610bec565b905082815260208101848484011115610c7657610c75610b76565b5b610c81848285610c38565b509392505050565b600082601f830112610c9e57610c9d610b71565b5b8135610cae848260208601610c47565b91505092915050565b600080600060608486031215610cd057610ccf610b09565b5b6000610cde86828701610b5c565b9350506020610cef86828701610b5c565b925050604084013567ffffffffffffffff811115610d1057610d0f610b0e565b5b610d1c86828701610c89565b9150509250925092565b600060208284031215610d3c57610d3b610b09565b5b6000610d4a84828501610b5c565b91505092915050565b610d5c81610b33565b82525050565b600081519050919050565b600082825260208201905092915050565b60005b83811015610d9c578082015181840152602081019050610d81565b83811115610dab576000848401525b50505050565b6000610dbc82610d62565b610dc68185610d6d565b9350610dd6818560208601610d7e565b610ddf81610b7b565b840191505092915050565b600060e082019050610dff600083018a610d53565b8181036020830152610e118189610db1565b90508181036040830152610e258188610db1565b90508181036060830152610e398187610db1565b90508181036080830152610e4d8186610db1565b905081810360a0830152610e618185610db1565b905081810360c0830152610e758184610db1565b905098975050505050505050565b600080600080600080600080610100898b031215610ea457610ea3610b09565b5b6000610eb28b828c01610b5c565b985050602089013567ffffffffffffffff811115610ed357610ed2610b0e565b5b610edf8b828c01610c89565b975050604089013567ffffffffffffffff811115610f0057610eff610b0e565b5b610f0c8b828c01610c89565b965050606089013567ffffffffffffffff811115610f2d57610f2c610b0e565b5b610f398b828c01610c89565b955050608089013567ffffffffffffffff811115610f5a57610f59610b0e565b5b610f668b828c01610c89565b94505060a089013567ffffffffffffffff811115610f8757610f86610b0e565b5b610f938b828c01610c89565b93505060c089013567ffffffffffffffff811115610fb457610fb3610b0e565b5b610fc08b828c01610c89565b92505060e089013567ffffffffffffffff811115610fe157610fe0610b0e565b5b610fed8b828c01610c89565b9150509295985092959890939650565b60006020820190506110126000830184610d53565b92915050565b6000806040838503121561102f5761102e610b09565b5b600061103d85828601610b5c565b925050602061104e85828601610b5c565b9150509250929050565b600081519050919050565b600082825260208201905092915050565b6000819050602082019050919050565b600082825260208201905092915050565b60006110a082610d62565b6110aa8185611084565b93506110ba818560208601610d7e565b6110c381610b7b565b840191505092915050565b60006110da8383611095565b905092915050565b6000602082019050919050565b60006110fa82611058565b6111048185611063565b93508360208202850161111685611074565b8060005b85811015611152578484038952815161113385826110ce565b945061113e836110e2565b925060208a0199505060018101905061111a565b50829750879550505050505092915050565b600081519050919050565b600082825260208201905092915050565b6000819050602082019050919050565b6000819050919050565b6111a381611190565b82525050565b60006111b5838361119a565b60208301905092915050565b6000602082019050919050565b60006111d982611164565b6111e3818561116f565b93506111ee83611180565b8060005b8381101561121f57815161120688826111a9565b9750611211836111c1565b9250506001810190506111f2565b5085935050505092915050565b6000604082019050818103600083015261124681856110ef565b9050818103602083015261125a81846111ce565b90509392505050565b600081519050919050565b600082825260208201905092915050565b6000819050602082019050919050565b61129881610b33565b82525050565b60006112aa838361128f565b60208301905092915050565b6000602082019050919050565b60006112ce82611263565b6112d8818561126e565b93506112e38361127f565b8060005b838110156113145781516112fb888261129e565b9750611306836112b6565b9250506001810190506112e7565b5085935050505092915050565b6000604082019050818103600083015261133b81856112c3565b9050818103602083015261134f81846112c3565b90509392505050565b6000806040838503121561136f5761136e610b09565b5b600061137d85828601610b5c565b925050602083013567ffffffffffffffff81111561139e5761139d610b0e565b5b6113aa85828601610c89565b9150509250929050565b6113bd81611190565b82525050565b60006020820190506113d860008301846113b4565b92915050565b600080600080600080600060e0888a0312156113fd576113fc610b09565b5b600061140b8a828b01610b5c565b975050602088013567ffffffffffffffff81111561142c5761142b610b0e565b5b6114388a828b01610c89565b965050604088013567ffffffffffffffff81111561145957611458610b0e565b5b6114658a828b01610c89565b955050606088013567ffffffffffffffff81111561148657611485610b0e565b5b6114928a828b01610c89565b945050608088013567ffffffffffffffff8111156114b3576114b2610b0e565b5b6114bf8a828b01610c89565b93505060a088013567ffffffffffffffff8111156114e0576114df610b0e565b5b6114ec8a828b01610c89565b92505060c088013567ffffffffffffffff81111561150d5761150c610b0e565b5b6115198a828b01610c89565b91505092959891949750929550565b600060e0820190508181036000830152611542818a6112c3565b9050818103602083015261155681896110ef565b9050818103604083015261156a81886110ef565b9050818103606083015261157e81876110ef565b9050818103608083015261159281866110ef565b905081810360a08301526115a681856110ef565b905081810360c08301526115ba81846110ef565b905098975050505050505050565b6115d181611190565b81146115dc57600080fd5b50565b6000813590506115ee816115c8565b92915050565b60008060006060848603121561160d5761160c610b09565b5b600061161b86828701610b5c565b935050602084013567ffffffffffffffff81111561163c5761163b610b0e565b5b61164886828701610c89565b9250506040611659868287016115df565b9150509250925092565b60006060820190506116786000830186610d53565b6116856020830185610d53565b81810360408301526116978184610db1565b9050949350505050565b6000610100820190506116b7600083018b610d53565b81810360208301526116c9818a610db1565b905081810360408301526116dd8189610db1565b905081810360608301526116f18188610db1565b905081810360808301526117058187610db1565b905081810360a08301526117198186610db1565b905081810360c083015261172d8185610db1565b905081810360e08301526117418184610db1565b90509998505050505050505050565b60008151905061175f81610b45565b92915050565b600061177861177384610c07565b610bec565b90508281526020810184848401111561179457611793610b76565b5b61179f848285610d7e565b509392505050565b600082601f8301126117bc576117bb610b71565b5b81516117cc848260208601611765565b91505092915050565b600080600080600080600060e0888a0312156117f4576117f3610b09565b5b60006118028a828b01611750565b975050602088015167ffffffffffffffff81111561182357611822610b0e565b5b61182f8a828b016117a7565b965050604088015167ffffffffffffffff8111156118505761184f610b0e565b5b61185c8a828b016117a7565b955050606088015167ffffffffffffffff81111561187d5761187c610b0e565b5b6118898a828b016117a7565b945050608088015167ffffffffffffffff8111156118aa576118a9610b0e565b5b6118b68a828b016117a7565b93505060a088015167ffffffffffffffff8111156118d7576118d6610b0e565b5b6118e38a828b016117a7565b92505060c088015167ffffffffffffffff81111561190457611903610b0e565b5b6119108a828b016117a7565b91505092959891949750929550565b60006040820190506119346000830185610d53565b6119416020830184610d53565b9392505050565b600067ffffffffffffffff82111561196357611962610b8c565b5b602082029050602081019050919050565b600080fd5b600061198c61198784611948565b610bec565b905080838252602082019050602084028301858111156119af576119ae611974565b5b835b818110156119f657805167ffffffffffffffff8111156119d4576119d3610b71565b5b8086016119e189826117a7565b855260208501945050506020810190506119b1565b5050509392505050565b600082601f830112611a1557611a14610b71565b5b8151611a25848260208601611979565b91505092915050565b600067ffffffffffffffff821115611a4957611a48610b8c565b5b602082029050602081019050919050565b600081519050611a69816115c8565b92915050565b6000611a82611a7d84611a2e565b610bec565b90508083825260208201905060208402830185811115611aa557611aa4611974565b5b835b81811015611ace5780611aba8882611a5a565b845260208401935050602081019050611aa7565b5050509392505050565b600082601f830112611aed57611aec610b71565b5b8151611afd848260208601611a6f565b91505092915050565b60008060408385031215611b1d57611b1c610b09565b5b600083015167ffffffffffffffff811115611b3b57611b3a610b0e565b5b611b4785828601611a00565b925050602083015167ffffffffffffffff811115611b6857611b67610b0e565b5b611b7485828601611ad8565b9150509250929050565b600067ffffffffffffffff821115611b9957611b98610b8c565b5b602082029050602081019050919050565b6000611bbd611bb884611b7e565b610bec565b90508083825260208201905060208402830185811115611be057611bdf611974565b5b835b81811015611c095780611bf58882611750565b845260208401935050602081019050611be2565b5050509392505050565b600082601f830112611c2857611c27610b71565b5b8151611c38848260208601611baa565b91505092915050565b60008060408385031215611c5857611c57610b09565b5b600083015167ffffffffffffffff811115611c7657611c75610b0e565b5b611c8285828601611c13565b925050602083015167ffffffffffffffff811115611ca357611ca2610b0e565b5b611caf85828601611c13565b9150509250929050565b6000604082019050611cce6000830185610d53565b8181036020830152611ce08184610db1565b90509392505050565b600060208284031215611cff57611cfe610b09565b5b6000611d0d84828501611a5a565b91505092915050565b600080600080600080600060e0888a031215611d3557611d34610b09565b5b600088015167ffffffffffffffff811115611d5357611d52610b0e565b5b611d5f8a828b01611c13565b975050602088015167ffffffffffffffff811115611d8057611d7f610b0e565b5b611d8c8a828b01611a00565b965050604088015167ffffffffffffffff811115611dad57611dac610b0e565b5b611db98a828b01611a00565b955050606088015167ffffffffffffffff811115611dda57611dd9610b0e565b5b611de68a828b01611a00565b945050608088015167ffffffffffffffff811115611e0757611e06610b0e565b5b611e138a828b01611a00565b93505060a088015167ffffffffffffffff811115611e3457611e33610b0e565b5b611e408a828b01611a00565b92505060c088015167ffffffffffffffff811115611e6157611e60610b0e565b5b611e6d8a828b01611a00565b91505092959891949750929550565b6000606082019050611e916000830186610d53565b8181036020830152611ea38185610db1565b9050611eb260408301846113b4565b949350505050565b600080600060608486031215611ed357611ed2610b09565b5b6000611ee186828701611750565b9350506020611ef286828701611750565b925050604084015167ffffffffffffffff811115611f1357611f12610b0e565b5b611f1f868287016117a7565b9150509250925092565b600080600080600080600080610100898b031215611f4a57611f49610b09565b5b6000611f588b828c01611750565b985050602089015167ffffffffffffffff811115611f7957611f78610b0e565b5b611f858b828c016117a7565b975050604089015167ffffffffffffffff811115611fa657611fa5610b0e565b5b611fb28b828c016117a7565b965050606089015167ffffffffffffffff811115611fd357611fd2610b0e565b5b611fdf8b828c016117a7565b955050608089015167ffffffffffffffff81111561200057611fff610b0e565b5b61200c8b828c016117a7565b94505060a089015167ffffffffffffffff81111561202d5761202c610b0e565b5b6120398b828c016117a7565b93505060c089015167ffffffffffffffff81111561205a57612059610b0e565b5b6120668b828c016117a7565b92505060e089015167ffffffffffffffff81111561208757612086610b0e565b5b6120938b828c016117a7565b915050929598509295989093965056fea26469706673582212208d1e93d046037e9c0e2b34ff7a27870b9728a8676a20f38c724aac035b85561b64736f6c634300080f0033608060405234801561001057600080fd5b50612a89806100206000396000f3fe608060405234801561001057600080fd5b50600436106100885760003560e01c8063670471071161005b57806367047107146101425780639fea8e1014610179578063ac4b204914610195578063d64b6913146101c657610088565b80630f53a4701461008d578063174ceeab146100c45780633aff2cc5146100f457806360ccb20414610126575b600080fd5b6100a760048036038101906100a29190611c6b565b6101eb565b6040516100bb989796959493929190611d40565b60405180910390f35b6100de60048036038101906100d99190611f24565b6107d3565b6040516100eb9190611f99565b60405180910390f35b61010e60048036038101906101099190611fe0565b6108d1565b60405161011d9392919061200d565b60405180910390f35b610140600480360381019061013b919061204b565b6109b3565b005b61015c60048036038101906101579190611fe0565b610ace565b604051610170989796959493929190611d40565b60405180910390f35b610193600480360381019061018e91906120ba565b610efe565b005b6101af60048036038101906101aa9190611c6b565b611066565b6040516101bd9291906123fe565b60405180910390f35b6101ce6112cd565b6040516101e29897969594939291906124f3565b60405180910390f35b6000606080606080606080606060005b6000805490508110156107c6578973ffffffffffffffffffffffffffffffffffffffff1660008281548110610233576102326125a9565b5b906000526020600020906008020160000160009054906101000a900473ffffffffffffffffffffffffffffffffffffffff1673ffffffffffffffffffffffffffffffffffffffff16036107b35760008181548110610294576102936125a9565b5b906000526020600020906008020160000160009054906101000a900473ffffffffffffffffffffffffffffffffffffffff16600082815481106102da576102d96125a9565b5b9060005260206000209060080201600101600083815481106102ff576102fe6125a9565b5b906000526020600020906008020160020160008481548110610324576103236125a9565b5b906000526020600020906008020160030160008581548110610349576103486125a9565b5b90600052602060002090600802016004016000868154811061036e5761036d6125a9565b5b906000526020600020906008020160050160008781548110610393576103926125a9565b5b9060005260206000209060080201600601600088815481106103b8576103b76125a9565b5b90600052602060002090600802016007018680546103d590612607565b80601f016020809104026020016040519081016040528092919081815260200182805461040190612607565b801561044e5780601f106104235761010080835404028352916020019161044e565b820191906000526020600020905b81548152906001019060200180831161043157829003601f168201915b5050505050965085805461046190612607565b80601f016020809104026020016040519081016040528092919081815260200182805461048d90612607565b80156104da5780601f106104af576101008083540402835291602001916104da565b820191906000526020600020905b8154815290600101906020018083116104bd57829003601f168201915b505050505095508480546104ed90612607565b80601f016020809104026020016040519081016040528092919081815260200182805461051990612607565b80156105665780601f1061053b57610100808354040283529160200191610566565b820191906000526020600020905b81548152906001019060200180831161054957829003601f168201915b5050505050945083805461057990612607565b80601f01602080910402602001604051908101604052809291908181526020018280546105a590612607565b80156105f25780601f106105c7576101008083540402835291602001916105f2565b820191906000526020600020905b8154815290600101906020018083116105d557829003601f168201915b5050505050935082805461060590612607565b80601f016020809104026020016040519081016040528092919081815260200182805461063190612607565b801561067e5780601f106106535761010080835404028352916020019161067e565b820191906000526020600020905b81548152906001019060200180831161066157829003601f168201915b5050505050925081805461069190612607565b80601f01602080910402602001604051908101604052809291908181526020018280546106bd90612607565b801561070a5780601f106106df5761010080835404028352916020019161070a565b820191906000526020600020905b8154815290600101906020018083116106ed57829003601f168201915b5050505050915080805461071d90612607565b80601f016020809104026020016040519081016040528092919081815260200182805461074990612607565b80156107965780601f1061076b57610100808354040283529160200191610796565b820191906000526020600020905b81548152906001019060200180831161077957829003601f168201915b5050505050905098509850985098509850985098509850506107c8565b80806107be90612667565b9150506101fb565b505b919395975091939597565b600080600090505b6000805490508110156108c9578373ffffffffffffffffffffffffffffffffffffffff1660008281548110610813576108126125a9565b5b906000526020600020906008020160000160009054906101000a900473ffffffffffffffffffffffffffffffffffffffff1673ffffffffffffffffffffffffffffffffffffffff161480156108a7575082805190602001206000828154811061087f5761087e6125a9565b5b906000526020600020906008020160070160405161089d9190612752565b6040518091039020145b156108b65760019150506108cb565b80806108c190612667565b9150506107db565b505b92915050565b600181815481106108e157600080fd5b90600052602060002090600302016000915090508060000160009054906101000a900473ffffffffffffffffffffffffffffffffffffffff169080600101805461092a90612607565b80601f016020809104026020016040519081016040528092919081815260200182805461095690612607565b80156109a35780601f10610978576101008083540402835291602001916109a3565b820191906000526020600020905b81548152906001019060200180831161098657829003601f168201915b5050505050908060020154905083565b600081101580156109c5575060648111155b610a04576040517f08c379a00000000000000000000000000000000000000000000000000000000081526004016109fb906127b5565b60405180910390fd5b600160405180606001604052808573ffffffffffffffffffffffffffffffffffffffff16815260200184815260200183815250908060018154018082558091505060019003906000526020600020906003020160009091909190915060008201518160000160006101000a81548173ffffffffffffffffffffffffffffffffffffffff021916908373ffffffffffffffffffffffffffffffffffffffff1602179055506020820151816001019081610abc9190612981565b50604082015181600201555050505050565b60008181548110610ade57600080fd5b90600052602060002090600802016000915090508060000160009054906101000a900473ffffffffffffffffffffffffffffffffffffffff1690806001018054610b2790612607565b80601f0160208091040260200160405190810160405280929190818152602001828054610b5390612607565b8015610ba05780601f10610b7557610100808354040283529160200191610ba0565b820191906000526020600020905b815481529060010190602001808311610b8357829003601f168201915b505050505090806002018054610bb590612607565b80601f0160208091040260200160405190810160405280929190818152602001828054610be190612607565b8015610c2e5780601f10610c0357610100808354040283529160200191610c2e565b820191906000526020600020905b815481529060010190602001808311610c1157829003601f168201915b505050505090806003018054610c4390612607565b80601f0160208091040260200160405190810160405280929190818152602001828054610c6f90612607565b8015610cbc5780601f10610c9157610100808354040283529160200191610cbc565b820191906000526020600020905b815481529060010190602001808311610c9f57829003601f168201915b505050505090806004018054610cd190612607565b80601f0160208091040260200160405190810160405280929190818152602001828054610cfd90612607565b8015610d4a5780601f10610d1f57610100808354040283529160200191610d4a565b820191906000526020600020905b815481529060010190602001808311610d2d57829003601f168201915b505050505090806005018054610d5f90612607565b80601f0160208091040260200160405190810160405280929190818152602001828054610d8b90612607565b8015610dd85780601f10610dad57610100808354040283529160200191610dd8565b820191906000526020600020905b815481529060010190602001808311610dbb57829003601f168201915b505050505090806006018054610ded90612607565b80601f0160208091040260200160405190810160405280929190818152602001828054610e1990612607565b8015610e665780601f10610e3b57610100808354040283529160200191610e66565b820191906000526020600020905b815481529060010190602001808311610e4957829003601f168201915b505050505090806007018054610e7b90612607565b80601f0160208091040260200160405190810160405280929190818152602001828054610ea790612607565b8015610ef45780601f10610ec957610100808354040283529160200191610ef4565b820191906000526020600020905b815481529060010190602001808311610ed757829003601f168201915b5050505050905088565b60006040518061010001604052808a73ffffffffffffffffffffffffffffffffffffffff16815260200189815260200188815260200187815260200186815260200185815260200184815260200183815250908060018154018082558091505060019003906000526020600020906008020160009091909190915060008201518160000160006101000a81548173ffffffffffffffffffffffffffffffffffffffff021916908373ffffffffffffffffffffffffffffffffffffffff1602179055506020820151816001019081610fd59190612981565b506040820151816002019081610feb9190612981565b5060608201518160030190816110019190612981565b5060808201518160040190816110179190612981565b5060a082015181600501908161102d9190612981565b5060c08201518160060190816110439190612981565b5060e08201518160070190816110599190612981565b5050505050505050505050565b606080600060018054905067ffffffffffffffff81111561108a57611089611df9565b5b6040519080825280602002602001820160405280156110bd57816020015b60608152602001906001900390816110a85790505b509050600060018054905067ffffffffffffffff8111156110e1576110e0611df9565b5b60405190808252806020026020018201604052801561110f5781602001602082028036833780820191505090505b50905060005b6001805490508110156112bf578573ffffffffffffffffffffffffffffffffffffffff166001828154811061114d5761114c6125a9565b5b906000526020600020906003020160000160009054906101000a900473ffffffffffffffffffffffffffffffffffffffff1673ffffffffffffffffffffffffffffffffffffffff16036112ac57600181815481106111ae576111ad6125a9565b5b906000526020600020906003020160010180546111ca90612607565b80601f01602080910402602001604051908101604052809291908181526020018280546111f690612607565b80156112435780601f1061121857610100808354040283529160200191611243565b820191906000526020600020905b81548152906001019060200180831161122657829003601f168201915b505050505083828151811061125b5761125a6125a9565b5b60200260200101819052506001818154811061127a576112796125a9565b5b90600052602060002090600302016002015482828151811061129f5761129e6125a9565b5b6020026020010181815250505b80806112b790612667565b915050611115565b508181935093505050915091565b6060806060806060806060806000808054905067ffffffffffffffff8111156112f9576112f8611df9565b5b6040519080825280602002602001820160405280156113275781602001602082028036833780820191505090505b5090506000808054905067ffffffffffffffff81111561134a57611349611df9565b5b60405190808252806020026020018201604052801561137d57816020015b60608152602001906001900390816113685790505b5090506000808054905067ffffffffffffffff8111156113a05761139f611df9565b5b6040519080825280602002602001820160405280156113d357816020015b60608152602001906001900390816113be5790505b5090506000808054905067ffffffffffffffff8111156113f6576113f5611df9565b5b60405190808252806020026020018201604052801561142957816020015b60608152602001906001900390816114145790505b5090506000808054905067ffffffffffffffff81111561144c5761144b611df9565b5b60405190808252806020026020018201604052801561147f57816020015b606081526020019060019003908161146a5790505b5090506000808054905067ffffffffffffffff8111156114a2576114a1611df9565b5b6040519080825280602002602001820160405280156114d557816020015b60608152602001906001900390816114c05790505b5090506000808054905067ffffffffffffffff8111156114f8576114f7611df9565b5b60405190808252806020026020018201604052801561152b57816020015b60608152602001906001900390816115165790505b5090506000808054905067ffffffffffffffff81111561154e5761154d611df9565b5b60405190808252806020026020018201604052801561158157816020015b606081526020019060019003908161156c5790505b50905060005b600080549050811015611bce57600081815481106115a8576115a76125a9565b5b906000526020600020906008020160000160009054906101000a900473ffffffffffffffffffffffffffffffffffffffff168982815181106115ed576115ec6125a9565b5b602002602001019073ffffffffffffffffffffffffffffffffffffffff16908173ffffffffffffffffffffffffffffffffffffffff16815250506000818154811061163b5761163a6125a9565b5b9060005260206000209060080201600101805461165790612607565b80601f016020809104026020016040519081016040528092919081815260200182805461168390612607565b80156116d05780601f106116a5576101008083540402835291602001916116d0565b820191906000526020600020905b8154815290600101906020018083116116b357829003601f168201915b50505050508882815181106116e8576116e76125a9565b5b602002602001018190525060008181548110611707576117066125a9565b5b9060005260206000209060080201600201805461172390612607565b80601f016020809104026020016040519081016040528092919081815260200182805461174f90612607565b801561179c5780601f106117715761010080835404028352916020019161179c565b820191906000526020600020905b81548152906001019060200180831161177f57829003601f168201915b50505050508782815181106117b4576117b36125a9565b5b6020026020010181905250600081815481106117d3576117d26125a9565b5b906000526020600020906008020160030180546117ef90612607565b80601f016020809104026020016040519081016040528092919081815260200182805461181b90612607565b80156118685780601f1061183d57610100808354040283529160200191611868565b820191906000526020600020905b81548152906001019060200180831161184b57829003601f168201915b50505050508682815181106118805761187f6125a9565b5b60200260200101819052506000818154811061189f5761189e6125a9565b5b906000526020600020906008020160040180546118bb90612607565b80601f01602080910402602001604051908101604052809291908181526020018280546118e790612607565b80156119345780601f1061190957610100808354040283529160200191611934565b820191906000526020600020905b81548152906001019060200180831161191757829003601f168201915b505050505085828151811061194c5761194b6125a9565b5b60200260200101819052506000818154811061196b5761196a6125a9565b5b9060005260206000209060080201600501805461198790612607565b80601f01602080910402602001604051908101604052809291908181526020018280546119b390612607565b8015611a005780601f106119d557610100808354040283529160200191611a00565b820191906000526020600020905b8154815290600101906020018083116119e357829003601f168201915b5050505050848281518110611a1857611a176125a9565b5b602002602001018190525060008181548110611a3757611a366125a9565b5b90600052602060002090600802016006018054611a5390612607565b80601f0160208091040260200160405190810160405280929190818152602001828054611a7f90612607565b8015611acc5780601f10611aa157610100808354040283529160200191611acc565b820191906000526020600020905b815481529060010190602001808311611aaf57829003601f168201915b5050505050838281518110611ae457611ae36125a9565b5b602002602001018190525060008181548110611b0357611b026125a9565b5b90600052602060002090600802016007018054611b1f90612607565b80601f0160208091040260200160405190810160405280929190818152602001828054611b4b90612607565b8015611b985780601f10611b6d57610100808354040283529160200191611b98565b820191906000526020600020905b815481529060010190602001808311611b7b57829003601f168201915b5050505050828281518110611bb057611baf6125a9565b5b60200260200101819052508080611bc690612667565b915050611587565b5087878787878787879f509f509f509f509f509f509f509f5050505050505050509091929394959697565b6000604051905090565b600080fd5b600080fd5b600073ffffffffffffffffffffffffffffffffffffffff82169050919050565b6000611c3882611c0d565b9050919050565b611c4881611c2d565b8114611c5357600080fd5b50565b600081359050611c6581611c3f565b92915050565b600060208284031215611c8157611c80611c03565b5b6000611c8f84828501611c56565b91505092915050565b611ca181611c2d565b82525050565b600081519050919050565b600082825260208201905092915050565b60005b83811015611ce1578082015181840152602081019050611cc6565b83811115611cf0576000848401525b50505050565b6000601f19601f8301169050919050565b6000611d1282611ca7565b611d1c8185611cb2565b9350611d2c818560208601611cc3565b611d3581611cf6565b840191505092915050565b600061010082019050611d56600083018b611c98565b8181036020830152611d68818a611d07565b90508181036040830152611d7c8189611d07565b90508181036060830152611d908188611d07565b90508181036080830152611da48187611d07565b905081810360a0830152611db88186611d07565b905081810360c0830152611dcc8185611d07565b905081810360e0830152611de08184611d07565b90509998505050505050505050565b600080fd5b600080fd5b7f4e487b7100000000000000000000000000000000000000000000000000000000600052604160045260246000fd5b611e3182611cf6565b810181811067ffffffffffffffff82111715611e5057611e4f611df9565b5b80604052505050565b6000611e63611bf9565b9050611e6f8282611e28565b919050565b600067ffffffffffffffff821115611e8f57611e8e611df9565b5b611e9882611cf6565b9050602081019050919050565b82818337600083830152505050565b6000611ec7611ec284611e74565b611e59565b905082815260208101848484011115611ee357611ee2611df4565b5b611eee848285611ea5565b509392505050565b600082601f830112611f0b57611f0a611def565b5b8135611f1b848260208601611eb4565b91505092915050565b60008060408385031215611f3b57611f3a611c03565b5b6000611f4985828601611c56565b925050602083013567ffffffffffffffff811115611f6a57611f69611c08565b5b611f7685828601611ef6565b9150509250929050565b6000819050919050565b611f9381611f80565b82525050565b6000602082019050611fae6000830184611f8a565b92915050565b611fbd81611f80565b8114611fc857600080fd5b50565b600081359050611fda81611fb4565b92915050565b600060208284031215611ff657611ff5611c03565b5b600061200484828501611fcb565b91505092915050565b60006060820190506120226000830186611c98565b81810360208301526120348185611d07565b90506120436040830184611f8a565b949350505050565b60008060006060848603121561206457612063611c03565b5b600061207286828701611c56565b935050602084013567ffffffffffffffff81111561209357612092611c08565b5b61209f86828701611ef6565b92505060406120b086828701611fcb565b9150509250925092565b600080600080600080600080610100898b0312156120db576120da611c03565b5b60006120e98b828c01611c56565b985050602089013567ffffffffffffffff81111561210a57612109611c08565b5b6121168b828c01611ef6565b975050604089013567ffffffffffffffff81111561213757612136611c08565b5b6121438b828c01611ef6565b965050606089013567ffffffffffffffff81111561216457612163611c08565b5b6121708b828c01611ef6565b955050608089013567ffffffffffffffff81111561219157612190611c08565b5b61219d8b828c01611ef6565b94505060a089013567ffffffffffffffff8111156121be576121bd611c08565b5b6121ca8b828c01611ef6565b93505060c089013567ffffffffffffffff8111156121eb576121ea611c08565b5b6121f78b828c01611ef6565b92505060e089013567ffffffffffffffff81111561221857612217611c08565b5b6122248b828c01611ef6565b9150509295985092959890939650565b600081519050919050565b600082825260208201905092915050565b6000819050602082019050919050565b600082825260208201905092915050565b600061227c82611ca7565b6122868185612260565b9350612296818560208601611cc3565b61229f81611cf6565b840191505092915050565b60006122b68383612271565b905092915050565b6000602082019050919050565b60006122d682612234565b6122e0818561223f565b9350836020820285016122f285612250565b8060005b8581101561232e578484038952815161230f85826122aa565b945061231a836122be565b925060208a019950506001810190506122f6565b50829750879550505050505092915050565b600081519050919050565b600082825260208201905092915050565b6000819050602082019050919050565b61237581611f80565b82525050565b6000612387838361236c565b60208301905092915050565b6000602082019050919050565b60006123ab82612340565b6123b5818561234b565b93506123c08361235c565b8060005b838110156123f15781516123d8888261237b565b97506123e383612393565b9250506001810190506123c4565b5085935050505092915050565b6000604082019050818103600083015261241881856122cb565b9050818103602083015261242c81846123a0565b90509392505050565b600081519050919050565b600082825260208201905092915050565b6000819050602082019050919050565b61246a81611c2d565b82525050565b600061247c8383612461565b60208301905092915050565b6000602082019050919050565b60006124a082612435565b6124aa8185612440565b93506124b583612451565b8060005b838110156124e65781516124cd8882612470565b97506124d883612488565b9250506001810190506124b9565b5085935050505092915050565b600061010082019050818103600083015261250e818b612495565b90508181036020830152612522818a6122cb565b9050818103604083015261253681896122cb565b9050818103606083015261254a81886122cb565b9050818103608083015261255e81876122cb565b905081810360a083015261257281866122cb565b905081810360c083015261258681856122cb565b905081810360e083015261259a81846122cb565b90509998505050505050505050565b7f4e487b7100000000000000000000000000000000000000000000000000000000600052603260045260246000fd5b7f4e487b7100000000000000000000000000000000000000000000000000000000600052602260045260246000fd5b6000600282049050600182168061261f57607f821691505b602082108103612632576126316125d8565b5b50919050565b7f4e487b7100000000000000000000000000000000000000000000000000000000600052601160045260246000fd5b600061267282611f80565b91507fffffffffffffffffffffffffffffffffffffffffffffffffffffffffffffffff82036126a4576126a3612638565b5b600182019050919050565b600081905092915050565b60008190508160005260206000209050919050565b600081546126dc81612607565b6126e681866126af565b94506001821660008114612701576001811461271657612749565b60ff1983168652811515820286019350612749565b61271f856126ba565b60005b8381101561274157815481890152600182019150602081019050612722565b838801955050505b50505092915050565b600061275e82846126cf565b915081905092915050565b7f4c6576656c206f6620736b696c6c20696e636f72726563742e00000000000000600082015250565b600061279f601983611cb2565b91506127aa82612769565b602082019050919050565b600060208201905081810360008301526127ce81612792565b9050919050565b60008190508160005260206000209050919050565b60006020601f8301049050919050565b600082821b905092915050565b6000600883026128377fffffffffffffffffffffffffffffffffffffffffffffffffffffffffffffffff826127fa565b61284186836127fa565b95508019841693508086168417925050509392505050565b6000819050919050565b600061287e61287961287484611f80565b612859565b611f80565b9050919050565b6000819050919050565b61289883612863565b6128ac6128a482612885565b848454612807565b825550505050565b600090565b6128c16128b4565b6128cc81848461288f565b505050565b5b818110156128f0576128e56000826128b9565b6001810190506128d2565b5050565b601f82111561293557612906816127d5565b61290f846127ea565b8101602085101561291e578190505b61293261292a856127ea565b8301826128d1565b50505b505050565b600082821c905092915050565b60006129586000198460080261293a565b1980831691505092915050565b60006129718383612947565b9150826002028217905092915050565b61298a82611ca7565b67ffffffffffffffff8111156129a3576129a2611df9565b5b6129ad8254612607565b6129b88282856128f4565b600060209050601f8311600181146129eb57600084156129d9578287015190505b6129e38582612965565b865550612a4b565b601f1984166129f9866127d5565b60005b82811015612a21578489015182556001820191506020850194506020810190506129fc565b86831015612a3e5784890151612a3a601f891682612947565b8355505b6001600288020188555050505b50505050505056fea2646970667358221220fa2bd09a02f94c260a972c4233924db3ed261286adec21a5086f76f3421850ed64736f6c634300080f0033608060405234801561001057600080fd5b50611e06806100206000396000f3fe608060405234801561001057600080fd5b506004361061004c5760003560e01c80630f53a470146100515780631ed6aeec14610087578063bf44b303146100a3578063cfafbc0c146100d9575b600080fd5b61006b60048036038101906100669190611392565b6100fd565b60405161007e9796959493929190611467565b60405180910390f35b6100a1600480360381019061009c9190611635565b610630565b005b6100bd60048036038101906100b891906117b5565b61077a565b6040516100d09796959493929190611467565b60405180910390f35b6100e1610b1c565b6040516100f497969594939291906119ac565b60405180910390f35b600060608060608060608060005b600080549050811015610623578873ffffffffffffffffffffffffffffffffffffffff166000828154811061014357610142611a4c565b5b906000526020600020906007020160000160009054906101000a900473ffffffffffffffffffffffffffffffffffffffff1673ffffffffffffffffffffffffffffffffffffffff160361061057600081815481106101a4576101a3611a4c565b5b906000526020600020906007020160000160009054906101000a900473ffffffffffffffffffffffffffffffffffffffff16600082815481106101ea576101e9611a4c565b5b90600052602060002090600702016001016000838154811061020f5761020e611a4c565b5b90600052602060002090600702016002016000848154811061023457610233611a4c565b5b90600052602060002090600702016003016000858154811061025957610258611a4c565b5b90600052602060002090600702016004016000868154811061027e5761027d611a4c565b5b9060005260206000209060070201600501600087815481106102a3576102a2611a4c565b5b90600052602060002090600702016006018580546102c090611aaa565b80601f01602080910402602001604051908101604052809291908181526020018280546102ec90611aaa565b80156103395780601f1061030e57610100808354040283529160200191610339565b820191906000526020600020905b81548152906001019060200180831161031c57829003601f168201915b5050505050955084805461034c90611aaa565b80601f016020809104026020016040519081016040528092919081815260200182805461037890611aaa565b80156103c55780601f1061039a576101008083540402835291602001916103c5565b820191906000526020600020905b8154815290600101906020018083116103a857829003601f168201915b505050505094508380546103d890611aaa565b80601f016020809104026020016040519081016040528092919081815260200182805461040490611aaa565b80156104515780601f1061042657610100808354040283529160200191610451565b820191906000526020600020905b81548152906001019060200180831161043457829003601f168201915b5050505050935082805461046490611aaa565b80601f016020809104026020016040519081016040528092919081815260200182805461049090611aaa565b80156104dd5780601f106104b2576101008083540402835291602001916104dd565b820191906000526020600020905b8154815290600101906020018083116104c057829003601f168201915b505050505092508180546104f090611aaa565b80601f016020809104026020016040519081016040528092919081815260200182805461051c90611aaa565b80156105695780601f1061053e57610100808354040283529160200191610569565b820191906000526020600020905b81548152906001019060200180831161054c57829003601f168201915b5050505050915080805461057c90611aaa565b80601f01602080910402602001604051908101604052809291908181526020018280546105a890611aaa565b80156105f55780601f106105ca576101008083540402835291602001916105f5565b820191906000526020600020905b8154815290600101906020018083116105d857829003601f168201915b50505050509050975097509750975097509750975050610625565b808061061b90611b0a565b91505061010b565b505b919395979092949650565b60006040518060e001604052808973ffffffffffffffffffffffffffffffffffffffff16815260200188815260200187815260200186815260200185815260200184815260200183815250908060018154018082558091505060019003906000526020600020906007020160009091909190915060008201518160000160006101000a81548173ffffffffffffffffffffffffffffffffffffffff021916908373ffffffffffffffffffffffffffffffffffffffff16021790555060208201518160010190816107009190611cfe565b5060408201518160020190816107169190611cfe565b50606082015181600301908161072c9190611cfe565b5060808201518160040190816107429190611cfe565b5060a08201518160050190816107589190611cfe565b5060c082015181600601908161076e9190611cfe565b50505050505050505050565b6000818154811061078a57600080fd5b90600052602060002090600702016000915090508060000160009054906101000a900473ffffffffffffffffffffffffffffffffffffffff16908060010180546107d390611aaa565b80601f01602080910402602001604051908101604052809291908181526020018280546107ff90611aaa565b801561084c5780601f106108215761010080835404028352916020019161084c565b820191906000526020600020905b81548152906001019060200180831161082f57829003601f168201915b50505050509080600201805461086190611aaa565b80601f016020809104026020016040519081016040528092919081815260200182805461088d90611aaa565b80156108da5780601f106108af576101008083540402835291602001916108da565b820191906000526020600020905b8154815290600101906020018083116108bd57829003601f168201915b5050505050908060030180546108ef90611aaa565b80601f016020809104026020016040519081016040528092919081815260200182805461091b90611aaa565b80156109685780601f1061093d57610100808354040283529160200191610968565b820191906000526020600020905b81548152906001019060200180831161094b57829003601f168201915b50505050509080600401805461097d90611aaa565b80601f01602080910402602001604051908101604052809291908181526020018280546109a990611aaa565b80156109f65780601f106109cb576101008083540402835291602001916109f6565b820191906000526020600020905b8154815290600101906020018083116109d957829003601f168201915b505050505090806005018054610a0b90611aaa565b80601f0160208091040260200160405190810160405280929190818152602001828054610a3790611aaa565b8015610a845780601f10610a5957610100808354040283529160200191610a84565b820191906000526020600020905b815481529060010190602001808311610a6757829003601f168201915b505050505090806006018054610a9990611aaa565b80601f0160208091040260200160405190810160405280929190818152602001828054610ac590611aaa565b8015610b125780601f10610ae757610100808354040283529160200191610b12565b820191906000526020600020905b815481529060010190602001808311610af557829003601f168201915b5050505050905087565b60608060608060608060606000808054905067ffffffffffffffff811115610b4757610b4661150a565b5b604051908082528060200260200182016040528015610b755781602001602082028036833780820191505090505b5090506000808054905067ffffffffffffffff811115610b9857610b9761150a565b5b604051908082528060200260200182016040528015610bcb57816020015b6060815260200190600190039081610bb65790505b5090506000808054905067ffffffffffffffff811115610bee57610bed61150a565b5b604051908082528060200260200182016040528015610c2157816020015b6060815260200190600190039081610c0c5790505b5090506000808054905067ffffffffffffffff811115610c4457610c4361150a565b5b604051908082528060200260200182016040528015610c7757816020015b6060815260200190600190039081610c625790505b5090506000808054905067ffffffffffffffff811115610c9a57610c9961150a565b5b604051908082528060200260200182016040528015610ccd57816020015b6060815260200190600190039081610cb85790505b5090506000808054905067ffffffffffffffff811115610cf057610cef61150a565b5b604051908082528060200260200182016040528015610d2357816020015b6060815260200190600190039081610d0e5790505b5090506000808054905067ffffffffffffffff811115610d4657610d4561150a565b5b604051908082528060200260200182016040528015610d7957816020015b6060815260200190600190039081610d645790505b50905060005b6000805490508110156112fa5760008181548110610da057610d9f611a4c565b5b906000526020600020906007020160000160009054906101000a900473ffffffffffffffffffffffffffffffffffffffff16888281518110610de557610de4611a4c565b5b602002602001019073ffffffffffffffffffffffffffffffffffffffff16908173ffffffffffffffffffffffffffffffffffffffff168152505060008181548110610e3357610e32611a4c565b5b90600052602060002090600702016001018054610e4f90611aaa565b80601f0160208091040260200160405190810160405280929190818152602001828054610e7b90611aaa565b8015610ec85780601f10610e9d57610100808354040283529160200191610ec8565b820191906000526020600020905b815481529060010190602001808311610eab57829003601f168201915b5050505050878281518110610ee057610edf611a4c565b5b602002602001018190525060008181548110610eff57610efe611a4c565b5b90600052602060002090600702016002018054610f1b90611aaa565b80601f0160208091040260200160405190810160405280929190818152602001828054610f4790611aaa565b8015610f945780601f10610f6957610100808354040283529160200191610f94565b820191906000526020600020905b815481529060010190602001808311610f7757829003601f168201915b5050505050868281518110610fac57610fab611a4c565b5b602002602001018190525060008181548110610fcb57610fca611a4c565b5b90600052602060002090600702016003018054610fe790611aaa565b80601f016020809104026020016040519081016040528092919081815260200182805461101390611aaa565b80156110605780601f1061103557610100808354040283529160200191611060565b820191906000526020600020905b81548152906001019060200180831161104357829003601f168201915b505050505085828151811061107857611077611a4c565b5b60200260200101819052506000818154811061109757611096611a4c565b5b906000526020600020906007020160040180546110b390611aaa565b80601f01602080910402602001604051908101604052809291908181526020018280546110df90611aaa565b801561112c5780601f106111015761010080835404028352916020019161112c565b820191906000526020600020905b81548152906001019060200180831161110f57829003601f168201915b505050505084828151811061114457611143611a4c565b5b60200260200101819052506000818154811061116357611162611a4c565b5b9060005260206000209060070201600501805461117f90611aaa565b80601f01602080910402602001604051908101604052809291908181526020018280546111ab90611aaa565b80156111f85780601f106111cd576101008083540402835291602001916111f8565b820191906000526020600020905b8154815290600101906020018083116111db57829003601f168201915b50505050508382815181106112105761120f611a4c565b5b60200260200101819052506000818154811061122f5761122e611a4c565b5b9060005260206000209060070201600601805461124b90611aaa565b80601f016020809104026020016040519081016040528092919081815260200182805461127790611aaa565b80156112c45780601f10611299576101008083540402835291602001916112c4565b820191906000526020600020905b8154815290600101906020018083116112a757829003601f168201915b50505050508282815181106112dc576112db611a4c565b5b602002602001018190525080806112f290611b0a565b915050610d7f565b50868686868686869d509d509d509d509d509d509d505050505050505090919293949596565b6000604051905090565b600080fd5b600080fd5b600073ffffffffffffffffffffffffffffffffffffffff82169050919050565b600061135f82611334565b9050919050565b61136f81611354565b811461137a57600080fd5b50565b60008135905061138c81611366565b92915050565b6000602082840312156113a8576113a761132a565b5b60006113b68482850161137d565b91505092915050565b6113c881611354565b82525050565b600081519050919050565b600082825260208201905092915050565b60005b838110156114085780820151818401526020810190506113ed565b83811115611417576000848401525b50505050565b6000601f19601f8301169050919050565b6000611439826113ce565b61144381856113d9565b93506114538185602086016113ea565b61145c8161141d565b840191505092915050565b600060e08201905061147c600083018a6113bf565b818103602083015261148e818961142e565b905081810360408301526114a2818861142e565b905081810360608301526114b6818761142e565b905081810360808301526114ca818661142e565b905081810360a08301526114de818561142e565b905081810360c08301526114f2818461142e565b905098975050505050505050565b600080fd5b600080fd5b7f4e487b7100000000000000000000000000000000000000000000000000000000600052604160045260246000fd5b6115428261141d565b810181811067ffffffffffffffff821117156115615761156061150a565b5b80604052505050565b6000611574611320565b90506115808282611539565b919050565b600067ffffffffffffffff8211156115a05761159f61150a565b5b6115a98261141d565b9050602081019050919050565b82818337600083830152505050565b60006115d86115d384611585565b61156a565b9050828152602081018484840111156115f4576115f3611505565b5b6115ff8482856115b6565b509392505050565b600082601f83011261161c5761161b611500565b5b813561162c8482602086016115c5565b91505092915050565b600080600080600080600060e0888a0312156116545761165361132a565b5b60006116628a828b0161137d565b975050602088013567ffffffffffffffff8111156116835761168261132f565b5b61168f8a828b01611607565b965050604088013567ffffffffffffffff8111156116b0576116af61132f565b5b6116bc8a828b01611607565b955050606088013567ffffffffffffffff8111156116dd576116dc61132f565b5b6116e98a828b01611607565b945050608088013567ffffffffffffffff81111561170a5761170961132f565b5b6117168a828b01611607565b93505060a088013567ffffffffffffffff8111156117375761173661132f565b5b6117438a828b01611607565b92505060c088013567ffffffffffffffff8111156117645761176361132f565b5b6117708a828b01611607565b91505092959891949750929550565b6000819050919050565b6117928161177f565b811461179d57600080fd5b50565b6000813590506117af81611789565b92915050565b6000602082840312156117cb576117ca61132a565b5b60006117d9848285016117a0565b91505092915050565b600081519050919050565b600082825260208201905092915050565b6000819050602082019050919050565b61181781611354565b82525050565b6000611829838361180e565b60208301905092915050565b6000602082019050919050565b600061184d826117e2565b61185781856117ed565b9350611862836117fe565b8060005b8381101561189357815161187a888261181d565b975061188583611835565b925050600181019050611866565b5085935050505092915050565b600081519050919050565b600082825260208201905092915050565b6000819050602082019050919050565b600082825260208201905092915050565b60006118e8826113ce565b6118f281856118cc565b93506119028185602086016113ea565b61190b8161141d565b840191505092915050565b600061192283836118dd565b905092915050565b6000602082019050919050565b6000611942826118a0565b61194c81856118ab565b93508360208202850161195e856118bc565b8060005b8581101561199a578484038952815161197b8582611916565b94506119868361192a565b925060208a01995050600181019050611962565b50829750879550505050505092915050565b600060e08201905081810360008301526119c6818a611842565b905081810360208301526119da8189611937565b905081810360408301526119ee8188611937565b90508181036060830152611a028187611937565b90508181036080830152611a168186611937565b905081810360a0830152611a2a8185611937565b905081810360c0830152611a3e8184611937565b905098975050505050505050565b7f4e487b7100000000000000000000000000000000000000000000000000000000600052603260045260246000fd5b7f4e487b7100000000000000000000000000000000000000000000000000000000600052602260045260246000fd5b60006002820490506001821680611ac257607f821691505b602082108103611ad557611ad4611a7b565b5b50919050565b7f4e487b7100000000000000000000000000000000000000000000000000000000600052601160045260246000fd5b6000611b158261177f565b91507fffffffffffffffffffffffffffffffffffffffffffffffffffffffffffffffff8203611b4757611b46611adb565b5b600182019050919050565b60008190508160005260206000209050919050565b60006020601f8301049050919050565b600082821b905092915050565b600060088302611bb47fffffffffffffffffffffffffffffffffffffffffffffffffffffffffffffffff82611b77565b611bbe8683611b77565b95508019841693508086168417925050509392505050565b6000819050919050565b6000611bfb611bf6611bf18461177f565b611bd6565b61177f565b9050919050565b6000819050919050565b611c1583611be0565b611c29611c2182611c02565b848454611b84565b825550505050565b600090565b611c3e611c31565b611c49818484611c0c565b505050565b5b81811015611c6d57611c62600082611c36565b600181019050611c4f565b5050565b601f821115611cb257611c8381611b52565b611c8c84611b67565b81016020851015611c9b578190505b611caf611ca785611b67565b830182611c4e565b50505b505050565b600082821c905092915050565b6000611cd560001984600802611cb7565b1980831691505092915050565b6000611cee8383611cc4565b9150826002028217905092915050565b611d07826113ce565b67ffffffffffffffff811115611d2057611d1f61150a565b5b611d2a8254611aaa565b611d35828285611c71565b600060209050601f831160018114611d685760008415611d56578287015190505b611d608582611ce2565b865550611dc8565b601f198416611d7686611b52565b60005b82811015611d9e57848901518255600182019150602085019450602081019050611d79565b86831015611dbb5784890151611db7601f891682611cc4565b8355505b6001600288020188555050505b50505050505056fea26469706673582212208198fcb301287a0da8d0c5a076e456698e10afe8dc23c6e0c766f3473193f6d464736f6c634300080f0033608060405234801561001057600080fd5b50611280806100206000396000f3fe608060405234801561001057600080fd5b50600436106100625760003560e01c80630b88dd5514610067578063381a3bf7146100835780637aedcde5146100b4578063ae8f00d3146100e5578063e83ddcea14610101578063e9daa70a14610133575b600080fd5b610081600480360381019061007c9190610a4e565b610165565b005b61009d60048036038101906100989190610a8e565b610265565b6040516100ab929190610b79565b60405180910390f35b6100ce60048036038101906100c99190610be6565b6104da565b6040516100dc929190610c22565b60405180910390f35b6100ff60048036038101906100fa9190610d91565b61054e565b005b61011b60048036038101906101169190610be6565b61066b565b60405161012a93929190610e88565b60405180910390f35b61014d60048036038101906101489190610a4e565b61076d565b60405161015c93929190610e88565b60405180910390f35b600060405180604001604052808473ffffffffffffffffffffffffffffffffffffffff1681526020018373ffffffffffffffffffffffffffffffffffffffff16815250908060018154018082558091505060019003906000526020600020906002020160009091909190915060008201518160000160006101000a81548173ffffffffffffffffffffffffffffffffffffffff021916908373ffffffffffffffffffffffffffffffffffffffff16021790555060208201518160010160006101000a81548173ffffffffffffffffffffffffffffffffffffffff021916908373ffffffffffffffffffffffffffffffffffffffff16021790555050505050565b6060806000808054905067ffffffffffffffff81111561028857610287610c66565b5b6040519080825280602002602001820160405280156102b65781602001602082028036833780820191505090505b5090506000808054905067ffffffffffffffff8111156102d9576102d8610c66565b5b6040519080825280602002602001820160405280156103075781602001602082028036833780820191505090505b50905060005b6000805490508110156104cc578573ffffffffffffffffffffffffffffffffffffffff166000828154811061034557610344610ec6565b5b906000526020600020906002020160010160009054906101000a900473ffffffffffffffffffffffffffffffffffffffff1673ffffffffffffffffffffffffffffffffffffffff16036104b957600081815481106103a6576103a5610ec6565b5b906000526020600020906002020160000160009054906101000a900473ffffffffffffffffffffffffffffffffffffffff168382815181106103eb576103ea610ec6565b5b602002602001019073ffffffffffffffffffffffffffffffffffffffff16908173ffffffffffffffffffffffffffffffffffffffff16815250506000818154811061043957610438610ec6565b5b906000526020600020906002020160010160009054906101000a900473ffffffffffffffffffffffffffffffffffffffff1682828151811061047e5761047d610ec6565b5b602002602001019073ffffffffffffffffffffffffffffffffffffffff16908173ffffffffffffffffffffffffffffffffffffffff16815250505b80806104c490610f24565b91505061030d565b508181935093505050915091565b600081815481106104ea57600080fd5b90600052602060002090600202016000915090508060000160009054906101000a900473ffffffffffffffffffffffffffffffffffffffff16908060010160009054906101000a900473ffffffffffffffffffffffffffffffffffffffff16905082565b600160405180606001604052808573ffffffffffffffffffffffffffffffffffffffff1681526020018473ffffffffffffffffffffffffffffffffffffffff16815260200183815250908060018154018082558091505060019003906000526020600020906003020160009091909190915060008201518160000160006101000a81548173ffffffffffffffffffffffffffffffffffffffff021916908373ffffffffffffffffffffffffffffffffffffffff16021790555060208201518160010160006101000a81548173ffffffffffffffffffffffffffffffffffffffff021916908373ffffffffffffffffffffffffffffffffffffffff16021790555060408201518160020190816106639190611178565b505050505050565b6001818154811061067b57600080fd5b90600052602060002090600302016000915090508060000160009054906101000a900473ffffffffffffffffffffffffffffffffffffffff16908060010160009054906101000a900473ffffffffffffffffffffffffffffffffffffffff16908060020180546106ea90610f9b565b80601f016020809104026020016040519081016040528092919081815260200182805461071690610f9b565b80156107635780601f1061073857610100808354040283529160200191610763565b820191906000526020600020905b81548152906001019060200180831161074657829003601f168201915b5050505050905083565b600080606060005b6001805490508110156109d3578473ffffffffffffffffffffffffffffffffffffffff16600182815481106107ad576107ac610ec6565b5b906000526020600020906003020160010160009054906101000a900473ffffffffffffffffffffffffffffffffffffffff1673ffffffffffffffffffffffffffffffffffffffff1614801561087257508573ffffffffffffffffffffffffffffffffffffffff166001828154811061082857610827610ec6565b5b906000526020600020906003020160000160009054906101000a900473ffffffffffffffffffffffffffffffffffffffff1673ffffffffffffffffffffffffffffffffffffffff16145b156109c0576001818154811061088b5761088a610ec6565b5b906000526020600020906003020160000160009054906101000a900473ffffffffffffffffffffffffffffffffffffffff16600182815481106108d1576108d0610ec6565b5b906000526020600020906003020160010160009054906101000a900473ffffffffffffffffffffffffffffffffffffffff166001838154811061091757610916610ec6565b5b906000526020600020906003020160020180805461093490610f9b565b80601f016020809104026020016040519081016040528092919081815260200182805461096090610f9b565b80156109ad5780601f10610982576101008083540402835291602001916109ad565b820191906000526020600020905b81548152906001019060200180831161099057829003601f168201915b50505050509050935093509350506109d5565b80806109cb90610f24565b915050610775565b505b9250925092565b6000604051905090565b600080fd5b600080fd5b600073ffffffffffffffffffffffffffffffffffffffff82169050919050565b6000610a1b826109f0565b9050919050565b610a2b81610a10565b8114610a3657600080fd5b50565b600081359050610a4881610a22565b92915050565b60008060408385031215610a6557610a646109e6565b5b6000610a7385828601610a39565b9250506020610a8485828601610a39565b9150509250929050565b600060208284031215610aa457610aa36109e6565b5b6000610ab284828501610a39565b91505092915050565b600081519050919050565b600082825260208201905092915050565b6000819050602082019050919050565b610af081610a10565b82525050565b6000610b028383610ae7565b60208301905092915050565b6000602082019050919050565b6000610b2682610abb565b610b308185610ac6565b9350610b3b83610ad7565b8060005b83811015610b6c578151610b538882610af6565b9750610b5e83610b0e565b925050600181019050610b3f565b5085935050505092915050565b60006040820190508181036000830152610b938185610b1b565b90508181036020830152610ba78184610b1b565b90509392505050565b6000819050919050565b610bc381610bb0565b8114610bce57600080fd5b50565b600081359050610be081610bba565b92915050565b600060208284031215610bfc57610bfb6109e6565b5b6000610c0a84828501610bd1565b91505092915050565b610c1c81610a10565b82525050565b6000604082019050610c376000830185610c13565b610c446020830184610c13565b9392505050565b600080fd5b600080fd5b6000601f19601f8301169050919050565b7f4e487b7100000000000000000000000000000000000000000000000000000000600052604160045260246000fd5b610c9e82610c55565b810181811067ffffffffffffffff82111715610cbd57610cbc610c66565b5b80604052505050565b6000610cd06109dc565b9050610cdc8282610c95565b919050565b600067ffffffffffffffff821115610cfc57610cfb610c66565b5b610d0582610c55565b9050602081019050919050565b82818337600083830152505050565b6000610d34610d2f84610ce1565b610cc6565b905082815260208101848484011115610d5057610d4f610c50565b5b610d5b848285610d12565b509392505050565b600082601f830112610d7857610d77610c4b565b5b8135610d88848260208601610d21565b91505092915050565b600080600060608486031215610daa57610da96109e6565b5b6000610db886828701610a39565b9350506020610dc986828701610a39565b925050604084013567ffffffffffffffff811115610dea57610de96109eb565b5b610df686828701610d63565b9150509250925092565b600081519050919050565b600082825260208201905092915050565b60005b83811015610e3a578082015181840152602081019050610e1f565b83811115610e49576000848401525b50505050565b6000610e5a82610e00565b610e648185610e0b565b9350610e74818560208601610e1c565b610e7d81610c55565b840191505092915050565b6000606082019050610e9d6000830186610c13565b610eaa6020830185610c13565b8181036040830152610ebc8184610e4f565b9050949350505050565b7f4e487b7100000000000000000000000000000000000000000000000000000000600052603260045260246000fd5b7f4e487b7100000000000000000000000000000000000000000000000000000000600052601160045260246000fd5b6000610f2f82610bb0565b91507fffffffffffffffffffffffffffffffffffffffffffffffffffffffffffffffff8203610f6157610f60610ef5565b5b600182019050919050565b7f4e487b7100000000000000000000000000000000000000000000000000000000600052602260045260246000fd5b60006002820490506001821680610fb357607f821691505b602082108103610fc657610fc5610f6c565b5b50919050565b60008190508160005260206000209050919050565b60006020601f8301049050919050565b600082821b905092915050565b60006008830261102e7fffffffffffffffffffffffffffffffffffffffffffffffffffffffffffffffff82610ff1565b6110388683610ff1565b95508019841693508086168417925050509392505050565b6000819050919050565b600061107561107061106b84610bb0565b611050565b610bb0565b9050919050565b6000819050919050565b61108f8361105a565b6110a361109b8261107c565b848454610ffe565b825550505050565b600090565b6110b86110ab565b6110c3818484611086565b505050565b5b818110156110e7576110dc6000826110b0565b6001810190506110c9565b5050565b601f82111561112c576110fd81610fcc565b61110684610fe1565b81016020851015611115578190505b61112961112185610fe1565b8301826110c8565b50505b505050565b600082821c905092915050565b600061114f60001984600802611131565b1980831691505092915050565b6000611168838361113e565b9150826002028217905092915050565b61118182610e00565b67ffffffffffffffff81111561119a57611199610c66565b5b6111a48254610f9b565b6111af8282856110eb565b600060209050601f8311600181146111e257600084156111d0578287015190505b6111da858261115c565b865550611242565b601f1984166111f086610fcc565b60005b82811015611218578489015182556001820191506020850194506020810190506111f3565b868310156112355784890151611231601f89168261113e565b8355505b6001600288020188555050505b50505050505056fea264697066735822122044fe88807b3fb3a2f0724a5ee485baad8941285b41f9e25607a4d28bdab988dc64736f6c634300080f0033",
  "immutableReferences": {},
  "source": "// SPDX-License-Identifier: MIT\npragma solidity >=0.4.22 <0.9.0;\n\nimport \"./SmartCV_ListStudent.sol\";\nimport \"./SmartCV_ListBusiness.sol\";\nimport \"./SmartCV_Apply.sol\";\n\n//CV dnh cho sinh vin\ncontract Student {\n\n    //Khai bo bin a ch ngi dng\n    address owner;\n\n    // Khai bo bin s d ca ngi dng\n    mapping(address=>uint) balances;\n\n    //Khai contract  import  s dng cc function  contract \n    ListStudent listStudent = new ListStudent();\n    ListBusiness listBusiness = new ListBusiness();\n    ApplyCV applyCV = new ApplyCV();\n\n    // Gn a ch cho ngi dng\n    constructor () {\n        owner =  msg.sender;\n    }\n\n    // Kim tra a ch ngi dng\n    function getSender() public view returns (address){\n        return owner;\n    }\n\n    // ======================================\n    // ======= Student Functions ============\n    // ======================================\n\n    // Thm thng tin sinh vin (ng k)\n    function addStudentProfile (\n        address _studentOwner,\n        string memory _name,\n        string memory _birthDay,\n        string memory _professionalTitle,\n        string memory _email,\n        string memory _github,\n        string memory _linked,\n        string memory _password) public {\n            listStudent.addSV(_studentOwner, _name, _birthDay, _professionalTitle, _email, _github, _linked, _password);\n    }\n\n    function getStudentProfile(address _studentOwner) public view returns(\n        address studentOwner, \n        string memory name, \n        string memory birthDay, \n        string memory professionalTitle, \n        string memory email, \n        string memory github, \n        string memory linkedin,\n        string memory password){\n            return listStudent.getProfile(_studentOwner);\n    }\n    // Kim tra ti khon ngi dng c tn ti hay khng? (ng nhp)\n    function checkStudentProfile(address _studentOwner, string memory _password) public view returns(uint)  {\n        return listStudent.checkSV(_studentOwner, _password);\n    }\n\n    function addStudentSkill (\n        address _studentOwner,\n        string memory _title, \n        uint _level) public {\n            listStudent.addSkill(_studentOwner, _title, _level);\n    }\n\n    function getStudentSkill(address _studentOwner) public view returns(string[] memory,uint[] memory)  {\n        return listStudent.getSkill(_studentOwner);\n    }\n    // //Gi CV\n    function sendCV(address _studentOwner, address _businessOwner) public {\n        applyCV.addCV(_studentOwner, _businessOwner);\n    }\n\n    // Xem nh gi tc tp\n    function getReview(address _studentOwner, address _businessOwner) public view returns(address studentOwner, address businessOwner, string memory content)  {\n        return applyCV.getReview(_studentOwner, _businessOwner);\n    }\n    // ======================================\n    // ======= Business Functions ===========\n    // ======================================\n\n    // Thm thng tin doanh nghip (ng k)\n    function addBusinessProfile (\n        address _businessOwner,\n        string memory _name,\n        string memory _country,\n        string memory _facebook,\n        string memory _website,\n        string memory _linkedin,\n        string memory _focusArea) public {\n            listBusiness.addDN(_businessOwner, _name, _country, _facebook, _website, _linkedin, _focusArea);\n    }\n\n    function getBusinessProfile(address _businessOwner) public view returns(\n        address businessOwner, \n        string memory name, \n        string memory country, \n        string memory facebook, \n        string memory website, \n        string memory linkedin, \n        string memory focusArea) {\n            return listBusiness.getProfile(_businessOwner);\n    }\n\n    // // Ly danh sch CV np vo cng ty\n    function getListCV(address _businessOwner) public view returns(address[] memory, address[] memory)  {\n        return applyCV.getCV(_businessOwner);\n    }\n\n    function getListDN() public view returns(address[] memory, string[] memory, string[] memory, string[] memory, string[] memory, string[] memory, string[] memory) {\n        return listBusiness.getListDN();\n    }\n\n    // nh gi thc tp cho sinh vin\n    function sendReview(address _studentOwner, address _businessOwner, string memory _content) public {\n        applyCV.addReview(_studentOwner, _businessOwner, _content);\n    }\n}",
  "sourcePath": "C:\\Users\\ADMIN\\Desktop\\New folder\\IS_cv\\contracts\\SmartCV_Student.sol",
  "compiler": {
    "name": "solc",
    "version": "0.8.15+commit.e14f2714.Emscripten.clang"
  },
  "schemaVersion": "3.4.7",
  "updatedAt": "2022-07-01T09:35:23.270Z",
  "networkType": "ethereum",
  "devdoc": {
    "kind": "dev",
    "methods": {},
    "version": 1
  },
  "userdoc": {
    "kind": "user",
    "methods": {},
    "version": 1
  }
}