{
  "contractName": "Student",
  "abi": [
    {
      "inputs": [],
      "stateMutability": "nonpayable",
      "type": "constructor"
    },
    {
      "inputs": [],
      "name": "getSender",
      "outputs": [
        {
          "internalType": "address",
          "name": "",
          "type": "address"
        }
      ],
      "stateMutability": "view",
      "type": "function",
      "constant": true
    },
    {
      "inputs": [
        {
          "internalType": "address",
          "name": "_studentOwner",
          "type": "address"
        },
        {
          "internalType": "string",
          "name": "_name",
          "type": "string"
        },
        {
          "internalType": "string",
          "name": "_birthDay",
          "type": "string"
        },
        {
          "internalType": "string",
          "name": "_professionalTitle",
          "type": "string"
        },
        {
          "internalType": "string",
          "name": "_email",
          "type": "string"
        },
        {
          "internalType": "string",
          "name": "_github",
          "type": "string"
        },
        {
          "internalType": "string",
          "name": "_linked",
          "type": "string"
        },
        {
          "internalType": "string",
          "name": "_password",
          "type": "string"
        }
      ],
      "name": "addStudentProfile",
      "outputs": [],
      "stateMutability": "nonpayable",
      "type": "function"
    },
    {
      "inputs": [
        {
          "internalType": "address",
          "name": "_studentOwner",
          "type": "address"
        }
      ],
      "name": "getListStudent",
      "outputs": [
        {
          "internalType": "address[]",
          "name": "",
          "type": "address[]"
        },
        {
          "internalType": "string[]",
          "name": "",
          "type": "string[]"
        },
        {
          "internalType": "string[]",
          "name": "",
          "type": "string[]"
        },
        {
          "internalType": "string[]",
          "name": "",
          "type": "string[]"
        },
        {
          "internalType": "string[]",
          "name": "",
          "type": "string[]"
        },
        {
          "internalType": "string[]",
          "name": "",
          "type": "string[]"
        },
        {
          "internalType": "string[]",
          "name": "",
          "type": "string[]"
        }
      ],
      "stateMutability": "view",
      "type": "function",
      "constant": true
    },
    {
      "inputs": [
        {
          "internalType": "address",
          "name": "_studentOwner",
          "type": "address"
        },
        {
          "internalType": "string",
          "name": "_password",
          "type": "string"
        }
      ],
      "name": "checkProfile",
      "outputs": [
        {
          "internalType": "uint256",
          "name": "",
          "type": "uint256"
        }
      ],
      "stateMutability": "view",
      "type": "function",
      "constant": true
    },
    {
      "inputs": [
        {
          "internalType": "address",
          "name": "_studentOwner",
          "type": "address"
        },
        {
          "internalType": "string",
          "name": "_title",
          "type": "string"
        },
        {
          "internalType": "uint256",
          "name": "_level",
          "type": "uint256"
        }
      ],
      "name": "addSkill",
      "outputs": [],
      "stateMutability": "nonpayable",
      "type": "function"
    },
    {
      "inputs": [
        {
          "internalType": "address",
          "name": "_studentOwner",
          "type": "address"
        }
      ],
      "name": "getSkill",
      "outputs": [
        {
          "internalType": "string[]",
          "name": "",
          "type": "string[]"
        },
        {
          "internalType": "uint256[]",
          "name": "",
          "type": "uint256[]"
        }
      ],
      "stateMutability": "view",
      "type": "function",
      "constant": true
    },
    {
      "inputs": [
        {
          "internalType": "address",
          "name": "_studentOwner",
          "type": "address"
        },
        {
          "internalType": "address",
          "name": "_businessOwner",
          "type": "address"
        }
      ],
      "name": "sendCV",
      "outputs": [],
      "stateMutability": "nonpayable",
      "type": "function"
    },
    {
      "inputs": [
        {
          "internalType": "address",
          "name": "_businessOwner",
          "type": "address"
        },
        {
          "internalType": "string",
          "name": "_name",
          "type": "string"
        },
        {
          "internalType": "string",
          "name": "_country",
          "type": "string"
        },
        {
          "internalType": "string",
          "name": "_facebook",
          "type": "string"
        },
        {
          "internalType": "string",
          "name": "_website",
          "type": "string"
        },
        {
          "internalType": "string",
          "name": "_linkedin",
          "type": "string"
        },
        {
          "internalType": "string",
          "name": "_focusArea",
          "type": "string"
        }
      ],
      "name": "addBusinessProfile",
      "outputs": [],
      "stateMutability": "nonpayable",
      "type": "function"
    },
    {
      "inputs": [
        {
          "internalType": "address",
          "name": "_businessOwner",
          "type": "address"
        }
      ],
      "name": "getListBusiness",
      "outputs": [
        {
          "internalType": "address[]",
          "name": "",
          "type": "address[]"
        },
        {
          "internalType": "string[]",
          "name": "",
          "type": "string[]"
        },
        {
          "internalType": "string[]",
          "name": "",
          "type": "string[]"
        },
        {
          "internalType": "string[]",
          "name": "",
          "type": "string[]"
        },
        {
          "internalType": "string[]",
          "name": "",
          "type": "string[]"
        },
        {
          "internalType": "string[]",
          "name": "",
          "type": "string[]"
        },
        {
          "internalType": "string[]",
          "name": "",
          "type": "string[]"
        }
      ],
      "stateMutability": "view",
      "type": "function",
      "constant": true
    },
    {
      "inputs": [
        {
          "internalType": "address",
          "name": "_businessOwner",
          "type": "address"
        }
      ],
      "name": "getListCV",
      "outputs": [
        {
          "internalType": "address[]",
          "name": "",
          "type": "address[]"
        },
        {
          "internalType": "address[]",
          "name": "",
          "type": "address[]"
        }
      ],
      "stateMutability": "view",
      "type": "function",
      "constant": true
    }
  ],
  "bytecode": "0x608060405260405162000012906200019c565b604051809103906000f0801580156200002f573d6000803e3d6000fd5b50600260006101000a81548173ffffffffffffffffffffffffffffffffffffffff021916908373ffffffffffffffffffffffffffffffffffffffff1602179055506040516200007e90620001aa565b604051809103906000f0801580156200009b573d6000803e3d6000fd5b50600360006101000a81548173ffffffffffffffffffffffffffffffffffffffff021916908373ffffffffffffffffffffffffffffffffffffffff160217905550604051620000ea90620001b8565b604051809103906000f08015801562000107573d6000803e3d6000fd5b50600460006101000a81548173ffffffffffffffffffffffffffffffffffffffff021916908373ffffffffffffffffffffffffffffffffffffffff1602179055503480156200015557600080fd5b50336000806101000a81548173ffffffffffffffffffffffffffffffffffffffff021916908373ffffffffffffffffffffffffffffffffffffffff160217905550620001c6565b6123cd8062001c2483390190565b61193f8062003ff183390190565b610838806200593083390190565b611a4e80620001d66000396000f3fe608060405234801561001057600080fd5b506004361061009e5760003560e01c806360ccb2041161006657806360ccb2041461017957806366b40682146101955780639cd32582146101b1578063ac4b2049146101e2578063b5d95096146102135761009e565b80632820c694146100a35780634bb915e4146100d95780634d9d8bbf1461010f5780635b288a931461013f5780635e01eb5a1461015b575b600080fd5b6100bd60048036038101906100b891906108c6565b61022f565b6040516100d09796959493929190610b0c565b60405180910390f35b6100f360048036038101906100ee91906108c6565b6102f4565b6040516101069796959493929190610b0c565b60405180910390f35b61012960048036038101906101249190610ce1565b6103b9565b6040516101369190610d56565b60405180910390f35b61015960048036038101906101549190610d71565b610461565b005b610163610506565b6040516101709190610efa565b60405180910390f35b610193600480360381019061018e9190610f41565b61052f565b005b6101af60048036038101906101aa9190610fb0565b6105c5565b005b6101cb60048036038101906101c691906108c6565b610658565b6040516101d9929190610ff0565b60405180910390f35b6101fc60048036038101906101f791906108c6565b610705565b60405161020a9291906110e5565b60405180910390f35b61022d6004803603810190610228919061111c565b6107b2565b005b6060806060806060806060600260009054906101000a900473ffffffffffffffffffffffffffffffffffffffff1673ffffffffffffffffffffffffffffffffffffffff166398947ec4896040518263ffffffff1660e01b81526004016102959190610efa565b600060405180830381865afa1580156102b2573d6000803e3d6000fd5b505050506040513d6000823e3d601f19601f820116820180604052508101906102db9190611494565b9650965096509650965096509650919395979092949650565b6060806060806060806060600360009054906101000a900473ffffffffffffffffffffffffffffffffffffffff1673ffffffffffffffffffffffffffffffffffffffff1663c8dd4f8e896040518263ffffffff1660e01b815260040161035a9190610efa565b600060405180830381865afa158015610377573d6000803e3d6000fd5b505050506040513d6000823e3d601f19601f820116820180604052508101906103a09190611494565b9650965096509650965096509650919395979092949650565b6000600260009054906101000a900473ffffffffffffffffffffffffffffffffffffffff1673ffffffffffffffffffffffffffffffffffffffff16638ac62b2b84846040518363ffffffff1660e01b8152600401610418929190611644565b602060405180830381865afa158015610435573d6000803e3d6000fd5b505050506040513d601f19601f820116820180604052508101906104599190611689565b905092915050565b600260009054906101000a900473ffffffffffffffffffffffffffffffffffffffff1673ffffffffffffffffffffffffffffffffffffffff16639fea8e1089898989898989896040518963ffffffff1660e01b81526004016104ca9897969594939291906116b6565b600060405180830381600087803b1580156104e457600080fd5b505af11580156104f8573d6000803e3d6000fd5b505050505050505050505050565b60008060009054906101000a900473ffffffffffffffffffffffffffffffffffffffff16905090565b600260009054906101000a900473ffffffffffffffffffffffffffffffffffffffff1673ffffffffffffffffffffffffffffffffffffffff166360ccb2048484846040518463ffffffff1660e01b815260040161058e93929190611765565b600060405180830381600087803b1580156105a857600080fd5b505af11580156105bc573d6000803e3d6000fd5b50505050505050565b600460009054906101000a900473ffffffffffffffffffffffffffffffffffffffff1673ffffffffffffffffffffffffffffffffffffffff16630b88dd5583836040518363ffffffff1660e01b81526004016106229291906117a3565b600060405180830381600087803b15801561063c57600080fd5b505af1158015610650573d6000803e3d6000fd5b505050505050565b606080600460009054906101000a900473ffffffffffffffffffffffffffffffffffffffff1673ffffffffffffffffffffffffffffffffffffffff1663381a3bf7846040518263ffffffff1660e01b81526004016106b69190610efa565b600060405180830381865afa1580156106d3573d6000803e3d6000fd5b505050506040513d6000823e3d601f19601f820116820180604052508101906106fc91906117cc565b91509150915091565b606080600260009054906101000a900473ffffffffffffffffffffffffffffffffffffffff1673ffffffffffffffffffffffffffffffffffffffff1663ac4b2049846040518263ffffffff1660e01b81526004016107639190610efa565b600060405180830381865afa158015610780573d6000803e3d6000fd5b505050506040513d6000823e3d601f19601f820116820180604052508101906107a99190611907565b91509150915091565b600360009054906101000a900473ffffffffffffffffffffffffffffffffffffffff1673ffffffffffffffffffffffffffffffffffffffff16631ed6aeec888888888888886040518863ffffffff1660e01b8152600401610819979695949392919061197f565b600060405180830381600087803b15801561083357600080fd5b505af1158015610847573d6000803e3d6000fd5b5050505050505050505050565b6000604051905090565b600080fd5b600080fd5b600073ffffffffffffffffffffffffffffffffffffffff82169050919050565b600061089382610868565b9050919050565b6108a381610888565b81146108ae57600080fd5b50565b6000813590506108c08161089a565b92915050565b6000602082840312156108dc576108db61085e565b5b60006108ea848285016108b1565b91505092915050565b600081519050919050565b600082825260208201905092915050565b6000819050602082019050919050565b61092881610888565b82525050565b600061093a838361091f565b60208301905092915050565b6000602082019050919050565b600061095e826108f3565b61096881856108fe565b93506109738361090f565b8060005b838110156109a457815161098b888261092e565b975061099683610946565b925050600181019050610977565b5085935050505092915050565b600081519050919050565b600082825260208201905092915050565b6000819050602082019050919050565b600081519050919050565b600082825260208201905092915050565b60005b83811015610a175780820151818401526020810190506109fc565b83811115610a26576000848401525b50505050565b6000601f19601f8301169050919050565b6000610a48826109dd565b610a5281856109e8565b9350610a628185602086016109f9565b610a6b81610a2c565b840191505092915050565b6000610a828383610a3d565b905092915050565b6000602082019050919050565b6000610aa2826109b1565b610aac81856109bc565b935083602082028501610abe856109cd565b8060005b85811015610afa5784840389528151610adb8582610a76565b9450610ae683610a8a565b925060208a01995050600181019050610ac2565b50829750879550505050505092915050565b600060e0820190508181036000830152610b26818a610953565b90508181036020830152610b3a8189610a97565b90508181036040830152610b4e8188610a97565b90508181036060830152610b628187610a97565b90508181036080830152610b768186610a97565b905081810360a0830152610b8a8185610a97565b905081810360c0830152610b9e8184610a97565b905098975050505050505050565b600080fd5b600080fd5b7f4e487b7100000000000000000000000000000000000000000000000000000000600052604160045260246000fd5b610bee82610a2c565b810181811067ffffffffffffffff82111715610c0d57610c0c610bb6565b5b80604052505050565b6000610c20610854565b9050610c2c8282610be5565b919050565b600067ffffffffffffffff821115610c4c57610c4b610bb6565b5b610c5582610a2c565b9050602081019050919050565b82818337600083830152505050565b6000610c84610c7f84610c31565b610c16565b905082815260208101848484011115610ca057610c9f610bb1565b5b610cab848285610c62565b509392505050565b600082601f830112610cc857610cc7610bac565b5b8135610cd8848260208601610c71565b91505092915050565b60008060408385031215610cf857610cf761085e565b5b6000610d06858286016108b1565b925050602083013567ffffffffffffffff811115610d2757610d26610863565b5b610d3385828601610cb3565b9150509250929050565b6000819050919050565b610d5081610d3d565b82525050565b6000602082019050610d6b6000830184610d47565b92915050565b600080600080600080600080610100898b031215610d9257610d9161085e565b5b6000610da08b828c016108b1565b985050602089013567ffffffffffffffff811115610dc157610dc0610863565b5b610dcd8b828c01610cb3565b975050604089013567ffffffffffffffff811115610dee57610ded610863565b5b610dfa8b828c01610cb3565b965050606089013567ffffffffffffffff811115610e1b57610e1a610863565b5b610e278b828c01610cb3565b955050608089013567ffffffffffffffff811115610e4857610e47610863565b5b610e548b828c01610cb3565b94505060a089013567ffffffffffffffff811115610e7557610e74610863565b5b610e818b828c01610cb3565b93505060c089013567ffffffffffffffff811115610ea257610ea1610863565b5b610eae8b828c01610cb3565b92505060e089013567ffffffffffffffff811115610ecf57610ece610863565b5b610edb8b828c01610cb3565b9150509295985092959890939650565b610ef481610888565b82525050565b6000602082019050610f0f6000830184610eeb565b92915050565b610f1e81610d3d565b8114610f2957600080fd5b50565b600081359050610f3b81610f15565b92915050565b600080600060608486031215610f5a57610f5961085e565b5b6000610f68868287016108b1565b935050602084013567ffffffffffffffff811115610f8957610f88610863565b5b610f9586828701610cb3565b9250506040610fa686828701610f2c565b9150509250925092565b60008060408385031215610fc757610fc661085e565b5b6000610fd5858286016108b1565b9250506020610fe6858286016108b1565b9150509250929050565b6000604082019050818103600083015261100a8185610953565b9050818103602083015261101e8184610953565b90509392505050565b600081519050919050565b600082825260208201905092915050565b6000819050602082019050919050565b61105c81610d3d565b82525050565b600061106e8383611053565b60208301905092915050565b6000602082019050919050565b600061109282611027565b61109c8185611032565b93506110a783611043565b8060005b838110156110d85781516110bf8882611062565b97506110ca8361107a565b9250506001810190506110ab565b5085935050505092915050565b600060408201905081810360008301526110ff8185610a97565b905081810360208301526111138184611087565b90509392505050565b600080600080600080600060e0888a03121561113b5761113a61085e565b5b60006111498a828b016108b1565b975050602088013567ffffffffffffffff81111561116a57611169610863565b5b6111768a828b01610cb3565b965050604088013567ffffffffffffffff81111561119757611196610863565b5b6111a38a828b01610cb3565b955050606088013567ffffffffffffffff8111156111c4576111c3610863565b5b6111d08a828b01610cb3565b945050608088013567ffffffffffffffff8111156111f1576111f0610863565b5b6111fd8a828b01610cb3565b93505060a088013567ffffffffffffffff81111561121e5761121d610863565b5b61122a8a828b01610cb3565b92505060c088013567ffffffffffffffff81111561124b5761124a610863565b5b6112578a828b01610cb3565b91505092959891949750929550565b600067ffffffffffffffff82111561128157611280610bb6565b5b602082029050602081019050919050565b600080fd5b6000815190506112a68161089a565b92915050565b60006112bf6112ba84611266565b610c16565b905080838252602082019050602084028301858111156112e2576112e1611292565b5b835b8181101561130b57806112f78882611297565b8452602084019350506020810190506112e4565b5050509392505050565b600082601f83011261132a57611329610bac565b5b815161133a8482602086016112ac565b91505092915050565b600067ffffffffffffffff82111561135e5761135d610bb6565b5b602082029050602081019050919050565b600061138261137d84610c31565b610c16565b90508281526020810184848401111561139e5761139d610bb1565b5b6113a98482856109f9565b509392505050565b600082601f8301126113c6576113c5610bac565b5b81516113d684826020860161136f565b91505092915050565b60006113f26113ed84611343565b610c16565b9050808382526020820190506020840283018581111561141557611414611292565b5b835b8181101561145c57805167ffffffffffffffff81111561143a57611439610bac565b5b80860161144789826113b1565b85526020850194505050602081019050611417565b5050509392505050565b600082601f83011261147b5761147a610bac565b5b815161148b8482602086016113df565b91505092915050565b600080600080600080600060e0888a0312156114b3576114b261085e565b5b600088015167ffffffffffffffff8111156114d1576114d0610863565b5b6114dd8a828b01611315565b975050602088015167ffffffffffffffff8111156114fe576114fd610863565b5b61150a8a828b01611466565b965050604088015167ffffffffffffffff81111561152b5761152a610863565b5b6115378a828b01611466565b955050606088015167ffffffffffffffff81111561155857611557610863565b5b6115648a828b01611466565b945050608088015167ffffffffffffffff81111561158557611584610863565b5b6115918a828b01611466565b93505060a088015167ffffffffffffffff8111156115b2576115b1610863565b5b6115be8a828b01611466565b92505060c088015167ffffffffffffffff8111156115df576115de610863565b5b6115eb8a828b01611466565b91505092959891949750929550565b600082825260208201905092915050565b6000611616826109dd565b61162081856115fa565b93506116308185602086016109f9565b61163981610a2c565b840191505092915050565b60006040820190506116596000830185610eeb565b818103602083015261166b818461160b565b90509392505050565b60008151905061168381610f15565b92915050565b60006020828403121561169f5761169e61085e565b5b60006116ad84828501611674565b91505092915050565b6000610100820190506116cc600083018b610eeb565b81810360208301526116de818a61160b565b905081810360408301526116f2818961160b565b90508181036060830152611706818861160b565b9050818103608083015261171a818761160b565b905081810360a083015261172e818661160b565b905081810360c0830152611742818561160b565b905081810360e0830152611756818461160b565b90509998505050505050505050565b600060608201905061177a6000830186610eeb565b818103602083015261178c818561160b565b905061179b6040830184610d47565b949350505050565b60006040820190506117b86000830185610eeb565b6117c56020830184610eeb565b9392505050565b600080604083850312156117e3576117e261085e565b5b600083015167ffffffffffffffff81111561180157611800610863565b5b61180d85828601611315565b925050602083015167ffffffffffffffff81111561182e5761182d610863565b5b61183a85828601611315565b9150509250929050565b600067ffffffffffffffff82111561185f5761185e610bb6565b5b602082029050602081019050919050565b600061188361187e84611844565b610c16565b905080838252602082019050602084028301858111156118a6576118a5611292565b5b835b818110156118cf57806118bb8882611674565b8452602084019350506020810190506118a8565b5050509392505050565b600082601f8301126118ee576118ed610bac565b5b81516118fe848260208601611870565b91505092915050565b6000806040838503121561191e5761191d61085e565b5b600083015167ffffffffffffffff81111561193c5761193b610863565b5b61194885828601611466565b925050602083015167ffffffffffffffff81111561196957611968610863565b5b611975858286016118d9565b9150509250929050565b600060e082019050611994600083018a610eeb565b81810360208301526119a6818961160b565b905081810360408301526119ba818861160b565b905081810360608301526119ce818761160b565b905081810360808301526119e2818661160b565b905081810360a08301526119f6818561160b565b905081810360c0830152611a0a818461160b565b90509897505050505050505056fea26469706673582212206ab0f703626e36e8db9ff80773612c57be104568730e5e4129755e7ba9c3ec0264736f6c634300080f0033608060405234801561001057600080fd5b506123ad806100206000396000f3fe608060405234801561001057600080fd5b506004361061007d5760003560e01c80638ac62b2b1161005b5780638ac62b2b1461010757806398947ec4146101375780639fea8e101461016d578063ac4b2049146101895761007d565b80633aff2cc51461008257806360ccb204146100b457806367047107146100d0575b600080fd5b61009c6004803603810190610097919061157d565b6101ba565b6040516100ab93929190611693565b60405180910390f35b6100ce60048036038101906100c99190611832565b61029c565b005b6100ea60048036038101906100e5919061157d565b6103b7565b6040516100fe9897969594939291906118a1565b60405180910390f35b610121600480360381019061011c9190611950565b6107e7565b60405161012e91906119ac565b60405180910390f35b610151600480360381019061014c91906119c7565b6108e5565b6040516101649796959493929190611bbe565b60405180910390f35b61018760048036038101906101829190611c5e565b611164565b005b6101a3600480360381019061019e91906119c7565b6112cc565b6040516101b1929190611e96565b60405180910390f35b600181815481106101ca57600080fd5b90600052602060002090600302016000915090508060000160009054906101000a900473ffffffffffffffffffffffffffffffffffffffff169080600101805461021390611efc565b80601f016020809104026020016040519081016040528092919081815260200182805461023f90611efc565b801561028c5780601f106102615761010080835404028352916020019161028c565b820191906000526020600020905b81548152906001019060200180831161026f57829003601f168201915b5050505050908060020154905083565b600081101580156102ae575060648111155b6102ed576040517f08c379a00000000000000000000000000000000000000000000000000000000081526004016102e490611f79565b60405180910390fd5b600160405180606001604052808573ffffffffffffffffffffffffffffffffffffffff16815260200184815260200183815250908060018154018082558091505060019003906000526020600020906003020160009091909190915060008201518160000160006101000a81548173ffffffffffffffffffffffffffffffffffffffff021916908373ffffffffffffffffffffffffffffffffffffffff16021790555060208201518160010190816103a59190612145565b50604082015181600201555050505050565b600081815481106103c757600080fd5b90600052602060002090600802016000915090508060000160009054906101000a900473ffffffffffffffffffffffffffffffffffffffff169080600101805461041090611efc565b80601f016020809104026020016040519081016040528092919081815260200182805461043c90611efc565b80156104895780601f1061045e57610100808354040283529160200191610489565b820191906000526020600020905b81548152906001019060200180831161046c57829003601f168201915b50505050509080600201805461049e90611efc565b80601f01602080910402602001604051908101604052809291908181526020018280546104ca90611efc565b80156105175780601f106104ec57610100808354040283529160200191610517565b820191906000526020600020905b8154815290600101906020018083116104fa57829003601f168201915b50505050509080600301805461052c90611efc565b80601f016020809104026020016040519081016040528092919081815260200182805461055890611efc565b80156105a55780601f1061057a576101008083540402835291602001916105a5565b820191906000526020600020905b81548152906001019060200180831161058857829003601f168201915b5050505050908060040180546105ba90611efc565b80601f01602080910402602001604051908101604052809291908181526020018280546105e690611efc565b80156106335780601f1061060857610100808354040283529160200191610633565b820191906000526020600020905b81548152906001019060200180831161061657829003601f168201915b50505050509080600501805461064890611efc565b80601f016020809104026020016040519081016040528092919081815260200182805461067490611efc565b80156106c15780601f10610696576101008083540402835291602001916106c1565b820191906000526020600020905b8154815290600101906020018083116106a457829003601f168201915b5050505050908060060180546106d690611efc565b80601f016020809104026020016040519081016040528092919081815260200182805461070290611efc565b801561074f5780601f106107245761010080835404028352916020019161074f565b820191906000526020600020905b81548152906001019060200180831161073257829003601f168201915b50505050509080600701805461076490611efc565b80601f016020809104026020016040519081016040528092919081815260200182805461079090611efc565b80156107dd5780601f106107b2576101008083540402835291602001916107dd565b820191906000526020600020905b8154815290600101906020018083116107c057829003601f168201915b5050505050905088565b600080600090505b6000805490508110156108dd578373ffffffffffffffffffffffffffffffffffffffff166000828154811061082757610826612217565b5b906000526020600020906008020160000160009054906101000a900473ffffffffffffffffffffffffffffffffffffffff1673ffffffffffffffffffffffffffffffffffffffff161480156108bb575082805190602001206000828154811061089357610892612217565b5b90600052602060002090600802016007016040516108b191906122e9565b6040518091039020145b156108ca5760019150506108df565b80806108d59061232f565b9150506107ef565b505b92915050565b60608060608060608060606000808054905067ffffffffffffffff8111156109105761090f611707565b5b60405190808252806020026020018201604052801561093e5781602001602082028036833780820191505090505b5090506000808054905067ffffffffffffffff81111561096157610960611707565b5b60405190808252806020026020018201604052801561099457816020015b606081526020019060019003908161097f5790505b5090506000808054905067ffffffffffffffff8111156109b7576109b6611707565b5b6040519080825280602002602001820160405280156109ea57816020015b60608152602001906001900390816109d55790505b5090506000808054905067ffffffffffffffff811115610a0d57610a0c611707565b5b604051908082528060200260200182016040528015610a4057816020015b6060815260200190600190039081610a2b5790505b5090506000808054905067ffffffffffffffff811115610a6357610a62611707565b5b604051908082528060200260200182016040528015610a9657816020015b6060815260200190600190039081610a815790505b5090506000808054905067ffffffffffffffff811115610ab957610ab8611707565b5b604051908082528060200260200182016040528015610aec57816020015b6060815260200190600190039081610ad75790505b5090506000808054905067ffffffffffffffff811115610b0f57610b0e611707565b5b604051908082528060200260200182016040528015610b4257816020015b6060815260200190600190039081610b2d5790505b50905060005b60008054905081101561113c578f73ffffffffffffffffffffffffffffffffffffffff1660008281548110610b8057610b7f612217565b5b906000526020600020906008020160000160009054906101000a900473ffffffffffffffffffffffffffffffffffffffff1673ffffffffffffffffffffffffffffffffffffffff16036111295760008181548110610be157610be0612217565b5b906000526020600020906008020160000160009054906101000a900473ffffffffffffffffffffffffffffffffffffffff16888281518110610c2657610c25612217565b5b602002602001019073ffffffffffffffffffffffffffffffffffffffff16908173ffffffffffffffffffffffffffffffffffffffff168152505060008181548110610c7457610c73612217565b5b90600052602060002090600802016001018054610c9090611efc565b80601f0160208091040260200160405190810160405280929190818152602001828054610cbc90611efc565b8015610d095780601f10610cde57610100808354040283529160200191610d09565b820191906000526020600020905b815481529060010190602001808311610cec57829003601f168201915b5050505050878281518110610d2157610d20612217565b5b602002602001018190525060008181548110610d4057610d3f612217565b5b90600052602060002090600802016002018054610d5c90611efc565b80601f0160208091040260200160405190810160405280929190818152602001828054610d8890611efc565b8015610dd55780601f10610daa57610100808354040283529160200191610dd5565b820191906000526020600020905b815481529060010190602001808311610db857829003601f168201915b5050505050868281518110610ded57610dec612217565b5b602002602001018190525060008181548110610e0c57610e0b612217565b5b90600052602060002090600802016003018054610e2890611efc565b80601f0160208091040260200160405190810160405280929190818152602001828054610e5490611efc565b8015610ea15780601f10610e7657610100808354040283529160200191610ea1565b820191906000526020600020905b815481529060010190602001808311610e8457829003601f168201915b5050505050858281518110610eb957610eb8612217565b5b602002602001018190525060008181548110610ed857610ed7612217565b5b90600052602060002090600802016004018054610ef490611efc565b80601f0160208091040260200160405190810160405280929190818152602001828054610f2090611efc565b8015610f6d5780601f10610f4257610100808354040283529160200191610f6d565b820191906000526020600020905b815481529060010190602001808311610f5057829003601f168201915b5050505050848281518110610f8557610f84612217565b5b602002602001018190525060008181548110610fa457610fa3612217565b5b90600052602060002090600802016005018054610fc090611efc565b80601f0160208091040260200160405190810160405280929190818152602001828054610fec90611efc565b80156110395780601f1061100e57610100808354040283529160200191611039565b820191906000526020600020905b81548152906001019060200180831161101c57829003601f168201915b505050505083828151811061105157611050612217565b5b6020026020010181905250600081815481106110705761106f612217565b5b9060005260206000209060080201600601805461108c90611efc565b80601f01602080910402602001604051908101604052809291908181526020018280546110b890611efc565b80156111055780601f106110da57610100808354040283529160200191611105565b820191906000526020600020905b8154815290600101906020018083116110e857829003601f168201915b505050505082828151811061111d5761111c612217565b5b60200260200101819052505b80806111349061232f565b915050610b48565b50868686868686869d509d509d509d509d509d509d5050505050505050919395979092949650565b60006040518061010001604052808a73ffffffffffffffffffffffffffffffffffffffff16815260200189815260200188815260200187815260200186815260200185815260200184815260200183815250908060018154018082558091505060019003906000526020600020906008020160009091909190915060008201518160000160006101000a81548173ffffffffffffffffffffffffffffffffffffffff021916908373ffffffffffffffffffffffffffffffffffffffff160217905550602082015181600101908161123b9190612145565b5060408201518160020190816112519190612145565b5060608201518160030190816112679190612145565b50608082015181600401908161127d9190612145565b5060a08201518160050190816112939190612145565b5060c08201518160060190816112a99190612145565b5060e08201518160070190816112bf9190612145565b5050505050505050505050565b606080600060018054905067ffffffffffffffff8111156112f0576112ef611707565b5b60405190808252806020026020018201604052801561132357816020015b606081526020019060019003908161130e5790505b509050600060018054905067ffffffffffffffff81111561134757611346611707565b5b6040519080825280602002602001820160405280156113755781602001602082028036833780820191505090505b50905060005b600180549050811015611525578573ffffffffffffffffffffffffffffffffffffffff16600182815481106113b3576113b2612217565b5b906000526020600020906003020160000160009054906101000a900473ffffffffffffffffffffffffffffffffffffffff1673ffffffffffffffffffffffffffffffffffffffff1603611512576001818154811061141457611413612217565b5b9060005260206000209060030201600101805461143090611efc565b80601f016020809104026020016040519081016040528092919081815260200182805461145c90611efc565b80156114a95780601f1061147e576101008083540402835291602001916114a9565b820191906000526020600020905b81548152906001019060200180831161148c57829003601f168201915b50505050508382815181106114c1576114c0612217565b5b6020026020010181905250600181815481106114e0576114df612217565b5b90600052602060002090600302016002015482828151811061150557611504612217565b5b6020026020010181815250505b808061151d9061232f565b91505061137b565b508181935093505050915091565b6000604051905090565b600080fd5b600080fd5b6000819050919050565b61155a81611547565b811461156557600080fd5b50565b60008135905061157781611551565b92915050565b6000602082840312156115935761159261153d565b5b60006115a184828501611568565b91505092915050565b600073ffffffffffffffffffffffffffffffffffffffff82169050919050565b60006115d5826115aa565b9050919050565b6115e5816115ca565b82525050565b600081519050919050565b600082825260208201905092915050565b60005b8381101561162557808201518184015260208101905061160a565b83811115611634576000848401525b50505050565b6000601f19601f8301169050919050565b6000611656826115eb565b61166081856115f6565b9350611670818560208601611607565b6116798161163a565b840191505092915050565b61168d81611547565b82525050565b60006060820190506116a860008301866115dc565b81810360208301526116ba818561164b565b90506116c96040830184611684565b949350505050565b6116da816115ca565b81146116e557600080fd5b50565b6000813590506116f7816116d1565b92915050565b600080fd5b600080fd5b7f4e487b7100000000000000000000000000000000000000000000000000000000600052604160045260246000fd5b61173f8261163a565b810181811067ffffffffffffffff8211171561175e5761175d611707565b5b80604052505050565b6000611771611533565b905061177d8282611736565b919050565b600067ffffffffffffffff82111561179d5761179c611707565b5b6117a68261163a565b9050602081019050919050565b82818337600083830152505050565b60006117d56117d084611782565b611767565b9050828152602081018484840111156117f1576117f0611702565b5b6117fc8482856117b3565b509392505050565b600082601f830112611819576118186116fd565b5b81356118298482602086016117c2565b91505092915050565b60008060006060848603121561184b5761184a61153d565b5b6000611859868287016116e8565b935050602084013567ffffffffffffffff81111561187a57611879611542565b5b61188686828701611804565b925050604061189786828701611568565b9150509250925092565b6000610100820190506118b7600083018b6115dc565b81810360208301526118c9818a61164b565b905081810360408301526118dd818961164b565b905081810360608301526118f1818861164b565b90508181036080830152611905818761164b565b905081810360a0830152611919818661164b565b905081810360c083015261192d818561164b565b905081810360e0830152611941818461164b565b90509998505050505050505050565b600080604083850312156119675761196661153d565b5b6000611975858286016116e8565b925050602083013567ffffffffffffffff81111561199657611995611542565b5b6119a285828601611804565b9150509250929050565b60006020820190506119c16000830184611684565b92915050565b6000602082840312156119dd576119dc61153d565b5b60006119eb848285016116e8565b91505092915050565b600081519050919050565b600082825260208201905092915050565b6000819050602082019050919050565b611a29816115ca565b82525050565b6000611a3b8383611a20565b60208301905092915050565b6000602082019050919050565b6000611a5f826119f4565b611a6981856119ff565b9350611a7483611a10565b8060005b83811015611aa5578151611a8c8882611a2f565b9750611a9783611a47565b925050600181019050611a78565b5085935050505092915050565b600081519050919050565b600082825260208201905092915050565b6000819050602082019050919050565b600082825260208201905092915050565b6000611afa826115eb565b611b048185611ade565b9350611b14818560208601611607565b611b1d8161163a565b840191505092915050565b6000611b348383611aef565b905092915050565b6000602082019050919050565b6000611b5482611ab2565b611b5e8185611abd565b935083602082028501611b7085611ace565b8060005b85811015611bac5784840389528151611b8d8582611b28565b9450611b9883611b3c565b925060208a01995050600181019050611b74565b50829750879550505050505092915050565b600060e0820190508181036000830152611bd8818a611a54565b90508181036020830152611bec8189611b49565b90508181036040830152611c008188611b49565b90508181036060830152611c148187611b49565b90508181036080830152611c288186611b49565b905081810360a0830152611c3c8185611b49565b905081810360c0830152611c508184611b49565b905098975050505050505050565b600080600080600080600080610100898b031215611c7f57611c7e61153d565b5b6000611c8d8b828c016116e8565b985050602089013567ffffffffffffffff811115611cae57611cad611542565b5b611cba8b828c01611804565b975050604089013567ffffffffffffffff811115611cdb57611cda611542565b5b611ce78b828c01611804565b965050606089013567ffffffffffffffff811115611d0857611d07611542565b5b611d148b828c01611804565b955050608089013567ffffffffffffffff811115611d3557611d34611542565b5b611d418b828c01611804565b94505060a089013567ffffffffffffffff811115611d6257611d61611542565b5b611d6e8b828c01611804565b93505060c089013567ffffffffffffffff811115611d8f57611d8e611542565b5b611d9b8b828c01611804565b92505060e089013567ffffffffffffffff811115611dbc57611dbb611542565b5b611dc88b828c01611804565b9150509295985092959890939650565b600081519050919050565b600082825260208201905092915050565b6000819050602082019050919050565b611e0d81611547565b82525050565b6000611e1f8383611e04565b60208301905092915050565b6000602082019050919050565b6000611e4382611dd8565b611e4d8185611de3565b9350611e5883611df4565b8060005b83811015611e89578151611e708882611e13565b9750611e7b83611e2b565b925050600181019050611e5c565b5085935050505092915050565b60006040820190508181036000830152611eb08185611b49565b90508181036020830152611ec48184611e38565b90509392505050565b7f4e487b7100000000000000000000000000000000000000000000000000000000600052602260045260246000fd5b60006002820490506001821680611f1457607f821691505b602082108103611f2757611f26611ecd565b5b50919050565b7f4c6576656c206f6620736b696c6c20696e636f72726563742e00000000000000600082015250565b6000611f636019836115f6565b9150611f6e82611f2d565b602082019050919050565b60006020820190508181036000830152611f9281611f56565b9050919050565b60008190508160005260206000209050919050565b60006020601f8301049050919050565b600082821b905092915050565b600060088302611ffb7fffffffffffffffffffffffffffffffffffffffffffffffffffffffffffffffff82611fbe565b6120058683611fbe565b95508019841693508086168417925050509392505050565b6000819050919050565b600061204261203d61203884611547565b61201d565b611547565b9050919050565b6000819050919050565b61205c83612027565b61207061206882612049565b848454611fcb565b825550505050565b600090565b612085612078565b612090818484612053565b505050565b5b818110156120b4576120a960008261207d565b600181019050612096565b5050565b601f8211156120f9576120ca81611f99565b6120d384611fae565b810160208510156120e2578190505b6120f66120ee85611fae565b830182612095565b50505b505050565b600082821c905092915050565b600061211c600019846008026120fe565b1980831691505092915050565b6000612135838361210b565b9150826002028217905092915050565b61214e826115eb565b67ffffffffffffffff81111561216757612166611707565b5b6121718254611efc565b61217c8282856120b8565b600060209050601f8311600181146121af576000841561219d578287015190505b6121a78582612129565b86555061220f565b601f1984166121bd86611f99565b60005b828110156121e5578489015182556001820191506020850194506020810190506121c0565b8683101561220257848901516121fe601f89168261210b565b8355505b6001600288020188555050505b505050505050565b7f4e487b7100000000000000000000000000000000000000000000000000000000600052603260045260246000fd5b600081905092915050565b60008190508160005260206000209050919050565b6000815461227381611efc565b61227d8186612246565b9450600182166000811461229857600181146122ad576122e0565b60ff19831686528115158202860193506122e0565b6122b685612251565b60005b838110156122d8578154818901526001820191506020810190506122b9565b838801955050505b50505092915050565b60006122f58284612266565b915081905092915050565b7f4e487b7100000000000000000000000000000000000000000000000000000000600052601160045260246000fd5b600061233a82611547565b91507fffffffffffffffffffffffffffffffffffffffffffffffffffffffffffffffff820361236c5761236b612300565b5b60018201905091905056fea2646970667358221220611e828f34cf19799c1068067a4ccf739813e4a36b713435d4aa573b5334e2e664736f6c634300080f0033608060405234801561001057600080fd5b5061191f806100206000396000f3fe608060405234801561001057600080fd5b50600436106100415760003560e01c80631ed6aeec14610046578063bf44b30314610062578063c8dd4f8e14610098575b600080fd5b610060600480360381019061005b9190610ff1565b6100ce565b005b61007c60048036038101906100779190611171565b610218565b60405161008f9796959493929190611235565b60405180910390f35b6100b260048036038101906100ad91906112ce565b6105ba565b6040516100c597969594939291906114c5565b60405180910390f35b60006040518060e001604052808973ffffffffffffffffffffffffffffffffffffffff16815260200188815260200187815260200186815260200185815260200184815260200183815250908060018154018082558091505060019003906000526020600020906007020160009091909190915060008201518160000160006101000a81548173ffffffffffffffffffffffffffffffffffffffff021916908373ffffffffffffffffffffffffffffffffffffffff160217905550602082015181600101908161019e9190611771565b5060408201518160020190816101b49190611771565b5060608201518160030190816101ca9190611771565b5060808201518160040190816101e09190611771565b5060a08201518160050190816101f69190611771565b5060c082015181600601908161020c9190611771565b50505050505050505050565b6000818154811061022857600080fd5b90600052602060002090600702016000915090508060000160009054906101000a900473ffffffffffffffffffffffffffffffffffffffff169080600101805461027190611594565b80601f016020809104026020016040519081016040528092919081815260200182805461029d90611594565b80156102ea5780601f106102bf576101008083540402835291602001916102ea565b820191906000526020600020905b8154815290600101906020018083116102cd57829003601f168201915b5050505050908060020180546102ff90611594565b80601f016020809104026020016040519081016040528092919081815260200182805461032b90611594565b80156103785780601f1061034d57610100808354040283529160200191610378565b820191906000526020600020905b81548152906001019060200180831161035b57829003601f168201915b50505050509080600301805461038d90611594565b80601f01602080910402602001604051908101604052809291908181526020018280546103b990611594565b80156104065780601f106103db57610100808354040283529160200191610406565b820191906000526020600020905b8154815290600101906020018083116103e957829003601f168201915b50505050509080600401805461041b90611594565b80601f016020809104026020016040519081016040528092919081815260200182805461044790611594565b80156104945780601f1061046957610100808354040283529160200191610494565b820191906000526020600020905b81548152906001019060200180831161047757829003601f168201915b5050505050908060050180546104a990611594565b80601f01602080910402602001604051908101604052809291908181526020018280546104d590611594565b80156105225780601f106104f757610100808354040283529160200191610522565b820191906000526020600020905b81548152906001019060200180831161050557829003601f168201915b50505050509080600601805461053790611594565b80601f016020809104026020016040519081016040528092919081815260200182805461056390611594565b80156105b05780601f10610585576101008083540402835291602001916105b0565b820191906000526020600020905b81548152906001019060200180831161059357829003601f168201915b5050505050905087565b60608060608060608060606000808054905067ffffffffffffffff8111156105e5576105e4610ec6565b5b6040519080825280602002602001820160405280156106135781602001602082028036833780820191505090505b5090506000808054905067ffffffffffffffff81111561063657610635610ec6565b5b60405190808252806020026020018201604052801561066957816020015b60608152602001906001900390816106545790505b5090506000808054905067ffffffffffffffff81111561068c5761068b610ec6565b5b6040519080825280602002602001820160405280156106bf57816020015b60608152602001906001900390816106aa5790505b5090506000808054905067ffffffffffffffff8111156106e2576106e1610ec6565b5b60405190808252806020026020018201604052801561071557816020015b60608152602001906001900390816107005790505b5090506000808054905067ffffffffffffffff81111561073857610737610ec6565b5b60405190808252806020026020018201604052801561076b57816020015b60608152602001906001900390816107565790505b5090506000808054905067ffffffffffffffff81111561078e5761078d610ec6565b5b6040519080825280602002602001820160405280156107c157816020015b60608152602001906001900390816107ac5790505b5090506000808054905067ffffffffffffffff8111156107e4576107e3610ec6565b5b60405190808252806020026020018201604052801561081757816020015b60608152602001906001900390816108025790505b50905060005b600080549050811015610e11578f73ffffffffffffffffffffffffffffffffffffffff166000828154811061085557610854611843565b5b906000526020600020906007020160000160009054906101000a900473ffffffffffffffffffffffffffffffffffffffff1673ffffffffffffffffffffffffffffffffffffffff1603610dfe57600081815481106108b6576108b5611843565b5b906000526020600020906007020160000160009054906101000a900473ffffffffffffffffffffffffffffffffffffffff168882815181106108fb576108fa611843565b5b602002602001019073ffffffffffffffffffffffffffffffffffffffff16908173ffffffffffffffffffffffffffffffffffffffff16815250506000818154811061094957610948611843565b5b9060005260206000209060070201600101805461096590611594565b80601f016020809104026020016040519081016040528092919081815260200182805461099190611594565b80156109de5780601f106109b3576101008083540402835291602001916109de565b820191906000526020600020905b8154815290600101906020018083116109c157829003601f168201915b50505050508782815181106109f6576109f5611843565b5b602002602001018190525060008181548110610a1557610a14611843565b5b90600052602060002090600702016002018054610a3190611594565b80601f0160208091040260200160405190810160405280929190818152602001828054610a5d90611594565b8015610aaa5780601f10610a7f57610100808354040283529160200191610aaa565b820191906000526020600020905b815481529060010190602001808311610a8d57829003601f168201915b5050505050868281518110610ac257610ac1611843565b5b602002602001018190525060008181548110610ae157610ae0611843565b5b90600052602060002090600702016003018054610afd90611594565b80601f0160208091040260200160405190810160405280929190818152602001828054610b2990611594565b8015610b765780601f10610b4b57610100808354040283529160200191610b76565b820191906000526020600020905b815481529060010190602001808311610b5957829003601f168201915b5050505050858281518110610b8e57610b8d611843565b5b602002602001018190525060008181548110610bad57610bac611843565b5b90600052602060002090600702016004018054610bc990611594565b80601f0160208091040260200160405190810160405280929190818152602001828054610bf590611594565b8015610c425780601f10610c1757610100808354040283529160200191610c42565b820191906000526020600020905b815481529060010190602001808311610c2557829003601f168201915b5050505050848281518110610c5a57610c59611843565b5b602002602001018190525060008181548110610c7957610c78611843565b5b90600052602060002090600702016005018054610c9590611594565b80601f0160208091040260200160405190810160405280929190818152602001828054610cc190611594565b8015610d0e5780601f10610ce357610100808354040283529160200191610d0e565b820191906000526020600020905b815481529060010190602001808311610cf157829003601f168201915b5050505050838281518110610d2657610d25611843565b5b602002602001018190525060008181548110610d4557610d44611843565b5b90600052602060002090600702016006018054610d6190611594565b80601f0160208091040260200160405190810160405280929190818152602001828054610d8d90611594565b8015610dda5780601f10610daf57610100808354040283529160200191610dda565b820191906000526020600020905b815481529060010190602001808311610dbd57829003601f168201915b5050505050828281518110610df257610df1611843565b5b60200260200101819052505b8080610e09906118a1565b91505061081d565b50868686868686869d509d509d509d509d509d509d5050505050505050919395979092949650565b6000604051905090565b600080fd5b600080fd5b600073ffffffffffffffffffffffffffffffffffffffff82169050919050565b6000610e7882610e4d565b9050919050565b610e8881610e6d565b8114610e9357600080fd5b50565b600081359050610ea581610e7f565b92915050565b600080fd5b600080fd5b6000601f19601f8301169050919050565b7f4e487b7100000000000000000000000000000000000000000000000000000000600052604160045260246000fd5b610efe82610eb5565b810181811067ffffffffffffffff82111715610f1d57610f1c610ec6565b5b80604052505050565b6000610f30610e39565b9050610f3c8282610ef5565b919050565b600067ffffffffffffffff821115610f5c57610f5b610ec6565b5b610f6582610eb5565b9050602081019050919050565b82818337600083830152505050565b6000610f94610f8f84610f41565b610f26565b905082815260208101848484011115610fb057610faf610eb0565b5b610fbb848285610f72565b509392505050565b600082601f830112610fd857610fd7610eab565b5b8135610fe8848260208601610f81565b91505092915050565b600080600080600080600060e0888a0312156110105761100f610e43565b5b600061101e8a828b01610e96565b975050602088013567ffffffffffffffff81111561103f5761103e610e48565b5b61104b8a828b01610fc3565b965050604088013567ffffffffffffffff81111561106c5761106b610e48565b5b6110788a828b01610fc3565b955050606088013567ffffffffffffffff81111561109957611098610e48565b5b6110a58a828b01610fc3565b945050608088013567ffffffffffffffff8111156110c6576110c5610e48565b5b6110d28a828b01610fc3565b93505060a088013567ffffffffffffffff8111156110f3576110f2610e48565b5b6110ff8a828b01610fc3565b92505060c088013567ffffffffffffffff8111156111205761111f610e48565b5b61112c8a828b01610fc3565b91505092959891949750929550565b6000819050919050565b61114e8161113b565b811461115957600080fd5b50565b60008135905061116b81611145565b92915050565b60006020828403121561118757611186610e43565b5b60006111958482850161115c565b91505092915050565b6111a781610e6d565b82525050565b600081519050919050565b600082825260208201905092915050565b60005b838110156111e75780820151818401526020810190506111cc565b838111156111f6576000848401525b50505050565b6000611207826111ad565b61121181856111b8565b93506112218185602086016111c9565b61122a81610eb5565b840191505092915050565b600060e08201905061124a600083018a61119e565b818103602083015261125c81896111fc565b9050818103604083015261127081886111fc565b9050818103606083015261128481876111fc565b9050818103608083015261129881866111fc565b905081810360a08301526112ac81856111fc565b905081810360c08301526112c081846111fc565b905098975050505050505050565b6000602082840312156112e4576112e3610e43565b5b60006112f284828501610e96565b91505092915050565b600081519050919050565b600082825260208201905092915050565b6000819050602082019050919050565b61133081610e6d565b82525050565b60006113428383611327565b60208301905092915050565b6000602082019050919050565b6000611366826112fb565b6113708185611306565b935061137b83611317565b8060005b838110156113ac5781516113938882611336565b975061139e8361134e565b92505060018101905061137f565b5085935050505092915050565b600081519050919050565b600082825260208201905092915050565b6000819050602082019050919050565b600082825260208201905092915050565b6000611401826111ad565b61140b81856113e5565b935061141b8185602086016111c9565b61142481610eb5565b840191505092915050565b600061143b83836113f6565b905092915050565b6000602082019050919050565b600061145b826113b9565b61146581856113c4565b935083602082028501611477856113d5565b8060005b858110156114b35784840389528151611494858261142f565b945061149f83611443565b925060208a0199505060018101905061147b565b50829750879550505050505092915050565b600060e08201905081810360008301526114df818a61135b565b905081810360208301526114f38189611450565b905081810360408301526115078188611450565b9050818103606083015261151b8187611450565b9050818103608083015261152f8186611450565b905081810360a08301526115438185611450565b905081810360c08301526115578184611450565b905098975050505050505050565b7f4e487b7100000000000000000000000000000000000000000000000000000000600052602260045260246000fd5b600060028204905060018216806115ac57607f821691505b6020821081036115bf576115be611565565b5b50919050565b60008190508160005260206000209050919050565b60006020601f8301049050919050565b600082821b905092915050565b6000600883026116277fffffffffffffffffffffffffffffffffffffffffffffffffffffffffffffffff826115ea565b61163186836115ea565b95508019841693508086168417925050509392505050565b6000819050919050565b600061166e6116696116648461113b565b611649565b61113b565b9050919050565b6000819050919050565b61168883611653565b61169c61169482611675565b8484546115f7565b825550505050565b600090565b6116b16116a4565b6116bc81848461167f565b505050565b5b818110156116e0576116d56000826116a9565b6001810190506116c2565b5050565b601f821115611725576116f6816115c5565b6116ff846115da565b8101602085101561170e578190505b61172261171a856115da565b8301826116c1565b50505b505050565b600082821c905092915050565b60006117486000198460080261172a565b1980831691505092915050565b60006117618383611737565b9150826002028217905092915050565b61177a826111ad565b67ffffffffffffffff81111561179357611792610ec6565b5b61179d8254611594565b6117a88282856116e4565b600060209050601f8311600181146117db57600084156117c9578287015190505b6117d38582611755565b86555061183b565b601f1984166117e9866115c5565b60005b82811015611811578489015182556001820191506020850194506020810190506117ec565b8683101561182e578489015161182a601f891682611737565b8355505b6001600288020188555050505b505050505050565b7f4e487b7100000000000000000000000000000000000000000000000000000000600052603260045260246000fd5b7f4e487b7100000000000000000000000000000000000000000000000000000000600052601160045260246000fd5b60006118ac8261113b565b91507fffffffffffffffffffffffffffffffffffffffffffffffffffffffffffffffff82036118de576118dd611872565b5b60018201905091905056fea2646970667358221220c4c6952c64607a51cf753058c68637c657cc85aa72f292f884dffdbfff8b59f064736f6c634300080f0033608060405234801561001057600080fd5b50610818806100206000396000f3fe608060405234801561001057600080fd5b50600436106100415760003560e01c80630b88dd5514610046578063381a3bf7146100625780637aedcde514610093575b600080fd5b610060600480360381019061005b9190610510565b6100c4565b005b61007c60048036038101906100779190610550565b6101c4565b60405161008a92919061063b565b60405180910390f35b6100ad60048036038101906100a891906106a8565b610439565b6040516100bb9291906106e4565b60405180910390f35b600060405180604001604052808473ffffffffffffffffffffffffffffffffffffffff1681526020018373ffffffffffffffffffffffffffffffffffffffff16815250908060018154018082558091505060019003906000526020600020906002020160009091909190915060008201518160000160006101000a81548173ffffffffffffffffffffffffffffffffffffffff021916908373ffffffffffffffffffffffffffffffffffffffff16021790555060208201518160010160006101000a81548173ffffffffffffffffffffffffffffffffffffffff021916908373ffffffffffffffffffffffffffffffffffffffff16021790555050505050565b6060806000808054905067ffffffffffffffff8111156101e7576101e661070d565b5b6040519080825280602002602001820160405280156102155781602001602082028036833780820191505090505b5090506000808054905067ffffffffffffffff8111156102385761023761070d565b5b6040519080825280602002602001820160405280156102665781602001602082028036833780820191505090505b50905060005b60008054905081101561042b578573ffffffffffffffffffffffffffffffffffffffff16600082815481106102a4576102a361073c565b5b906000526020600020906002020160010160009054906101000a900473ffffffffffffffffffffffffffffffffffffffff1673ffffffffffffffffffffffffffffffffffffffff160361041857600081815481106103055761030461073c565b5b906000526020600020906002020160000160009054906101000a900473ffffffffffffffffffffffffffffffffffffffff1683828151811061034a5761034961073c565b5b602002602001019073ffffffffffffffffffffffffffffffffffffffff16908173ffffffffffffffffffffffffffffffffffffffff1681525050600081815481106103985761039761073c565b5b906000526020600020906002020160010160009054906101000a900473ffffffffffffffffffffffffffffffffffffffff168282815181106103dd576103dc61073c565b5b602002602001019073ffffffffffffffffffffffffffffffffffffffff16908173ffffffffffffffffffffffffffffffffffffffff16815250505b80806104239061079a565b91505061026c565b508181935093505050915091565b6000818154811061044957600080fd5b90600052602060002090600202016000915090508060000160009054906101000a900473ffffffffffffffffffffffffffffffffffffffff16908060010160009054906101000a900473ffffffffffffffffffffffffffffffffffffffff16905082565b600080fd5b600073ffffffffffffffffffffffffffffffffffffffff82169050919050565b60006104dd826104b2565b9050919050565b6104ed816104d2565b81146104f857600080fd5b50565b60008135905061050a816104e4565b92915050565b60008060408385031215610527576105266104ad565b5b6000610535858286016104fb565b9250506020610546858286016104fb565b9150509250929050565b600060208284031215610566576105656104ad565b5b6000610574848285016104fb565b91505092915050565b600081519050919050565b600082825260208201905092915050565b6000819050602082019050919050565b6105b2816104d2565b82525050565b60006105c483836105a9565b60208301905092915050565b6000602082019050919050565b60006105e88261057d565b6105f28185610588565b93506105fd83610599565b8060005b8381101561062e57815161061588826105b8565b9750610620836105d0565b925050600181019050610601565b5085935050505092915050565b6000604082019050818103600083015261065581856105dd565b9050818103602083015261066981846105dd565b90509392505050565b6000819050919050565b61068581610672565b811461069057600080fd5b50565b6000813590506106a28161067c565b92915050565b6000602082840312156106be576106bd6104ad565b5b60006106cc84828501610693565b91505092915050565b6106de816104d2565b82525050565b60006040820190506106f960008301856106d5565b61070660208301846106d5565b9392505050565b7f4e487b7100000000000000000000000000000000000000000000000000000000600052604160045260246000fd5b7f4e487b7100000000000000000000000000000000000000000000000000000000600052603260045260246000fd5b7f4e487b7100000000000000000000000000000000000000000000000000000000600052601160045260246000fd5b60006107a582610672565b91507fffffffffffffffffffffffffffffffffffffffffffffffffffffffffffffffff82036107d7576107d661076b565b5b60018201905091905056fea2646970667358221220fa474e0cdd890e2a2f09c5046d2b6dda53f1bbaddc3deb6e57d1d5c596eea5bb64736f6c634300080f0033",
  "immutableReferences": {},
  "source": "// SPDX-License-Identifier: MIT\npragma solidity >=0.4.22 <0.9.0;\n\nimport \"./SmartCV_ListStudent.sol\";\nimport \"./SmartCV_ListBusiness.sol\";\nimport \"./SmartCV_Apply.sol\";\n\n//CV dnh cho sinh vin\ncontract Student {\n\n    //Khai bo bin a ch ngi dng\n    address owner;\n\n    // Khai bo bin s d ca ngi dng\n    mapping(address=>uint) balances;\n\n    //Khai contract  import  s dng cc function  contract \n    ListStudent listStudent = new ListStudent();\n    ListBusiness listBusiness = new ListBusiness();\n    ApplyCV applyCV = new ApplyCV();\n    // Business business = new Business();\n\n    // Gn a ch cho ngi dng\n    constructor () public {\n        owner =  msg.sender;\n    }\n\n    // Kim tra a ch ngi dng\n    function getSender() public view returns (address){\n        return owner;\n    }\n\n    // ======================================\n    // ======= Student Functions ============\n    // ======================================\n\n    // Thm thng tin sinh vin (ng k)\n    function addStudentProfile (\n        address _studentOwner,\n        string memory _name,\n        string memory _birthDay,\n        string memory _professionalTitle,\n        string memory _email,\n        string memory _github,\n        string memory _linked,\n        string memory _password) public {\n            listStudent.addSV(_studentOwner, _name, _birthDay, _professionalTitle, _email, _github, _linked, _password);\n    }\n\n    function getListStudent(address _studentOwner) public view returns(address[] memory, string[] memory, string[] memory, string[] memory, string[] memory, string[] memory, string[] memory)  {\n        return listStudent.getListSV(_studentOwner);\n    }\n    // Kim tra ti khon ngi dng c tn ti hay khng? (ng nhp)\n    function checkProfile(address _studentOwner, string memory _password) public view returns(uint)  {\n        return listStudent.checkStudent(_studentOwner, _password);\n    }\n    function addSkill (\n        address _studentOwner,\n        string memory _title, \n        uint _level) public {\n            listStudent.addSkill(_studentOwner, _title, _level);\n    }\n\n    function getSkill(address _studentOwner) public view returns(string[] memory,uint[] memory)  {\n        return listStudent.getSkill(_studentOwner);\n    }\n    // //Gi CV\n    function sendCV(address _studentOwner, address _businessOwner) public {\n        applyCV.addCV(_studentOwner, _businessOwner);\n    }\n\n    // ======================================\n    // ======= Business Functions ===========\n    // ======================================\n\n    // Thm thng tin doanh nghip (ng k)\n    function addBusinessProfile (\n        address _businessOwner,\n        string memory _name,\n        string memory _country,\n        string memory _facebook,\n        string memory _website,\n        string memory _linkedin,\n        string memory _focusArea) public {\n            listBusiness.addDN(_businessOwner, _name, _country, _facebook, _website, _linkedin, _focusArea);\n    }\n\n    function getListBusiness(address _businessOwner) public view returns(address[] memory, string[] memory, string[] memory, string[] memory, string[] memory, string[] memory, string[] memory)  {\n        return listBusiness.getListDN(_businessOwner);\n    }\n\n    // // Ly danh sch CV np vo cng ty\n    function getListCV(address _businessOwner) public view returns(address[] memory, address[] memory)  {\n        return applyCV.getCV(_businessOwner);\n    }\n    \n\n}",
  "sourcePath": "C:\\Users\\ADMIN\\Desktop\\New folder\\IS_cv\\contracts\\SmartCV_Student.sol",
  "compiler": {
    "name": "solc",
    "version": "0.8.15+commit.e14f2714.Emscripten.clang"
  },
  "schemaVersion": "3.4.7",
  "updatedAt": "2022-06-25T04:56:36.607Z",
  "networkType": "ethereum",
  "devdoc": {
    "kind": "dev",
    "methods": {},
    "version": 1
  },
  "userdoc": {
    "kind": "user",
    "methods": {},
    "version": 1
  }
}