{
  "contractName": "StudentBusiness",
  "abi": [
    {
      "inputs": [
        {
          "internalType": "address",
          "name": "_studentOwner",
          "type": "address"
        },
        {
          "internalType": "string",
          "name": "_name",
          "type": "string"
        },
        {
          "internalType": "string",
          "name": "_birthDay",
          "type": "string"
        },
        {
          "internalType": "string",
          "name": "_professionalTitle",
          "type": "string"
        },
        {
          "internalType": "string",
          "name": "_email",
          "type": "string"
        },
        {
          "internalType": "string",
          "name": "_github",
          "type": "string"
        },
        {
          "internalType": "string",
          "name": "_linkedin",
          "type": "string"
        },
        {
          "internalType": "string",
          "name": "_password",
          "type": "string"
        }
      ],
      "name": "addStudentProfile",
      "outputs": [],
      "stateMutability": "nonpayable",
      "type": "function"
    },
    {
      "inputs": [
        {
          "internalType": "address",
          "name": "_studentOwner",
          "type": "address"
        }
      ],
      "name": "getStudentProfile",
      "outputs": [
        {
          "internalType": "address",
          "name": "studentOwner",
          "type": "address"
        },
        {
          "internalType": "string",
          "name": "name",
          "type": "string"
        },
        {
          "internalType": "string",
          "name": "birthDay",
          "type": "string"
        },
        {
          "internalType": "string",
          "name": "professionalTitle",
          "type": "string"
        },
        {
          "internalType": "string",
          "name": "email",
          "type": "string"
        },
        {
          "internalType": "string",
          "name": "github",
          "type": "string"
        },
        {
          "internalType": "string",
          "name": "linkedin",
          "type": "string"
        },
        {
          "internalType": "string",
          "name": "password",
          "type": "string"
        }
      ],
      "stateMutability": "view",
      "type": "function",
      "constant": true
    },
    {
      "inputs": [
        {
          "internalType": "address",
          "name": "_studentOwner",
          "type": "address"
        },
        {
          "internalType": "string",
          "name": "_password",
          "type": "string"
        }
      ],
      "name": "checkStudentProfile",
      "outputs": [
        {
          "internalType": "uint256",
          "name": "x",
          "type": "uint256"
        }
      ],
      "stateMutability": "view",
      "type": "function",
      "constant": true
    },
    {
      "inputs": [
        {
          "internalType": "address",
          "name": "_studentOwner",
          "type": "address"
        },
        {
          "internalType": "string",
          "name": "_title",
          "type": "string"
        },
        {
          "internalType": "uint256",
          "name": "_level",
          "type": "uint256"
        }
      ],
      "name": "addStudentSkill",
      "outputs": [],
      "stateMutability": "nonpayable",
      "type": "function"
    },
    {
      "inputs": [
        {
          "internalType": "address",
          "name": "_studentOwner",
          "type": "address"
        },
        {
          "internalType": "string",
          "name": "_title",
          "type": "string"
        }
      ],
      "name": "checkStudentSkill",
      "outputs": [
        {
          "internalType": "uint256",
          "name": "x",
          "type": "uint256"
        }
      ],
      "stateMutability": "view",
      "type": "function",
      "constant": true
    },
    {
      "inputs": [
        {
          "internalType": "address",
          "name": "_studentOwner",
          "type": "address"
        }
      ],
      "name": "checkNumStudentSkill",
      "outputs": [
        {
          "internalType": "uint256",
          "name": "x",
          "type": "uint256"
        }
      ],
      "stateMutability": "view",
      "type": "function",
      "constant": true
    },
    {
      "inputs": [
        {
          "internalType": "address",
          "name": "_studentOwner",
          "type": "address"
        }
      ],
      "name": "getStudentSkill",
      "outputs": [
        {
          "internalType": "string[]",
          "name": "titles",
          "type": "string[]"
        },
        {
          "internalType": "uint256[]",
          "name": "levels",
          "type": "uint256[]"
        }
      ],
      "stateMutability": "view",
      "type": "function",
      "constant": true
    },
    {
      "inputs": [],
      "name": "getListBusiness",
      "outputs": [
        {
          "internalType": "address[]",
          "name": "",
          "type": "address[]"
        },
        {
          "internalType": "string[]",
          "name": "",
          "type": "string[]"
        },
        {
          "internalType": "string[]",
          "name": "",
          "type": "string[]"
        },
        {
          "internalType": "string[]",
          "name": "",
          "type": "string[]"
        },
        {
          "internalType": "string[]",
          "name": "",
          "type": "string[]"
        },
        {
          "internalType": "string[]",
          "name": "",
          "type": "string[]"
        },
        {
          "internalType": "string[]",
          "name": "",
          "type": "string[]"
        },
        {
          "internalType": "string[]",
          "name": "",
          "type": "string[]"
        }
      ],
      "stateMutability": "view",
      "type": "function",
      "constant": true
    },
    {
      "inputs": [
        {
          "internalType": "address",
          "name": "_businessOwner",
          "type": "address"
        }
      ],
      "name": "getRecruit",
      "outputs": [
        {
          "internalType": "string[]",
          "name": "",
          "type": "string[]"
        },
        {
          "internalType": "string[]",
          "name": "",
          "type": "string[]"
        }
      ],
      "stateMutability": "view",
      "type": "function",
      "constant": true
    },
    {
      "inputs": [
        {
          "internalType": "address",
          "name": "_studentOwner",
          "type": "address"
        },
        {
          "internalType": "address",
          "name": "_businessOwner",
          "type": "address"
        },
        {
          "internalType": "string",
          "name": "_jobTitle",
          "type": "string"
        },
        {
          "internalType": "string",
          "name": "_coverLetter",
          "type": "string"
        }
      ],
      "name": "sendCV",
      "outputs": [],
      "stateMutability": "nonpayable",
      "type": "function"
    },
    {
      "inputs": [
        {
          "internalType": "address",
          "name": "_studentOwner",
          "type": "address"
        },
        {
          "internalType": "address",
          "name": "_businessOwner",
          "type": "address"
        },
        {
          "internalType": "string",
          "name": "_jobTitle",
          "type": "string"
        }
      ],
      "name": "checkCV",
      "outputs": [
        {
          "internalType": "uint256",
          "name": "x",
          "type": "uint256"
        }
      ],
      "stateMutability": "view",
      "type": "function",
      "constant": true
    },
    {
      "inputs": [
        {
          "internalType": "address",
          "name": "_studentOwner",
          "type": "address"
        },
        {
          "internalType": "address",
          "name": "_businessOwner",
          "type": "address"
        }
      ],
      "name": "getReview",
      "outputs": [
        {
          "internalType": "address",
          "name": "studentOwner",
          "type": "address"
        },
        {
          "internalType": "address",
          "name": "businessOwner",
          "type": "address"
        },
        {
          "internalType": "string",
          "name": "content",
          "type": "string"
        }
      ],
      "stateMutability": "view",
      "type": "function",
      "constant": true
    },
    {
      "inputs": [
        {
          "internalType": "address",
          "name": "_businessOwner",
          "type": "address"
        },
        {
          "internalType": "string",
          "name": "_name",
          "type": "string"
        },
        {
          "internalType": "string",
          "name": "_country",
          "type": "string"
        },
        {
          "internalType": "string",
          "name": "_facebook",
          "type": "string"
        },
        {
          "internalType": "string",
          "name": "_website",
          "type": "string"
        },
        {
          "internalType": "string",
          "name": "_linkedin",
          "type": "string"
        },
        {
          "internalType": "string",
          "name": "_focusArea",
          "type": "string"
        },
        {
          "internalType": "string",
          "name": "_password",
          "type": "string"
        }
      ],
      "name": "addBusinessProfile",
      "outputs": [],
      "stateMutability": "nonpayable",
      "type": "function"
    },
    {
      "inputs": [
        {
          "internalType": "address",
          "name": "_businessOwner",
          "type": "address"
        }
      ],
      "name": "getBusinessProfile",
      "outputs": [
        {
          "internalType": "address",
          "name": "businessOwner",
          "type": "address"
        },
        {
          "internalType": "string",
          "name": "name",
          "type": "string"
        },
        {
          "internalType": "string",
          "name": "country",
          "type": "string"
        },
        {
          "internalType": "string",
          "name": "facebook",
          "type": "string"
        },
        {
          "internalType": "string",
          "name": "website",
          "type": "string"
        },
        {
          "internalType": "string",
          "name": "linkedin",
          "type": "string"
        },
        {
          "internalType": "string",
          "name": "focusArea",
          "type": "string"
        }
      ],
      "stateMutability": "view",
      "type": "function",
      "constant": true
    },
    {
      "inputs": [
        {
          "internalType": "address",
          "name": "_businessOwner",
          "type": "address"
        },
        {
          "internalType": "string",
          "name": "_password",
          "type": "string"
        }
      ],
      "name": "checkBusinessProfile",
      "outputs": [
        {
          "internalType": "uint256",
          "name": "",
          "type": "uint256"
        }
      ],
      "stateMutability": "view",
      "type": "function",
      "constant": true
    },
    {
      "inputs": [
        {
          "internalType": "address",
          "name": "_businessOwner",
          "type": "address"
        }
      ],
      "name": "getListCV",
      "outputs": [
        {
          "internalType": "address[]",
          "name": "",
          "type": "address[]"
        },
        {
          "internalType": "address[]",
          "name": "",
          "type": "address[]"
        },
        {
          "internalType": "string[]",
          "name": "",
          "type": "string[]"
        },
        {
          "internalType": "string[]",
          "name": "",
          "type": "string[]"
        },
        {
          "internalType": "string[]",
          "name": "",
          "type": "string[]"
        }
      ],
      "stateMutability": "view",
      "type": "function",
      "constant": true
    },
    {
      "inputs": [
        {
          "internalType": "address",
          "name": "_studentOwner",
          "type": "address"
        },
        {
          "internalType": "address",
          "name": "_businessOwner",
          "type": "address"
        },
        {
          "internalType": "string",
          "name": "_jobTitle",
          "type": "string"
        },
        {
          "internalType": "string",
          "name": "_statusCV",
          "type": "string"
        }
      ],
      "name": "interviewCV",
      "outputs": [],
      "stateMutability": "nonpayable",
      "type": "function"
    },
    {
      "inputs": [
        {
          "internalType": "address",
          "name": "_studentOwner",
          "type": "address"
        },
        {
          "internalType": "address",
          "name": "_businessOwner",
          "type": "address"
        },
        {
          "internalType": "string",
          "name": "_jobTitle",
          "type": "string"
        },
        {
          "internalType": "string",
          "name": "_statusCV",
          "type": "string"
        }
      ],
      "name": "onboardCV",
      "outputs": [],
      "stateMutability": "nonpayable",
      "type": "function"
    },
    {
      "inputs": [
        {
          "internalType": "address",
          "name": "_businessOwner",
          "type": "address"
        },
        {
          "internalType": "string",
          "name": "_jobTitle",
          "type": "string"
        },
        {
          "internalType": "string",
          "name": "_jobDescription",
          "type": "string"
        }
      ],
      "name": "addRecruit",
      "outputs": [],
      "stateMutability": "nonpayable",
      "type": "function"
    },
    {
      "inputs": [
        {
          "internalType": "address",
          "name": "_studentOwner",
          "type": "address"
        },
        {
          "internalType": "address",
          "name": "_businessOwner",
          "type": "address"
        },
        {
          "internalType": "string",
          "name": "_content",
          "type": "string"
        }
      ],
      "name": "sendReview",
      "outputs": [],
      "stateMutability": "nonpayable",
      "type": "function"
    }
  ],
  "bytecode": "0x608060405260405162000012906200015b565b604051809103906000f0801580156200002f573d6000803e3d6000fd5b506000806101000a81548173ffffffffffffffffffffffffffffffffffffffff021916908373ffffffffffffffffffffffffffffffffffffffff1602179055506040516200007d9062000169565b604051809103906000f0801580156200009a573d6000803e3d6000fd5b50600160006101000a81548173ffffffffffffffffffffffffffffffffffffffff021916908373ffffffffffffffffffffffffffffffffffffffff160217905550604051620000e99062000177565b604051809103906000f08015801562000106573d6000803e3d6000fd5b50600260006101000a81548173ffffffffffffffffffffffffffffffffffffffff021916908373ffffffffffffffffffffffffffffffffffffffff1602179055503480156200015457600080fd5b5062000185565b612d2f8062002b4183390190565b61236a806200587083390190565b61278c8062007bda83390190565b6129ac80620001956000396000f3fe608060405234801561001057600080fd5b506004361061012b5760003560e01c80636d53448f116100ad578063ce1ec5bb11610071578063ce1ec5bb14610388578063cee5c7f3146103b9578063e2f43af2146103d5578063e9daa70a146103f1578063fe761783146104235761012b565b80636d53448f146102d0578063844bb460146102ec57806391b9e6db146103085780639cd3258214610324578063acf6f3fd146103585761012b565b806335c77f85116100f457806335c77f85146101f857806342f08d4b1461022857806357824f161461025e5780635b288a93146102835780636b4dbb281461029f5761012b565b80624e56cf146101305780630299779f1461014c5780630ac68f371461017c5780631632dd98146101ac5780632df96bfc146101c8575b600080fd5b61014a6004803603810190610145919061134f565b61045a565b005b610166600480360381019061016191906113ee565b6104f2565b6040516101739190611476565b60405180910390f35b61019660048036038101906101919190611491565b61059d565b6040516101a39190611476565b60405180910390f35b6101c660048036038101906101c191906113ee565b610644565b005b6101e260048036038101906101dd91906114ed565b6106da565b6040516101ef9190611476565b60405180910390f35b610212600480360381019061020d9190611491565b610793565b60405161021f9190611476565b60405180910390f35b610242600480360381019061023d91906114ed565b61083b565b60405161025597969594939291906115b1565b60405180910390f35b610266610900565b60405161027a989796959493929190611814565b60405180910390f35b61029d600480360381019061029891906118ca565b6109bc565b005b6102b960048036038101906102b491906114ed565b610a5f565b6040516102c7929190611b02565b60405180910390f35b6102ea60048036038101906102e591906118ca565b610b0a565b005b6103066004803603810190610301919061134f565b610baf565b005b610322600480360381019061031d919061134f565b610c48565b005b61033e600480360381019061033991906114ed565b610ce1565b60405161034f959493929190611b39565b60405180910390f35b610372600480360381019061036d9190611491565b610d9d565b60405161037f9190611476565b60405180910390f35b6103a2600480360381019061039d91906114ed565b610e44565b6040516103b0929190611baf565b60405180910390f35b6103d360048036038101906103ce9190611be6565b610ef1565b005b6103ef60048036038101906103ea9190611c9d565b610f87565b005b61040b60048036038101906104069190611d0c565b61101b565b60405161041a93929190611d4c565b60405180910390f35b61043d600480360381019061043891906114ed565b6110d0565b604051610451989796959493929190611d8a565b60405180910390f35b600260009054906101000a900473ffffffffffffffffffffffffffffffffffffffff1673ffffffffffffffffffffffffffffffffffffffff16624e56cf858585856040518563ffffffff1660e01b81526004016104ba9493929190611e39565b600060405180830381600087803b1580156104d457600080fd5b505af11580156104e8573d6000803e3d6000fd5b5050505050505050565b6000600260009054906101000a900473ffffffffffffffffffffffffffffffffffffffff1673ffffffffffffffffffffffffffffffffffffffff16630299779f8585856040518463ffffffff1660e01b815260040161055393929190611d4c565b602060405180830381865afa158015610570573d6000803e3d6000fd5b505050506040513d601f19601f820116820180604052508101906105949190611ea1565b90509392505050565b60008060009054906101000a900473ffffffffffffffffffffffffffffffffffffffff1673ffffffffffffffffffffffffffffffffffffffff1663716b5ab484846040518363ffffffff1660e01b81526004016105fb929190611ece565b602060405180830381865afa158015610618573d6000803e3d6000fd5b505050506040513d601f19601f8201168201806040525081019061063c9190611ea1565b905092915050565b600260009054906101000a900473ffffffffffffffffffffffffffffffffffffffff1673ffffffffffffffffffffffffffffffffffffffff1663ae8f00d38484846040518463ffffffff1660e01b81526004016106a393929190611d4c565b600060405180830381600087803b1580156106bd57600080fd5b505af11580156106d1573d6000803e3d6000fd5b50505050505050565b60008060008054906101000a900473ffffffffffffffffffffffffffffffffffffffff1673ffffffffffffffffffffffffffffffffffffffff16638e891393846040518263ffffffff1660e01b81526004016107369190611efe565b602060405180830381865afa158015610753573d6000803e3d6000fd5b505050506040513d601f19601f820116820180604052508101906107779190611ea1565b9050600a81111561078c57600191505061078e565b505b919050565b6000600160009054906101000a900473ffffffffffffffffffffffffffffffffffffffff1673ffffffffffffffffffffffffffffffffffffffff1663a7dba18484846040518363ffffffff1660e01b81526004016107f2929190611ece565b602060405180830381865afa15801561080f573d6000803e3d6000fd5b505050506040513d601f19601f820116820180604052508101906108339190611ea1565b905092915050565b6000606080606080606080600160009054906101000a900473ffffffffffffffffffffffffffffffffffffffff1673ffffffffffffffffffffffffffffffffffffffff16630f53a470896040518263ffffffff1660e01b81526004016108a19190611efe565b600060405180830381865afa1580156108be573d6000803e3d6000fd5b505050506040513d6000823e3d601f19601f820116820180604052508101906108e79190611f9e565b9650965096509650965096509650919395979092949650565b606080606080606080606080600160009054906101000a900473ffffffffffffffffffffffffffffffffffffffff1673ffffffffffffffffffffffffffffffffffffffff1663cfafbc0c6040518163ffffffff1660e01b8152600401600060405180830381865afa158015610979573d6000803e3d6000fd5b505050506040513d6000823e3d601f19601f820116820180604052508101906109a29190612291565b975097509750975097509750975097509091929394959697565b60008054906101000a900473ffffffffffffffffffffffffffffffffffffffff1673ffffffffffffffffffffffffffffffffffffffff16639fea8e1089898989898989896040518963ffffffff1660e01b8152600401610a23989796959493929190611d8a565b600060405180830381600087803b158015610a3d57600080fd5b505af1158015610a51573d6000803e3d6000fd5b505050505050505050505050565b60608060008054906101000a900473ffffffffffffffffffffffffffffffffffffffff1673ffffffffffffffffffffffffffffffffffffffff1663ac4b2049846040518263ffffffff1660e01b8152600401610abb9190611efe565b600060405180830381865afa158015610ad8573d6000803e3d6000fd5b505050506040513d6000823e3d601f19601f82011682018060405250810190610b0191906124ea565b91509150915091565b600160009054906101000a900473ffffffffffffffffffffffffffffffffffffffff1673ffffffffffffffffffffffffffffffffffffffff1663e045b71089898989898989896040518963ffffffff1660e01b8152600401610b73989796959493929190611d8a565b600060405180830381600087803b158015610b8d57600080fd5b505af1158015610ba1573d6000803e3d6000fd5b505050505050505050505050565b600260009054906101000a900473ffffffffffffffffffffffffffffffffffffffff1673ffffffffffffffffffffffffffffffffffffffff1663844bb460858585856040518563ffffffff1660e01b8152600401610c109493929190611e39565b600060405180830381600087803b158015610c2a57600080fd5b505af1158015610c3e573d6000803e3d6000fd5b5050505050505050565b600260009054906101000a900473ffffffffffffffffffffffffffffffffffffffff1673ffffffffffffffffffffffffffffffffffffffff1663dc1e475f858585856040518563ffffffff1660e01b8152600401610ca99493929190611e39565b600060405180830381600087803b158015610cc357600080fd5b505af1158015610cd7573d6000803e3d6000fd5b5050505050505050565b6060806060806060600260009054906101000a900473ffffffffffffffffffffffffffffffffffffffff1673ffffffffffffffffffffffffffffffffffffffff1663381a3bf7876040518263ffffffff1660e01b8152600401610d449190611efe565b600060405180830381865afa158015610d61573d6000803e3d6000fd5b505050506040513d6000823e3d601f19601f82011682018060405250810190610d8a9190612562565b9450945094509450945091939590929450565b60008060009054906101000a900473ffffffffffffffffffffffffffffffffffffffff1673ffffffffffffffffffffffffffffffffffffffff1663174ceeab84846040518363ffffffff1660e01b8152600401610dfb929190611ece565b602060405180830381865afa158015610e18573d6000803e3d6000fd5b505050506040513d601f19601f82011682018060405250810190610e3c9190611ea1565b905092915050565b606080600260009054906101000a900473ffffffffffffffffffffffffffffffffffffffff1673ffffffffffffffffffffffffffffffffffffffff1663ce1ec5bb846040518263ffffffff1660e01b8152600401610ea29190611efe565b600060405180830381865afa158015610ebf573d6000803e3d6000fd5b505050506040513d6000823e3d601f19601f82011682018060405250810190610ee89190612669565b91509150915091565b600260009054906101000a900473ffffffffffffffffffffffffffffffffffffffff1673ffffffffffffffffffffffffffffffffffffffff1663cee5c7f38484846040518463ffffffff1660e01b8152600401610f50939291906126e1565b600060405180830381600087803b158015610f6a57600080fd5b505af1158015610f7e573d6000803e3d6000fd5b50505050505050565b60008054906101000a900473ffffffffffffffffffffffffffffffffffffffff1673ffffffffffffffffffffffffffffffffffffffff166360ccb2048484846040518463ffffffff1660e01b8152600401610fe493929190612726565b600060405180830381600087803b158015610ffe57600080fd5b505af1158015611012573d6000803e3d6000fd5b50505050505050565b6000806060600260009054906101000a900473ffffffffffffffffffffffffffffffffffffffff1673ffffffffffffffffffffffffffffffffffffffff1663e9daa70a86866040518363ffffffff1660e01b815260040161107d929190612764565b600060405180830381865afa15801561109a573d6000803e3d6000fd5b505050506040513d6000823e3d601f19601f820116820180604052508101906110c3919061278d565b9250925092509250925092565b6000606080606080606080606060008054906101000a900473ffffffffffffffffffffffffffffffffffffffff1673ffffffffffffffffffffffffffffffffffffffff16630f53a4708a6040518263ffffffff1660e01b81526004016111369190611efe565b600060405180830381865afa158015611153573d6000803e3d6000fd5b505050506040513d6000823e3d601f19601f8201168201806040525081019061117c91906127fc565b97509750975097509750975097509750919395975091939597565b6000604051905090565b600080fd5b600080fd5b600073ffffffffffffffffffffffffffffffffffffffff82169050919050565b60006111d6826111ab565b9050919050565b6111e6816111cb565b81146111f157600080fd5b50565b600081359050611203816111dd565b92915050565b600080fd5b600080fd5b6000601f19601f8301169050919050565b7f4e487b7100000000000000000000000000000000000000000000000000000000600052604160045260246000fd5b61125c82611213565b810181811067ffffffffffffffff8211171561127b5761127a611224565b5b80604052505050565b600061128e611197565b905061129a8282611253565b919050565b600067ffffffffffffffff8211156112ba576112b9611224565b5b6112c382611213565b9050602081019050919050565b82818337600083830152505050565b60006112f26112ed8461129f565b611284565b90508281526020810184848401111561130e5761130d61120e565b5b6113198482856112d0565b509392505050565b600082601f83011261133657611335611209565b5b81356113468482602086016112df565b91505092915050565b60008060008060808587031215611369576113686111a1565b5b6000611377878288016111f4565b9450506020611388878288016111f4565b935050604085013567ffffffffffffffff8111156113a9576113a86111a6565b5b6113b587828801611321565b925050606085013567ffffffffffffffff8111156113d6576113d56111a6565b5b6113e287828801611321565b91505092959194509250565b600080600060608486031215611407576114066111a1565b5b6000611415868287016111f4565b9350506020611426868287016111f4565b925050604084013567ffffffffffffffff811115611447576114466111a6565b5b61145386828701611321565b9150509250925092565b6000819050919050565b6114708161145d565b82525050565b600060208201905061148b6000830184611467565b92915050565b600080604083850312156114a8576114a76111a1565b5b60006114b6858286016111f4565b925050602083013567ffffffffffffffff8111156114d7576114d66111a6565b5b6114e385828601611321565b9150509250929050565b600060208284031215611503576115026111a1565b5b6000611511848285016111f4565b91505092915050565b611523816111cb565b82525050565b600081519050919050565b600082825260208201905092915050565b60005b83811015611563578082015181840152602081019050611548565b83811115611572576000848401525b50505050565b600061158382611529565b61158d8185611534565b935061159d818560208601611545565b6115a681611213565b840191505092915050565b600060e0820190506115c6600083018a61151a565b81810360208301526115d88189611578565b905081810360408301526115ec8188611578565b905081810360608301526116008187611578565b905081810360808301526116148186611578565b905081810360a08301526116288185611578565b905081810360c083015261163c8184611578565b905098975050505050505050565b600081519050919050565b600082825260208201905092915050565b6000819050602082019050919050565b61167f816111cb565b82525050565b60006116918383611676565b60208301905092915050565b6000602082019050919050565b60006116b58261164a565b6116bf8185611655565b93506116ca83611666565b8060005b838110156116fb5781516116e28882611685565b97506116ed8361169d565b9250506001810190506116ce565b5085935050505092915050565b600081519050919050565b600082825260208201905092915050565b6000819050602082019050919050565b600082825260208201905092915050565b600061175082611529565b61175a8185611734565b935061176a818560208601611545565b61177381611213565b840191505092915050565b600061178a8383611745565b905092915050565b6000602082019050919050565b60006117aa82611708565b6117b48185611713565b9350836020820285016117c685611724565b8060005b8581101561180257848403895281516117e3858261177e565b94506117ee83611792565b925060208a019950506001810190506117ca565b50829750879550505050505092915050565b600061010082019050818103600083015261182f818b6116aa565b90508181036020830152611843818a61179f565b90508181036040830152611857818961179f565b9050818103606083015261186b818861179f565b9050818103608083015261187f818761179f565b905081810360a0830152611893818661179f565b905081810360c08301526118a7818561179f565b905081810360e08301526118bb818461179f565b90509998505050505050505050565b600080600080600080600080610100898b0312156118eb576118ea6111a1565b5b60006118f98b828c016111f4565b985050602089013567ffffffffffffffff81111561191a576119196111a6565b5b6119268b828c01611321565b975050604089013567ffffffffffffffff811115611947576119466111a6565b5b6119538b828c01611321565b965050606089013567ffffffffffffffff811115611974576119736111a6565b5b6119808b828c01611321565b955050608089013567ffffffffffffffff8111156119a1576119a06111a6565b5b6119ad8b828c01611321565b94505060a089013567ffffffffffffffff8111156119ce576119cd6111a6565b5b6119da8b828c01611321565b93505060c089013567ffffffffffffffff8111156119fb576119fa6111a6565b5b611a078b828c01611321565b92505060e089013567ffffffffffffffff811115611a2857611a276111a6565b5b611a348b828c01611321565b9150509295985092959890939650565b600081519050919050565b600082825260208201905092915050565b6000819050602082019050919050565b611a798161145d565b82525050565b6000611a8b8383611a70565b60208301905092915050565b6000602082019050919050565b6000611aaf82611a44565b611ab98185611a4f565b9350611ac483611a60565b8060005b83811015611af5578151611adc8882611a7f565b9750611ae783611a97565b925050600181019050611ac8565b5085935050505092915050565b60006040820190508181036000830152611b1c818561179f565b90508181036020830152611b308184611aa4565b90509392505050565b600060a0820190508181036000830152611b5381886116aa565b90508181036020830152611b6781876116aa565b90508181036040830152611b7b818661179f565b90508181036060830152611b8f818561179f565b90508181036080830152611ba3818461179f565b90509695505050505050565b60006040820190508181036000830152611bc9818561179f565b90508181036020830152611bdd818461179f565b90509392505050565b600080600060608486031215611bff57611bfe6111a1565b5b6000611c0d868287016111f4565b935050602084013567ffffffffffffffff811115611c2e57611c2d6111a6565b5b611c3a86828701611321565b925050604084013567ffffffffffffffff811115611c5b57611c5a6111a6565b5b611c6786828701611321565b9150509250925092565b611c7a8161145d565b8114611c8557600080fd5b50565b600081359050611c9781611c71565b92915050565b600080600060608486031215611cb657611cb56111a1565b5b6000611cc4868287016111f4565b935050602084013567ffffffffffffffff811115611ce557611ce46111a6565b5b611cf186828701611321565b9250506040611d0286828701611c88565b9150509250925092565b60008060408385031215611d2357611d226111a1565b5b6000611d31858286016111f4565b9250506020611d42858286016111f4565b9150509250929050565b6000606082019050611d61600083018661151a565b611d6e602083018561151a565b8181036040830152611d808184611578565b9050949350505050565b600061010082019050611da0600083018b61151a565b8181036020830152611db2818a611578565b90508181036040830152611dc68189611578565b90508181036060830152611dda8188611578565b90508181036080830152611dee8187611578565b905081810360a0830152611e028186611578565b905081810360c0830152611e168185611578565b905081810360e0830152611e2a8184611578565b90509998505050505050505050565b6000608082019050611e4e600083018761151a565b611e5b602083018661151a565b8181036040830152611e6d8185611578565b90508181036060830152611e818184611578565b905095945050505050565b600081519050611e9b81611c71565b92915050565b600060208284031215611eb757611eb66111a1565b5b6000611ec584828501611e8c565b91505092915050565b6000604082019050611ee3600083018561151a565b8181036020830152611ef58184611578565b90509392505050565b6000602082019050611f13600083018461151a565b92915050565b600081519050611f28816111dd565b92915050565b6000611f41611f3c8461129f565b611284565b905082815260208101848484011115611f5d57611f5c61120e565b5b611f68848285611545565b509392505050565b600082601f830112611f8557611f84611209565b5b8151611f95848260208601611f2e565b91505092915050565b600080600080600080600060e0888a031215611fbd57611fbc6111a1565b5b6000611fcb8a828b01611f19565b975050602088015167ffffffffffffffff811115611fec57611feb6111a6565b5b611ff88a828b01611f70565b965050604088015167ffffffffffffffff811115612019576120186111a6565b5b6120258a828b01611f70565b955050606088015167ffffffffffffffff811115612046576120456111a6565b5b6120528a828b01611f70565b945050608088015167ffffffffffffffff811115612073576120726111a6565b5b61207f8a828b01611f70565b93505060a088015167ffffffffffffffff8111156120a05761209f6111a6565b5b6120ac8a828b01611f70565b92505060c088015167ffffffffffffffff8111156120cd576120cc6111a6565b5b6120d98a828b01611f70565b91505092959891949750929550565b600067ffffffffffffffff82111561210357612102611224565b5b602082029050602081019050919050565b600080fd5b600061212c612127846120e8565b611284565b9050808382526020820190506020840283018581111561214f5761214e612114565b5b835b8181101561217857806121648882611f19565b845260208401935050602081019050612151565b5050509392505050565b600082601f83011261219757612196611209565b5b81516121a7848260208601612119565b91505092915050565b600067ffffffffffffffff8211156121cb576121ca611224565b5b602082029050602081019050919050565b60006121ef6121ea846121b0565b611284565b9050808382526020820190506020840283018581111561221257612211612114565b5b835b8181101561225957805167ffffffffffffffff81111561223757612236611209565b5b8086016122448982611f70565b85526020850194505050602081019050612214565b5050509392505050565b600082601f83011261227857612277611209565b5b81516122888482602086016121dc565b91505092915050565b600080600080600080600080610100898b0312156122b2576122b16111a1565b5b600089015167ffffffffffffffff8111156122d0576122cf6111a6565b5b6122dc8b828c01612182565b985050602089015167ffffffffffffffff8111156122fd576122fc6111a6565b5b6123098b828c01612263565b975050604089015167ffffffffffffffff81111561232a576123296111a6565b5b6123368b828c01612263565b965050606089015167ffffffffffffffff811115612357576123566111a6565b5b6123638b828c01612263565b955050608089015167ffffffffffffffff811115612384576123836111a6565b5b6123908b828c01612263565b94505060a089015167ffffffffffffffff8111156123b1576123b06111a6565b5b6123bd8b828c01612263565b93505060c089015167ffffffffffffffff8111156123de576123dd6111a6565b5b6123ea8b828c01612263565b92505060e089015167ffffffffffffffff81111561240b5761240a6111a6565b5b6124178b828c01612263565b9150509295985092959890939650565b600067ffffffffffffffff82111561244257612441611224565b5b602082029050602081019050919050565b600061246661246184612427565b611284565b9050808382526020820190506020840283018581111561248957612488612114565b5b835b818110156124b2578061249e8882611e8c565b84526020840193505060208101905061248b565b5050509392505050565b600082601f8301126124d1576124d0611209565b5b81516124e1848260208601612453565b91505092915050565b60008060408385031215612501576125006111a1565b5b600083015167ffffffffffffffff81111561251f5761251e6111a6565b5b61252b85828601612263565b925050602083015167ffffffffffffffff81111561254c5761254b6111a6565b5b612558858286016124bc565b9150509250929050565b600080600080600060a0868803121561257e5761257d6111a1565b5b600086015167ffffffffffffffff81111561259c5761259b6111a6565b5b6125a888828901612182565b955050602086015167ffffffffffffffff8111156125c9576125c86111a6565b5b6125d588828901612182565b945050604086015167ffffffffffffffff8111156125f6576125f56111a6565b5b61260288828901612263565b935050606086015167ffffffffffffffff811115612623576126226111a6565b5b61262f88828901612263565b925050608086015167ffffffffffffffff8111156126505761264f6111a6565b5b61265c88828901612263565b9150509295509295909350565b600080604083850312156126805761267f6111a1565b5b600083015167ffffffffffffffff81111561269e5761269d6111a6565b5b6126aa85828601612263565b925050602083015167ffffffffffffffff8111156126cb576126ca6111a6565b5b6126d785828601612263565b9150509250929050565b60006060820190506126f6600083018661151a565b81810360208301526127088185611578565b9050818103604083015261271c8184611578565b9050949350505050565b600060608201905061273b600083018661151a565b818103602083015261274d8185611578565b905061275c6040830184611467565b949350505050565b6000604082019050612779600083018561151a565b612786602083018461151a565b9392505050565b6000806000606084860312156127a6576127a56111a1565b5b60006127b486828701611f19565b93505060206127c586828701611f19565b925050604084015167ffffffffffffffff8111156127e6576127e56111a6565b5b6127f286828701611f70565b9150509250925092565b600080600080600080600080610100898b03121561281d5761281c6111a1565b5b600061282b8b828c01611f19565b985050602089015167ffffffffffffffff81111561284c5761284b6111a6565b5b6128588b828c01611f70565b975050604089015167ffffffffffffffff811115612879576128786111a6565b5b6128858b828c01611f70565b965050606089015167ffffffffffffffff8111156128a6576128a56111a6565b5b6128b28b828c01611f70565b955050608089015167ffffffffffffffff8111156128d3576128d26111a6565b5b6128df8b828c01611f70565b94505060a089015167ffffffffffffffff811115612900576128ff6111a6565b5b61290c8b828c01611f70565b93505060c089015167ffffffffffffffff81111561292d5761292c6111a6565b5b6129398b828c01611f70565b92505060e089015167ffffffffffffffff81111561295a576129596111a6565b5b6129668b828c01611f70565b915050929598509295989093965056fea2646970667358221220a3e0969be5bdbf34ebb65763dc4c07f9a686780cd9e3fab1e8ba2d2449b2fa4f64736f6c634300080f0033608060405234801561001057600080fd5b50612d0f806100206000396000f3fe608060405234801561001057600080fd5b506004361061009e5760003560e01c8063716b5ab411610066578063716b5ab41461018f5780638e891393146101bf5780639fea8e10146101ef578063ac4b20491461020b578063d64b69131461023c5761009e565b80630f53a470146100a3578063174ceeab146100da5780633aff2cc51461010a57806360ccb2041461013c5780636704710714610158575b600080fd5b6100bd60048036038101906100b89190611e9b565b610261565b6040516100d1989796959493929190611f70565b60405180910390f35b6100f460048036038101906100ef9190612154565b610849565b60405161010191906121c9565b60405180910390f35b610124600480360381019061011f9190612210565b610947565b6040516101339392919061223d565b60405180910390f35b6101566004803603810190610151919061227b565b610a29565b005b610172600480360381019061016d9190612210565b610b44565b604051610186989796959493929190611f70565b60405180910390f35b6101a960048036038101906101a49190612154565b610f74565b6040516101b691906121c9565b60405180910390f35b6101d960048036038101906101d49190611e9b565b611072565b6040516101e691906121c9565b60405180910390f35b610209600480360381019061020491906122ea565b61112e565b005b61022560048036038101906102209190611e9b565b611296565b60405161023392919061262e565b60405180910390f35b6102446114fd565b604051610258989796959493929190612723565b60405180910390f35b6000606080606080606080606060005b60008054905081101561083c578973ffffffffffffffffffffffffffffffffffffffff16600082815481106102a9576102a86127d9565b5b906000526020600020906008020160000160009054906101000a900473ffffffffffffffffffffffffffffffffffffffff1673ffffffffffffffffffffffffffffffffffffffff1603610829576000818154811061030a576103096127d9565b5b906000526020600020906008020160000160009054906101000a900473ffffffffffffffffffffffffffffffffffffffff16600082815481106103505761034f6127d9565b5b906000526020600020906008020160010160008381548110610375576103746127d9565b5b90600052602060002090600802016002016000848154811061039a576103996127d9565b5b9060005260206000209060080201600301600085815481106103bf576103be6127d9565b5b9060005260206000209060080201600401600086815481106103e4576103e36127d9565b5b906000526020600020906008020160050160008781548110610409576104086127d9565b5b90600052602060002090600802016006016000888154811061042e5761042d6127d9565b5b906000526020600020906008020160070186805461044b90612837565b80601f016020809104026020016040519081016040528092919081815260200182805461047790612837565b80156104c45780601f10610499576101008083540402835291602001916104c4565b820191906000526020600020905b8154815290600101906020018083116104a757829003601f168201915b505050505096508580546104d790612837565b80601f016020809104026020016040519081016040528092919081815260200182805461050390612837565b80156105505780601f1061052557610100808354040283529160200191610550565b820191906000526020600020905b81548152906001019060200180831161053357829003601f168201915b5050505050955084805461056390612837565b80601f016020809104026020016040519081016040528092919081815260200182805461058f90612837565b80156105dc5780601f106105b1576101008083540402835291602001916105dc565b820191906000526020600020905b8154815290600101906020018083116105bf57829003601f168201915b505050505094508380546105ef90612837565b80601f016020809104026020016040519081016040528092919081815260200182805461061b90612837565b80156106685780601f1061063d57610100808354040283529160200191610668565b820191906000526020600020905b81548152906001019060200180831161064b57829003601f168201915b5050505050935082805461067b90612837565b80601f01602080910402602001604051908101604052809291908181526020018280546106a790612837565b80156106f45780601f106106c9576101008083540402835291602001916106f4565b820191906000526020600020905b8154815290600101906020018083116106d757829003601f168201915b5050505050925081805461070790612837565b80601f016020809104026020016040519081016040528092919081815260200182805461073390612837565b80156107805780601f1061075557610100808354040283529160200191610780565b820191906000526020600020905b81548152906001019060200180831161076357829003601f168201915b5050505050915080805461079390612837565b80601f01602080910402602001604051908101604052809291908181526020018280546107bf90612837565b801561080c5780601f106107e15761010080835404028352916020019161080c565b820191906000526020600020905b8154815290600101906020018083116107ef57829003601f168201915b50505050509050985098509850985098509850985098505061083e565b808061083490612897565b915050610271565b505b919395975091939597565b600080600090505b60008054905081101561093f578373ffffffffffffffffffffffffffffffffffffffff1660008281548110610889576108886127d9565b5b906000526020600020906008020160000160009054906101000a900473ffffffffffffffffffffffffffffffffffffffff1673ffffffffffffffffffffffffffffffffffffffff1614801561091d57508280519060200120600082815481106108f5576108f46127d9565b5b90600052602060002090600802016007016040516109139190612982565b6040518091039020145b1561092c576001915050610941565b808061093790612897565b915050610851565b505b92915050565b6001818154811061095757600080fd5b90600052602060002090600302016000915090508060000160009054906101000a900473ffffffffffffffffffffffffffffffffffffffff16908060010180546109a090612837565b80601f01602080910402602001604051908101604052809291908181526020018280546109cc90612837565b8015610a195780601f106109ee57610100808354040283529160200191610a19565b820191906000526020600020905b8154815290600101906020018083116109fc57829003601f168201915b5050505050908060020154905083565b60008110158015610a3b575060648111155b610a7a576040517f08c379a0000000000000000000000000000000000000000000000000000000008152600401610a71906129e5565b60405180910390fd5b600160405180606001604052808573ffffffffffffffffffffffffffffffffffffffff16815260200184815260200183815250908060018154018082558091505060019003906000526020600020906003020160009091909190915060008201518160000160006101000a81548173ffffffffffffffffffffffffffffffffffffffff021916908373ffffffffffffffffffffffffffffffffffffffff1602179055506020820151816001019081610b329190612bb1565b50604082015181600201555050505050565b60008181548110610b5457600080fd5b90600052602060002090600802016000915090508060000160009054906101000a900473ffffffffffffffffffffffffffffffffffffffff1690806001018054610b9d90612837565b80601f0160208091040260200160405190810160405280929190818152602001828054610bc990612837565b8015610c165780601f10610beb57610100808354040283529160200191610c16565b820191906000526020600020905b815481529060010190602001808311610bf957829003601f168201915b505050505090806002018054610c2b90612837565b80601f0160208091040260200160405190810160405280929190818152602001828054610c5790612837565b8015610ca45780601f10610c7957610100808354040283529160200191610ca4565b820191906000526020600020905b815481529060010190602001808311610c8757829003601f168201915b505050505090806003018054610cb990612837565b80601f0160208091040260200160405190810160405280929190818152602001828054610ce590612837565b8015610d325780601f10610d0757610100808354040283529160200191610d32565b820191906000526020600020905b815481529060010190602001808311610d1557829003601f168201915b505050505090806004018054610d4790612837565b80601f0160208091040260200160405190810160405280929190818152602001828054610d7390612837565b8015610dc05780601f10610d9557610100808354040283529160200191610dc0565b820191906000526020600020905b815481529060010190602001808311610da357829003601f168201915b505050505090806005018054610dd590612837565b80601f0160208091040260200160405190810160405280929190818152602001828054610e0190612837565b8015610e4e5780601f10610e2357610100808354040283529160200191610e4e565b820191906000526020600020905b815481529060010190602001808311610e3157829003601f168201915b505050505090806006018054610e6390612837565b80601f0160208091040260200160405190810160405280929190818152602001828054610e8f90612837565b8015610edc5780601f10610eb157610100808354040283529160200191610edc565b820191906000526020600020905b815481529060010190602001808311610ebf57829003601f168201915b505050505090806007018054610ef190612837565b80601f0160208091040260200160405190810160405280929190818152602001828054610f1d90612837565b8015610f6a5780601f10610f3f57610100808354040283529160200191610f6a565b820191906000526020600020905b815481529060010190602001808311610f4d57829003601f168201915b5050505050905088565b600080600090505b60018054905081101561106a578373ffffffffffffffffffffffffffffffffffffffff1660018281548110610fb457610fb36127d9565b5b906000526020600020906003020160000160009054906101000a900473ffffffffffffffffffffffffffffffffffffffff1673ffffffffffffffffffffffffffffffffffffffff1614801561104857508280519060200120600182815481106110205761101f6127d9565b5b906000526020600020906003020160010160405161103e9190612982565b6040518091039020145b1561105757600191505061106c565b808061106290612897565b915050610f7c565b505b92915050565b6000806000905060005b600180549050811015611124578373ffffffffffffffffffffffffffffffffffffffff16600182815481106110b4576110b36127d9565b5b906000526020600020906003020160000160009054906101000a900473ffffffffffffffffffffffffffffffffffffffff1673ffffffffffffffffffffffffffffffffffffffff16036111115760018261110e9190612c83565b91505b808061111c90612897565b91505061107c565b5080915050919050565b60006040518061010001604052808a73ffffffffffffffffffffffffffffffffffffffff16815260200189815260200188815260200187815260200186815260200185815260200184815260200183815250908060018154018082558091505060019003906000526020600020906008020160009091909190915060008201518160000160006101000a81548173ffffffffffffffffffffffffffffffffffffffff021916908373ffffffffffffffffffffffffffffffffffffffff16021790555060208201518160010190816112059190612bb1565b50604082015181600201908161121b9190612bb1565b5060608201518160030190816112319190612bb1565b5060808201518160040190816112479190612bb1565b5060a082015181600501908161125d9190612bb1565b5060c08201518160060190816112739190612bb1565b5060e08201518160070190816112899190612bb1565b5050505050505050505050565b606080600060018054905067ffffffffffffffff8111156112ba576112b9612029565b5b6040519080825280602002602001820160405280156112ed57816020015b60608152602001906001900390816112d85790505b509050600060018054905067ffffffffffffffff81111561131157611310612029565b5b60405190808252806020026020018201604052801561133f5781602001602082028036833780820191505090505b50905060005b6001805490508110156114ef578573ffffffffffffffffffffffffffffffffffffffff166001828154811061137d5761137c6127d9565b5b906000526020600020906003020160000160009054906101000a900473ffffffffffffffffffffffffffffffffffffffff1673ffffffffffffffffffffffffffffffffffffffff16036114dc57600181815481106113de576113dd6127d9565b5b906000526020600020906003020160010180546113fa90612837565b80601f016020809104026020016040519081016040528092919081815260200182805461142690612837565b80156114735780601f1061144857610100808354040283529160200191611473565b820191906000526020600020905b81548152906001019060200180831161145657829003601f168201915b505050505083828151811061148b5761148a6127d9565b5b6020026020010181905250600181815481106114aa576114a96127d9565b5b9060005260206000209060030201600201548282815181106114cf576114ce6127d9565b5b6020026020010181815250505b80806114e790612897565b915050611345565b508181935093505050915091565b6060806060806060806060806000808054905067ffffffffffffffff81111561152957611528612029565b5b6040519080825280602002602001820160405280156115575781602001602082028036833780820191505090505b5090506000808054905067ffffffffffffffff81111561157a57611579612029565b5b6040519080825280602002602001820160405280156115ad57816020015b60608152602001906001900390816115985790505b5090506000808054905067ffffffffffffffff8111156115d0576115cf612029565b5b60405190808252806020026020018201604052801561160357816020015b60608152602001906001900390816115ee5790505b5090506000808054905067ffffffffffffffff81111561162657611625612029565b5b60405190808252806020026020018201604052801561165957816020015b60608152602001906001900390816116445790505b5090506000808054905067ffffffffffffffff81111561167c5761167b612029565b5b6040519080825280602002602001820160405280156116af57816020015b606081526020019060019003908161169a5790505b5090506000808054905067ffffffffffffffff8111156116d2576116d1612029565b5b60405190808252806020026020018201604052801561170557816020015b60608152602001906001900390816116f05790505b5090506000808054905067ffffffffffffffff81111561172857611727612029565b5b60405190808252806020026020018201604052801561175b57816020015b60608152602001906001900390816117465790505b5090506000808054905067ffffffffffffffff81111561177e5761177d612029565b5b6040519080825280602002602001820160405280156117b157816020015b606081526020019060019003908161179c5790505b50905060005b600080549050811015611dfe57600081815481106117d8576117d76127d9565b5b906000526020600020906008020160000160009054906101000a900473ffffffffffffffffffffffffffffffffffffffff1689828151811061181d5761181c6127d9565b5b602002602001019073ffffffffffffffffffffffffffffffffffffffff16908173ffffffffffffffffffffffffffffffffffffffff16815250506000818154811061186b5761186a6127d9565b5b9060005260206000209060080201600101805461188790612837565b80601f01602080910402602001604051908101604052809291908181526020018280546118b390612837565b80156119005780601f106118d557610100808354040283529160200191611900565b820191906000526020600020905b8154815290600101906020018083116118e357829003601f168201915b5050505050888281518110611918576119176127d9565b5b602002602001018190525060008181548110611937576119366127d9565b5b9060005260206000209060080201600201805461195390612837565b80601f016020809104026020016040519081016040528092919081815260200182805461197f90612837565b80156119cc5780601f106119a1576101008083540402835291602001916119cc565b820191906000526020600020905b8154815290600101906020018083116119af57829003601f168201915b50505050508782815181106119e4576119e36127d9565b5b602002602001018190525060008181548110611a0357611a026127d9565b5b90600052602060002090600802016003018054611a1f90612837565b80601f0160208091040260200160405190810160405280929190818152602001828054611a4b90612837565b8015611a985780601f10611a6d57610100808354040283529160200191611a98565b820191906000526020600020905b815481529060010190602001808311611a7b57829003601f168201915b5050505050868281518110611ab057611aaf6127d9565b5b602002602001018190525060008181548110611acf57611ace6127d9565b5b90600052602060002090600802016004018054611aeb90612837565b80601f0160208091040260200160405190810160405280929190818152602001828054611b1790612837565b8015611b645780601f10611b3957610100808354040283529160200191611b64565b820191906000526020600020905b815481529060010190602001808311611b4757829003601f168201915b5050505050858281518110611b7c57611b7b6127d9565b5b602002602001018190525060008181548110611b9b57611b9a6127d9565b5b90600052602060002090600802016005018054611bb790612837565b80601f0160208091040260200160405190810160405280929190818152602001828054611be390612837565b8015611c305780601f10611c0557610100808354040283529160200191611c30565b820191906000526020600020905b815481529060010190602001808311611c1357829003601f168201915b5050505050848281518110611c4857611c476127d9565b5b602002602001018190525060008181548110611c6757611c666127d9565b5b90600052602060002090600802016006018054611c8390612837565b80601f0160208091040260200160405190810160405280929190818152602001828054611caf90612837565b8015611cfc5780601f10611cd157610100808354040283529160200191611cfc565b820191906000526020600020905b815481529060010190602001808311611cdf57829003601f168201915b5050505050838281518110611d1457611d136127d9565b5b602002602001018190525060008181548110611d3357611d326127d9565b5b90600052602060002090600802016007018054611d4f90612837565b80601f0160208091040260200160405190810160405280929190818152602001828054611d7b90612837565b8015611dc85780601f10611d9d57610100808354040283529160200191611dc8565b820191906000526020600020905b815481529060010190602001808311611dab57829003601f168201915b5050505050828281518110611de057611ddf6127d9565b5b60200260200101819052508080611df690612897565b9150506117b7565b5087878787878787879f509f509f509f509f509f509f509f5050505050505050509091929394959697565b6000604051905090565b600080fd5b600080fd5b600073ffffffffffffffffffffffffffffffffffffffff82169050919050565b6000611e6882611e3d565b9050919050565b611e7881611e5d565b8114611e8357600080fd5b50565b600081359050611e9581611e6f565b92915050565b600060208284031215611eb157611eb0611e33565b5b6000611ebf84828501611e86565b91505092915050565b611ed181611e5d565b82525050565b600081519050919050565b600082825260208201905092915050565b60005b83811015611f11578082015181840152602081019050611ef6565b83811115611f20576000848401525b50505050565b6000601f19601f8301169050919050565b6000611f4282611ed7565b611f4c8185611ee2565b9350611f5c818560208601611ef3565b611f6581611f26565b840191505092915050565b600061010082019050611f86600083018b611ec8565b8181036020830152611f98818a611f37565b90508181036040830152611fac8189611f37565b90508181036060830152611fc08188611f37565b90508181036080830152611fd48187611f37565b905081810360a0830152611fe88186611f37565b905081810360c0830152611ffc8185611f37565b905081810360e08301526120108184611f37565b90509998505050505050505050565b600080fd5b600080fd5b7f4e487b7100000000000000000000000000000000000000000000000000000000600052604160045260246000fd5b61206182611f26565b810181811067ffffffffffffffff821117156120805761207f612029565b5b80604052505050565b6000612093611e29565b905061209f8282612058565b919050565b600067ffffffffffffffff8211156120bf576120be612029565b5b6120c882611f26565b9050602081019050919050565b82818337600083830152505050565b60006120f76120f2846120a4565b612089565b90508281526020810184848401111561211357612112612024565b5b61211e8482856120d5565b509392505050565b600082601f83011261213b5761213a61201f565b5b813561214b8482602086016120e4565b91505092915050565b6000806040838503121561216b5761216a611e33565b5b600061217985828601611e86565b925050602083013567ffffffffffffffff81111561219a57612199611e38565b5b6121a685828601612126565b9150509250929050565b6000819050919050565b6121c3816121b0565b82525050565b60006020820190506121de60008301846121ba565b92915050565b6121ed816121b0565b81146121f857600080fd5b50565b60008135905061220a816121e4565b92915050565b60006020828403121561222657612225611e33565b5b6000612234848285016121fb565b91505092915050565b60006060820190506122526000830186611ec8565b81810360208301526122648185611f37565b905061227360408301846121ba565b949350505050565b60008060006060848603121561229457612293611e33565b5b60006122a286828701611e86565b935050602084013567ffffffffffffffff8111156122c3576122c2611e38565b5b6122cf86828701612126565b92505060406122e0868287016121fb565b9150509250925092565b600080600080600080600080610100898b03121561230b5761230a611e33565b5b60006123198b828c01611e86565b985050602089013567ffffffffffffffff81111561233a57612339611e38565b5b6123468b828c01612126565b975050604089013567ffffffffffffffff81111561236757612366611e38565b5b6123738b828c01612126565b965050606089013567ffffffffffffffff81111561239457612393611e38565b5b6123a08b828c01612126565b955050608089013567ffffffffffffffff8111156123c1576123c0611e38565b5b6123cd8b828c01612126565b94505060a089013567ffffffffffffffff8111156123ee576123ed611e38565b5b6123fa8b828c01612126565b93505060c089013567ffffffffffffffff81111561241b5761241a611e38565b5b6124278b828c01612126565b92505060e089013567ffffffffffffffff81111561244857612447611e38565b5b6124548b828c01612126565b9150509295985092959890939650565b600081519050919050565b600082825260208201905092915050565b6000819050602082019050919050565b600082825260208201905092915050565b60006124ac82611ed7565b6124b68185612490565b93506124c6818560208601611ef3565b6124cf81611f26565b840191505092915050565b60006124e683836124a1565b905092915050565b6000602082019050919050565b600061250682612464565b612510818561246f565b93508360208202850161252285612480565b8060005b8581101561255e578484038952815161253f85826124da565b945061254a836124ee565b925060208a01995050600181019050612526565b50829750879550505050505092915050565b600081519050919050565b600082825260208201905092915050565b6000819050602082019050919050565b6125a5816121b0565b82525050565b60006125b7838361259c565b60208301905092915050565b6000602082019050919050565b60006125db82612570565b6125e5818561257b565b93506125f08361258c565b8060005b8381101561262157815161260888826125ab565b9750612613836125c3565b9250506001810190506125f4565b5085935050505092915050565b6000604082019050818103600083015261264881856124fb565b9050818103602083015261265c81846125d0565b90509392505050565b600081519050919050565b600082825260208201905092915050565b6000819050602082019050919050565b61269a81611e5d565b82525050565b60006126ac8383612691565b60208301905092915050565b6000602082019050919050565b60006126d082612665565b6126da8185612670565b93506126e583612681565b8060005b838110156127165781516126fd88826126a0565b9750612708836126b8565b9250506001810190506126e9565b5085935050505092915050565b600061010082019050818103600083015261273e818b6126c5565b90508181036020830152612752818a6124fb565b9050818103604083015261276681896124fb565b9050818103606083015261277a81886124fb565b9050818103608083015261278e81876124fb565b905081810360a08301526127a281866124fb565b905081810360c08301526127b681856124fb565b905081810360e08301526127ca81846124fb565b90509998505050505050505050565b7f4e487b7100000000000000000000000000000000000000000000000000000000600052603260045260246000fd5b7f4e487b7100000000000000000000000000000000000000000000000000000000600052602260045260246000fd5b6000600282049050600182168061284f57607f821691505b60208210810361286257612861612808565b5b50919050565b7f4e487b7100000000000000000000000000000000000000000000000000000000600052601160045260246000fd5b60006128a2826121b0565b91507fffffffffffffffffffffffffffffffffffffffffffffffffffffffffffffffff82036128d4576128d3612868565b5b600182019050919050565b600081905092915050565b60008190508160005260206000209050919050565b6000815461290c81612837565b61291681866128df565b94506001821660008114612931576001811461294657612979565b60ff1983168652811515820286019350612979565b61294f856128ea565b60005b8381101561297157815481890152600182019150602081019050612952565b838801955050505b50505092915050565b600061298e82846128ff565b915081905092915050565b7f4c6576656c206f6620736b696c6c20696e636f72726563742e00000000000000600082015250565b60006129cf601983611ee2565b91506129da82612999565b602082019050919050565b600060208201905081810360008301526129fe816129c2565b9050919050565b60008190508160005260206000209050919050565b60006020601f8301049050919050565b600082821b905092915050565b600060088302612a677fffffffffffffffffffffffffffffffffffffffffffffffffffffffffffffffff82612a2a565b612a718683612a2a565b95508019841693508086168417925050509392505050565b6000819050919050565b6000612aae612aa9612aa4846121b0565b612a89565b6121b0565b9050919050565b6000819050919050565b612ac883612a93565b612adc612ad482612ab5565b848454612a37565b825550505050565b600090565b612af1612ae4565b612afc818484612abf565b505050565b5b81811015612b2057612b15600082612ae9565b600181019050612b02565b5050565b601f821115612b6557612b3681612a05565b612b3f84612a1a565b81016020851015612b4e578190505b612b62612b5a85612a1a565b830182612b01565b50505b505050565b600082821c905092915050565b6000612b8860001984600802612b6a565b1980831691505092915050565b6000612ba18383612b77565b9150826002028217905092915050565b612bba82611ed7565b67ffffffffffffffff811115612bd357612bd2612029565b5b612bdd8254612837565b612be8828285612b24565b600060209050601f831160018114612c1b5760008415612c09578287015190505b612c138582612b95565b865550612c7b565b601f198416612c2986612a05565b60005b82811015612c5157848901518255600182019150602085019450602081019050612c2c565b86831015612c6e5784890151612c6a601f891682612b77565b8355505b6001600288020188555050505b505050505050565b6000612c8e826121b0565b9150612c99836121b0565b9250827fffffffffffffffffffffffffffffffffffffffffffffffffffffffffffffffff03821115612cce57612ccd612868565b5b82820190509291505056fea26469706673582212209316f127617303a0e399af13f9566f727d47c19aee324f04f027d7da587aa5c264736f6c634300080f0033608060405234801561001057600080fd5b5061234a806100206000396000f3fe608060405234801561001057600080fd5b50600436106100575760003560e01c80630f53a4701461005c578063a7dba18414610092578063bf44b303146100c2578063cfafbc0c146100f9578063e045b7101461011e575b600080fd5b610076600480360381019061007191906116a1565b61013a565b6040516100899796959493929190611776565b60405180910390f35b6100ac60048036038101906100a79190611944565b61066d565b6040516100b991906119b9565b60405180910390f35b6100dc60048036038101906100d79190611a00565b61076b565b6040516100f0989796959493929190611a2d565b60405180910390f35b610101610b9b565b604051610115989796959493929190611ca6565b60405180910390f35b61013860048036038101906101339190611d5c565b6114c7565b005b600060608060608060608060005b600080549050811015610660578873ffffffffffffffffffffffffffffffffffffffff16600082815481106101805761017f611ed6565b5b906000526020600020906008020160000160009054906101000a900473ffffffffffffffffffffffffffffffffffffffff1673ffffffffffffffffffffffffffffffffffffffff160361064d57600081815481106101e1576101e0611ed6565b5b906000526020600020906008020160000160009054906101000a900473ffffffffffffffffffffffffffffffffffffffff166000828154811061022757610226611ed6565b5b90600052602060002090600802016001016000838154811061024c5761024b611ed6565b5b90600052602060002090600802016002016000848154811061027157610270611ed6565b5b90600052602060002090600802016003016000858154811061029657610295611ed6565b5b9060005260206000209060080201600401600086815481106102bb576102ba611ed6565b5b9060005260206000209060080201600501600087815481106102e0576102df611ed6565b5b90600052602060002090600802016006018580546102fd90611f34565b80601f016020809104026020016040519081016040528092919081815260200182805461032990611f34565b80156103765780601f1061034b57610100808354040283529160200191610376565b820191906000526020600020905b81548152906001019060200180831161035957829003601f168201915b5050505050955084805461038990611f34565b80601f01602080910402602001604051908101604052809291908181526020018280546103b590611f34565b80156104025780601f106103d757610100808354040283529160200191610402565b820191906000526020600020905b8154815290600101906020018083116103e557829003601f168201915b5050505050945083805461041590611f34565b80601f016020809104026020016040519081016040528092919081815260200182805461044190611f34565b801561048e5780601f106104635761010080835404028352916020019161048e565b820191906000526020600020905b81548152906001019060200180831161047157829003601f168201915b505050505093508280546104a190611f34565b80601f01602080910402602001604051908101604052809291908181526020018280546104cd90611f34565b801561051a5780601f106104ef5761010080835404028352916020019161051a565b820191906000526020600020905b8154815290600101906020018083116104fd57829003601f168201915b5050505050925081805461052d90611f34565b80601f016020809104026020016040519081016040528092919081815260200182805461055990611f34565b80156105a65780601f1061057b576101008083540402835291602001916105a6565b820191906000526020600020905b81548152906001019060200180831161058957829003601f168201915b505050505091508080546105b990611f34565b80601f01602080910402602001604051908101604052809291908181526020018280546105e590611f34565b80156106325780601f1061060757610100808354040283529160200191610632565b820191906000526020600020905b81548152906001019060200180831161061557829003601f168201915b50505050509050975097509750975097509750975050610662565b808061065890611f94565b915050610148565b505b919395979092949650565b600080600090505b600080549050811015610763578373ffffffffffffffffffffffffffffffffffffffff16600082815481106106ad576106ac611ed6565b5b906000526020600020906008020160000160009054906101000a900473ffffffffffffffffffffffffffffffffffffffff1673ffffffffffffffffffffffffffffffffffffffff16148015610741575082805190602001206000828154811061071957610718611ed6565b5b9060005260206000209060080201600701604051610737919061207f565b6040518091039020145b15610750576001915050610765565b808061075b90611f94565b915050610675565b505b92915050565b6000818154811061077b57600080fd5b90600052602060002090600802016000915090508060000160009054906101000a900473ffffffffffffffffffffffffffffffffffffffff16908060010180546107c490611f34565b80601f01602080910402602001604051908101604052809291908181526020018280546107f090611f34565b801561083d5780601f106108125761010080835404028352916020019161083d565b820191906000526020600020905b81548152906001019060200180831161082057829003601f168201915b50505050509080600201805461085290611f34565b80601f016020809104026020016040519081016040528092919081815260200182805461087e90611f34565b80156108cb5780601f106108a0576101008083540402835291602001916108cb565b820191906000526020600020905b8154815290600101906020018083116108ae57829003601f168201915b5050505050908060030180546108e090611f34565b80601f016020809104026020016040519081016040528092919081815260200182805461090c90611f34565b80156109595780601f1061092e57610100808354040283529160200191610959565b820191906000526020600020905b81548152906001019060200180831161093c57829003601f168201915b50505050509080600401805461096e90611f34565b80601f016020809104026020016040519081016040528092919081815260200182805461099a90611f34565b80156109e75780601f106109bc576101008083540402835291602001916109e7565b820191906000526020600020905b8154815290600101906020018083116109ca57829003601f168201915b5050505050908060050180546109fc90611f34565b80601f0160208091040260200160405190810160405280929190818152602001828054610a2890611f34565b8015610a755780601f10610a4a57610100808354040283529160200191610a75565b820191906000526020600020905b815481529060010190602001808311610a5857829003601f168201915b505050505090806006018054610a8a90611f34565b80601f0160208091040260200160405190810160405280929190818152602001828054610ab690611f34565b8015610b035780601f10610ad857610100808354040283529160200191610b03565b820191906000526020600020905b815481529060010190602001808311610ae657829003601f168201915b505050505090806007018054610b1890611f34565b80601f0160208091040260200160405190810160405280929190818152602001828054610b4490611f34565b8015610b915780601f10610b6657610100808354040283529160200191610b91565b820191906000526020600020905b815481529060010190602001808311610b7457829003601f168201915b5050505050905088565b6060806060806060806060806000808054905067ffffffffffffffff811115610bc757610bc6611819565b5b604051908082528060200260200182016040528015610bf55781602001602082028036833780820191505090505b5090506000808054905067ffffffffffffffff811115610c1857610c17611819565b5b604051908082528060200260200182016040528015610c4b57816020015b6060815260200190600190039081610c365790505b5090506000808054905067ffffffffffffffff811115610c6e57610c6d611819565b5b604051908082528060200260200182016040528015610ca157816020015b6060815260200190600190039081610c8c5790505b5090506000808054905067ffffffffffffffff811115610cc457610cc3611819565b5b604051908082528060200260200182016040528015610cf757816020015b6060815260200190600190039081610ce25790505b5090506000808054905067ffffffffffffffff811115610d1a57610d19611819565b5b604051908082528060200260200182016040528015610d4d57816020015b6060815260200190600190039081610d385790505b5090506000808054905067ffffffffffffffff811115610d7057610d6f611819565b5b604051908082528060200260200182016040528015610da357816020015b6060815260200190600190039081610d8e5790505b5090506000808054905067ffffffffffffffff811115610dc657610dc5611819565b5b604051908082528060200260200182016040528015610df957816020015b6060815260200190600190039081610de45790505b5090506000808054905067ffffffffffffffff811115610e1c57610e1b611819565b5b604051908082528060200260200182016040528015610e4f57816020015b6060815260200190600190039081610e3a5790505b50905060005b60008054905081101561149c5760008181548110610e7657610e75611ed6565b5b906000526020600020906008020160000160009054906101000a900473ffffffffffffffffffffffffffffffffffffffff16898281518110610ebb57610eba611ed6565b5b602002602001019073ffffffffffffffffffffffffffffffffffffffff16908173ffffffffffffffffffffffffffffffffffffffff168152505060008181548110610f0957610f08611ed6565b5b90600052602060002090600802016001018054610f2590611f34565b80601f0160208091040260200160405190810160405280929190818152602001828054610f5190611f34565b8015610f9e5780601f10610f7357610100808354040283529160200191610f9e565b820191906000526020600020905b815481529060010190602001808311610f8157829003601f168201915b5050505050888281518110610fb657610fb5611ed6565b5b602002602001018190525060008181548110610fd557610fd4611ed6565b5b90600052602060002090600802016002018054610ff190611f34565b80601f016020809104026020016040519081016040528092919081815260200182805461101d90611f34565b801561106a5780601f1061103f5761010080835404028352916020019161106a565b820191906000526020600020905b81548152906001019060200180831161104d57829003601f168201915b505050505087828151811061108257611081611ed6565b5b6020026020010181905250600081815481106110a1576110a0611ed6565b5b906000526020600020906008020160030180546110bd90611f34565b80601f01602080910402602001604051908101604052809291908181526020018280546110e990611f34565b80156111365780601f1061110b57610100808354040283529160200191611136565b820191906000526020600020905b81548152906001019060200180831161111957829003601f168201915b505050505086828151811061114e5761114d611ed6565b5b60200260200101819052506000818154811061116d5761116c611ed6565b5b9060005260206000209060080201600401805461118990611f34565b80601f01602080910402602001604051908101604052809291908181526020018280546111b590611f34565b80156112025780601f106111d757610100808354040283529160200191611202565b820191906000526020600020905b8154815290600101906020018083116111e557829003601f168201915b505050505085828151811061121a57611219611ed6565b5b60200260200101819052506000818154811061123957611238611ed6565b5b9060005260206000209060080201600501805461125590611f34565b80601f016020809104026020016040519081016040528092919081815260200182805461128190611f34565b80156112ce5780601f106112a3576101008083540402835291602001916112ce565b820191906000526020600020905b8154815290600101906020018083116112b157829003601f168201915b50505050508482815181106112e6576112e5611ed6565b5b60200260200101819052506000818154811061130557611304611ed6565b5b9060005260206000209060080201600601805461132190611f34565b80601f016020809104026020016040519081016040528092919081815260200182805461134d90611f34565b801561139a5780601f1061136f5761010080835404028352916020019161139a565b820191906000526020600020905b81548152906001019060200180831161137d57829003601f168201915b50505050508382815181106113b2576113b1611ed6565b5b6020026020010181905250600081815481106113d1576113d0611ed6565b5b906000526020600020906008020160070180546113ed90611f34565b80601f016020809104026020016040519081016040528092919081815260200182805461141990611f34565b80156114665780601f1061143b57610100808354040283529160200191611466565b820191906000526020600020905b81548152906001019060200180831161144957829003601f168201915b505050505082828151811061147e5761147d611ed6565b5b6020026020010181905250808061149490611f94565b915050610e55565b5087878787878787879f509f509f509f509f509f509f509f5050505050505050509091929394959697565b60006040518061010001604052808a73ffffffffffffffffffffffffffffffffffffffff16815260200189815260200188815260200187815260200186815260200185815260200184815260200183815250908060018154018082558091505060019003906000526020600020906008020160009091909190915060008201518160000160006101000a81548173ffffffffffffffffffffffffffffffffffffffff021916908373ffffffffffffffffffffffffffffffffffffffff160217905550602082015181600101908161159e9190612242565b5060408201518160020190816115b49190612242565b5060608201518160030190816115ca9190612242565b5060808201518160040190816115e09190612242565b5060a08201518160050190816115f69190612242565b5060c082015181600601908161160c9190612242565b5060e08201518160070190816116229190612242565b5050505050505050505050565b6000604051905090565b600080fd5b600080fd5b600073ffffffffffffffffffffffffffffffffffffffff82169050919050565b600061166e82611643565b9050919050565b61167e81611663565b811461168957600080fd5b50565b60008135905061169b81611675565b92915050565b6000602082840312156116b7576116b6611639565b5b60006116c58482850161168c565b91505092915050565b6116d781611663565b82525050565b600081519050919050565b600082825260208201905092915050565b60005b838110156117175780820151818401526020810190506116fc565b83811115611726576000848401525b50505050565b6000601f19601f8301169050919050565b6000611748826116dd565b61175281856116e8565b93506117628185602086016116f9565b61176b8161172c565b840191505092915050565b600060e08201905061178b600083018a6116ce565b818103602083015261179d818961173d565b905081810360408301526117b1818861173d565b905081810360608301526117c5818761173d565b905081810360808301526117d9818661173d565b905081810360a08301526117ed818561173d565b905081810360c0830152611801818461173d565b905098975050505050505050565b600080fd5b600080fd5b7f4e487b7100000000000000000000000000000000000000000000000000000000600052604160045260246000fd5b6118518261172c565b810181811067ffffffffffffffff821117156118705761186f611819565b5b80604052505050565b600061188361162f565b905061188f8282611848565b919050565b600067ffffffffffffffff8211156118af576118ae611819565b5b6118b88261172c565b9050602081019050919050565b82818337600083830152505050565b60006118e76118e284611894565b611879565b90508281526020810184848401111561190357611902611814565b5b61190e8482856118c5565b509392505050565b600082601f83011261192b5761192a61180f565b5b813561193b8482602086016118d4565b91505092915050565b6000806040838503121561195b5761195a611639565b5b60006119698582860161168c565b925050602083013567ffffffffffffffff81111561198a5761198961163e565b5b61199685828601611916565b9150509250929050565b6000819050919050565b6119b3816119a0565b82525050565b60006020820190506119ce60008301846119aa565b92915050565b6119dd816119a0565b81146119e857600080fd5b50565b6000813590506119fa816119d4565b92915050565b600060208284031215611a1657611a15611639565b5b6000611a24848285016119eb565b91505092915050565b600061010082019050611a43600083018b6116ce565b8181036020830152611a55818a61173d565b90508181036040830152611a69818961173d565b90508181036060830152611a7d818861173d565b90508181036080830152611a91818761173d565b905081810360a0830152611aa5818661173d565b905081810360c0830152611ab9818561173d565b905081810360e0830152611acd818461173d565b90509998505050505050505050565b600081519050919050565b600082825260208201905092915050565b6000819050602082019050919050565b611b1181611663565b82525050565b6000611b238383611b08565b60208301905092915050565b6000602082019050919050565b6000611b4782611adc565b611b518185611ae7565b9350611b5c83611af8565b8060005b83811015611b8d578151611b748882611b17565b9750611b7f83611b2f565b925050600181019050611b60565b5085935050505092915050565b600081519050919050565b600082825260208201905092915050565b6000819050602082019050919050565b600082825260208201905092915050565b6000611be2826116dd565b611bec8185611bc6565b9350611bfc8185602086016116f9565b611c058161172c565b840191505092915050565b6000611c1c8383611bd7565b905092915050565b6000602082019050919050565b6000611c3c82611b9a565b611c468185611ba5565b935083602082028501611c5885611bb6565b8060005b85811015611c945784840389528151611c758582611c10565b9450611c8083611c24565b925060208a01995050600181019050611c5c565b50829750879550505050505092915050565b6000610100820190508181036000830152611cc1818b611b3c565b90508181036020830152611cd5818a611c31565b90508181036040830152611ce98189611c31565b90508181036060830152611cfd8188611c31565b90508181036080830152611d118187611c31565b905081810360a0830152611d258186611c31565b905081810360c0830152611d398185611c31565b905081810360e0830152611d4d8184611c31565b90509998505050505050505050565b600080600080600080600080610100898b031215611d7d57611d7c611639565b5b6000611d8b8b828c0161168c565b985050602089013567ffffffffffffffff811115611dac57611dab61163e565b5b611db88b828c01611916565b975050604089013567ffffffffffffffff811115611dd957611dd861163e565b5b611de58b828c01611916565b965050606089013567ffffffffffffffff811115611e0657611e0561163e565b5b611e128b828c01611916565b955050608089013567ffffffffffffffff811115611e3357611e3261163e565b5b611e3f8b828c01611916565b94505060a089013567ffffffffffffffff811115611e6057611e5f61163e565b5b611e6c8b828c01611916565b93505060c089013567ffffffffffffffff811115611e8d57611e8c61163e565b5b611e998b828c01611916565b92505060e089013567ffffffffffffffff811115611eba57611eb961163e565b5b611ec68b828c01611916565b9150509295985092959890939650565b7f4e487b7100000000000000000000000000000000000000000000000000000000600052603260045260246000fd5b7f4e487b7100000000000000000000000000000000000000000000000000000000600052602260045260246000fd5b60006002820490506001821680611f4c57607f821691505b602082108103611f5f57611f5e611f05565b5b50919050565b7f4e487b7100000000000000000000000000000000000000000000000000000000600052601160045260246000fd5b6000611f9f826119a0565b91507fffffffffffffffffffffffffffffffffffffffffffffffffffffffffffffffff8203611fd157611fd0611f65565b5b600182019050919050565b600081905092915050565b60008190508160005260206000209050919050565b6000815461200981611f34565b6120138186611fdc565b9450600182166000811461202e576001811461204357612076565b60ff1983168652811515820286019350612076565b61204c85611fe7565b60005b8381101561206e5781548189015260018201915060208101905061204f565b838801955050505b50505092915050565b600061208b8284611ffc565b915081905092915050565b60008190508160005260206000209050919050565b60006020601f8301049050919050565b600082821b905092915050565b6000600883026120f87fffffffffffffffffffffffffffffffffffffffffffffffffffffffffffffffff826120bb565b61210286836120bb565b95508019841693508086168417925050509392505050565b6000819050919050565b600061213f61213a612135846119a0565b61211a565b6119a0565b9050919050565b6000819050919050565b61215983612124565b61216d61216582612146565b8484546120c8565b825550505050565b600090565b612182612175565b61218d818484612150565b505050565b5b818110156121b1576121a660008261217a565b600181019050612193565b5050565b601f8211156121f6576121c781612096565b6121d0846120ab565b810160208510156121df578190505b6121f36121eb856120ab565b830182612192565b50505b505050565b600082821c905092915050565b6000612219600019846008026121fb565b1980831691505092915050565b60006122328383612208565b9150826002028217905092915050565b61224b826116dd565b67ffffffffffffffff81111561226457612263611819565b5b61226e8254611f34565b6122798282856121b5565b600060209050601f8311600181146122ac576000841561229a578287015190505b6122a48582612226565b86555061230c565b601f1984166122ba86612096565b60005b828110156122e2578489015182556001820191506020850194506020810190506122bd565b868310156122ff57848901516122fb601f891682612208565b8355505b6001600288020188555050505b50505050505056fea264697066735822122019813a35cd883781eac4e015667c65aac69f8a7a7bf7db17e39f9abe091ce78264736f6c634300080f0033608060405234801561001057600080fd5b5061276c806100206000396000f3fe608060405234801561001057600080fd5b50600436106100b35760003560e01c8063ae8f00d311610071578063ae8f00d3146101ba578063ce1ec5bb146101d6578063cee5c7f314610207578063dc1e475f14610223578063e83ddcea1461023f578063e9daa70a14610271576100b3565b80624e56cf146100b85780630299779f146100d45780630b5e50ed14610104578063381a3bf7146101365780637aedcde51461016a578063844bb4601461019e575b600080fd5b6100d260048036038101906100cd9190611c6c565b6102a3565b005b6100ee60048036038101906100e99190611d0b565b610441565b6040516100fb9190611d93565b60405180910390f35b61011e60048036038101906101199190611dda565b6105bc565b60405161012d93929190611e9e565b60405180910390f35b610150600480360381019061014b9190611ee3565b610726565b6040516101619594939291906120da565b60405180910390f35b610184600480360381019061017f9190611dda565b610d16565b604051610195959493929190612150565b60405180910390f35b6101b860048036038101906101b39190611c6c565b610f34565b005b6101d460048036038101906101cf9190611d0b565b6110d2565b005b6101f060048036038101906101eb9190611ee3565b6111ef565b6040516101fe9291906121b8565b60405180910390f35b610221600480360381019061021c91906121ef565b6114e2565b005b61023d60048036038101906102389190611c6c565b6115b8565b005b61025960048036038101906102549190611dda565b611743565b6040516102689392919061227a565b60405180910390f35b61028b600480360381019061028691906122b8565b611845565b60405161029a9392919061227a565b60405180910390f35b60005b60008054905081101561043a578473ffffffffffffffffffffffffffffffffffffffff16600082815481106102de576102dd6122f8565b5b906000526020600020906005020160000160009054906101000a900473ffffffffffffffffffffffffffffffffffffffff1673ffffffffffffffffffffffffffffffffffffffff161480156103a357508373ffffffffffffffffffffffffffffffffffffffff1660008281548110610359576103586122f8565b5b906000526020600020906005020160010160009054906101000a900473ffffffffffffffffffffffffffffffffffffffff1673ffffffffffffffffffffffffffffffffffffffff16145b80156103ee57508280519060200120600082815481106103c6576103c56122f8565b5b90600052602060002090600502016002016040516103e4919061242a565b6040518091039020145b15610427578160008281548110610408576104076122f8565b5b9060005260206000209060050201600401908161042591906125ed565b505b8080610432906126ee565b9150506102a6565b5050505050565b600080600090505b6000805490508110156105b3578473ffffffffffffffffffffffffffffffffffffffff1660008281548110610481576104806122f8565b5b906000526020600020906005020160000160009054906101000a900473ffffffffffffffffffffffffffffffffffffffff1673ffffffffffffffffffffffffffffffffffffffff1614801561054657508373ffffffffffffffffffffffffffffffffffffffff16600082815481106104fc576104fb6122f8565b5b906000526020600020906005020160010160009054906101000a900473ffffffffffffffffffffffffffffffffffffffff1673ffffffffffffffffffffffffffffffffffffffff16145b80156105915750828051906020012060008281548110610569576105686122f8565b5b9060005260206000209060050201600201604051610587919061242a565b6040518091039020145b156105a05760019150506105b5565b80806105ab906126ee565b915050610449565b505b9392505050565b600181815481106105cc57600080fd5b90600052602060002090600302016000915090508060000160009054906101000a900473ffffffffffffffffffffffffffffffffffffffff169080600101805461061590612356565b80601f016020809104026020016040519081016040528092919081815260200182805461064190612356565b801561068e5780601f106106635761010080835404028352916020019161068e565b820191906000526020600020905b81548152906001019060200180831161067157829003601f168201915b5050505050908060020180546106a390612356565b80601f01602080910402602001604051908101604052809291908181526020018280546106cf90612356565b801561071c5780601f106106f15761010080835404028352916020019161071c565b820191906000526020600020905b8154815290600101906020018083116106ff57829003601f168201915b5050505050905083565b60608060608060606000808054905067ffffffffffffffff81111561074e5761074d611b41565b5b60405190808252806020026020018201604052801561077c5781602001602082028036833780820191505090505b5090506000808054905067ffffffffffffffff81111561079f5761079e611b41565b5b6040519080825280602002602001820160405280156107cd5781602001602082028036833780820191505090505b5090506000808054905067ffffffffffffffff8111156107f0576107ef611b41565b5b60405190808252806020026020018201604052801561082357816020015b606081526020019060019003908161080e5790505b5090506000808054905067ffffffffffffffff81111561084657610845611b41565b5b60405190808252806020026020018201604052801561087957816020015b60608152602001906001900390816108645790505b5090506000808054905067ffffffffffffffff81111561089c5761089b611b41565b5b6040519080825280602002602001820160405280156108cf57816020015b60608152602001906001900390816108ba5790505b50905060005b600080549050811015610cf8578b73ffffffffffffffffffffffffffffffffffffffff166000828154811061090d5761090c6122f8565b5b906000526020600020906005020160010160009054906101000a900473ffffffffffffffffffffffffffffffffffffffff1673ffffffffffffffffffffffffffffffffffffffff1603610ce5576000818154811061096e5761096d6122f8565b5b906000526020600020906005020160000160009054906101000a900473ffffffffffffffffffffffffffffffffffffffff168682815181106109b3576109b26122f8565b5b602002602001019073ffffffffffffffffffffffffffffffffffffffff16908173ffffffffffffffffffffffffffffffffffffffff168152505060008181548110610a0157610a006122f8565b5b906000526020600020906005020160010160009054906101000a900473ffffffffffffffffffffffffffffffffffffffff16858281518110610a4657610a456122f8565b5b602002602001019073ffffffffffffffffffffffffffffffffffffffff16908173ffffffffffffffffffffffffffffffffffffffff168152505060008181548110610a9457610a936122f8565b5b90600052602060002090600502016002018054610ab090612356565b80601f0160208091040260200160405190810160405280929190818152602001828054610adc90612356565b8015610b295780601f10610afe57610100808354040283529160200191610b29565b820191906000526020600020905b815481529060010190602001808311610b0c57829003601f168201915b5050505050848281518110610b4157610b406122f8565b5b602002602001018190525060008181548110610b6057610b5f6122f8565b5b90600052602060002090600502016003018054610b7c90612356565b80601f0160208091040260200160405190810160405280929190818152602001828054610ba890612356565b8015610bf55780601f10610bca57610100808354040283529160200191610bf5565b820191906000526020600020905b815481529060010190602001808311610bd857829003601f168201915b5050505050838281518110610c0d57610c0c6122f8565b5b602002602001018190525060008181548110610c2c57610c2b6122f8565b5b90600052602060002090600502016004018054610c4890612356565b80601f0160208091040260200160405190810160405280929190818152602001828054610c7490612356565b8015610cc15780601f10610c9657610100808354040283529160200191610cc1565b820191906000526020600020905b815481529060010190602001808311610ca457829003601f168201915b5050505050828281518110610cd957610cd86122f8565b5b60200260200101819052505b8080610cf0906126ee565b9150506108d5565b50848484848499509950995099509950505050505091939590929450565b60008181548110610d2657600080fd5b90600052602060002090600502016000915090508060000160009054906101000a900473ffffffffffffffffffffffffffffffffffffffff16908060010160009054906101000a900473ffffffffffffffffffffffffffffffffffffffff1690806002018054610d9590612356565b80601f0160208091040260200160405190810160405280929190818152602001828054610dc190612356565b8015610e0e5780601f10610de357610100808354040283529160200191610e0e565b820191906000526020600020905b815481529060010190602001808311610df157829003601f168201915b505050505090806003018054610e2390612356565b80601f0160208091040260200160405190810160405280929190818152602001828054610e4f90612356565b8015610e9c5780601f10610e7157610100808354040283529160200191610e9c565b820191906000526020600020905b815481529060010190602001808311610e7f57829003601f168201915b505050505090806004018054610eb190612356565b80601f0160208091040260200160405190810160405280929190818152602001828054610edd90612356565b8015610f2a5780601f10610eff57610100808354040283529160200191610f2a565b820191906000526020600020905b815481529060010190602001808311610f0d57829003601f168201915b5050505050905085565b60005b6000805490508110156110cb578473ffffffffffffffffffffffffffffffffffffffff1660008281548110610f6f57610f6e6122f8565b5b906000526020600020906005020160000160009054906101000a900473ffffffffffffffffffffffffffffffffffffffff1673ffffffffffffffffffffffffffffffffffffffff1614801561103457508373ffffffffffffffffffffffffffffffffffffffff1660008281548110610fea57610fe96122f8565b5b906000526020600020906005020160010160009054906101000a900473ffffffffffffffffffffffffffffffffffffffff1673ffffffffffffffffffffffffffffffffffffffff16145b801561107f5750828051906020012060008281548110611057576110566122f8565b5b9060005260206000209060050201600201604051611075919061242a565b6040518091039020145b156110b8578160008281548110611099576110986122f8565b5b906000526020600020906005020160040190816110b691906125ed565b505b80806110c3906126ee565b915050610f37565b5050505050565b600260405180606001604052808573ffffffffffffffffffffffffffffffffffffffff1681526020018473ffffffffffffffffffffffffffffffffffffffff16815260200183815250908060018154018082558091505060019003906000526020600020906003020160009091909190915060008201518160000160006101000a81548173ffffffffffffffffffffffffffffffffffffffff021916908373ffffffffffffffffffffffffffffffffffffffff16021790555060208201518160010160006101000a81548173ffffffffffffffffffffffffffffffffffffffff021916908373ffffffffffffffffffffffffffffffffffffffff16021790555060408201518160020190816111e791906125ed565b505050505050565b606080600060018054905067ffffffffffffffff81111561121357611212611b41565b5b60405190808252806020026020018201604052801561124657816020015b60608152602001906001900390816112315790505b509050600060018054905067ffffffffffffffff81111561126a57611269611b41565b5b60405190808252806020026020018201604052801561129d57816020015b60608152602001906001900390816112885790505b50905060005b6001805490508110156114d4578573ffffffffffffffffffffffffffffffffffffffff16600182815481106112db576112da6122f8565b5b906000526020600020906003020160000160009054906101000a900473ffffffffffffffffffffffffffffffffffffffff1673ffffffffffffffffffffffffffffffffffffffff16036114c1576001818154811061133c5761133b6122f8565b5b9060005260206000209060030201600101805461135890612356565b80601f016020809104026020016040519081016040528092919081815260200182805461138490612356565b80156113d15780601f106113a6576101008083540402835291602001916113d1565b820191906000526020600020905b8154815290600101906020018083116113b457829003601f168201915b50505050508382815181106113e9576113e86122f8565b5b602002602001018190525060018181548110611408576114076122f8565b5b9060005260206000209060030201600201805461142490612356565b80601f016020809104026020016040519081016040528092919081815260200182805461145090612356565b801561149d5780601f106114725761010080835404028352916020019161149d565b820191906000526020600020905b81548152906001019060200180831161148057829003601f168201915b50505050508282815181106114b5576114b46122f8565b5b60200260200101819052505b80806114cc906126ee565b9150506112a3565b508181935093505050915091565b600160405180606001604052808573ffffffffffffffffffffffffffffffffffffffff16815260200184815260200183815250908060018154018082558091505060019003906000526020600020906003020160009091909190915060008201518160000160006101000a81548173ffffffffffffffffffffffffffffffffffffffff021916908373ffffffffffffffffffffffffffffffffffffffff160217905550602082015181600101908161159a91906125ed565b5060408201518160020190816115b091906125ed565b505050505050565b60006040518060a001604052808673ffffffffffffffffffffffffffffffffffffffff1681526020018573ffffffffffffffffffffffffffffffffffffffff1681526020018481526020018381526020016040518060400160405280600981526020017f53637265656e696e670000000000000000000000000000000000000000000000815250815250908060018154018082558091505060019003906000526020600020906005020160009091909190915060008201518160000160006101000a81548173ffffffffffffffffffffffffffffffffffffffff021916908373ffffffffffffffffffffffffffffffffffffffff16021790555060208201518160010160006101000a81548173ffffffffffffffffffffffffffffffffffffffff021916908373ffffffffffffffffffffffffffffffffffffffff160217905550604082015181600201908161170e91906125ed565b50606082015181600301908161172491906125ed565b50608082015181600401908161173a91906125ed565b50505050505050565b6002818154811061175357600080fd5b90600052602060002090600302016000915090508060000160009054906101000a900473ffffffffffffffffffffffffffffffffffffffff16908060010160009054906101000a900473ffffffffffffffffffffffffffffffffffffffff16908060020180546117c290612356565b80601f01602080910402602001604051908101604052809291908181526020018280546117ee90612356565b801561183b5780601f106118105761010080835404028352916020019161183b565b820191906000526020600020905b81548152906001019060200180831161181e57829003601f168201915b5050505050905083565b600080606060005b600280549050811015611aab578473ffffffffffffffffffffffffffffffffffffffff1660028281548110611885576118846122f8565b5b906000526020600020906003020160010160009054906101000a900473ffffffffffffffffffffffffffffffffffffffff1673ffffffffffffffffffffffffffffffffffffffff1614801561194a57508573ffffffffffffffffffffffffffffffffffffffff1660028281548110611900576118ff6122f8565b5b906000526020600020906003020160000160009054906101000a900473ffffffffffffffffffffffffffffffffffffffff1673ffffffffffffffffffffffffffffffffffffffff16145b15611a985760028181548110611963576119626122f8565b5b906000526020600020906003020160000160009054906101000a900473ffffffffffffffffffffffffffffffffffffffff16600282815481106119a9576119a86122f8565b5b906000526020600020906003020160010160009054906101000a900473ffffffffffffffffffffffffffffffffffffffff16600283815481106119ef576119ee6122f8565b5b9060005260206000209060030201600201808054611a0c90612356565b80601f0160208091040260200160405190810160405280929190818152602001828054611a3890612356565b8015611a855780601f10611a5a57610100808354040283529160200191611a85565b820191906000526020600020905b815481529060010190602001808311611a6857829003601f168201915b5050505050905093509350935050611aad565b8080611aa3906126ee565b91505061184d565b505b9250925092565b6000604051905090565b600080fd5b600080fd5b600073ffffffffffffffffffffffffffffffffffffffff82169050919050565b6000611af382611ac8565b9050919050565b611b0381611ae8565b8114611b0e57600080fd5b50565b600081359050611b2081611afa565b92915050565b600080fd5b600080fd5b6000601f19601f8301169050919050565b7f4e487b7100000000000000000000000000000000000000000000000000000000600052604160045260246000fd5b611b7982611b30565b810181811067ffffffffffffffff82111715611b9857611b97611b41565b5b80604052505050565b6000611bab611ab4565b9050611bb78282611b70565b919050565b600067ffffffffffffffff821115611bd757611bd6611b41565b5b611be082611b30565b9050602081019050919050565b82818337600083830152505050565b6000611c0f611c0a84611bbc565b611ba1565b905082815260208101848484011115611c2b57611c2a611b2b565b5b611c36848285611bed565b509392505050565b600082601f830112611c5357611c52611b26565b5b8135611c63848260208601611bfc565b91505092915050565b60008060008060808587031215611c8657611c85611abe565b5b6000611c9487828801611b11565b9450506020611ca587828801611b11565b935050604085013567ffffffffffffffff811115611cc657611cc5611ac3565b5b611cd287828801611c3e565b925050606085013567ffffffffffffffff811115611cf357611cf2611ac3565b5b611cff87828801611c3e565b91505092959194509250565b600080600060608486031215611d2457611d23611abe565b5b6000611d3286828701611b11565b9350506020611d4386828701611b11565b925050604084013567ffffffffffffffff811115611d6457611d63611ac3565b5b611d7086828701611c3e565b9150509250925092565b6000819050919050565b611d8d81611d7a565b82525050565b6000602082019050611da86000830184611d84565b92915050565b611db781611d7a565b8114611dc257600080fd5b50565b600081359050611dd481611dae565b92915050565b600060208284031215611df057611def611abe565b5b6000611dfe84828501611dc5565b91505092915050565b611e1081611ae8565b82525050565b600081519050919050565b600082825260208201905092915050565b60005b83811015611e50578082015181840152602081019050611e35565b83811115611e5f576000848401525b50505050565b6000611e7082611e16565b611e7a8185611e21565b9350611e8a818560208601611e32565b611e9381611b30565b840191505092915050565b6000606082019050611eb36000830186611e07565b8181036020830152611ec58185611e65565b90508181036040830152611ed98184611e65565b9050949350505050565b600060208284031215611ef957611ef8611abe565b5b6000611f0784828501611b11565b91505092915050565b600081519050919050565b600082825260208201905092915050565b6000819050602082019050919050565b611f4581611ae8565b82525050565b6000611f578383611f3c565b60208301905092915050565b6000602082019050919050565b6000611f7b82611f10565b611f858185611f1b565b9350611f9083611f2c565b8060005b83811015611fc1578151611fa88882611f4b565b9750611fb383611f63565b925050600181019050611f94565b5085935050505092915050565b600081519050919050565b600082825260208201905092915050565b6000819050602082019050919050565b600082825260208201905092915050565b600061201682611e16565b6120208185611ffa565b9350612030818560208601611e32565b61203981611b30565b840191505092915050565b6000612050838361200b565b905092915050565b6000602082019050919050565b600061207082611fce565b61207a8185611fd9565b93508360208202850161208c85611fea565b8060005b858110156120c857848403895281516120a98582612044565b94506120b483612058565b925060208a01995050600181019050612090565b50829750879550505050505092915050565b600060a08201905081810360008301526120f48188611f70565b905081810360208301526121088187611f70565b9050818103604083015261211c8186612065565b905081810360608301526121308185612065565b905081810360808301526121448184612065565b90509695505050505050565b600060a0820190506121656000830188611e07565b6121726020830187611e07565b81810360408301526121848186611e65565b905081810360608301526121988185611e65565b905081810360808301526121ac8184611e65565b90509695505050505050565b600060408201905081810360008301526121d28185612065565b905081810360208301526121e68184612065565b90509392505050565b60008060006060848603121561220857612207611abe565b5b600061221686828701611b11565b935050602084013567ffffffffffffffff81111561223757612236611ac3565b5b61224386828701611c3e565b925050604084013567ffffffffffffffff81111561226457612263611ac3565b5b61227086828701611c3e565b9150509250925092565b600060608201905061228f6000830186611e07565b61229c6020830185611e07565b81810360408301526122ae8184611e65565b9050949350505050565b600080604083850312156122cf576122ce611abe565b5b60006122dd85828601611b11565b92505060206122ee85828601611b11565b9150509250929050565b7f4e487b7100000000000000000000000000000000000000000000000000000000600052603260045260246000fd5b7f4e487b7100000000000000000000000000000000000000000000000000000000600052602260045260246000fd5b6000600282049050600182168061236e57607f821691505b60208210810361238157612380612327565b5b50919050565b600081905092915050565b60008190508160005260206000209050919050565b600081546123b481612356565b6123be8186612387565b945060018216600081146123d957600181146123ee57612421565b60ff1983168652811515820286019350612421565b6123f785612392565b60005b83811015612419578154818901526001820191506020810190506123fa565b838801955050505b50505092915050565b600061243682846123a7565b915081905092915050565b60008190508160005260206000209050919050565b60006020601f8301049050919050565b600082821b905092915050565b6000600883026124a37fffffffffffffffffffffffffffffffffffffffffffffffffffffffffffffffff82612466565b6124ad8683612466565b95508019841693508086168417925050509392505050565b6000819050919050565b60006124ea6124e56124e084611d7a565b6124c5565b611d7a565b9050919050565b6000819050919050565b612504836124cf565b612518612510826124f1565b848454612473565b825550505050565b600090565b61252d612520565b6125388184846124fb565b505050565b5b8181101561255c57612551600082612525565b60018101905061253e565b5050565b601f8211156125a15761257281612441565b61257b84612456565b8101602085101561258a578190505b61259e61259685612456565b83018261253d565b50505b505050565b600082821c905092915050565b60006125c4600019846008026125a6565b1980831691505092915050565b60006125dd83836125b3565b9150826002028217905092915050565b6125f682611e16565b67ffffffffffffffff81111561260f5761260e611b41565b5b6126198254612356565b612624828285612560565b600060209050601f8311600181146126575760008415612645578287015190505b61264f85826125d1565b8655506126b7565b601f19841661266586612441565b60005b8281101561268d57848901518255600182019150602085019450602081019050612668565b868310156126aa57848901516126a6601f8916826125b3565b8355505b6001600288020188555050505b505050505050565b7f4e487b7100000000000000000000000000000000000000000000000000000000600052601160045260246000fd5b60006126f982611d7a565b91507fffffffffffffffffffffffffffffffffffffffffffffffffffffffffffffffff820361272b5761272a6126bf565b5b60018201905091905056fea2646970667358221220027f8e4b420c4eeb0cbd6073db42d7faae4eef7a8d47e2fb0a7f8a28b9ed0c5964736f6c634300080f0033",
  "immutableReferences": {},
  "source": "// SPDX-License-Identifier: MIT\r\npragma solidity >=0.4.22 <0.9.0;\r\n\r\n// Import cc contract cn thit  s dng\r\nimport \"./SmartCV_ListStudent.sol\";\r\nimport \"./SmartCV_ListBusiness.sol\";\r\nimport \"./SmartCV_Apply.sol\";\r\n\r\n// CV dnh cho sinh vin\r\ncontract StudentBusiness {\r\n\r\n    // Khai contract  import  s dng cc function  contract \r\n    ListStudent listStudent = new ListStudent();\r\n    ListBusiness listBusiness = new ListBusiness();\r\n    ApplyCV applyCV = new ApplyCV();\r\n\r\n    // ======================================\r\n    // ====== Chc nng cho sinh vin =======\r\n    // ======================================\r\n\r\n    // Chc nng thm thng tin sinh vin (ng k)\r\n    function addStudentProfile (\r\n        address _studentOwner,\r\n        string memory _name,\r\n        string memory _birthDay,\r\n        string memory _professionalTitle,\r\n        string memory _email,\r\n        string memory _github,\r\n        string memory _linkedin,\r\n        string memory _password) public {\r\n            listStudent.addSV(_studentOwner, _name, _birthDay, _professionalTitle, _email, _github, _linkedin, _password);\r\n    }\r\n\r\n    // Chc nng ly thng tin ca sinh vin\r\n    function getStudentProfile(address _studentOwner) public view returns(\r\n        address studentOwner, \r\n        string memory name, \r\n        string memory birthDay, \r\n        string memory professionalTitle, \r\n        string memory email, \r\n        string memory github, \r\n        string memory linkedin,\r\n        string memory password) {\r\n            return listStudent.getProfile(_studentOwner);\r\n    }\r\n\r\n    // Chc nng kim tra ti khon sinh vin c tn ti hay khng? (ng nhp)\r\n    function checkStudentProfile(\r\n        address _studentOwner, \r\n        string memory _password) public view returns(uint x) {\r\n            return listStudent.checkSV(_studentOwner, _password);\r\n    }\r\n\r\n    // Chc nng thm thng tin k nng ca sinh vin\r\n    function addStudentSkill (\r\n        address _studentOwner,\r\n        string memory _title, \r\n        uint _level) public {\r\n            listStudent.addSkill(_studentOwner, _title, _level);\r\n    }\r\n\r\n    // Chc nng kim tra k nng ca sinh vin c tn ti hay khng?\r\n    function checkStudentSkill(\r\n        address _studentOwner, \r\n        string memory _title) public view returns(uint x) {\r\n            return listStudent.checkSkill(_studentOwner, _title);\r\n    }\r\n\r\n    // Chc nng kim tra s lng k nng ca sinh vin\r\n    function checkNumStudentSkill(\r\n        address _studentOwner) public view returns(uint x) {\r\n            uint _count = listStudent.checkNumSkill(_studentOwner);\r\n            if(_count > 10){\r\n                return 1;\r\n            }\r\n    }\r\n\r\n    // Chc nng ly thng tin k nng ca sinh vin\r\n    function getStudentSkill(address _studentOwner) public view returns(\r\n        string[] memory titles,\r\n        uint[] memory levels) {\r\n        return listStudent.getSkill(_studentOwner);\r\n    }\r\n\r\n    // Chc nng ly danh sch doanh nghip\r\n    function getListBusiness() public view returns(\r\n        address[] memory,\r\n        string[] memory,\r\n        string[] memory,\r\n        string[] memory,\r\n        string[] memory,\r\n        string[] memory,\r\n        string[] memory,\r\n        string[] memory) {\r\n        return listBusiness.getListDN();\r\n    }\r\n\r\n    // Chc nng ly thng tin tuyn dng ca doanh nghip\r\n    function getRecruit(address _businessOwner) public view returns(\r\n        string[] memory,\r\n        string[] memory) {\r\n        return applyCV.getRecruit(_businessOwner);\r\n    }\r\n\r\n    // Chc nng gi CV ti doanh nghip\r\n    function sendCV(\r\n        address _studentOwner, \r\n        address _businessOwner, \r\n        string memory _jobTitle, \r\n        string memory _coverLetter) public {\r\n            applyCV.addCV(_studentOwner, _businessOwner, _jobTitle, _coverLetter);\r\n    }\r\n\r\n    // Chc nng kim tra sinh vin  np CV cha?\r\n    function checkCV(\r\n        address _studentOwner, \r\n        address _businessOwner, \r\n        string memory _jobTitle) public view returns(uint x) {\r\n            return applyCV.checkCV(_studentOwner, _businessOwner, _jobTitle);\r\n    }\r\n\r\n    // Chc nng xem nh gi thc tp ca doanh nghip\r\n    function getReview(\r\n        address _studentOwner, \r\n        address _businessOwner) public view returns(\r\n            address studentOwner, \r\n            address businessOwner, \r\n            string memory content) {\r\n                return applyCV.getReview(_studentOwner, _businessOwner);\r\n    }\r\n\r\n    // ======================================\r\n    // ===== Chc nng cho doanh nghip =====\r\n    // ======================================\r\n\r\n    // Chc nng thm thng tin doanh nghip (ng k)\r\n    function addBusinessProfile (\r\n        address _businessOwner,\r\n        string memory _name,\r\n        string memory _country,\r\n        string memory _facebook,\r\n        string memory _website,\r\n        string memory _linkedin,\r\n        string memory _focusArea,\r\n        string memory _password) public {\r\n            listBusiness.addDN(_businessOwner, _name, _country, _facebook, _website, _linkedin, _focusArea, _password);\r\n    }\r\n\r\n    // Chc nng ly thng tin ca doanh nghip\r\n    function getBusinessProfile(address _businessOwner) public view returns(\r\n        address businessOwner, \r\n        string memory name, \r\n        string memory country, \r\n        string memory facebook, \r\n        string memory website, \r\n        string memory linkedin, \r\n        string memory focusArea) {\r\n            return listBusiness.getProfile(_businessOwner);\r\n    }\r\n\r\n    // Chc nng kim tra ti khon doanh nghip c tn ti hay khng? (ng nhp)\r\n    function checkBusinessProfile(\r\n        address _businessOwner, \r\n        string memory _password) public view returns(uint) {\r\n            return listBusiness.checkDN(_businessOwner, _password);\r\n    }\r\n\r\n    // Chc nng ly danh sch CV  np vo doanh nghip\r\n    function getListCV(address _businessOwner) public view returns(\r\n        address[] memory, \r\n        address[] memory, \r\n        string[] memory, \r\n        string[] memory,\r\n        string[] memory) {\r\n            return applyCV.getCV(_businessOwner);\r\n    }\r\n    \r\n    //Chc nng duyt CV vo vng interview\r\n    function interviewCV(\r\n        address _studentOwner, \r\n        address _businessOwner, \r\n        string memory _jobTitle,\r\n        string memory _statusCV) public {\r\n            applyCV.interviewCV(_studentOwner, _businessOwner, _jobTitle, _statusCV);\r\n    }\r\n\r\n    //Chc nng duyt CV vo vng onboard\r\n    function onboardCV(\r\n        address _studentOwner, \r\n        address _businessOwner, \r\n        string memory _jobTitle,\r\n        string memory _statusCV) public {\r\n            applyCV.onboardCV(_studentOwner, _businessOwner, _jobTitle, _statusCV);\r\n    }\r\n\r\n    // Chc nng thm thng tin tuyn dng ca doanh nghip\r\n    function addRecruit(\r\n        address _businessOwner,\r\n        string memory _jobTitle,\r\n        string memory _jobDescription) public {\r\n            applyCV.addRecruit(_businessOwner, _jobTitle, _jobDescription);\r\n    }\r\n\r\n    // Chc nng nh gi thc tp cho sinh vin\r\n    function sendReview(\r\n        address _studentOwner, \r\n        address _businessOwner, \r\n        string memory _content) public {\r\n            applyCV.addReview(_studentOwner, _businessOwner, _content);\r\n    }\r\n}",
  "sourcePath": "C:\\Users\\ADMIN\\Desktop\\IS_Project\\IS_cv\\contracts\\SmartCV_StudentBusiness.sol",
  "compiler": {
    "name": "solc",
    "version": "0.8.15+commit.e14f2714.Emscripten.clang"
  },
  "schemaVersion": "3.4.7",
  "updatedAt": "2022-07-16T07:51:37.957Z",
  "networkType": "ethereum",
  "devdoc": {
    "kind": "dev",
    "methods": {},
    "version": 1
  },
  "userdoc": {
    "kind": "user",
    "methods": {},
    "version": 1
  }
}