{
  "contractName": "Student",
  "abi": [
    {
      "inputs": [],
      "stateMutability": "nonpayable",
      "type": "constructor"
    },
    {
      "inputs": [],
      "name": "getSender",
      "outputs": [
        {
          "internalType": "address",
          "name": "",
          "type": "address"
        }
      ],
      "stateMutability": "view",
      "type": "function",
      "constant": true
    },
    {
      "inputs": [
        {
          "internalType": "address",
          "name": "_studentOwner",
          "type": "address"
        },
        {
          "internalType": "string",
          "name": "_name",
          "type": "string"
        },
        {
          "internalType": "string",
          "name": "_birthDay",
          "type": "string"
        },
        {
          "internalType": "string",
          "name": "_professionalTitle",
          "type": "string"
        },
        {
          "internalType": "string",
          "name": "_email",
          "type": "string"
        },
        {
          "internalType": "string",
          "name": "_github",
          "type": "string"
        },
        {
          "internalType": "string",
          "name": "_linked",
          "type": "string"
        }
      ],
      "name": "addProfile",
      "outputs": [],
      "stateMutability": "nonpayable",
      "type": "function"
    },
    {
      "inputs": [
        {
          "internalType": "address",
          "name": "_studentOwner",
          "type": "address"
        }
      ],
      "name": "getList",
      "outputs": [
        {
          "internalType": "address[]",
          "name": "",
          "type": "address[]"
        },
        {
          "internalType": "string[]",
          "name": "",
          "type": "string[]"
        },
        {
          "internalType": "string[]",
          "name": "",
          "type": "string[]"
        },
        {
          "internalType": "string[]",
          "name": "",
          "type": "string[]"
        },
        {
          "internalType": "string[]",
          "name": "",
          "type": "string[]"
        },
        {
          "internalType": "string[]",
          "name": "",
          "type": "string[]"
        },
        {
          "internalType": "string[]",
          "name": "",
          "type": "string[]"
        }
      ],
      "stateMutability": "view",
      "type": "function",
      "constant": true
    }
  ],
  "bytecode": "0x6080604052604051610010906100bf565b604051809103906000f08015801561002c573d6000803e3d6000fd5b50600260006101000a81548173ffffffffffffffffffffffffffffffffffffffff021916908373ffffffffffffffffffffffffffffffffffffffff16021790555034801561007957600080fd5b50336000806101000a81548173ffffffffffffffffffffffffffffffffffffffff021916908373ffffffffffffffffffffffffffffffffffffffff1602179055506100cc565b61193f80610dcf83390190565b610cf4806100db6000396000f3fe608060405234801561001057600080fd5b50600436106100415760003560e01c806315a5556e146100465780635e01eb5a14610062578063ef00e37a14610080575b600080fd5b610060600480360381019061005b91906103fe565b6100b6565b005b61006a610158565b6040516100779190610557565b60405180910390f35b61009a60048036038101906100959190610572565b610181565b6040516100ad97969594939291906107a7565b60405180910390f35b600260009054906101000a900473ffffffffffffffffffffffffffffffffffffffff1673ffffffffffffffffffffffffffffffffffffffff1663edb2f66c888888888888886040518863ffffffff1660e01b815260040161011d9796959493929190610891565b600060405180830381600087803b15801561013757600080fd5b505af115801561014b573d6000803e3d6000fd5b5050505050505050505050565b60008060009054906101000a900473ffffffffffffffffffffffffffffffffffffffff16905090565b6060806060806060806060600260009054906101000a900473ffffffffffffffffffffffffffffffffffffffff1673ffffffffffffffffffffffffffffffffffffffff166398947ec4896040518263ffffffff1660e01b81526004016101e79190610557565b600060405180830381865afa158015610204573d6000803e3d6000fd5b505050506040513d6000823e3d601f19601f8201168201806040525081019061022d9190610b58565b9650965096509650965096509650919395979092949650565b6000604051905090565b600080fd5b600080fd5b600073ffffffffffffffffffffffffffffffffffffffff82169050919050565b60006102858261025a565b9050919050565b6102958161027a565b81146102a057600080fd5b50565b6000813590506102b28161028c565b92915050565b600080fd5b600080fd5b6000601f19601f8301169050919050565b7f4e487b7100000000000000000000000000000000000000000000000000000000600052604160045260246000fd5b61030b826102c2565b810181811067ffffffffffffffff8211171561032a576103296102d3565b5b80604052505050565b600061033d610246565b90506103498282610302565b919050565b600067ffffffffffffffff821115610369576103686102d3565b5b610372826102c2565b9050602081019050919050565b82818337600083830152505050565b60006103a161039c8461034e565b610333565b9050828152602081018484840111156103bd576103bc6102bd565b5b6103c884828561037f565b509392505050565b600082601f8301126103e5576103e46102b8565b5b81356103f584826020860161038e565b91505092915050565b600080600080600080600060e0888a03121561041d5761041c610250565b5b600061042b8a828b016102a3565b975050602088013567ffffffffffffffff81111561044c5761044b610255565b5b6104588a828b016103d0565b965050604088013567ffffffffffffffff81111561047957610478610255565b5b6104858a828b016103d0565b955050606088013567ffffffffffffffff8111156104a6576104a5610255565b5b6104b28a828b016103d0565b945050608088013567ffffffffffffffff8111156104d3576104d2610255565b5b6104df8a828b016103d0565b93505060a088013567ffffffffffffffff811115610500576104ff610255565b5b61050c8a828b016103d0565b92505060c088013567ffffffffffffffff81111561052d5761052c610255565b5b6105398a828b016103d0565b91505092959891949750929550565b6105518161027a565b82525050565b600060208201905061056c6000830184610548565b92915050565b60006020828403121561058857610587610250565b5b6000610596848285016102a3565b91505092915050565b600081519050919050565b600082825260208201905092915050565b6000819050602082019050919050565b6105d48161027a565b82525050565b60006105e683836105cb565b60208301905092915050565b6000602082019050919050565b600061060a8261059f565b61061481856105aa565b935061061f836105bb565b8060005b8381101561065057815161063788826105da565b9750610642836105f2565b925050600181019050610623565b5085935050505092915050565b600081519050919050565b600082825260208201905092915050565b6000819050602082019050919050565b600081519050919050565b600082825260208201905092915050565b60005b838110156106c35780820151818401526020810190506106a8565b838111156106d2576000848401525b50505050565b60006106e382610689565b6106ed8185610694565b93506106fd8185602086016106a5565b610706816102c2565b840191505092915050565b600061071d83836106d8565b905092915050565b6000602082019050919050565b600061073d8261065d565b6107478185610668565b93508360208202850161075985610679565b8060005b8581101561079557848403895281516107768582610711565b945061078183610725565b925060208a0199505060018101905061075d565b50829750879550505050505092915050565b600060e08201905081810360008301526107c1818a6105ff565b905081810360208301526107d58189610732565b905081810360408301526107e98188610732565b905081810360608301526107fd8187610732565b905081810360808301526108118186610732565b905081810360a08301526108258185610732565b905081810360c08301526108398184610732565b905098975050505050505050565b600082825260208201905092915050565b600061086382610689565b61086d8185610847565b935061087d8185602086016106a5565b610886816102c2565b840191505092915050565b600060e0820190506108a6600083018a610548565b81810360208301526108b88189610858565b905081810360408301526108cc8188610858565b905081810360608301526108e08187610858565b905081810360808301526108f48186610858565b905081810360a08301526109088185610858565b905081810360c083015261091c8184610858565b905098975050505050505050565b600067ffffffffffffffff821115610945576109446102d3565b5b602082029050602081019050919050565b600080fd5b60008151905061096a8161028c565b92915050565b600061098361097e8461092a565b610333565b905080838252602082019050602084028301858111156109a6576109a5610956565b5b835b818110156109cf57806109bb888261095b565b8452602084019350506020810190506109a8565b5050509392505050565b600082601f8301126109ee576109ed6102b8565b5b81516109fe848260208601610970565b91505092915050565b600067ffffffffffffffff821115610a2257610a216102d3565b5b602082029050602081019050919050565b6000610a46610a418461034e565b610333565b905082815260208101848484011115610a6257610a616102bd565b5b610a6d8482856106a5565b509392505050565b600082601f830112610a8a57610a896102b8565b5b8151610a9a848260208601610a33565b91505092915050565b6000610ab6610ab184610a07565b610333565b90508083825260208201905060208402830185811115610ad957610ad8610956565b5b835b81811015610b2057805167ffffffffffffffff811115610afe57610afd6102b8565b5b808601610b0b8982610a75565b85526020850194505050602081019050610adb565b5050509392505050565b600082601f830112610b3f57610b3e6102b8565b5b8151610b4f848260208601610aa3565b91505092915050565b600080600080600080600060e0888a031215610b7757610b76610250565b5b600088015167ffffffffffffffff811115610b9557610b94610255565b5b610ba18a828b016109d9565b975050602088015167ffffffffffffffff811115610bc257610bc1610255565b5b610bce8a828b01610b2a565b965050604088015167ffffffffffffffff811115610bef57610bee610255565b5b610bfb8a828b01610b2a565b955050606088015167ffffffffffffffff811115610c1c57610c1b610255565b5b610c288a828b01610b2a565b945050608088015167ffffffffffffffff811115610c4957610c48610255565b5b610c558a828b01610b2a565b93505060a088015167ffffffffffffffff811115610c7657610c75610255565b5b610c828a828b01610b2a565b92505060c088015167ffffffffffffffff811115610ca357610ca2610255565b5b610caf8a828b01610b2a565b9150509295989194975092955056fea26469706673582212202c0984abb02ae6ef3667fcd7c755c562e10051234ee203c4ac64f9800fa2677164736f6c634300080f0033608060405234801561001057600080fd5b5061191f806100206000396000f3fe608060405234801561001057600080fd5b50600436106100415760003560e01c8063670471071461004657806398947ec41461007c578063edb2f66c146100b2575b600080fd5b610060600480360381019061005b9190610e83565b6100ce565b6040516100739796959493929190610f8a565b60405180910390f35b6100966004803603810190610091919061104f565b610470565b6040516100a99796959493929190611246565b60405180910390f35b6100cc60048036038101906100c7919061141b565b610cef565b005b600081815481106100de57600080fd5b90600052602060002090600702016000915090508060000160009054906101000a900473ffffffffffffffffffffffffffffffffffffffff169080600101805461012790611594565b80601f016020809104026020016040519081016040528092919081815260200182805461015390611594565b80156101a05780601f10610175576101008083540402835291602001916101a0565b820191906000526020600020905b81548152906001019060200180831161018357829003601f168201915b5050505050908060020180546101b590611594565b80601f01602080910402602001604051908101604052809291908181526020018280546101e190611594565b801561022e5780601f106102035761010080835404028352916020019161022e565b820191906000526020600020905b81548152906001019060200180831161021157829003601f168201915b50505050509080600301805461024390611594565b80601f016020809104026020016040519081016040528092919081815260200182805461026f90611594565b80156102bc5780601f10610291576101008083540402835291602001916102bc565b820191906000526020600020905b81548152906001019060200180831161029f57829003601f168201915b5050505050908060040180546102d190611594565b80601f01602080910402602001604051908101604052809291908181526020018280546102fd90611594565b801561034a5780601f1061031f5761010080835404028352916020019161034a565b820191906000526020600020905b81548152906001019060200180831161032d57829003601f168201915b50505050509080600501805461035f90611594565b80601f016020809104026020016040519081016040528092919081815260200182805461038b90611594565b80156103d85780601f106103ad576101008083540402835291602001916103d8565b820191906000526020600020905b8154815290600101906020018083116103bb57829003601f168201915b5050505050908060060180546103ed90611594565b80601f016020809104026020016040519081016040528092919081815260200182805461041990611594565b80156104665780601f1061043b57610100808354040283529160200191610466565b820191906000526020600020905b81548152906001019060200180831161044957829003601f168201915b5050505050905087565b60608060608060608060606000808054905067ffffffffffffffff81111561049b5761049a6112f0565b5b6040519080825280602002602001820160405280156104c95781602001602082028036833780820191505090505b5090506000808054905067ffffffffffffffff8111156104ec576104eb6112f0565b5b60405190808252806020026020018201604052801561051f57816020015b606081526020019060019003908161050a5790505b5090506000808054905067ffffffffffffffff811115610542576105416112f0565b5b60405190808252806020026020018201604052801561057557816020015b60608152602001906001900390816105605790505b5090506000808054905067ffffffffffffffff811115610598576105976112f0565b5b6040519080825280602002602001820160405280156105cb57816020015b60608152602001906001900390816105b65790505b5090506000808054905067ffffffffffffffff8111156105ee576105ed6112f0565b5b60405190808252806020026020018201604052801561062157816020015b606081526020019060019003908161060c5790505b5090506000808054905067ffffffffffffffff811115610644576106436112f0565b5b60405190808252806020026020018201604052801561067757816020015b60608152602001906001900390816106625790505b5090506000808054905067ffffffffffffffff81111561069a576106996112f0565b5b6040519080825280602002602001820160405280156106cd57816020015b60608152602001906001900390816106b85790505b50905060005b600080549050811015610cc7578f73ffffffffffffffffffffffffffffffffffffffff166000828154811061070b5761070a6115c5565b5b906000526020600020906007020160000160009054906101000a900473ffffffffffffffffffffffffffffffffffffffff1673ffffffffffffffffffffffffffffffffffffffff1603610cb4576000818154811061076c5761076b6115c5565b5b906000526020600020906007020160000160009054906101000a900473ffffffffffffffffffffffffffffffffffffffff168882815181106107b1576107b06115c5565b5b602002602001019073ffffffffffffffffffffffffffffffffffffffff16908173ffffffffffffffffffffffffffffffffffffffff1681525050600081815481106107ff576107fe6115c5565b5b9060005260206000209060070201600101805461081b90611594565b80601f016020809104026020016040519081016040528092919081815260200182805461084790611594565b80156108945780601f1061086957610100808354040283529160200191610894565b820191906000526020600020905b81548152906001019060200180831161087757829003601f168201915b50505050508782815181106108ac576108ab6115c5565b5b6020026020010181905250600081815481106108cb576108ca6115c5565b5b906000526020600020906007020160020180546108e790611594565b80601f016020809104026020016040519081016040528092919081815260200182805461091390611594565b80156109605780601f1061093557610100808354040283529160200191610960565b820191906000526020600020905b81548152906001019060200180831161094357829003601f168201915b5050505050868281518110610978576109776115c5565b5b602002602001018190525060008181548110610997576109966115c5565b5b906000526020600020906007020160030180546109b390611594565b80601f01602080910402602001604051908101604052809291908181526020018280546109df90611594565b8015610a2c5780601f10610a0157610100808354040283529160200191610a2c565b820191906000526020600020905b815481529060010190602001808311610a0f57829003601f168201915b5050505050858281518110610a4457610a436115c5565b5b602002602001018190525060008181548110610a6357610a626115c5565b5b90600052602060002090600702016004018054610a7f90611594565b80601f0160208091040260200160405190810160405280929190818152602001828054610aab90611594565b8015610af85780601f10610acd57610100808354040283529160200191610af8565b820191906000526020600020905b815481529060010190602001808311610adb57829003601f168201915b5050505050848281518110610b1057610b0f6115c5565b5b602002602001018190525060008181548110610b2f57610b2e6115c5565b5b90600052602060002090600702016005018054610b4b90611594565b80601f0160208091040260200160405190810160405280929190818152602001828054610b7790611594565b8015610bc45780601f10610b9957610100808354040283529160200191610bc4565b820191906000526020600020905b815481529060010190602001808311610ba757829003601f168201915b5050505050838281518110610bdc57610bdb6115c5565b5b602002602001018190525060008181548110610bfb57610bfa6115c5565b5b90600052602060002090600702016006018054610c1790611594565b80601f0160208091040260200160405190810160405280929190818152602001828054610c4390611594565b8015610c905780601f10610c6557610100808354040283529160200191610c90565b820191906000526020600020905b815481529060010190602001808311610c7357829003601f168201915b5050505050828281518110610ca857610ca76115c5565b5b60200260200101819052505b8080610cbf90611623565b9150506106d3565b50868686868686869d509d509d509d509d509d509d5050505050505050919395979092949650565b60006040518060e001604052808973ffffffffffffffffffffffffffffffffffffffff16815260200188815260200187815260200186815260200185815260200184815260200183815250908060018154018082558091505060019003906000526020600020906007020160009091909190915060008201518160000160006101000a81548173ffffffffffffffffffffffffffffffffffffffff021916908373ffffffffffffffffffffffffffffffffffffffff1602179055506020820151816001019081610dbf9190611817565b506040820151816002019081610dd59190611817565b506060820151816003019081610deb9190611817565b506080820151816004019081610e019190611817565b5060a0820151816005019081610e179190611817565b5060c0820151816006019081610e2d9190611817565b50505050505050505050565b6000604051905090565b600080fd5b600080fd5b6000819050919050565b610e6081610e4d565b8114610e6b57600080fd5b50565b600081359050610e7d81610e57565b92915050565b600060208284031215610e9957610e98610e43565b5b6000610ea784828501610e6e565b91505092915050565b600073ffffffffffffffffffffffffffffffffffffffff82169050919050565b6000610edb82610eb0565b9050919050565b610eeb81610ed0565b82525050565b600081519050919050565b600082825260208201905092915050565b60005b83811015610f2b578082015181840152602081019050610f10565b83811115610f3a576000848401525b50505050565b6000601f19601f8301169050919050565b6000610f5c82610ef1565b610f668185610efc565b9350610f76818560208601610f0d565b610f7f81610f40565b840191505092915050565b600060e082019050610f9f600083018a610ee2565b8181036020830152610fb18189610f51565b90508181036040830152610fc58188610f51565b90508181036060830152610fd98187610f51565b90508181036080830152610fed8186610f51565b905081810360a08301526110018185610f51565b905081810360c08301526110158184610f51565b905098975050505050505050565b61102c81610ed0565b811461103757600080fd5b50565b60008135905061104981611023565b92915050565b60006020828403121561106557611064610e43565b5b60006110738482850161103a565b91505092915050565b600081519050919050565b600082825260208201905092915050565b6000819050602082019050919050565b6110b181610ed0565b82525050565b60006110c383836110a8565b60208301905092915050565b6000602082019050919050565b60006110e78261107c565b6110f18185611087565b93506110fc83611098565b8060005b8381101561112d57815161111488826110b7565b975061111f836110cf565b925050600181019050611100565b5085935050505092915050565b600081519050919050565b600082825260208201905092915050565b6000819050602082019050919050565b600082825260208201905092915050565b600061118282610ef1565b61118c8185611166565b935061119c818560208601610f0d565b6111a581610f40565b840191505092915050565b60006111bc8383611177565b905092915050565b6000602082019050919050565b60006111dc8261113a565b6111e68185611145565b9350836020820285016111f885611156565b8060005b85811015611234578484038952815161121585826111b0565b9450611220836111c4565b925060208a019950506001810190506111fc565b50829750879550505050505092915050565b600060e0820190508181036000830152611260818a6110dc565b9050818103602083015261127481896111d1565b9050818103604083015261128881886111d1565b9050818103606083015261129c81876111d1565b905081810360808301526112b081866111d1565b905081810360a08301526112c481856111d1565b905081810360c08301526112d881846111d1565b905098975050505050505050565b600080fd5b600080fd5b7f4e487b7100000000000000000000000000000000000000000000000000000000600052604160045260246000fd5b61132882610f40565b810181811067ffffffffffffffff82111715611347576113466112f0565b5b80604052505050565b600061135a610e39565b9050611366828261131f565b919050565b600067ffffffffffffffff821115611386576113856112f0565b5b61138f82610f40565b9050602081019050919050565b82818337600083830152505050565b60006113be6113b98461136b565b611350565b9050828152602081018484840111156113da576113d96112eb565b5b6113e584828561139c565b509392505050565b600082601f830112611402576114016112e6565b5b81356114128482602086016113ab565b91505092915050565b600080600080600080600060e0888a03121561143a57611439610e43565b5b60006114488a828b0161103a565b975050602088013567ffffffffffffffff81111561146957611468610e48565b5b6114758a828b016113ed565b965050604088013567ffffffffffffffff81111561149657611495610e48565b5b6114a28a828b016113ed565b955050606088013567ffffffffffffffff8111156114c3576114c2610e48565b5b6114cf8a828b016113ed565b945050608088013567ffffffffffffffff8111156114f0576114ef610e48565b5b6114fc8a828b016113ed565b93505060a088013567ffffffffffffffff81111561151d5761151c610e48565b5b6115298a828b016113ed565b92505060c088013567ffffffffffffffff81111561154a57611549610e48565b5b6115568a828b016113ed565b91505092959891949750929550565b7f4e487b7100000000000000000000000000000000000000000000000000000000600052602260045260246000fd5b600060028204905060018216806115ac57607f821691505b6020821081036115bf576115be611565565b5b50919050565b7f4e487b7100000000000000000000000000000000000000000000000000000000600052603260045260246000fd5b7f4e487b7100000000000000000000000000000000000000000000000000000000600052601160045260246000fd5b600061162e82610e4d565b91507fffffffffffffffffffffffffffffffffffffffffffffffffffffffffffffffff82036116605761165f6115f4565b5b600182019050919050565b60008190508160005260206000209050919050565b60006020601f8301049050919050565b600082821b905092915050565b6000600883026116cd7fffffffffffffffffffffffffffffffffffffffffffffffffffffffffffffffff82611690565b6116d78683611690565b95508019841693508086168417925050509392505050565b6000819050919050565b600061171461170f61170a84610e4d565b6116ef565b610e4d565b9050919050565b6000819050919050565b61172e836116f9565b61174261173a8261171b565b84845461169d565b825550505050565b600090565b61175761174a565b611762818484611725565b505050565b5b818110156117865761177b60008261174f565b600181019050611768565b5050565b601f8211156117cb5761179c8161166b565b6117a584611680565b810160208510156117b4578190505b6117c86117c085611680565b830182611767565b50505b505050565b600082821c905092915050565b60006117ee600019846008026117d0565b1980831691505092915050565b600061180783836117dd565b9150826002028217905092915050565b61182082610ef1565b67ffffffffffffffff811115611839576118386112f0565b5b6118438254611594565b61184e82828561178a565b600060209050601f831160018114611881576000841561186f578287015190505b61187985826117fb565b8655506118e1565b601f19841661188f8661166b565b60005b828110156118b757848901518255600182019150602085019450602081019050611892565b868310156118d457848901516118d0601f8916826117dd565b8355505b6001600288020188555050505b50505050505056fea26469706673582212200df569b54fbf65aa8170e7564d052e5c0fafe5a918a4dea807cbeb2f85b3ff3f64736f6c634300080f0033",
  "immutableReferences": {},
  "source": "// SPDX-License-Identifier: MIT\npragma solidity >=0.4.22 <0.9.0;\n\nimport \"./SmartCV_ListStudent.sol\";\n\n//CV dnh cho sinh vin\ncontract Student {\n\n    //Khai bo bin a ch ngi dng\n    address owner;\n\n    // Khai bo bin s d ca ngi dng\n    mapping(address=>uint) balances;\n\n    //Khai contract  import  s dng cc function  contract \n    ListStudent liststudent = new ListStudent();\n    // applyCV applycv = new applyCV();\n    // Business business = new Business();\n\n    // Gn a ch cho ngi dng\n    constructor () public {\n        owner =  msg.sender;\n    }\n\n    // Kim tra a ch ngi dng\n    function getSender() public view returns (address){\n        return owner;\n    }\n\n    // ======================================\n    // ======= Profile Functions ============\n    // ======================================\n\n    // Thm thng tin ngi dng (ng k)\n    function addProfile (\n        address _studentOwner,\n        string memory _name,\n        string memory _birthDay,\n        string memory _professionalTitle,\n        string memory _email,\n        string memory _github,\n        string memory _linked) public {\n            liststudent.addSV(_studentOwner, _name, _birthDay, _professionalTitle, _email, _github, _linked);\n    }\n\n    function getList(address _studentOwner) public view returns(address[] memory, string[] memory, string[] memory, string[] memory, string[] memory, string[] memory, string[] memory)  {\n        return liststudent.getListSV(_studentOwner);\n    }\n\n    \n\n    // Chnh sa thng tin ngi dng\n    // function editProfile (\n    //     address _owner,\n    //     string name,\n    //     string birthDay,\n    //     string professionalTitle,\n    //     string email,\n    //     string github,\n    //     string linkedin) public payable valueEdit() {\n    //         for(uint i=0; i<profiles.length;i++) {\n    //             if(profiles[i]._owner == _owner){\n    //                 profiles[i]._name = name;\n    //                 profiles[i]._birthDay = birthDay;\n    //                 profiles[i]._professionalTitle = professionalTitle;\n    //                 profiles[i]._email = email;\n    //                 profiles[i]._github = github; \n    //                 profiles[i]._linkedin = linkedin;\n    //                 balances[msg.sender] -= 10;\n    //             } \n    //         } \n    //     }\n\n    // Ly thng tin ngi dng\n    // function getProfile(address _studentOwner) public view returns(string memory Name, string memory Birthday, string memory ProfessionalTitle, string memory Email, string memory Github, string memory Linkedin) {\n    //     for(uint i=0; i<profiles.length;i++){\n    //         if(profiles[i].studentOwner == _studentOwner) {\n    //             return (profiles[i].name, \n    //             profiles[i].birthDay, \n    //             profiles[i].professionalTitle, \n    //             profiles[i].email, \n    //             profiles[i].github, \n    //             profiles[i].linkedin);\n    //         } \n    //     }  \n    // }\n\n    // Kim tra ti khon ngi dng c tn ti hay khng? (ng nhp)\n    // function checkProfile(address _owner) public view returns(uint) {\n    //     for(uint i=0; i<profiles.length;i++){\n    //         if(profiles[i]._owner == _owner){\n    //             return 1;\n    //         } else {\n    //             return 0;\n    //         }\n    //     }  \n    // }\n}\n\n",
  "sourcePath": "C:\\Users\\ADMIN\\Desktop\\New folder\\IS_cv\\contracts\\SmartCV_Student.sol",
  "compiler": {
    "name": "solc",
    "version": "0.8.15+commit.e14f2714.Emscripten.clang"
  },
  "schemaVersion": "3.4.7",
  "updatedAt": "2022-06-24T04:57:59.882Z",
  "networkType": "ethereum",
  "devdoc": {
    "kind": "dev",
    "methods": {},
    "version": 1
  },
  "userdoc": {
    "kind": "user",
    "methods": {},
    "version": 1
  }
}